:020000040800F2
:1000000000000220A5AE010881AB010885AB010804
:10001000A1AB0108A3AB0108A5AB010800000000DB
:10002000000000000000000000000000417902080C
:10003000A7AB010800000000D1790208357A020858
:10004000F5AE0108F5AE0108F5AE0108F5AE010800
:10005000F5AE0108F5AE0108F5AE0108F5AE0108F0
:10006000F5AE0108F5AE0108F5AE0108F5AE0108E0
:10007000F5AE010869330108F5AE010875330108D2
:10008000F5AE0108F5AE0108F5AE0108F5AE0108C0
:10009000F5AE0108F5AE0108F5AE0108F5AE0108B0
:1000A000B58D0208F5AE0108F5AE0108F5AE010800
:1000B000F5AE0108F5AE0108F5AE0108F5AE010890
:1000C000F5AE0108F5AE0108F5AE0108F5AE010880
:1000D000F5AE0108F5AE0108BD9B0208F5AE0108BA
:1000E000F5AE0108F5AE0108F5AE0108F5AE010860
:1000F000F5AE0108F5AE0108F5AE0108F5AE010850
:10010000F5AE0108F5AE01085D330108F5AE010852
:10011000F5AE0108F5AE0108A9AB0108F5AE01087E
:10012000F5AE0108F5AE0108F5AE0108F5AE01081F
:10013000F5AE01080000000000000000F5AE010867
:10014000F5AE0108F5AE0108F5AE0108B5AB010842
:10015000F5AE0108F5AE0108F5AE0108F5AE0108EF
:10016000F5AE0108F5AE0108F5AE0108F5AE0108DF
:10017000F5AE0108F5AE0108F5AE0108000000007B
:1001800000000000F5AE01080000000000000000C3
:10019000F5AE01080000000000000000F5AE010807
:1001A000000000000000000000000000F5AE0108A3
:1001B000F5AE0108F5AE0108F5AE0108F5AE01088F
:0401C000F5AE01088F
:020000040801F1
:1000000010F8012B11F8013B012A28BF9A42F7D0C2
:10001000D01A70470000000000000000000000003F
:1000200001F0FF01102A2BDB10F0070F08D010F8A9
:10003000013B013A8B422DD010F0070F42B3F6D1AD
:10004000F0B441EA012141EA014122F007047FF0C6
:1000500000070023F0E80256083C85EA010586EA1D
:10006000010685FA47F5A3FA87F586FA47F6A5FA59
:1000700087F68EB9EED1F0BC01F0FF0102F0070265
:1000800032B110F8013B013A83EA010313B1F8D110
:100090000020704701387047002D06BF35460338F1
:1000A000073815F0010F07D1013015F4807F02BF2A
:1000B000013015F4C03F0130F0BC0138704700BF7B
:1000C000034613F8012B002AFBD1181A0138704798
:1000D00081F0004102E000BF83F0004330B54FEAF9
:1000E00041044FEA430594EA050F08BF90EA020F66
:1000F0001FBF54EA000C55EA020C7FEA645C7FEAF9
:10010000655C00F0E2804FEA5454D4EB5555B8BF1B
:100110006D420CDD2C4480EA020281EA030382EA8C
:10012000000083EA010180EA020281EA0303362D1E
:1001300088BF30BD11F0004F4FEA01314FF4801CF1
:100140004CEA113102D0404261EB410113F0004F03
:100150004FEA03334CEA133302D0524263EB4303BA
:1001600094EA050F00F0A780A4F10104D5F1200E58
:100170000DDB02FA0EFC22FA05F2801841F10001B3
:1001800003FA0EF2801843FA05F359410EE0A5F187
:1001900020050EF1200E012A03FA0EFC28BF4CF0B8
:1001A000020C43FA05F3C01851EBE37101F000456E
:1001B00007D54FF0000EDCF1000C7EEB00006EEB7B
:1001C0000101B1F5801F1BD3B1F5001F0CD3490805
:1001D0005FEA30004FEA3C0C04F101044FEA44525C
:1001E00012F5800F80F09A80BCF1004F08BF5FEAE3
:1001F000500C50F1000041EB045141EA050130BDC3
:100200005FEA4C0C404141EB0101013C28BFB1F5D4
:10021000801FE9D291F0000F04BF01460020B1FA1F
:1002200081F308BF2033A3F10B03B3F120020CDAF2
:100230000C3208DD02F1140CC2F10C0201FA0CF0D0
:1002400021FA02F10CE002F11402D8BFC2F1200C35
:1002500001FA02F120FA0CFCDCBF41EA0C019040EB
:10026000E41AA2BF01EB0451294330BD6FEA040434
:100270001F3C1CDA0C340EDC04F11404C4F120021F
:1002800020FA04F001FA02F340EA030021FA04F331
:1002900045EA030130BDC4F10C04C4F1200220FA88
:1002A00002F001FA04F340EA0300294630BD21FAC6
:1002B00004F0294630BD94F0000F83F4801306BF8C
:1002C00081F480110134013D4EE77FEA645C18BF80
:1002D0007FEA655C29D094EA050F08BF90EA020F17
:1002E00005D054EA000C04BF1946104630BD91EA0F
:1002F000030F1EBF0021002030BD5FEA545C05D112
:100300004000494128BF41F0004130BD14F5800450
:100310003CBF01F5801130BD01F0004545F0FE41C4
:1003200041F470014FF0000030BD7FEA645C1ABFF9
:10033000194610467FEA655C1CBF0B46024650EA30
:10034000013406BF52EA033591EA030F41F400215C
:1003500030BD00BF90F0000F04BF0021704730B5E2
:100360004FF4806404F132044FF000054FF00001B7
:1003700050E700BF90F0000F04BF0021704730B578
:100380004FF4806404F1320410F0004548BF40424D
:100390004FF000013EE700BF42004FEAE2014FEAA2
:1003A00031014FEA02701FBF12F07F4393F07F4F7D
:1003B00081F06051704732F07F4208BF704793F080
:1003C0007F4F04BF41F40021704730B54FF4607493
:1003D00001F0004521F000411CE700BF50EA010296
:1003E00008BF704730B54FF000050AE050EA01023F
:1003F00008BF704730B511F0004502D5404261EBAF
:1004000041014FF4806404F132045FEA915C3FF4EF
:10041000D8AE4FF003025FEADC0C18BF03325FEA8C
:10042000DC0C18BF033202EBDC02C2F1200300FA3D
:1004300003FC20FA02F001FA03FE40EA0E0021FA62
:1004400002F11444BDE600BF70B54FF0FF0C4CF450
:10045000E06C1CEA11541DBF1CEA135594EA0C0F02
:1004600095EA0C0F00F0DEF82C4481EA030621EA3D
:100470004C5123EA4C5350EA013518BF52EA033578
:1004800041F4801143F4801338D0A0FB02CE4FF02A
:100490000005E1FB02E506F00042E0FB03E54FF05A
:1004A0000006E1FB03569CF0000F18BF4EF0010E52
:1004B000A4F1FF04B6F5007F64F5407404D25FEA4E
:1004C0004E0E6D4146EB060642EAC62141EA555101
:1004D0004FEAC52040EA5E504FEACE2EB4F1FD0C43
:1004E00088BFBCF5E06F1ED8BEF1004F08BF5FEAC1
:1004F000500E50F1000041EB045170BD06F0004673
:1005000046EA010140EA020081EA0301B4EB5C041F
:10051000C2BFD4EB0C0541EA045170BD41F4801117
:100520004FF0000E013C00F3AB8014F1360FDEBF3C
:10053000002001F0004170BDC4F10004203C35DA18
:100540000C341BDC04F11404C4F1200500FA05F39B
:1005500020FA04F001FA05F240EA020001F000423C
:1005600021F0004110EBD37021FA04F642EB0601B2
:100570005EEA430E08BF20EAD37070BDC4F10C04DC
:10058000C4F1200500FA04F320FA05F001FA04F2A0
:1005900040EA020001F0004110EBD37041F100018C
:1005A0005EEA430E08BF20EAD37070BDC4F1200597
:1005B00000FA05F24EEA020E20FA04F301FA05F2FF
:1005C00043EA020321FA04F001F0004121FA04F2A7
:1005D00020EA020000EBD3705EEA430E08BF20EA77
:1005E000D37070BD94F0000F0FD101F000464000B1
:1005F00041EB010111F4801F08BF013CF7D041EA33
:10060000060195F0000F18BF704703F00046520036
:1006100043EB030313F4801F08BF013DF7D043EA07
:100620000603704794EA0C0F0CEA135518BF95EABD
:100630000C0F0CD050EA410618BF52EA4306D1D144
:1006400081EA030101F000414FF0000070BD50EA63
:10065000410606BF1046194652EA430619D094EAED
:100660000C0F02D150EA013613D195EA0C0F05D1D7
:1006700052EA03361CBF104619460AD181EA03012B
:1006800001F0004141F0FE4141F470014FF00000E3
:1006900070BD41F0FE4141F4780170BD70B54FF07E
:1006A000FF0C4CF4E06C1CEA11541DBF1CEA1355FE
:1006B00094EA0C0F95EA0C0F00F0A7F8A4EB0504E0
:1006C00081EA030E52EA03354FEA013100F08880D7
:1006D0004FEA03334FF0805545EA131343EA1263A0
:1006E0004FEA022245EA111545EA10654FEA002655
:1006F0000EF000419D4208BF964244F1FD0404F50E
:10070000407402D25B084FEA3202B61A65EB030569
:100710005B084FEA32024FF480104FF4002CB6EB26
:10072000020E75EB030E22BFB61A754640EA0C00A6
:100730005B084FEA3202B6EB020E75EB030E22BFE6
:10074000B61A754640EA5C005B084FEA3202B6EB27
:10075000020E75EB030E22BFB61A754640EA9C00E6
:100760005B084FEA3202B6EB020E75EB030E22BFB6
:10077000B61A754640EADC0055EA060E18D04FEA74
:10078000051545EA16754FEA06164FEAC30343EA14
:1007900052734FEAC2025FEA1C1CC0D111F4801FE1
:1007A0000BD141EA00014FF000004FF0004CB6E7DA
:1007B00011F4801F04BF01430020B4F1FD0C88BF79
:1007C000BCF5E06F3FF6AFAEB5EB030C04BFB6EB84
:1007D000020C5FEA500C50F1000041EB045170BD77
:1007E0000EF0004E4EEA113114EB5C04C2BFD4EBA4
:1007F0000C0541EA045170BD41F480114FF0000E28
:10080000013C90E645EA060E8DE60CEA135594EAA3
:100810000C0F08BF95EA0C0F3FF43BAF94EA0C0FA6
:100820000AD150EA01347FF434AF95EA0C0F7FF41B
:1008300025AF104619462CE795EA0C0F06D152EA6F
:1008400003353FF4FDAE1046194622E750EA410653
:1008500018BF52EA43067FF4C5AE50EA41047FF464
:100860000DAF52EA43057FF4EBAE12E74FF0FF3CC9
:1008700006E000BF4FF0010C02E000BF4FF0010C9A
:100880004DF804CD4FEA410C7FEA6C5C4FEA430C13
:1008900018BF7FEA6C5C1BD001B050EA410C0CBF62
:1008A00052EA430C91EA030F02BF90EA020F0020C4
:1008B000704710F1000F91EA030F58BF994208BF2B
:1008C00090422CBFD8176FEAE37040F001007047E8
:1008D0004FEA410C7FEA6C5C02D150EA013C07D13F
:1008E0004FEA430C7FEA6C5CD6D152EA033CD3D08A
:1008F0005DF8040B704700BF8446104662468C4684
:100900001946634600E000BF01B5FFF7B7FF0028B6
:1009100048BF10F1000F01BD4DF808EDFFF7F4FFDF
:100920000CBF012000205DF808FB00BF4DF808ED6A
:10093000FFF7EAFF34BF012000205DF808FB00BF8D
:100940004DF808EDFFF7E0FF94BF012000205DF8AF
:1009500008FB00BF4DF808EDFFF7CEFF94BF012064
:1009600000205DF808FB00BF4DF808EDFFF7C4FF5D
:1009700034BF012000205DF808FB00BF4FEA410CA6
:100980007FEA6C5C02D150EA013C0AD14FEA430C89
:100990007FEA6C5C02D152EA033C02D14FF00000C6
:1009A00070474FF0010070474FEA410212F5001204
:1009B00015D211D56FF47873B3EB625212D94FEAA6
:1009C000C12343F0004343EA505311F0004F23FA90
:1009D00002F018BF404270474FF00000704750EAE5
:1009E000013005D111F0004008BF6FF000407047A2
:1009F0004FF00000704700BF4A0011D212F50012FC
:100A000011D20DD56FF47873B3EB62520ED44FEA66
:100A1000C12343F0004343EA505323FA02F07047E6
:100A20004FF00000704750EA013002D14FF0FF3024
:100A300070474FF0000070474FEA4102B2F1E043C7
:100A400024BFB3F5001CDCF1FE5C0DD901F0004CB5
:100A50004FEAC0024CEA5070B2F1004F40EB830005
:100A600008BF20F00100704711F0804F21D113F131
:100A70003872BCBF01F00040704741F480114FEA6A
:100A80005252C2F11802C2F1200C10FA0CF320FAF3
:100A900002F018BF40F001004FEAC1234FEAD32310
:100AA00003FA0CFC40EA0C0023FA02F34FEA43037A
:100AB000CCE77FEA625307D150EA01331EBF4FF003
:100AC000FE4040F44000704701F0004040F0FE401E
:100AD00040F40000704700BF7BB972B90029BEBF67
:100AE00000204FF0004106E008BF00281CBF6FF057
:100AF00000414FF0FF3000F057B8ADF1080C6DE940
:100B000004CE002909DB002B1ADB31F0D7FEDDF81B
:100B100004E0DDE9022304B07047404261EB41018B
:100B2000002B1BDB31F0CAFEDDF804E0DDE9022317
:100B300004B0404261EB4101524263EB4303704712
:100B4000524263EB430331F0B9FEDDF804E0DDE926
:100B5000022304B0404261EB41017047524263EB13
:100B6000430331F0ABFEDDF804E0DDE9022304B01D
:100B7000524263EB4303704753B94AB9002908BF97
:100B800000281CBF4FF0FF314FF0FF3000F00CB8D1
:100B9000ADF1080C6DE904CE31F090FEDDF804E013
:100BA000DDE9022304B07047704700BF0348044BDF
:100BB000834202D0034B03B11847704768030020FB
:100BC00068030020000000000548064B1B1AD90FDF
:100BD00001EBA301491002D0034B03B11847704742
:100BE00068030020680300200000000010B5064CD8
:100BF000237843B9FFF7DAFF044B13B10448AFF38E
:100C000000800123237010BD680300200000000055
:100C1000B42B040808B5054B1BB105490548AFF3D3
:100C20000080BDE80840FFF7CFBF00BF0000000014
:100C30006C030020B42B040870B586B00322002496
:100C4000012301A92B480594CDE901320226CDE903
:100C500003440CF027F801A9264801960CF022F86D
:100C60004FF4805301A9244801934FF480650CF0A0
:100C700019F801A9214801950CF014F84FF48043AC
:100C800001A91E4801930CF00DF801A91B4801961B
:100C90000CF008F8802301A9174801930CF002F822
:100CA000402301A9144801930BF0FCFF01A912484D
:100CB00001950BF0F7FF082301A90F4801930BF0F2
:100CC000F1FF04230DEB03010B4801930BF0EAFF46
:100CD0004FF4007301A9074801930BF0E3FF4FF4B1
:100CE00000630548019301A90BF0DCFF204606B024
:100CF00070BD00BF00000240000802400004024036
:100D000082B000230193064B1A6C42F008021A6469
:100D10001B6C03F008030193019B02B0704700BFF6
:100D200000380240024A136C23F008031364704732
:100D30000038024070B5102694B0374D002432467A
:100D400000210DEB06002EF08AFD21461C220DA885
:100D5000CDE902442EF083FD2146304A284610F0AA
:100D6000D5F92F4A0121284610F0D0F92D4BAE605D
:100D7000C5E900342C23C5E9033428468023AB6140
:100D800012F072FA0446002843D14FF480530DEB61
:100D900006012846049310F073FE0446002838D15B
:100DA000284612F013FB0446002832D1CDE9020098
:100DB00002A9284612F020FD044650BB3023CDE99D
:100DC0000D300F90119002460DA9284610F0B8FA88
:100DD0000446F0B92A689369CDE90A0043F0080394
:100DE0009361114B01901A6B104842F001021A6393
:100DF0001B6B03F001030193019B0122022308A94D
:100E0000CDE908230C930BF04DFF2146284611F045
:100E1000C9FA204614B070BD84030020010D0108FA
:100E2000250D0108000C004000380240000002407F
:100E300008B50021034811F067FB02480FF05EFE81
:100E4000002008BD8403002070B5134E3368D3B171
:100E5000124CB4FBF0F4651E294611482EF05EF9E1
:100E60002046FFF777FA02460B4609A1D1E90001B7
:100E7000FFF714FC02460B460A482EF04FF9336880
:100E80000020DD6270BD0120FCE700BFAFF30080F1
:100E9000000000002A7585418403002040A5AE02B1
:100EA000102D04081C2D040808B502482EF0DAF9AC
:100EB000002008BD272D040808B517F0E5F8014605
:100EC00002482EF02BF9002008BD00BFCF310408E6
:100ED000F7B54FF4F0402BF093FF0446002800F0E4
:100EE0008B81CB482EF0BEF9CA4B1B68DB0340F167
:100EF00070810EF033FA07EE900AF8EE677A17EE7B
:100F0000900AFFF749FABEA3D3E90023FFF7C6FB17
:100F10000246C1480B462EF001F9C049C0482EF0E8
:100F2000FDF8C0482EF09EF917F0AEF814260546DD
:100F30004FF4F042002120462EF091FC013EF7D103
:100F400017F0A2F8401B07EE900AF8EE677A142615
:100F500017EE900AFFF720FAB34B0022FFF79EFB33
:100F600002460B46B1481E212EF0D8F817F08CF837
:100F700004F5705705464FF47052394620462EF05E
:100F800030FE013EF7D117F07FF8401B07EE900AC4
:100F9000F8EE677A142617EE900AFFF7FDF9A24BD8
:100FA0000022FFF77BFB02460B46A1480F212EF0E3
:100FB000B5F817F069F805464FF4705239462046E7
:100FC0002EF024FC013E0190F6D117F05DF8401B95
:100FD00007EE900AF8EE677A142617EE900AFFF7EC
:100FE000DBF9914B0022FFF759FB02460B46914873
:100FF0000F212EF093F890482EF034F917F044F8B2
:1010000005468E494FF4705220462EF0EAFD013E0F
:10101000F7D117F039F8401B07EE900AF8EE677A1F
:10102000142617EE900AFFF7B7F97F4B0022FFF75F
:1010300035FB02460B467E480F212EF06FF817F065
:1010400023F805467D484FF4705221462EF0DEFB12
:10105000013E0190F6D117F017F8401B07EE900AF9
:10106000F8EE677A17EE900AFFF796F96E4B0022BA
:10107000FFF714FB02460B466E480F212EF04EF888
:101080006F482EF0EFF80023009316F0FDFF42F2B8
:1010900010730546B7EE007ADDED007A77EE877AB9
:1010A000013BCDED007AF7D116F0EEFF401B07EEC5
:1010B000900AF8EE677A634F17EE900AFFF76CF923
:1010C00051A3D3E90023FFF7E9FA02460B465E4835
:1010D0002EF024F8009716F0D7FF4FF47A760546E5
:1010E0000098FFF759F941EC100B2AF05FF951EC29
:1010F000100BFFF7A1FC013E0090F1D116F0C4FFE8
:10110000401B07EE900AF8EE677A4FF47A7617EEF6
:10111000900AFFF741F94D4B0022FFF7BFFA024654
:101120000B464B482DF0FAFF4A4B009316F0ACFFEC
:1011300005460098FFF730F941EC100B2AF06CF9E6
:1011400051EC100BFFF778FC013E0090F1D116F046
:101150009BFF401B07EE900AF8EE677A4FF47A7512
:1011600017EE900AFFF718F9384B0022FFF796FAAE
:1011700002460B4638482DF0D1FF009716F084FF49
:1011800006460098FFF708F941EC100B2AF0CCF85E
:1011900051EC100BFFF750FC013D0090F1D116F01F
:1011A00073FF801B07EE900AF8EE677A17EE900A3D
:1011B000FFF7F2F8254B0022FFF770FA02460B46C4
:1011C00026482DF0ABFF20462BF022FE284603B028
:1011D000F0BD0EF0C3F807EE900AF8EE677A17EE4E
:1011E000900AFFF7D9F806A3D3E90023FFF756FAD0
:1011F00002460B461A488EE64FF48670E7E700BFBA
:101200000000000080842E41000000000088C340E0
:10121000D431040800380240EE310408708B040811
:101220000D3204081632040800003440323204083B
:101230004A320408623204087A320408EDA6010832
:101240009732040800401C46B432040800408F4026
:10125000CC320408C3F54840E4320408FC320408E8
:10126000FC31040813B547F23052084601AB0121A6
:1012700018F06CF8044610B9019814F093F9204660
:1012800002B010BD13B5074A084601AB012118F0A2
:101290005DF8044610B9019816F0ECFE204602B045
:1012A00010BD00BF80C3C90108B509F04BFE01465F
:1012B00002482DF033FF002008BD00BFCF310408E5
:1012C00030B58DB00D461422002107A82EF0C7FAC4
:1012D0000023069340F633020DF116034FF4FA6132
:1012E000284618F07AF80446002864D1BDF8163074
:1012F00030338DF81B300C220DF1190301212846E3
:1013000018F076F80446002855D10DF11A031F2273
:101310000121284618F06CF8044600284BD10146FC
:1013200007AB1722284618F063F80446002842D17C
:1013300001460DF11D033B22284618F059F80446DA
:10134000002838D101460DF11E033B22284618F033
:101350004FF8044678BB024606A918480EF02CFD4B
:10136000044640BB024607A914480EF027FC044679
:1013700008BB024607A911480EF0EEFC0446D0B99E
:10138000024606A90D480EF0B5FD044698B99DF831
:101390001E309DF81B1002939DF81D3001939DF89F
:1013A0001C3000939DF819209DF81A30044801F56F
:1013B000FA612DF0B3FE20460DB030BDF8370020A5
:1013C0001433040810B58AB01248002205A90EF0A3
:1013D000C3FC0446D0B9024604A90E480EF08AFDAB
:1013E000044698B99DF816309DF8131002939DF8A5
:1013F000153001939DF8143000939DF811209DF84D
:101400001230054801F5FA612DF088FE20460AB039
:1014100010BD00BFF83700201433040808B50020C1
:1014200018F0C8F9002008BD08B508482DF01AFFCB
:1014300017F0D2FC07F0E4FD014605482DF06EFEE2
:1014400002482DF00FFF002008BD00BF3333040811
:101450007033040813B5FF2208460DF1070300217D
:1014600017F0C6FF0446A0B99DF807302A2B13D108
:101470000A482DF0F7FE0A2014F094F8084B1B6878
:1014800098682DF0E5FB4FF4FA7014F08BF807F034
:10149000BDFA204602B010BD0124FAE786330408E5
:1014A00018030020204B1868204B2DE9F0411E68DE
:1014B0001F4C204BE41A241118B103780BB12DF006
:1014C000D1FE1C4DDFF880800027BC4208D126B138
:1014D000337813B130462DF0C5FE0020BDE8F08111
:1014E000EA68CAB12968B9B11378ABB10B7818F8BA
:1014F0000300800703D103F0EF002A2803D10E4830
:101500002DF00CFE08E02D2B03D03F2B07D00B490C
:10151000F5E70B482DF0A6FE01371035D5E711464B
:1015200008482DF0FBFDF7E7040000200000002034
:1015300020EE040860D40408B1330408FB37040823
:10154000BD3304080D340408E9CE040807B50421AE
:101550000DEB010000F004FB0198FEF71DFF0246B1
:101560000B4603482DF0DAFD002003B05DF804FBC4
:101570007E37040807B504210DEB010000F0B4FA32
:101580000198FEF709FF02460B4603482DF0C6FD01
:10159000002003B05DF804FB7E37040807B501A8FE
:1015A00000F064FA0198FEF7F7FE02460B46034886
:1015B0002DF0B4FD002003B05DF804FB9337040860
:1015C000F7B54248424C434D2DF0A8FD14F8011BDD
:1015D00041482DF0A3FDAC42F8D10A203F4C2DF03C
:1015E000E3FD3F482DF03EFE3E482DF097FD21687B
:1015F0003D482DF093FD61683B482DF08FFDA168BB
:1016000039482DF08BFD0A202DF0CEFD3748676854
:101610002DF084FD00240025E619A95D344801352C
:101620002DF07CFD102DF8D132482DF077FD0025EE
:10163000A85DA0F120035E2B88BF2E2001352DF080
:10164000B3FD102DF4D10A202DF0AEFD04F5807409
:1016500029482DF063FDB4F5E06FDCD10A202DF0B0
:10166000A3FD684600F002FA0098FEF795FE0246D8
:101670000B4622482DF052FD04210DEB010000F035
:1016800033FA0198FEF788FE02460B461C482DF0FF
:1016900045FD04210DEB010000F062FA0198FEF710
:1016A0007BFE02460B4617482DF038FD4FF40051E3
:1016B00015480BF0EDFC154B1549002808BF1946DD
:1016C00014482DF02BFD002003B0F0BDAB3704080B
:1016D000107AFF1F207AFF1FB83704080000FF1F91
:1016E000BD370408C9370408D6370408DD370408B5
:1016F000EA370408FA370408F03704089337040877
:10170000FD3704087E3704080008024016860408E6
:10171000AD4A0408123804080020704708B5024892
:101720002DF0A0FD002008BD9638040808B5024839
:101730002DF098FD002008BD6CAF04087FB50A4B62
:1017400004930A4B03930A4B02930A4A0A4B0193F0
:10175000D37F0093937F09480A3210212DF0DEFCDD
:10176000002007B05DF804FBC53804082E7B040890
:10177000DF38040824000020A63604089D38040839
:1017800038B51B4C1B482DF0C9FC236898682DF018
:101790005FFA19482DF0C2FC236898682DF058FABA
:1017A000312528462DF000FD236898682DF050FA69
:1017B0000135642013F0F6FE362DF2D123680F4870
:1017C00099682DF085FC236898682DF041FA322045
:1017D00013F0E8FEBFF34F8F09490A4BCA6802F4C1
:1017E000E0621343CB60BFF34F8F00BFFDE700BF44
:1017F00018030020AA330408F03804080F3904083D
:1018000000ED00E00400FA0508B5032A18D8DFE867
:1018100002F0020E10120B4B196807290DD80A4B63
:101820000A4833F811102DF079FC002008BD084B50
:10183000F2E7084BF0E7084BEEE708482DF06EFCA6
:101840000120F3E71400002080C00408173B0408BF
:10185000100000200C000020080000201B3B0408A2
:1018600007B5032A38D8DFE802F002131F2B1B4B01
:1018700001A8196800F038F90198FEF78DFD0246BD
:1018800017480B462DF04AFC002003B05DF804FB1E
:10189000144B01A8196800F063F90198FEF77CFD6C
:1018A00002460B461048EDE7104B01A8196800F0FE
:1018B00093F90198FEF770FD02460B460C48E1E7EC
:1018C0000C4B01A8196800F0C3F90198FEF764FDFC
:1018D00002460B460848D5E70120D6E71400002051
:1018E000FD370408100000207E3704080C0000209B
:1018F000343B040808000020493B040813B508469F
:10190000144601AB4FF4F072032117F01FFD68BBC2
:10191000019B542B1CD00DD81C2B1BD006D8032B9D
:101920001AD00F2B1AD04FF48B701FE0382BFAD13E
:10193000032307E0902B13D0B3F5F07F12D0702B68
:10194000F1D10523032C19D8DFE804F00E12141688
:101950000423F7E70223F5E70346F3E70123F1E762
:101960000623EFE70723EDE7054A136002B010BD39
:10197000044AFAE7044AF8E7044AF6E70120F5E7E3
:1019800014000020100000200C000020080000209F
:1019900010B58CB0314B0021019114465A6C42F4C1
:1019A00080725A645A6C02F480720192019A029118
:1019B0005A6C42F400725A645A6C02F40072029239
:1019C000029A03915A6C42F480625A645A6C02F48F
:1019D00080620392039A04911A6B42F001021A6327
:1019E0001A6B02F001020492049A05911A6B42F0FC
:1019F00002021A631A6B02F002020592059A06911E
:101A00001A6B42F004021A631B6B03F00403069383
:101A1000142207A8069B2DF022FF032C1BD8DFE819
:101A200004F0020D0F13012307930D4803230893BD
:101A300007A90BF037F900200CB010BD0223F3E723
:101A400008482DF00FFCF6E702220323CDE9072317
:101A5000054807A9EDE70120EEE700BF0038024086
:101A6000000002405E3B040800040240194B30B500
:101A700005460FCB85B08DE80F006946164809F082
:101A80009FFC322016F0F6FA134809F0B1FB6421EE
:101A9000114809F03FFC104809F08FFC0F4B9FEDF7
:101AA000107A9A8DDB8D811A07EE901AF8EE677A1C
:101AB0009B1A67EE877A07EE103AB8EEC77A0020D5
:101AC000C7EE876AF3EE0E7A76EEA77AC5ED007A56
:101AD00005B030BDD02B040818340020007AFF1F59
:101AE0000000A0420000000030B5002485B00123B2
:101AF000CDE90214054669461748CDE9004309F0CF
:101B00005FFC322016F0B6FA134809F071FB64212D
:101B1000114809F0FFFB104809F04FFC07EE900A4E
:101B20009FED0E7AF8EE677AC7EE877A17EE900A85
:101B3000FEF732FC06A3D3E90023FEF785FCFEF78F
:101B40007BFF2860204605B030BD00BFAFF30080AA
:101B50006666666666660A408833002000F07F4548
:101B600030B585B001230446029100256946184826
:101B70000395CDE9003309F023FC322016F07AFA00
:101B8000134809F035FB6421114809F0C3FB1048E4
:101B900009F013FC07EE900A9FED0E7AF8EE677AD3
:101BA000C7EE877A17EE900AFEF7F6FB06A3D3E995
:101BB0000023FEF749FCFEF73FFF2060284605B0F2
:101BC00030BD00BFAFF300806666666666660A4099
:101BD000D033002000F07F4530B5002485B00123CC
:101BE000CDE90214054669461748CDE9004309F0DE
:101BF000E7FB322016F03EFA134809F0F9FA6421A7
:101C0000114809F087FB104809F0D7FB07EE900A4E
:101C10009FED0E7AF8EE677AC7EE877A17EE900A94
:101C2000FEF7BAFB06A3D3E90023FEF70DFCFEF78F
:101C300003FF2860204605B030BD00BFAFF3008031
:101C40006666666666660A40D033002000F07F450F
:101C500030B585B00922012304460291002569466A
:101C600017480395CDE9002309F0AAFB322016F0AE
:101C700001FA134809F0BCFA6421114809F04AFB43
:101C80000F4809F09AFB07EE900A9FED0E7AF8EEE6
:101C9000677AC7EE877A17EE900AFEF77DFB06A3F8
:101CA000D3E90023FEF7D0FBFEF7C6FE20602846EE
:101CB00005B030BDAFF300806666666666660A40B2
:101CC0001834002000F07F45F0B58BB014460F4665
:101CD0001422002168462DF0C2FD04F01F03013BD1
:101CE000112B64D8344A52F82350344A32F8136026
:101CF00004F0C003C02B0AD10021102206A82DF049
:101D0000AEFD059605A928460AF0CCFF26E004F0B2
:101D1000A003A02B24D10024012305A92846CDE946
:101D200007440994069305960AF0BCFF05A93846B6
:101D30008DF8144017F00AF9044648B1B0F58B7FCE
:101D400003D040F23D13984218D100238DF814308F
:101D50009DF81420314628460BF0ACF900240DE024
:101D6000A1060ED505A9384617F0F0F8044628B9A3
:101D70009DF81420314628460BF09CF920460BB004
:101D8000F0BD62060CD5314628460BF081F90C4BAC
:101D90000C4A002818BF1A4610462DF063FADDE7FA
:101DA000E30504D50323009601936946ABE7064893
:101DB0002DF058FA0124E1E7B4C0040890C00408EB
:101DC0005B6604086CAF04085D3D0408024BF72213
:101DD0001A700020704700BF64330020034A137854
:101DE00043F0080313700020704700BF64330020E5
:101DF00007B508460DF1070117F0A8F838B99DF8A6
:101E00000720064B32B11A7842F004021A7003B070
:101E10005DF804FB1A7802F0FB02F7E76433002058
:101E200007B508460DF1070117F090F838B99DF88D
:101E30000720064B32B11A7842F002021A7003B042
:101E40005DF804FB1A7802F0FD02F7E76433002026
:101E500007B508460DF1070117F078F838B99DF875
:101E60000720064B32B11A7842F001021A7003B013
:101E70005DF804FB1A7802F0FE02F7E764330020F5
:101E800010B586B00C461422002101A82DF0E7FC05
:101E900020460DF103030222002117F0A9FA04469F
:101EA00078B99DF803307BB1012B0CBF01230223CD
:101EB0000648039301A90AF0F5FE054801A90AF0B6
:101EC000F1FE204606B010BD0346F1E700080240CF
:101ED0000004024007B508463AB10D490D482DF0FF
:101EE0001DF9002003B05DF804FB0DF1070117F0A8
:101EF0002DF80028F6D19DF80730074A003B18BF9F
:101F00000123DB01104613620BF0FAFAEAE700BF87
:101F1000FD4A04080C8E0408A437002007B50846C3
:101F20003AB10D490D482DF0F9F8002003B05DF8E5
:101F300004FB0DF1070117F009F80028F6D19DF810
:101F40000730074A003B18BF01239B011046D361AD
:101F50000BF0D6FAEAE700BFFD4A04080C8E04082D
:101F6000A437002007B508463AB10C490C482DF0BB
:101F7000D5F8002003B05DF804FB0DF1070116F061
:101F8000E5FF0028F6D19DF80730064A003B18BF50
:101F90000123104653610BF0B3FAEBE7FD4A040846
:101FA0000C8E0408A437002007B5084642B10B4B3D
:101FB0000B4859682DF0B2F8002003B05DF804FB1F
:101FC000084A01AB012117F0C1F90028F5D1034AF5
:101FD000019B536010460BF093FAEEE7A437002004
:101FE000044B0408801A060007B5084611464AB19A
:101FF000104B11481B6819692DF090F8002003B0B0
:102000005DF804FB01AB4FF0FF3217F09FF9002899
:10201000F5D108490B681A6822F001021A60019A8A
:102020004A6022F070621A611A6842F001021A6076
:10203000E5E700BF60340020044B04082DE9F04FB1
:10204000C7B08A460DF114080DF1160704AE002141
:1020500015464FF0020B33464FF6FF72504639805B
:10206000A8F800B017F0B9F90146002840F06281E5
:10207000338805F1FF395B00B9F1010F338050D887
:102080000DF112034FF6FF72504617F0A6F9044601
:1020900038B943465A460121504617F09EF9044686
:1020A00030B1204647B0BDE8F08FB9F1090F0ED826
:1020B00040F2B52323FA09F3DB0708D53B46FF229C
:1020C0000121504617F089F904460028E9D1023D64
:1020D000082D3DD840F2AD13EB4013F0010310D0B2
:1020E00000250DF1180B0BEB0503FF2200215046D4
:1020F00017F07EF9044620BB0135B5F5807FF2D19B
:10210000ABB2B9F1090F00F21781DFE819F0230033
:10211000440053006E0076009B00BB00C900E50040
:10212000ED00AB1F012BC0D80DF112034FF6FF726B
:10213000504617F052F904460028B2D14346102207
:10214000A9E740F23D139842ABD1002DD8D1A8E7C2
:102150000023D6E7642302933B88019306AD0095E4
:10216000B8F80030BDF81220318874480AF0FEFB40
:102170000446002895D13B88A34201DC002490E767
:1021800014B12C202DF010F815F8011B6C482CF020
:10219000C5FF0134EFE76422CDE9013206AB0093BD
:1021A000B8F80030BDF81220318864480AF0FAFA15
:1021B000044676E7642300933B8831885F4806AA8B
:1021C0000AF056FA044600287FF46BAF06AD3B8850
:1021D000A342D3DD14B12C202CF0E6FF15F8011B2F
:1021E00057482CF09BFF0134F1E7642200923188BC
:1021F000524806AA0AF08EF9DAE76425009531887C
:102200004E4806AA0AF086F9044600287FF449AF32
:1022100000953B883188494806AA0AF029FA044605
:1022200000287FF43EAF06AD3B88A342A6DD14B183
:102230002C202CF0B9FF15F8011B41482CF06EFF43
:102240000134F1E7642302933B88019306AD0095C6
:10225000B8F80030BDF8122031883A480BF048FD3C
:10226000044600287FF41DAF3B88A34286DD14B1ED
:102270002C202CF099FF15F8011B31482CF04EFF53
:102280000134F1E76422CDE9013206AB0093B8F8DE
:102290000030BDF8122031882A480BF08FFC87E708
:1022A000642300933B883188264806AA0BF00EFB76
:1022B000044600287FF4F5AE06AD3B88A3427FF7C5
:1022C0005DAF14B12C202CF06FFF15F8011B1C48DA
:1022D0002CF024FF0134F0E7642200923188194881
:1022E00006AA0BF019FA63E76425009531881548B2
:1022F00006AA0BF011FA044600287FF4D2AE00952E
:102300003B8831880F4806AA0BF0E0FA0446002803
:102310007FF4C7AE06AD3B88A3427FF72FAF14B161
:102320002C202CF041FF15F8011B05482CF0F6FE7F
:102330000134F0E70446B4E60124B2E6603400203C
:102340000C4B0408A437002037B59FED251B084629
:102350009FED250B6A46002116F056FE0546002823
:1023600037D1234BD3F8942012F4400F1FD10CF037
:1023700075FC0446DDE90001FEF73EFB0146204600
:1023800000F0FCF9044601461A482CF0C7FEFCB1E7
:1023900019490B681A6822F001021A604C6024F097
:1023A00070641C611A6842F001021A6011E0D3F8EF
:1023B000942002F44002B2F5800F02D10CF0CEFF5F
:1023C000D7E7D3F8943003F44003B3F5000F03D0FC
:1023D0000125284603B030BD084CCBE7AFF30080A1
:1023E0000000000065CDCD410000000000000000AD
:1023F00000380240114B0408603400200024F4002F
:1024000008B532B1012A09D006482CF02BFF012073
:1024100003E0054807F04EFF002008BD034808F020
:10242000B3F8F9E75D3D040860340020A4370020CC
:1024300007B5084672B1114B11491B69114813F4D5
:10244000804F114B18BF19462CF068FE002003B0D6
:102450005DF804FB0DF1070116F078FD0028F6D1B8
:102460009DF807300548002B0CBF4FF440434FF454
:10247000804303610BF044F8E9E700BFA437002074
:10248000304B04080C8E04082B4B040807B5084693
:102490007AB1104B10491B6810481B6813F4805F19
:1024A0000F4B18BF19462CF039FE002003B05DF821
:1024B00004FB0DF1070116F049FD0028F6D19DF847
:1024C000073023B1014603480AF038FBEEE74FF42A
:1024D0008051F8E760340020AD4A04080C8E0408EF
:1024E0001686040807B5084611465AB10D4B0E482A
:1024F0001B681968C1F303212CF010FE002003B003
:102500005DF804FB0DF107030F2216F071FF0028A0
:10251000F5D19DF80710034801F00F010AF048FBC0
:10252000EDE700BF603400204778040807B508468F
:102530007AB1134BDA6AD20709D5DB6A9B0706D555
:1025400010482CF0EBFD002003B05DF804FB0E48B2
:10255000F7E70DF1070116F0F9FC0028F4D19DF81A
:10256000073001202BB10AF05BFB02200AF058FB78
:10257000E9E70AF075FB02200AF072FBE3E700BF0F
:1025800000380140AD4A0408168604080000000027
:1025900038B51046002A5BD1454BD3F8942012F48D
:1025A000400F3DD10CF05AFB424C07EE900AF8EE7A
:1025B000677A17EE900AFDF7EFFE3BA3D3E90023FD
:1025C000FEF76CF80B4621463B4C02463B482CF08C
:1025D000A5FD23683A4819692CF0A0FD394BDA6A49
:1025E000D20733D5DB6A384913F0020F374B08BFE7
:1025F000194637482CF092FD236836481968C1F314
:1026000003212CF08BFD236833481B682E4913F4FB
:10261000805F2E4B18BF19462CF080FD002038BD7E
:10262000D3F8942002F44002B2F5800F03D10CF0ED
:1026300095FE2A4CB9E7D3F8943003F44003B3F580
:10264000000F12BF264C2748274CAEE71F49D0E7A2
:10265000012AE3D1254C264861681B4D2CF05EFD14
:102660002269244B24492548002A08BF19462CF02A
:1026700055FD636915492248002B18BF29462CF0E7
:102680004DFDE36911491F48002B18BF29462CF066
:1026900045FD216A0D4B1C48002918BF2B461946E1
:1026A000BAE700BFAFF300800000000080842E4135
:1026B00000380240454B0408603400205A4B04089F
:1026C000114B040800380140AD4A0408168604087E
:1026D000794B04088E4B0408A34B0408364B0408BE
:1026E0003D4B04080024F4004B4B0408A4370020A1
:1026F000B84B0408544B04084F4B0408CD4B040856
:10270000E44B0408FB4B0408124C040808B50948C4
:102710002CF0A8FD08490B681A6822F001021A6023
:10272000064A1A614A601A6842F001021A600020E3
:1027300008BD00BF294C040860340020362C9000EE
:1027400008B532B1012A0BD009482CF08BFD0120CD
:1027500005E0FFF7DBFF074807F066FD002008BD36
:10276000054807F0BFFE04480AF0CAFEF6E700BFBE
:102770005D3D040860340020A43700202DE9F04FAF
:102780008BB018B900200BB0BDE8F08F834B994295
:10279000F8D9834B99425ED9824B9942F2D9824B48
:1027A00099425AD9814BA1F54321A1F5A0619942E3
:1027B000E8D80221DFF804C20CEB5003B3FBF0F0C1
:1027C0007B4B2C2202FB013305465A6A03921A6A9C
:1027D0000192019C5A691B69A2180492039A1B1B5F
:1027E000A2F13206A3F5827300EB4002B61AA3EB06
:1027F0008003704A23EAE373029313680093002472
:1028000026EAE6761A46A2464FF0100BA9464FF08C
:10281000000E049BCDF814E099450EF1010E27D36C
:102820000027B846BE421DD8029BBB421AD35C4566
:1028300018D0142303FB02FB5F4B013203EB0B0A9E
:1028400043F80B40059B7F2ACAE9013807D9594B49
:1028500000921A6017E00021ACE70121AAE7A34625
:102860004FF0010A08F10108B8F1100F2F44D9D137
:10287000BEF1100FA944CCD10134102C0544C5D1B0
:10288000BAF1000FE3D12C225143494B039C019D27
:1028900003EB010E5B5848490CEB53022C44B2FB8E
:1028A000F3FBDEF80430BCFBF3F30293DEF80830F0
:1028B000BCFBF3F30493430003F13202E3180592E7
:1028C000D94600264FF0FF320993009B9E4219D152
:1028D0007F2A3FF657AF384B14214A4399189B582B
:1028E000087C40EA03704B681B0503F4700318432F
:1028F0008B681B0403F470231843CB681B029BB244
:10290000184340E7DEF818400B680394059C03FB6E
:1029100000031C190194099CE5183235019C0895A7
:102920004FF0000C039DCDF81CC0AC420CF1010C23
:102930002CD9A4F13205B0EB950F27D2089DDDF814
:1029400004A025444FF00008049FCDF81880AF4242
:1029500008F1010815D8029FAF4212D3DEF81C70AF
:1029600057450ED850450CD2A5EB0B07002FB8BF2A
:102970007F42B94505D9079A0A61069ACA60B946E5
:102980003246B8F5807F1D449A44DDD1BCF5807F86
:102990001C44C7D10136143197E700BF7F380100CE
:1029A000C0D40100FFE1040000530700801A0600B4
:1029B000FCC00408380400203C04002000CA9A3BF4
:1029C00013B5084612F0200114463BD09FED3A1B88
:1029D0009FED3B0B6A46002116F016FBC8B9DDE9F6
:1029E00000013B4B0022FDF72FFD04F01F04013CCA
:1029F000CDE90001052C20D8DFE804F003030D1316
:102A00001919FEF719F800EE100A052000F0F0FE83
:102A1000002002B010BDFEF70FF800EE100A0C20E7
:102A2000F4E7FEF709F800EE100A0220EEE7FEF7E1
:102A300003F800EE100A0320E8E726482CF012FC09
:102A40000120E6E71306F8D59FED1F1B9FED1C0B39
:102A50006A4616F0D9FA0028DBD104F01F04013CC5
:102A6000052CEAD8DFE804F003030D151D1DDDE990
:102A70000001FDF7E1FF00EE100A052000F00CFF59
:102A8000C6E7DDE90001FDF7D7FF00EE100A0C20D4
:102A9000F4E7DDE90001FDF7CFFF00EE100A0220A8
:102AA000ECE7DDE90001FDF7C7FF00EE100A0320A7
:102AB000E4E700BFAFF300800000000000005940D1
:102AC00000000000000000000000000000408F40F7
:102AD000000024405D3D040808B515482CF0C2FBF9
:102AE000144B154819682CF019FB144B144819683D
:102AF0002CF014FB134B186807EE900AF8EE677A77
:102B000017EE900AFDF748FC0F4B0022FDF7C6FDBB
:102B100002460B460D482CF001FB0D4B0D48196881
:102B20002CF0FCFA0C482CF09DFB002008BD00BFE7
:102B30002A530408500E0020405304084C0E002075
:102B400051530408480E002000002440625304083A
:102B5000440E002075530408F7330408DFB551060E
:102B60002FD502F01F02013A052A25D8DFE802F02E
:102B70000315171A221F0022052102A800F082FF68
:102B8000044638B90298FDF707FC02460B461E487A
:102B90002CF0C4FA204604B0D0BD0422ECE7002299
:102BA0000C21EAE7082202210DEB0200E6E70022F1
:102BB0000321E2E70422FBE714482CF053FB012435
:102BC000E8E71306F8D502F01F02012A1AD0053AE9
:102BD000012AF1D8032203A902A800F0F7FE044657
:102BE0000028D7D10398FDF7D7FB064602980F4679
:102BF000FDF7D2FB3246CDE900013B4604482CF0FC
:102C00008DFAC7E70522E6E78C5304085D3D04080A
:102C10008653040802F4387002F01F02013A08B526
:102C2000052A1CD8DFE802F003070B0F1317BDE8D5
:102C3000084000F073BFBDE8084001F04DB8BDE8A2
:102C4000084001F027B9BDE8084001F0AFB9BDE880
:102C5000084001F039BABDE8084001F029BB02483C
:102C60002CF000FB012008BD5D3D040808B500F014
:102C70005FFBFEF7DDF800F0C3FA002008BD00009E
:102C800007B59FED0B0B08469FED0B1B6A46002115
:102C90008DED000B16F0B8F928B9DDE90001FDF75C
:102CA000ABFEFEF7D1F803B05DF804FBAFF3008094
:102CB0000000000000000000000000002A758541AF
:102CC00008B500F09DFA00F033FBFEF733F8002062
:102CD00008BD08B500F094FAFEF7AAF8BDE8084070
:102CE00000F0AABA2DE9F041ADF5976D0DF102069D
:102CF0000123084633804FF496723346002116F0C4
:102D00006CFB0446E0B901464FF4966202A80DF14F
:102D100004082CF0A4FD3088424602A900F07CF99A
:102D2000044668B902AD07463388BB420DDCD8F8CB
:102D30000000FDF731FB02460B4609482CF0EEF986
:102D400020460DF5976DBDE8F08155F8040BFDF7B1
:102D500023FB02460B4603482CF0E0F90137E3E77A
:102D60009C5304089653040808B5FEF761F800F078
:102D7000DFFA00F0CFF9002008BD0000037F012B2F
:102D800002D1044A13607047022B02BF024B01229A
:102D90001A6070473C0E0020400E002010B5002441
:102DA00088B0CDE90544144B01941A6C134842F0E5
:102DB00008021A641A6C02F008020192019A029445
:102DC0001A6B42F001021A631B6B03F001030293BA
:102DD000029B0122022303A9CDE90323079309F0F3
:102DE00061FF22460521322008F0C2FB322008F0A4
:102DF00001FC08B010BD00BF0038024000000240D6
:102E000030B5002589B0CDE90555314B01951A6CD7
:102E1000304C42F008021A641A6C02F00802019267
:102E2000019A02951A6B42F001021A631B6B03F0C0
:102E300001030293029B01200223CDE9030303A9AE
:102E40002548079309F02EFFDFF89CC04FF0406340
:102E5000C4E900C34FF4806E4FF48053C4E904E327
:102E600020464FF48043C4E90255C4E90635C4E95D
:102E7000085508F001FC08B107F0B0FB174D184ADF
:102E80006C62A563174C4FF04063C4E900234FF414
:102E900080614FF480520023C4E9041220464FF4AD
:102EA0008042C4E90233C4E90623C4E9083308F0C8
:102EB000E3FB08B107F092FB002205213220AC624F
:102EC000A56308F055FB322008F094FB09B030BD33
:102ED000003802401418002000000240741800203E
:102EE00070600240B417002040600240074A084862
:102EF00008B5136C23F00803136401210AF018F8D5
:102F0000BDE80840322008F089BB00BF003802400D
:102F10000000024038B504460BF0A0FE237F022BD0
:102F20001FD1002120460EF043F8104D04212860E7
:102F300020460EF03DF80E4A0E49106013680E4C04
:102F400083B113682A684FF47A704343B3FBF2F3FA
:102F5000C31A0B600BF082FE2B684000B0FBF3F04D
:102F6000206038BD0B602360FBE700BF500E0020DF
:102F70004C0E0020480E0020440E00202DE9F84F92
:102F800012F0DAFADFF888B01D4F1E4D8246002697
:102F900012F0D2FAA0EB0A00FDF7DCF932468046C7
:102FA00089463B46DBE90001FDF74EFA02460B4637
:102FB00040464946FDF7BAFC044660B9014612484E
:102FC00010F052F81048042110F04EF80F4B2C600E
:102FD0001C60032012E02B68012BD9D10B4B1A681F
:102FE000012AD5D10024214607481C602C6010F02E
:102FF0003BF80548042110F037F82046BDE8F88F6B
:1030000000408F40400E0020741800203C0E00202D
:1030100018000020000000002DE9F04F384B87B069
:103020000C460021039206465962364A36484FF450
:1030300096730FF0D3FE354A33484FF4967304214C
:103040000FF0CCFEFFF79AFF0546002852D1DFF8BB
:10305000BCA02C4F04EB860B80465C450CD1B8FB22
:10306000F6F807EE908A039BF8EE677AC3ED007AD4
:10307000284607B0BDE8F08FD7F8049057F8043B16
:103080005AF8042F0593994536BF09F1FF30A9EB93
:103090000300C01A0492FDF75DF9049A059B91455F
:1030A000CDE9000134BFA2EB0900D01AFDF752F9B7
:1030B000DDE90023FDF7F2FA154B0022FDF7C4F914
:1030C000FDF7BAFC44F8040B4046FDF743F9DDE98F
:1030D00000238046894608A1D1E90001FDF7DEFA08
:1030E00002460B4640464946FCF7F8FFFDF784FCD4
:1030F0008046B2E70325BBE7000000002A75954132
:10310000000C00400413002074180020540E00200E
:103110000000594010B58CB00024344B01941A6B58
:1031200042F400121A631B6B03F4001322460521BC
:1031300001930D20019B08F01BFA0D2008F05AFAAC
:10314000224605210F2008F013FA0F2008F052FA4A
:10315000102221460DEB02002CF081FB10222146AB
:1031600008A8CDE902442CF07AFB214A21482146E7
:103170000DF0CCFF1F4A204B9460C2E9003410468A
:103180004FF0FF33C2E90334946110F06DF828BBAF
:103190004FF480531748049304A90EF071FCE8B96A
:1031A000144810F077FAC8B9CDE9020002A9114815
:1031B00010F022FB024688B90123CDE909300890BE
:1031C0000B9008A90B480EF001FB38B902230948FF
:1031D000042208A9CDE908330EF0F8FA074A054899
:1031E00012210DF093FF0CB010BD00BF003802405B
:1031F000012E010874180020000C00407D2D0108EC
:103200000A4A0B48136C10B523F00803094C1364E9
:10321000012109F08DFE606A08F058FBA06A08F0F1
:1032200055FB322008F0FAF9002010BD00380240AA
:10323000000002407418002030B591B01022002127
:1032400003A82CF00CFB142200210BA800242CF066
:1032500006FB1022002107A82CF001FB2F4A304862
:103260002146CDE901440DF051FF2E4A2C480121A1
:103270000DF04CFF2A4A2C4B9460C2E900341046F2
:103280004FF0FF33C2E9033494610FF0EDFF0028E3
:1032900032D14FF480532248039303A90EF0F0FB80
:1032A00050BB1F4810F0F6F930BB0224CDE90D40A9
:1032B00050230F9004251A480BA9CDE90B530EF0AB
:1032C000B5FF0246C0B90123CDE908300A9007A92D
:1032D000134807940EF07AFA70B9CDE907042A462C
:1032E0000F4807A90EF072FA30B9CDE901000DEBD5
:1032F00005010B4810F080FA094804210FF002FC88
:1033000048B9014606480FF0FDFB20B9074A0448BA
:1033100012210DF0FBFE11B030BD00BF9D2D010844
:1033200074180020ED2E0108000C0040152F010834
:1033300010B5094C23686BB1042120460FF0B8FC8E
:10334000002120460FF0B4FC322008F067F9204637
:103350000DF0D4FB002010BD7418002001480DF0C2
:1033600087BD00BF74180020014808F077BB00BF7C
:1033700014180020014808F071BB00BFB4170020EA
:1033800010B514228AB0044600210DEB02002CF087
:1033900066FA2368224A934220D1224B2248002118
:1033A00001911A6C42F008021A641A6C02F00802C9
:1033B0000192019A02911A6B42F001021A631B6B8F
:1033C00003F0010302930121029B0223CDE90513BF
:1033D000099305A909F066FC0AB010BD134A93428F
:1033E000FAD1104B1248002103911A6C42F00202EC
:1033F0001A641A6C02F002020392039A04911A6B87
:1034000042F004021A631B6B03F004030493049B51
:1034100040220223CDE90523099305A9DAE700BF7D
:10342000000C004000380240000002400004004050
:103430000008024010B504468EB01422002109A8ED
:103440002CF00DFA2368B3F1804F20D103F50E3331
:10345000002101911A6C42F001021A641A6C02F008
:1034600001020192019A02911A6B42F002021A6360
:103470001B6B03F002030293029B4FF48061022353
:10348000CDE9091301233C480D9309A922E03B4AE9
:10349000934227D13A4B002103911A6C42F0020269
:1034A0001A641A6C02F002020392039A04911A6BD6
:1034B00042F004021A631B6B03F004030493049BA1
:1034C000304B1B7853B9402309932F4802230A93AA
:1034D0000D9309A909F0E6FB0EB010BD042BFBD13A
:1034E0008023F1E7294A934225D1254B00210591FC
:1034F0001A6C42F008021A641A6C02F00802059273
:10350000059A06911A6B42F001021A631B6B03F0D5
:1035100001030693069B1B4B1B783BB901230993C0
:1035200002231B480A930D9309A9D3E7042BD3D197
:1035300002230993F5E7174A9342CDD1104B00219E
:1035400007911A6C42F040021A641A6C02F04002B1
:103550000792079A08911A6B42F002021A631B6BDA
:1035600003F002030893089B4FF480420223CDE945
:103570000923092387E700BF00040240000400403C
:10358000003802402819002000080240000C0040CA
:103590000000024000180040FFF74CBF08B5036868
:1035A000B3F1804F0CD1082126480FF031FA264A9A
:1035B000136C23F0010313644FF48061234815E07A
:1035C000234A934216D1002122480FF021FA042108
:1035D00020480FF01DFA1C4A1F48136C23F0020309
:1035E0004021136409F0A4FC1B488021BDE8084079
:1035F00009F09EBC194A934213D1002118480FF0DC
:1036000007FA042116480FF003FA0F4A1548136C05
:1036100023F008030121136409F08AFC11480221F8
:10362000E4E7114A93420BD1002110480FF0F0F962
:10363000054A136C23F0400313644FF48041BDE747
:1036400008BD00BF481B00200038024000040240B3
:1036500000040040941A002000080240000C0040C2
:10366000E019002000000240001800402C19002042
:1036700008B50368B3F1804F0FD12D480DF0B2FAB1
:1036800008212B480FF07AF82A4A136C23F0010323
:1036900013644FF48061284818E0284A934219D1F6
:1036A00027480DF015FB002125480FF067F804218D
:1036B00023480FF063F81F4A2248136C23F00203DB
:1036C0004021136409F034FC1E488021BDE8084005
:1036D00009F02EBC1C4A934216D11C480DF0F8FA92
:1036E00000211A480FF04AF8042118480FF046F854
:1036F000104A1748136C23F008030121136409F0E2
:1037000017FC13480221E1E7124A93420ED11248F6
:103710000DF0DEFA002110480FF030F8054A136C66
:1037200023F0400313644FF48041B4E708BD00BFA9
:10373000481B002000380240000402400004004002
:10374000941A002000080240000C0040E0190020FC
:1037500000000240001800402C1900200B4A0C48C1
:1037600008B5136C23F0020313640DF0B1FA0021C5
:1037700007480FF04DF9042105480FF049F9BDE85D
:1037800008400448402109F0D3BB00BF0038024084
:10379000941A00200008024008B5114A03689342B9
:1037A00016D102F50B320F48136C23F00803136493
:1037B0000DF08EFA00210B480FF02AF90421094878
:1037C0000FF026F9BDE808400748012109F0B0BB19
:1037D000064A934203D1BDE80840FFF7BFBF08BDCA
:1037E000000C0040E01900200000024000040040EE
:1037F00001380B2841D8DFE800F0061729403C408B
:1038000040404040403E1E4BD3ED037ADFED1D6A41
:103810001A68F8EE677A67EE807A87EEA67ABCEED1
:10382000C77A82ED0D7A0FE0174BDFED166AD3ED04
:10383000037A1A68F8EE677A67EE807A87EEA67ADE
:10384000BCEEC77A82ED0F7A002070470F4BD3EDA4
:10385000037ADFED0C6A1A68F8EE677A67EE807A11
:1038600087EEA67AFCEEC77AC2ED0D7AC2ED0E7A2B
:10387000EAE7074BEBE7074BC6E74FF48B7070475F
:10388000FC1B002000007A44481B0020941A0020F2
:10389000E01900202C190020013808B50B287FD82A
:1038A000DFE800F00622397E507E7E7E7E7E7E67D7
:1038B000DFED3F7A60EE277A17EE900AFCF76CFD99
:1038C00002460B4638A1D1E90001FCF7E7FE394B6F
:1038D0000022FCF701FCFDF78FF8374BD860184643
:1038E0000FF0C2FC002008BDDFED317A60EE277AD0
:1038F00017EE900AFCF750FD02460B462AA1D1E9CB
:103900000001FCF7CBFE2B4B0022FCF7E5FBFDF79B
:1039100073F82A4BE2E7DFED267A60EE277A17EE9E
:10392000900AFCF739FD02460B461FA1D1E90001C0
:10393000FCF7B4FE1F4B0022FCF7CEFBFDF75CF852
:103940001F4BCBE7DFED1A7A60EE277A17EE900A6D
:10395000FCF722FD02460B4613A1D1E90001FCF75A
:103960009DFE144B0022FCF7B7FBFDF745F8154B05
:10397000B4E7DFED0F7A60EE277A17EE900AFCF7D6
:103980000BFD02460B4608A1D1E90001FCF786FEBB
:10399000084B0022FCF7A0FBFDF72EF80A4B9DE731
:1039A0004FF48B709FE700BF000000002A7585412F
:1039B00000007A440000F03FFC1B0020481B002060
:1039C000941A0020E01900202C190020032A2DE968
:1039D000F04706460D4629D0052A48D1254F11F05B
:1039E000ABFD00F59678002138460DF0E1FA042190
:1039F000824638460DF0DCFA0021814638460DF04B
:103A0000D7FA8245044688BF00F58034CA4528BFEE
:103A100009F5803911F090FD4045A4EB0A0407D95F
:103A20000023336003202B60BDE8F087124FD6E7F8
:103A3000002CD8D0114BB3FBF4F307EE903AF8EE1C
:103A4000E77AA9EB0A09C6ED007A07EE909AB8EE7C
:103A5000677A07EE904AF8EE677A0020C7EE276A89
:103A6000DFED077A66EEA77AC5ED007ADCE74FF462
:103A70008B70D9E7E0190020941A002040A5AE020F
:103A80000000C84202392DE9F041064617460A29CE
:103A900036D8DFE801F0062635223535353535359F
:103AA0002400194D11F048FD00F596783946284656
:103AB0000DF07EFA3946044628460DF079FA844224
:103AC00088BF00F58030041B11F036FD40450AD94F
:103AD000002333600320BDE8F0810C4DE2E70C4D7C
:103AE000E0E70C4DDEE7002CE0D00B4BB3FBF4F32A
:103AF00007EE903AF8EEE77A0020C6ED007AEAE7A2
:103B00004FF48B70E7E700BF481B0020E01900204E
:103B10002C190020941A002040A5AE0230B593B0B5
:103B200004461C2200210BA82BF099FE1022002134
:103B300003A82BF094FE1022002107A82BF08FFE83
:103B40005F4A604B136000214FF6FF73C2E90331F7
:103B50005D4B91610125202CCDE90111C2E9015194
:103B6000197028D1594A564806210DF0CFFA544809
:103B70000FF0DEFC0446D8B94FF480535048079349
:103B800007A90DF07DFF044690B96023CDE90B3005
:103B90000D900F9002460BA949480DF0BBFC04465E
:103BA00030B947480DF01EF8454821460EF034FD67
:103BB000204613B030BD402C2ED1454A404802214A
:103BC0000DF0A4FA3E480FF065FD04460028EFD141
:103BD0004FF480533A48079307A90DF051FF04466C
:103BE0000028E5D1CDE9010001A935480FF004FE18
:103BF00004460028DCD1CDE90305CDE905000246E5
:103C000003A92F480DF0E2FD04460028D0D101465B
:103C10002B480EF03BFECBE7802C42D12D4A2848A2
:103C20000DF074FA26480FF01FFB04460028BFD1A0
:103C30004FF480532248079307A90DF021FF044653
:103C40000028B5D11E480FF025FD04460028AFD14D
:103C5000CDE9010001A91A480FF0CEFD0446002865
:103C6000A6D1CDE90305CDE90500024603A9144814
:103C70000DF0ACFD044600289AD10223104804221E
:103C800003A9CDE903330DF0A1FD044600288FD12F
:103C90000B480CF0A7FF214609480EF0F7FD042160
:103CA000B6E7B4F5007F01D0002481E70448FFF7B0
:103CB00073FD0348FFF772FC0148FFF7D9FCF3E7F7
:103CC000E0190020000C00402819002035340108BC
:103CD000993501088133010870B592B004461C2261
:103CE00000210BA82BF0BBFD1022002103A82BF014
:103CF000B6FD1022002107A82BF0B1FD5F4A604BF2
:103D0000136000214FF6FF73C2E903315D4B9161EF
:103D100001260425202CCDE90111C2E901611D70A5
:103D200028D1594A554806210DF0F0F953480FF0B3
:103D3000FFFB0446D8B94FF480535048079307A9B6
:103D40000DF09EFE044690B96023CDE90B300D9036
:103D50000F902A4649480BA90DF0DCFB044630B908
:103D600046480CF03FFF454829460EF055FC2046DA
:103D700012B070BD402C2ED1444A404802210DF0B3
:103D8000C5F93E480FF086FC04460028EFD14FF4F9
:103D900080533A48079307A90DF072FE04460028A5
:103DA000E5D1CDE9010001A934480FF025FD044615
:103DB0000028DCD1CDE90306CDE905002A462F48CD
:103DC00003A90DF003FD04460028D0D129462B4855
:103DD0000EF05CFDCBE7802C41D12D4A27480DF039
:103DE00095F926480FF040FA04460028BFD14FF459
:103DF00080532248079307A90DF042FE044600288D
:103E0000B5D11E480FF046FC04460028AFD1CDE9DD
:103E1000010001A919480FF0EFFC04460028A6D1C3
:103E2000CDE90306CDE905002A46144803A90DF0A3
:103E3000CDFC044600289AD10223024603A90F486C
:103E4000CDE903330DF0C2FC044600288FD10B48A6
:103E50000CF0C8FE214609480EF018FDB6E7B4F58F
:103E6000007F01D0002482E70448FFF795FC034857
:103E7000FFF794FB0148FFF7FBFBF3E7E019002095
:103E8000000C00402819002035340108993501083C
:103E90008133010830B593B004461C2200210BA8E1
:103EA0002BF0DDFC1022002103A82BF0D8FC1022FF
:103EB000002107A82BF0D3FC39493A4A0A600023B5
:103EC00001254FF6FF72402CCDE90133C1E90153C2
:103ED000C1E903238B612CD1334A314802210DF013
:103EE00015F92F480FF0D6FB0446F8B94FF480536C
:103EF0002B48079307A90DF0C3FD0446B0B9CDE9DF
:103F0000010001A926480FF077FC044670B9CDE9FD
:103F10000305CDE90500024603A921480DF056FC32
:103F2000044618B901461E480EF0B0FC204613B0F6
:103F300030BD202C27D11A480FF0FAFA0446002889
:103F4000F4D11748FFF776FA4FF4805314480793DB
:103F500007A90DF095FD04460028E7D16023CDE9BF
:103F60000B300D900F9002460BA90D480DF0D2FAC0
:103F700004460028DAD10A480CF034FE21460848ED
:103F80000EF04AFBD2E7B4F5007F01D00024CDE764
:103F90000348FFF703FB0248FFF76AFBF6E700BFA1
:103FA0002C190020001800409935010830B593B055
:103FB00004461C2200210BA82BF051FC10220021EA
:103FC00003A82BF04CFC1022002107A82BF047FC83
:103FD0003A494FF0804200230A6001254FF6FF72F4
:103FE000402CCDE90133C1E90153C1E903238B61C1
:103FF0002CD1334A314802210DF088F82F480FF0B8
:1040000049FB0446F8B94FF480532C48079307A99D
:104010000DF036FD0446B0B9CDE9010001A92748ED
:104020000FF0EAFB044670B9CDE90305CDE90500C0
:104030000822224803A90DF0C9FB044618B91F48FD
:1040400008210EF023FC204613B030BD202C29D1CE
:104050001C4A1A4806210DF059F818480FF068FA62
:1040600004460028EFD14FF480531448079307A962
:104070000DF006FD04460028E5D16023CDE90B30A4
:104080000D900F9008220D480BA90DF043FA04463D
:104090000028D8D109480CF0A5FD082107480EF0EA
:1040A000BBFAD0E7B4F5007F01D00024CBE703488A
:1040B000FFF774FA0148FFF7DBFAF6E7481B002028
:1040C000993501083534010870B592B004461C22B8
:1040D00000210BA82BF0C3FB1022002103A82BF01A
:1040E000BEFB1022002107A82BF0B9FB674A684BE2
:1040F000136000214FF6FF73C2E90331654B9161F4
:1041000001260425202CCDE90111C2E901611D70B1
:1041100028D1614A5D4806210CF0F8FF5B480FF09A
:1041200007FA0446D8B94FF480535848079307A9B3
:104130000DF0A6FC044690B96023CDE90B300D903C
:104140000F902A4651480BA90DF0E4F9044630B906
:104150004E480CF047FD4D4829460EF05DFA2046CA
:1041600012B070BD402C2ED14C4A484802210CF0B0
:10417000CDFF46480FF08EFA04460028EFD14FF4E9
:1041800080534248079307A90DF07AFC04460028A3
:10419000E5D1CDE9010001A93C480FF02DFB044613
:1041A0000028DCD1CDE90306CDE905002A463748D1
:1041B00003A90DF00BFB04460028D0D12946334853
:1041C0000EF064FBCBE7802C41D1354A2F480CF030
:1041D0009DFF2E480FF048F804460028BFD14FF449
:1041E00080532A48079307A90DF04AFC044600288B
:1041F000B5D126480FF04EFA04460028AFD1CDE9DC
:10420000010001A921480FF0F7FA04460028A6D1C1
:10421000CDE90306CDE905002A461C4803A90DF0A7
:10422000D5FA044600289AD10223024603A917486A
:10423000CDE903330DF0CAFA044600288FD11348A4
:104240000CF0D0FC214611480EF020FBB6E7B4F587
:10425000007F01D0002482E7124A0C4807210CF0AD
:1042600055FF0A48FFF79AF90F4A084803210CF056
:104270004DFF0648FFF7FCF90C4A044831460CF0A4
:1042800045FF0248FFF788FAE4E700BF941A0020D0
:104290000004004028190020353401089935010830
:1042A000813301089D3501087136010899370108ED
:1042B00030B593B004461C2200210BA82BF0CFFA96
:1042C0001022002103A82BF0CAFA1022002107A80F
:1042D0002BF0C5FA5F4A604B136000214FF6FF7365
:1042E000C2E903315D4B91610125202CCDE901111B
:1042F000C2E90151197028D1594A564806210CF0DB
:1043000005FF54480FF014F90446D8B94FF4805310
:104310005048079307A90DF0B3FB044690B96023FA
:10432000CDE90B300D900F9002460BA949480DF0D6
:10433000F1F8044630B947480CF054FC4548214692
:104340000EF06AF9204613B030BD402C2ED1454AFC
:10435000404802210CF0DAFE3E480FF09BF904467B
:104360000028EFD14FF480533A48079307A90DF086
:1043700087FB04460028E5D1CDE9010001A93548B5
:104380000FF03AFA04460028DCD1CDE90305CDE967
:104390000500024603A92F480DF018FA044600282C
:1043A000D0D101462B480EF071FACBE7802C42D1D8
:1043B0002D4A28480CF0AAFE26480EF055FF044668
:1043C0000028BFD14FF480532248079307A90DF06E
:1043D00057FB04460028B5D11E480FF05BF9044690
:1043E0000028AFD1CDE9010001A91A480FF004FA65
:1043F00004460028A6D1CDE90305CDE90500024613
:1044000003A914480DF0E2F9044600289AD10223CA
:104410001048042203A9CDE903330DF0D7F904466F
:1044200000288FD10B480CF0DDFB214609480EF027
:104430002DFA0421B6E7B4F5007F01D0002481E70E
:10444000FFF78CF90348FFF7A9F80248FFF710F9C6
:10445000F4E700BF941A002000040040281900204F
:1044600035340108993501088133010808B5084839
:104470000022102108F01EFE05480122802108F0CC
:1044800019FE03480122102108F014FE002008BD87
:104490000010024008B508480022102108F00AFE6A
:1044A00005480022802108F005FE03480122102162
:1044B00008F000FE002008BD0010024008B50348C7
:1044C0000022102108F0F6FD002008BD0010024077
:1044D00013B5084614460DF107030722002114F016
:1044E00087FF90B99DF80730072B9FBF0B4A0C49F7
:1044F00052F8232031F8133084BF03460246A10747
:1045000005D008490A60084A138002B010BD61074F
:10451000FBD506490A60064AF6E700BF90C10408C9
:1045200080C10408C01C0020BC1C0020B81C002056
:10453000B41C00202DE9F04FADF21C4D14460DF1D6
:104540001609002362068A46A9F8003003D584F0D4
:1045500040049A4E04E02306FBD5994E84F0800473
:10456000A4F11303032B39D8944B9E4284F010041A
:1045700041D0944B1F68944BB3F80080002F3DD17D
:10458000032C01D0062C08D14B46FF2201215046B6
:1045900014F023FF834600284AD1231F022B61D841
:1045A00006AB03930025F16800294CD106AB2B44E0
:1045B000FF22504614F01CFF834600284BD1039B7A
:1045C00001350233B5F5807F0393ECD1ADB2033CE6
:1045D000032C7AD8DFE804F04A8189B7A4F12303D9
:1045E000032B15D8754B9E4284F020040CD0774BDA
:1045F0001F68774BC0E7774F4FF010080022414605
:10460000384608F057FDBBE7734F4FF00108F5E758
:10461000631E012B11D805AB4FF6FF7200215046E7
:1046200014F0DBFE834618B9012C09D04FF0010BC2
:1046300058460DF21C4DBDE8F08F0027B8469FE7A5
:1046400007468046A0E7039B4FF6FF7200215046C5
:1046500014F0C3FEB0E740F23D129042E8D1002DC5
:10466000B4D1E5E74FF0010B0025B0E7B9F8002021
:10467000642386A930460CF02FF8834628BBF268E5
:1046800086ACE2B15D451EDDBBF1000F02D02C20EF
:104690002AF08AFD34F8021B50482AF03FFD0BF146
:1046A000010BEFE7BBF1000F02D02C202AF07CFDBC
:1046B00014F8011B4A482AF031FD0BF1010BB9F83F
:1046C00000205A45EEDC4FF0000B002FB0D0012245
:1046D0004146384608F0EEFCAAE764232A4606A9BC
:1046E00030460BF037FE8346EFE76423009386AA3B
:1046F0002B4606A930460BF0E9FE83460028E4D19C
:10470000F26886ACE2B15D45DDDDBBF1000F02D0A1
:104710002C202AF049FD34F8021B30482AF0FEFC18
:104720000BF1010BEFE7BBF1000F02D02C202AF0B8
:104730003BFD14F8011B2A482AF0F0FC0BF1010B99
:104740005D45F0DCBFE764232A4606A930460BF03E
:1047500001FE83460028B8D1B9F80020642386A959
:1047600030460BF0B9FF83460028AED1F26886AC24
:10477000F2B1B9F800205A45A5DDBBF1000F02D017
:104780002C202AF011FD34F8021B14482AF0C6FC34
:104790000BF1010BEDE7BBF1000F02D02C202AF04A
:1047A00003FD14F8011B0E482AF0B8FC0BF1010BB5
:1047B000B9F800205A45EEDC85E700BF70380020CC
:1047C00018380020C01C0020BC1C0020B81C002091
:1047D000B41C00200000024000040240E8B90408B4
:1047E0000C4B040808B50A48102108F051FC68B1C8
:1047F0008021074808F04CFC0649074B002818BFE9
:10480000194606482AF08AFC002008BD0449F8E74A
:1048100000100240E75B0408EF5B04080C8E0408FC
:104820001686040870B50846510686B035D592073D
:104830000DF103011AD014F089FB044698B9CDE9B3
:104840000300059010252D48012301A9CDE901534E
:1048500008F028FA9DF803202848003A18BF0122E2
:10486000294608F027FC204606B070BD14F06EFB08
:1048700004460028F7D1CDE9030005900125204822
:1048800001A9CDE9015508F00DFA9DF803201C4857
:10489000003A18BF01222946E3E712F08004E2D073
:1048A00093070DF1030119D014F050FB04460028C2
:1048B000D9D1144E144D33880193CDE9030001235F
:1048C00005900293286801A908F0ECF99DF80320EF
:1048D00031882868003A18BF0122C2E714F036FB7D
:1048E00004460028BFD1094E094D338801930123A6
:1048F000CDE9030005900293E4E700BF0000024009
:1049000000040240BC1C0020C01C0020B41C00207D
:10491000B81C002070B5294C236886B00D465BB9E1
:10492000CDE90333059301265723254801A9CDE995
:10493000013608F0B7F9266001A9284614F006FBF5
:104940000446C0BB0DF10501284614F0FFFA0446E9
:1049500088BB0DF10601284614F0F8FA044650BB56
:104960000DF10701284614F0F1FA044618BB02A91C
:10497000284614F0EBFA0446E8B99DF804201048E4
:10498000012108F097FB9DF805200D48022108F051
:1049900091FB9DF806200A48042108F08BFB9DF846
:1049A00007200748102108F085FB9DF808200448DF
:1049B000402108F07FFB204606B070BDB01C0020EF
:1049C000000C0240F0B5274B274E802A18BF1E4628
:1049D000351D0F460FCD8DB001AC0FC40FCD0FC4E8
:1049E00095E807000DF1020384E807004FF4807298
:1049F0000221384614F0F1FC341D30BBBDF8023002
:104A0000202B24D00CD8082B23D005D8022B0FD074
:104A1000042B20D0162018E0102BFBD1182007E023
:104A2000802B1AD0B3F5807F19D0402BF2D12820EB
:104A3000079001AD0FCD0FC40FCD0FC495E807004F
:104A400084E8070030460BF045FB0DB0F0BD18467A
:104A5000EEE71020ECE70820EAE73020E8E738200E
:104A6000E6E700BF703800201838002013B5002397
:104A700008460DF1070114468DF8073014F066FA68
:104A800038B9112C26D006DC012C0ED0022C18D0FF
:104A9000162002B010BD122CFAD19DF80730114A31
:104AA000003B18BF01235B0012E09DF807300E4A5F
:104AB000003B18BF01235B00136110460BF00AFB9B
:104AC000E7E79DF80730084A003B18BF01235B0069
:104AD0005361F2E79DF80730024A003B18BF0123FB
:104AE0005B00E9E7183800207038002013B5002378
:104AF00008460DF1070114468DF8073014F026FA28
:104B000020B9402C04D0802C0ED0162002B010BD4D
:104B10009DF80730084A003B18BF0123DB011362F0
:104B200010460BF0D7FAF1E79DF80730034A003B37
:104B300018BF0123DB01F2E770380020183800208D
:104B400013B5002308460DF1070114468DF8073010
:104B500014F0FCF920B9402C04D0802C0ED0162083
:104B600002B010BD9DF80730084A003B18BF012372
:104B7000DB02D36010460BF0ADFAF1E79DF8073089
:104B8000034A003B18BF0123DB02F2E77038002024
:104B90001838002013B5002308460DF1070114460C
:104BA0008DF8073014F0D2F920B9402C04D0802CB5
:104BB0000ED0162002B010BD9DF80730084A003B09
:104BC00018BF01231B01536210460BF083FAF1E773
:104BD0009DF80730034A003B18BF01231B01F2E791
:104BE00070380020183800202DE9F04186B00846C2
:104BF000144600210DF1030303228DF8031014F075
:104C0000F7FB48B1B0F58B7F03D040F23D139842DB
:104C100007D102238DF80330402C05D0802C4BD0D7
:104C2000162006B0BDE8F0819DF80340012C19D094
:104C3000022C25D07CB9CDE90344504805940125C8
:104C4000102401A9CDE9014508F02CF84B482A466B
:104C5000214608F02FFA4A4805F070FE48480BF04C
:104C600039FADEE700234748059301A9CDE903336C
:104C7000CDE9014408F016F8224642481146E8E71B
:104C8000002401253D480594102601A9CDE90344DF
:104C9000CDE9016508F006F82A463848314608F0A3
:104CA00009FA3848059401A9CDE90344CDE9015535
:104CB00007F0F8FF2A46E0E79DF80340012C19D0E1
:104CC000022C31D05CBB2F4D0594CDE90344012665
:104CD0004FF4804401A92846CDE9014607F0E2FFE0
:104CE00032462146284608F0E5F9274B1D60274B40
:104CF0001C8014E0234E0023022501A93046CDE993
:104D000003330593CDE9015407F0CCFF2246294631
:104D1000304608F0CFF91E4B1E601E4B1D801E480A
:104D200005F00CFE1C489AE7164D002601274FF4AB
:104D3000804801A92846CDE90366CDE9018705969B
:104D400007F0B0FF3A464146284608F0B3F90E4B4B
:104D500005961D600D4B01A92846A3F80080CDE9FA
:104D60000366CDE9014707F09DFF3A4621462846F4
:104D700008F0A0F9064B1D60064BB9E700000240A1
:104D80007038002000040240C01C0020BC1C002021
:104D9000B81C0020B41C00201838002000000000BF
:104DA000F7B51546002A66D0012A7CD0624C616AAC
:104DB000624B634A6348002918BF1A4611462AF01D
:104DC000ADF9E168604B614A6148002918BF1A4695
:104DD00011462AF0A3F9216A5E4B5F4A5F48002919
:104DE00018BF1A4611462AF099F921695C4B5D4AB1
:104DF0005D48002918BF1A4611462AF08FF96169EB
:104E00005A4B5B4A5B48002918BF1A4611462AF0E4
:104E100085F9E469202C6DD063D8102C69D05CD85A
:104E2000002C7CD0082C7CD053482AF01BFAFDB90A
:104E30000121524808F02CF9022104464F4808F09D
:104E400027F9042105464D4808F022F910210646AD
:104E50004A4808F01DF940210746484808F018F96B
:104E60003346CDE900702A46454821462AF056F9D6
:104E7000002003B0F0BD10214248434C08F008F96F
:104E80004249002818BF214641482AF047F901212C
:104E9000404808F0FDF83D49002818BF21463E482B
:104EA0002AF03CF982E74FF480413A48364C08F04A
:104EB000EFF83649002818BF214635482AF02EF968
:104EC0000221344808F0E4F83049002818BF214690
:104ED0003148324C2AF022F969E7182CA4D1102469
:104EE00008E0302C1FD0382C1FD0282C9CD1402417
:104EF00000E008242046FBF73DFA02460B460CA1D1
:104F0000D1E90001FBF7CAFB254B0022FBF7C6FBEA
:104F100002460B46234821462AF000F987E702247F
:104F2000E8E70424E6E78024E4E74FF48074E1E74F
:104F3000000000002A75954170380020F65C0408D6
:104F40007E5A0408C55A0408875A04088D5A040872
:104F5000D75A0408925A0408965A0408E95A0408D1
:104F6000C686040871BE0408FB5A0408B55D04082F
:104F70009A5A04080D5B04081F5B0408000C0240E9
:104F8000655B0408000002405B6604086CAF04081F
:104F9000A15A040800040240B35A0408183800203B
:104FA00000408F403D5B0408500638B50ED51021F7
:104FB0002C4808F06DF82C4B1B68996820B1312003
:104FC0002AF02EF8002038BD3020F9E71106F9D577
:104FD000930718D0254B1D68254B1C882146284671
:104FE00008F056F8204B1B689968A8B121482AF0B0
:104FF0006FF8214B9D421ED1B4F5806F0ED11F4832
:105000002AF08CF8DEE712F0040403D01C4B1D6874
:105010001C4BE2E72546E1E71B48E8E7B4F5006FE3
:1050200001D11A48ECE7402C01D11948E8E7802C5F
:10503000C8D11848E4E7184B9D4208D1022C01D191
:105040001648DDE7B4F5804FBCD11548D8E7054BCD
:105050009D42B7D1022C01D11248D1E7012CB1D128
:105060001148CDE70000024018030020C01C0020BA
:10507000BC1C00207E5B040800080240815B040821
:10508000B81C0020B41C002092540408845B04085F
:10509000565E0408904C04080004024019500408AD
:1050A000875B04085A66040885380408402A08B556
:1050B00003D0802A08D0162008BD064805F0C0FCA1
:1050C00004480BF017F9F7E7034805F0B9FC02486C
:1050D000F7E700BF703800201838002010B50446EC
:1050E00088B01422002103A82AF0B9FB2268134BD0
:1050F0009A4221D103F5F633002101911A6C104830
:1051000042F400221A641A6C02F400220192019AFD
:1051100002911A6B42F001021A631B6B03F0010348
:105120000293029B02220323CDE90332069303A9D3
:105130000823079307F0B6FD08B010BD004C0040EF
:10514000000002400268064B9A4208D1054A064810
:10515000136C23F400231364032107F0E9BE7047A6
:10516000004C0040003802400000024008B5104AE0
:1051700010480B210EF0B2FC0F4A0E480C210EF025
:10518000ADFC0C490D4B0B604FF4E1320023C1E93B
:10519000012308460C22C1E90333C1E90523CB6191
:1051A0000EF0B0FD18B1BDE8084005F017BA08BD13
:1051B000DD500108C41C002045510108004C00408E
:1051C0000148FFF7BFBF00BFC41C002010B51B4B38
:1051D0001B4C1C48012A18BF1C46616829F09EFF21
:1051E000A168194B194A1A48002918BF1A461146D6
:1051F00029F094FFE168174B174A1848002918BF97
:105200001A46114629F08AFF2369A3B11449154AA9
:10521000B3F5806F08BF1146134829F07FFFE1699D
:105220000A4B124A1248002918BF1A46114629F0A3
:1052300075FF002010BD0F49EEE700BFE43A0020E3
:10524000C41C002003650408F1640408F364040826
:105250001765040862AF04085B6604082A65040841
:10526000F5640408FE6404083D650408205D040834
:1052700050650408F96404082DE9F043C3B00DF14A
:1052800006070023062A884616463B8000F2B680B1
:105290005A23D340DB0707D53B46FF220121404676
:1052A00014F09BF8044640BB032E0BDC012E0CDCF3
:1052B0000022013E052E00F2A480DFE806F0223C29
:1052C00043637B7F731F012BF2D800250DF1080982
:1052D00009EB0503FF220021404614F089F804463B
:1052E00028B90135B5F5807FF2D1AAB2E1E740F2E5
:1052F0003D13984201D1002DF7D1204643B0BDE8BF
:10530000F0833A884048642302A90EF07DFC0446ED
:105310000028F2D102AD3B88A34201DC0024ECE777
:1053200014B12C2029F040FF15F8011B374829F053
:10533000F5FE0134EFE73448642302A90EF016FCB1
:105340000446DAE73048642302A90EF00FFC044655
:105350000028D2D13A882C48642302A90EF054FCCC
:1053600004460028C9D102AD3B88A342D6DD14B162
:105370002C2029F019FF15F8011B244829F0CEFE36
:105380000134F1E73A882248642302A90EF03CFC7C
:1053900004460028B1D102AD3B88A342BEDD14B162
:1053A0002C2029F001FF15F8011B184829F0B6FE42
:1053B0000134F1E71648642302A9BFE714486423C7
:1053C00002A90EF0D3FB0446002896D13A88104873
:1053D000642302A90EF018FC044600288DD102AD0A
:1053E0003B88A3429ADD14B12C2029F0DDFE15F88C
:1053F000011B064829F092FE0134F1E7032A7FF7EA
:1054000057AF012479E700BFE43A00200C4B0408B1
:10541000C41C002007B50846032A32D8DFE802F092
:105420000215212F0DF1070113F090FD50B99DF8E1
:105430000730154AB3FA83F35B09DB03D3611046E7
:105440000EF060FC03B05DF804FB0F4BDB690F4806
:10545000B3F5004F14BF1021082129F05FFE002092
:10546000F0E70DF1070113F071FD0028EAD19DF876
:105470000730074AB3FA83F35B09DB03DEE7044B2B
:10548000E4E71620DEE700BFE43A00206365040885
:10549000C41C002007B50846032A50D8DFE802F0F4
:1054A00002212F4B0DF107030222002113F0A0FF70
:1054B00038B99DF807303BB9224A136121480EF0F4
:1054C00021FC03B05DF804FB012B04D11D4B4FF40C
:1054D000C0621A61F2E7022BF0D11A4B4FF48062DE
:1054E000F7E7184B1B6943B31749184AB3F5806FA8
:1054F00008BF1146164829F011FE0020E1E70DF122
:1055000007030222002113F073FF0028D9D19DF870
:1055100007301BB90F4A13610E48D0E7012B04D1A5
:105520000C4B4FF4C0621A61F6E7022BF4D1094B21
:105530004FF48062F7E7074BD4E70749DAE7162014
:10554000BFE700BFE43A0020F5640408FE640408E5
:1055500044650408C41C0020F964040807B5023A35
:105560000846032A21D8DFE802F0021722320DF1A3
:1055700007030222012113F03BFF50B99DF80730C9
:10558000144A013B18BF01235B03D36010460EF0A1
:10559000B9FB03B05DF804FB0E4BDB680E48002B33
:1055A00014BF0221012129F0B9FD0020F1E70DF11E
:1055B00007030222012113F01BFF0028E9D19DF807
:1055C0000730064A013B18BF01235B03DDE7034BAD
:1055D000E3E700BFE43A002074650408C41C00201F
:1055E00007B50846032A31D8DFE802F00215202E5D
:1055F0000DF1070113F0AAFC50B99DF80730144AC9
:10560000003B18BF01231B03936010460EF07AFB8A
:1056100003B05DF804FB0E4B9B680E48002B14BFD3
:105620000921082129F07AFD0020F1E70DF1070199
:1056300013F08CFC0028EBD19DF80730064A003BA4
:1056400018BF01231B03DFE7034BE5E71620DFE765
:10565000E43A002081650408C41C0020022A37B502
:105660000846144601D0042A1DD1304D01AB2A460C
:10567000002113F06BFE00284ED10199B1F5614F66
:105680000ED023D8B1F5165F0AD016D8B1F5166F33
:1056900006D00FD8B1F5967F02D0B1F5966F42D102
:1056A000234829F03BFD023C032C34D8DFE804F00A
:1056B000272E3639B1F5965FF1E7B1F5964FEFD069
:1056C000B1F5164FECD0B1F5615FE8E7194B99429F
:1056D000E6D00CD8B1F5E12FE2D005D8B1F5E13F25
:1056E000DED0B1F5613FDAE7B1F5612FD7E7124BB4
:1056F0009942D5D0A942D3D0104B9942CFE7019B14
:105700000F4A536010460EF0FDFA05E00C4B596845
:105710000C4829F003FD002003B030BD019B0A4A6C
:10572000EFE7094BF3E71620F6E700BFA0252600B8
:105730009665040840420F0080841E0060E3160056
:10574000E43A0020AC650408C41C0020032A08B514
:1057500003D0042A05D0002008BD034805F07EFBD5
:10576000F9E7FFF72DFDF6E7E43A0020012A08B536
:1057700003D0022A05D0002008BD034805F002FB33
:10578000F9E7FFF7F3FCF6E7E43A0020034B1A7859
:10579000FF2A04BF00221A70704700BF3C1D002082
:1057A00010B5044B044800241C7029F05BFD204612
:1057B00010BD00BF3C1D00203E6B040807B5002350
:1057C00008460DF107018DF8073013F0BFFB9DF877
:1057D00007100348012200F0A5FB03B05DF804FBAD
:1057E0003C1D002008B500F0C5FC002008BD0000ED
:1057F00008B50348042113F0A5F9002008BD00BF37
:105800003C1D002007B54FF0FF330193084601AB64
:105810004FF48062002113F05DFD019A04480123DA
:105820004FF4805100F0E2FA03B05DF804FB00BFD2
:105830003C1D00200346B3F5867F084611460BD079
:10584000B3F58B7F024605D0B3F5817F07D10548BC
:1058500029F064BC0448FBE7044829F05FBC044815
:1058600029F05CBCA56B0408BD6B0408D96B040867
:10587000F36B040870B590B008464022694613F0F7
:1058800047FB054610BB2E216846FFF77FFF2AF035
:105890000BF80446A8B305704FF4805027F0B0FA17
:1058A0000423064602466946194812F041FD10B12C
:1058B000184A694607E001342146304612F07EFF5F
:1058C00038B1144A2146FFF7B5FF0125284610B02C
:1058D00070BD0F48694612F071FF10B1B0F5817FBD
:1058E000E6D10B484FF480533246694613F022F953
:1058F0000028DDD1304627F08BFA074829F0B2FCAA
:10590000E4E70348694612F059FF0028F5D0CFE7D5
