:020000040800F2
:1000000000000220357701081574010819740108F1
:1000100035740108377401083974010800000000C4
:10002000000000000000000000000000513D020838
:100030003B74010800000000E13D0208453E020853
:10004000857701088577010885770108857701089C
:10005000857701088577010885770108857701088C
:10006000857701088577010885770108857701087C
:10007000857701089535010885770108A1350108C4
:10008000857701088577010885770108857701085C
:10009000857701088577010885770108857701084C
:1000A000A146020885770108857701088577010850
:1000B000857701088577010885770108857701082C
:1000C000857701088577010885770108857701081C
:1000D0008577010885770108F153020885770108C3
:1000E00085770108857701088577010885770108FC
:1000F00085770108857701088577010885770108EC
:100100008577010885770108893501088577010819
:1001100085770108857701083D7401088577010816
:1001200085770108857701088577010885770108BB
:1001300085770108000000000000000085770108B5
:1001400085770108857701088577010849740108DA
:10015000857701088577010885770108857701088B
:10016000857701088577010885770108857701087B
:100170008577010885770108857701080000000070
:10018000000000008577010800000000000000006A
:100190008577010800000000000000008577010855
:1001A000000000000000000000000000857701084A
:1001B000857701088577010885770108857701082B
:0401C0008577010836
:020000040801F1
:1000000010B5054C237833B9044B13B10448AFF352
:1000100000800123237010BD380300200000000081
:1000200084BE020808B5034B1BB103490348AFF374
:10003000008008BD000000003C03002084BE0208D0
:1000400010F8012B11F8013B012A28BF9A42F7D082
:10005000D01A7047000000000000000000000000FF
:1000600001F0FF01102A2BDB10F0070F08D010F869
:10007000013B013A8B422DD010F0070F42B3F6D16D
:10008000F0B441EA012141EA014122F007047FF086
:1000900000070023F0E80256083C85EA010586EADD
:1000A000010685FA47F5A3FA87F586FA47F6A5FA19
:1000B00087F68EB9EED1F0BC01F0FF0102F0070225
:1000C00032B110F8013B013A83EA010313B1F8D1D0
:1000D0000020704701387047002D06BF35460338B1
:1000E000073815F0010F07D1013015F4807F02BFEA
:1000F000013015F4C03F0130F0BC0138704700BF3B
:10010000034613F8012B002AFBD1181A0138704757
:1001100081F0004102E000BF83F0004330B54FEAB8
:1001200041044FEA430594EA050F08BF90EA020F25
:100130001FBF54EA000C55EA020C7FEA645C7FEAB8
:10014000655C00F0E2804FEA5454D4EB5555B8BFDB
:100150006D420CDD2C4480EA020281EA030382EA4C
:10016000000083EA010180EA020281EA0303362DDE
:1001700088BF30BD11F0004F4FEA01314FF4801CB1
:100180004CEA113102D0404261EB410113F0004FC3
:100190004FEA03334CEA133302D0524263EB43037A
:1001A00094EA050F00F0A780A4F10104D5F1200E18
:1001B0000DDB02FA0EFC22FA05F2801841F1000173
:1001C00003FA0EF2801843FA05F359410EE0A5F147
:1001D00020050EF1200E012A03FA0EFC28BF4CF078
:1001E000020C43FA05F3C01851EBE37101F000452E
:1001F00007D54FF0000EDCF1000C7EEB00006EEB3B
:100200000101B1F5801F1BD3B1F5001F0CD34908C4
:100210005FEA30004FEA3C0C04F101044FEA44521B
:1002200012F5800F80F09A80BCF1004F08BF5FEAA2
:10023000500C50F1000041EB045141EA050130BD82
:100240005FEA4C0C404141EB0101013C28BFB1F594
:10025000801FE9D291F0000F04BF01460020B1FADF
:1002600081F308BF2033A3F10B03B3F120020CDAB2
:100270000C3208DD02F1140CC2F10C0201FA0CF090
:1002800021FA02F10CE002F11402D8BFC2F1200CF5
:1002900001FA02F120FA0CFCDCBF41EA0C019040AB
:1002A000E41AA2BF01EB0451294330BD6FEA0404F4
:1002B0001F3C1CDA0C340EDC04F11404C4F12002DF
:1002C00020FA04F001FA02F340EA030021FA04F3F1
:1002D00045EA030130BDC4F10C04C4F1200220FA48
:1002E00002F001FA04F340EA0300294630BD21FA86
:1002F00004F0294630BD94F0000F83F4801306BF4C
:1003000081F480110134013D4EE77FEA645C18BF3F
:100310007FEA655C29D094EA050F08BF90EA020FD6
:1003200005D054EA000C04BF1946104630BD91EACE
:10033000030F1EBF0021002030BD5FEA545C05D1D1
:100340004000494128BF41F0004130BD14F5800410
:100350003CBF01F5801130BD01F0004545F0FE4184
:1003600041F470014FF0000030BD7FEA645C1ABFB9
:10037000194610467FEA655C1CBF0B46024650EAF0
:10038000013406BF52EA033591EA030F41F400211C
:1003900030BD00BF90F0000F04BF0021704730B5A2
:1003A0004FF4806404F132044FF000054FF0000177
:1003B00050E700BF90F0000F04BF0021704730B538
:1003C0004FF4806404F1320410F0004548BF40420D
:1003D0004FF000013EE700BF42004FEAE2014FEA62
:1003E00031014FEA02701FBF12F07F4393F07F4F3D
:1003F00081F06051704732F07F4208BF704793F040
:100400007F4F04BF41F40021704730B54FF4607452
:1004100001F0004521F000411CE700BF50EA010255
:1004200008BF704730B54FF000050AE050EA0102FE
:1004300008BF704730B511F0004502D5404261EB6E
:1004400041014FF4806404F132045FEA915C3FF4AF
:10045000D8AE4FF003025FEADC0C18BF03325FEA4C
:10046000DC0C18BF033202EBDC02C2F1200300FAFD
:1004700003FC20FA02F001FA03FE40EA0E0021FA22
:1004800002F11444BDE600BF70B54FF0FF0C4CF410
:10049000E06C1CEA11541DBF1CEA135594EA0C0FC2
:1004A00095EA0C0F00F0DEF82C4481EA030621EAFD
:1004B0004C5123EA4C5350EA013518BF52EA033538
:1004C00041F4801143F4801338D0A0FB02CE4FF0EA
:1004D0000005E1FB02E506F00042E0FB03E54FF01A
:1004E0000006E1FB03569CF0000F18BF4EF0010E12
:1004F000A4F1FF04B6F5007F64F5407404D25FEA0E
:100500004E0E6D4146EB060642EAC62141EA5551C0
:100510004FEAC52040EA5E504FEACE2EB4F1FD0C02
:1005200088BFBCF5E06F1ED8BEF1004F08BF5FEA80
:10053000500E50F1000041EB045170BD06F0004632
:1005400046EA010140EA020081EA0301B4EB5C04DF
:10055000C2BFD4EB0C0541EA045170BD41F48011D7
:100560004FF0000E013C00F3AB8014F1360FDEBFFC
:10057000002001F0004170BDC4F10004203C35DAD8
:100580000C341BDC04F11404C4F1200500FA05F35B
:1005900020FA04F001FA05F240EA020001F00042FC
:1005A00021F0004110EBD37021FA04F642EB060172
:1005B0005EEA430E08BF20EAD37070BDC4F10C049C
:1005C000C4F1200500FA04F320FA05F001FA04F260
:1005D00040EA020001F0004110EBD37041F100014C
:1005E0005EEA430E08BF20EAD37070BDC4F1200557
:1005F00000FA05F24EEA020E20FA04F301FA05F2BF
:1006000043EA020321FA04F001F0004121FA04F266
:1006100020EA020000EBD3705EEA430E08BF20EA36
:10062000D37070BD94F0000F0FD101F00046400070
:1006300041EB010111F4801F08BF013CF7D041EAF2
:10064000060195F0000F18BF704703F000465200F6
:1006500043EB030313F4801F08BF013DF7D043EAC7
:100660000603704794EA0C0F0CEA135518BF95EA7D
:100670000C0F0CD050EA410618BF52EA4306D1D104
:1006800081EA030101F000414FF0000070BD50EA23
:10069000410606BF1046194652EA430619D094EAAD
:1006A0000C0F02D150EA013613D195EA0C0F05D197
:1006B00052EA03361CBF104619460AD181EA0301EB
:1006C00001F0004141F0FE4141F470014FF00000A3
:1006D00070BD41F0FE4141F4780170BD70B54FF03E
:1006E000FF0C4CF4E06C1CEA11541DBF1CEA1355BE
:1006F00094EA0C0F95EA0C0F00F0A7F8A4EB0504A0
:1007000081EA030E52EA03354FEA013100F0888096
:100710004FEA03334FF0805545EA131343EA12635F
:100720004FEA022245EA111545EA10654FEA002614
:100730000EF000419D4208BF964244F1FD0404F5CD
:10074000407402D25B084FEA3202B61A65EB030529
:100750005B084FEA32024FF480104FF4002CB6EBE6
:10076000020E75EB030E22BFB61A754640EA0C0066
:100770005B084FEA3202B6EB020E75EB030E22BFA6
:10078000B61A754640EA5C005B084FEA3202B6EBE7
:10079000020E75EB030E22BFB61A754640EA9C00A6
:1007A0005B084FEA3202B6EB020E75EB030E22BF76
:1007B000B61A754640EADC0055EA060E18D04FEA34
:1007C000051545EA16754FEA06164FEAC30343EAD4
:1007D00052734FEAC2025FEA1C1CC0D111F4801FA1
:1007E0000BD141EA00014FF000004FF0004CB6E79A
:1007F00011F4801F04BF01430020B4F1FD0C88BF39
:10080000BCF5E06F3FF6AFAEB5EB030C04BFB6EB43
:10081000020C5FEA500C50F1000041EB045170BD36
:100820000EF0004E4EEA113114EB5C04C2BFD4EB63
:100830000C0541EA045170BD41F480114FF0000EE7
:10084000013C90E645EA060E8DE60CEA135594EA63
:100850000C0F08BF95EA0C0F3FF43BAF94EA0C0F66
:100860000AD150EA01347FF434AF95EA0C0F7FF4DB
:1008700025AF104619462CE795EA0C0F06D152EA2F
:1008800003353FF4FDAE1046194622E750EA410613
:1008900018BF52EA43067FF4C5AE50EA41047FF424
:1008A0000DAF52EA43057FF4EBAE12E74FF0FF3C89
:1008B00006E000BF4FF0010C02E000BF4FF0010C5A
:1008C0004DF804CD4FEA410C7FEA6C5C4FEA430CD3
:1008D00018BF7FEA6C5C1BD001B050EA410C0CBF22
:1008E00052EA430C91EA030F02BF90EA020F002084
:1008F000704710F1000F91EA030F58BF994208BFEB
:1009000090422CBFD8176FEAE37040F001007047A7
:100910004FEA410C7FEA6C5C02D150EA013C07D1FE
:100920004FEA430C7FEA6C5CD6D152EA033CD3D049
:100930005DF8040B704700BF8446104662468C4643
:100940001946634600E000BF01B5FFF7B7FF002876
:1009500048BF10F1000F01BD4DF808EDFFF7F4FF9F
:100960000CBF012000205DF808FB00BF4DF808ED2A
:10097000FFF7EAFF34BF012000205DF808FB00BF4D
:100980004DF808EDFFF7E0FF94BF012000205DF86F
:1009900008FB00BF4DF808EDFFF7CEFF94BF012024
:1009A00000205DF808FB00BF4DF808EDFFF7C4FF1D
:1009B00034BF012000205DF808FB00BF4FEA410C66
:1009C0007FEA6C5C02D150EA013C0AD14FEA430C49
:1009D0007FEA6C5C02D152EA033C02D14FF0000086
:1009E00070474FF0010070474FEA410212F50012C4
:1009F00015D211D56FF47873B3EB625212D94FEA66
:100A0000C12343F0004343EA505311F0004F23FA4F
:100A100002F018BF404270474FF00000704750EAA4
:100A2000013005D111F0004008BF6FF00040704761
:100A30004FF00000704700BF4A0011D212F50012BB
:100A400011D20DD56FF47873B3EB62520ED44FEA26
:100A5000C12343F0004343EA505323FA02F07047A6
:100A60004FF00000704750EA013002D14FF0FF30E4
:100A700070474FF0000070474FEA4102B2F1E04387
:100A800024BFB3F5001CDCF1FE5C0DD901F0004C75
:100A90004FEAC0024CEA5070B2F1004F40EB8300C5
:100AA00008BF20F00100704711F0804F21D113F1F1
:100AB0003872BCBF01F00040704741F480114FEA2A
:100AC0005252C2F11802C2F1200C10FA0CF320FAB3
:100AD00002F018BF40F001004FEAC1234FEAD323D0
:100AE00003FA0CFC40EA0C0023FA02F34FEA43033A
:100AF000CCE77FEA625307D150EA01331EBF4FF0C3
:100B0000FE4040F44000704701F0004040F0FE40DD
:100B100040F40000704700BF53B94AB9002908BF2C
:100B200000281CBF4FF0FF314FF0FF3000F0BEB97E
:100B3000ADF1080C6DE904CE00F03CF8DDF804E0FE
:100B4000DDE9022304B0704738B5002200230446D3
:100B50000D46FFF70BFF28B920462946BDE838406F
:100B600000F00AB8204605F1004100F005F84042C7
:100B700061EB410138BD00BFD0B50C4B00220646E9
:100B80000F46FFF781FCFFF757FF0446FFF702FC13
:100B9000074B0022FFF778FC02460B4630463946E9
:100BA000FFF7BAFAFFF748FF2146D0BD0000F03D3D
:100BB0000000F0412DE9F047089D8E460446884626
:100BC000002B4AD18A42174662D9B2FA82F64EB158
:100BD000C6F1200301FA06F820FA03F3B74043EA0E
:100BE0000808B4404FEA174E1FFA87FCB8FBFEF125
:100BF000230C0EFB118843EA084301FB0CF29A42D6
:100C000009D9FB1801F1FF3080F0EA809A4240F2E6
:100C1000E78002393B449A1AA3B2B2FBFEF00EFB06
:100C2000102243EA024300FB0CFC9C4509D9FB1847
:100C300000F1FF3280F0D6809C4540F2D3803B44E7
:100C4000023840EA0140A3EB0C0300211DB1F34040
:100C50000022C5E90032BDE8F0878B4205D90DB10D
:100C6000C5E9000100210846F5E7B3FA83F1002940
:100C700046D1734502D3824200F20581841A6EEB9D
:100C8000030201209046002DE5D0C5E90048E2E7C7
:100C9000002A00F09080B2FA82F6002E40F0A48084
:100CA0008A1A030C4FEA174E80B2BCB20121B2FB84
:100CB000FEFC0EFB1C2243EA024304FB0CF29A42A8
:100CC00007D9FB180CF1FF3802D29A4200F2E080FB
:100CD000C4469B1AB3FBFEF20EFB123340EA0343F9
:100CE00002FB04F49C4207D9FB1802F1FF3002D248
:100CF0009C4200F2CA8002461B1B42EA0C40A5E758
:100D0000C1F120068B4022FA06F71F430EFA01F4C8
:100D100020FA06F32EFA06FE4FEA1749234300FA9B
:100D200001F81FFA87FCBEFBF9F01C0C09FB10EE62
:100D300044EA0E4400FB0CFEA64502FA01F209D972
:100D40003C1900F1FF3A80F09C80A64540F2998062
:100D500002383C44A4EB0E041FFA83FEB4FBF9F303
:100D600009FB13444EEA044403FB0CFCA44508D9D8
:100D70003C1903F1FF3E80F08280A4457FD9023BFD
:100D80003C4443EA0040A4EB0C04A0FB02EC6445A5
:100D90007346E14662D35FD05DB1B8EB030264EB0A
:100DA000090404FA06F622FA01F31E43CC40C5E911
:100DB000006400214FE7B1FBF2FC010C41EA0E4157
:100DC00080B240EA01423B4638463C46B846BE4601
:100DD0002026B1FBF7F1A2EB080241EA0C4166E7DD
:100DE000014618E710462CE7C6F120022EFA02F35E
:100DF000B740B14020FA02F24FEA174E0A43B3FB64
:100E0000FEF8BCB20EFB1833110C41EA034108FB9B
:100E100004F9B04089454FEA104380B23ED97918B1
:100E200008F1FF3C01D289451FD8A1EB0901B1FBB4
:100E3000FEF909FB04F80EFB191192B242EA0142D5
:100E4000424529D2BA1809F1FF31C4D24245C2D273
:100E5000A9F102013A44BEE7F0459DD2BEEB020380
:100E60006CEB070C0138E14696E7A7EB090949440A
:100E7000A8F1020CB1FBFEF909FB04F8DBE77346AD
:100E80007FE7504666E70846FDE63B44023A33E713
:100E9000ACF1020C3B441CE749469CE7A1EB09017D
:100EA000C446B1FBFEF909FB04F8C4E7704700BF74
:100EB0002DE9F043324E334C334F87B003220025E7
:100EC000012301A93046CDE901324FF00209CDE9F5
:100ED0000355059508F0ECF801A93046CDF80490CB
:100EE00008F0E6F84FF4805301A9204601934FF42F
:100EF000806808F0DDF801A93846CDF8048008F0D4
:100F0000D7F84FF4804301A93846019308F0D0F890
:100F100001A93846CDF8049008F0CAF8802301A949
:100F20002046019308F0C4F8402301A9204601930C
:100F300008F0BEF801A92046CDF8048008F0B8F802
:100F4000082301A92046019308F0B2F804230DEB11
:100F500003012046019308F0ABF84FF4007301A998
:100F60003046019308F0A4F84FF40063204601A92D
:100F7000019308F09DF8284607B0BDE8F08300BF54
:100F800000000240000802400004024082B000233A
:100F90000193064B1A6C42F008021A641B6C03F0B2
:100FA00008030193019B02B0704700BF0038024064
:100FB000024A136C23F008031364704700380240A0
:100FC00070B5102694B0374D0024324600210DEB49
:100FD000060018F051FB21461C220DA8CDE9024461
:100FE00018F04AFB2146304A28460CF093FA2F4A63
:100FF000012128460CF08EFA2D4BAE60C5E9003475
:101000002C23C5E9033428468023AB610EF036FB60
:101010000446002843D14FF480530DEB06012846C7
:1010200004930CF031FF0446002838D128460EF016
:10103000D7FB0446002832D1CDE9020002A9284698
:101040000EF0E4FD044650BB3023CDE90D300F9087
:10105000119002460DA928460CF076FB0446F0B923
:101060002A689369CDE90A0043F008039361114BA4
:1010700001901A6B104842F001021A631B6B03F0D7
:1010800001030193019B0122022308A9CDE9082352
:101090000C9308F00DF8214628460DF089FB2046F8
:1010A00014B070BD540300208D0F0108B10F01086A
:1010B000000C0040003802400000024010B5054C12
:1010C000002120460DF028FC20460BF019FF0020DF
:1010D00010BD00BF5403002070B5134E3368D3B168
:1010E000124CB4FBF0F4651E2946114817F088FF36
:1010F0002046FFF74FF902460B4609A1D1E900014E
:10110000FFF7ECFA02460B460A4817F079FF3368FE
:101110000020DD6270BD0120FCE700BFAFF300805E
:10112000000000002A7585415403002040A5AE024E
:1011300058BF020864BF020808B5024818F004F856
:10114000002008BD6FBF020808B513F0AFF90146D3
:10115000024817F055FF002008BD00BF17C4020861
:10116000F7B54FF4F04015F03FFE0446002800F0BC
:101170008D81CD4817F0E8FFCC4B1B68DB0340F1B5
:1011800072810AF0F5FA07EE900AF8EE677A17EE28
:10119000900AFFF721F9C0A3D3E90023FFF79EFAD5
:1011A0000246C3480B4617F02BFFC249C24817F04E
:1011B00027FFC24817F0C8FF13F078F91426054638
:1011C0004FF4F0420021204618F056FA013EF7D1C4
:1011D00013F06CF9401B07EE900AF8EE677A1426BC
:1011E00017EE900AFFF7F8F8B54B0022FFF776FAF2
:1011F00002460B46B3481E2117F002FF13F056F9C2
:1012000004F5705705464FF470523946204618F0E1
:1012100094FB013EF7D113F049F9401B07EE900A09
:10122000F8EE677A142617EE900AFFF7D5F8A44B6C
:101230000022FFF753FA02460B46A3480F2117F08E
:10124000DFFE13F033F905464FF47052394620465D
:1012500018F002FA013E0190F6D113F027F9401B75
:1012600007EE900AF8EE677A984F17EE900AFFF7AC
:10127000B3F8934B0022FFF731FA02460B4694482D
:101280000F2117F0BDFE934817F05EFF13F00EF923
:10129000142605464FF470523946204618F04DFB8F
:1012A000013EF7D113F002F9401B07EE900AF8EE69
:1012B000677A864F17EE900AFFF78EF8804B002270
:1012C000FFF70CFA02460B467F480F2117F098FEF5
:1012D00013F0ECF8142605464FF4705221463846B8
:1012E00018F0BAF9013E0190F6D113F0DFF8401B77
:1012F00007EE900AF8EE677A17EE900AFFF76CF89F
:101300006F4B0022FFF7EAF902460B4670480F21A7
:1013100017F076FE704817F017FF0023009313F0C4
:10132000C5F842F210730546B7EE007ADDED007A9B
:1013300077EE877A013BCDED007AF7D113F0B6F85E
:10134000401B07EE900AF8EE677A644F17EE900A9A
:10135000FFF742F852A3D3E90023FFF7BFF9024693
:101360000B465F4817F04CFE009713F09FF84FF4C0
:101370007A7605460098FFF72FF841EC100B14F031
:1013800049FA51EC100BFFF777FB013E0090F1D1C9
:1013900013F08CF8401B07EE900AF8EE677A4FF4D2
:1013A0007A7617EE900AFFF717F84E4B0022FFF7F8
:1013B00095F902460B464C4817F022FE4B4B009322
:1013C00013F074F805460098FFF706F841EC100B8F
:1013D00014F04EFA51EC100BFFF74EFB013E00905B
:1013E000F1D113F063F8401B07EE900AF8EE677A2C
:1013F0004FF47A7517EE900AFEF7EEFF394B002294
:10140000FFF76CF902460B46394817F0F9FD0097D3
:1014100013F04CF806460098FEF7DEFF41EC100B87
:1014200014F0BAF951EC100BFFF726FB013D0090C8
:10143000F1D113F03BF8801B07EE900AF8EE677AC3
:1014400017EE900AFEF7C8FF264B0022FFF746F979
:1014500002460B46274817F0D3FD204615F0CCFC7A
:10146000284603B0F0BD0AF083F907EE900AF8EEC3
:10147000677A17EE900AFEF7AFFF07A3D3E90023C0
:10148000FFF72CF902460B461B488CE64FF486709A
:10149000E7E700BFAFF300800000000080842E412A
:1014A000000000000088C3401CC40208003802404D
:1014B00036C4020855C4020859C4020862C40208AE
:1014C000000034407EC4020896C402088D6F0108F3
:1014D000AEC40208C6C40208E3C4020800401C46A9
:1014E00000C5020800408F4018C50208C3F54840F7
:1014F00030C5020848C5020844C4020813B547F2C3
:101500003052084601AB012113F03CFB044610B9F0
:10151000019810F060FA204602B010BD13B5074ADA
:10152000084601AB012113F02DFB044610B90198C8
:1015300012F0B2FF204602B010BD00BF80C3C90147
:1015400008B506F047F90146024817F059FD00209A
:1015500008BD00BF17C4020830B58DB00D46142277
:10156000002107A818F088F80023069340F63302FC
:101570000DF116034FF4FA61284613F03FFB0446C1
:10158000002864D1BDF8163030338DF81B300C22A2
:101590000DF119030121284613F03BFB04460028F6
:1015A00055D10DF11A031F220121284613F031FBFA
:1015B000044600284BD1014607AB1722284613F0FA
:1015C00028FB0446002842D101460DF11D033B22B1
:1015D000284613F01EFB0446002838D101460DF1C1
:1015E0001E033B22284613F014FB044678BB024638
:1015F00006A918480AF0E4FD044640BB024607A9C4
:1016000014480AF0E3FC044608BB024607A9114847
:101610000AF0A6FD0446D0B9024606A90D480AF014
:101620006BFE044698B99DF81E309DF81B1002937E
:101630009DF81D3001939DF81C3000939DF81920F2
:101640009DF81A30044801F5FA6117F0D9FC2046DC
:101650000DB030BDE039002060C5020810B58AB079
:101660001248002205A90AF07BFD0446D0B90246C3
:1016700004A90E480AF040FE044698B99DF81630B9
:101680009DF8131002939DF8153001939DF81430C6
:1016900000939DF811209DF81230054801F5FA617C
:1016A00017F0AEFC20460AB010BD00BFE0390020A4
:1016B00060C5020808B5002013F08CFC002008BDAE
:1016C00010B5084C204617F03FFD12F0FBFF04F068
:1016D000D9FA0146044817F093FC204617F034FD70
:1016E000002010BD7FC50208BCC5020813B5FF224B
:1016F00008460DF10703002113F08BFA0446A0B948
:101700009DF807302A2B13D10A4817F01DFD0A2037
:1017100010F061F9084B1B68986817F00DFA4FF448
:10172000FA7010F058F903F0B1FF204602B010BD76
:101730000124FAE7D2C50208E80200202DE9F843A7
:10174000214B224C1868224B1E68224BE41A2411AC
:1017500018B103780BB117F0F7FC1E4DDFF8888045
:10176000DFF878900027BC4208D126B1337813B156
:10177000304617F0E9FC0020BDE8F883EA68D2B1F2
:101780002968C1B11378B3B10B7818F8030080074A
:1017900003D103F0EF002A2803D1484617F030FCAC
:1017A00009E02D2B04D03F2B08D00B490B48F5E75F
:1017B0000B4817F0C9FC01371035D4E7114609482A
:1017C00017F01EFCF7E700BF0400002028350308CF
:1017D00000000020881F030847CA0208FDC5020850
:1017E00009C6020859C60208411A030807B50421B0
:1017F0000DEB010000F010FB0198FEF7EDFD024635
:101800000B46034817F0FCFB002003B05DF804FB17
:10181000CAC9020807B504210DEB010000F0C0FAA7
:101820000198FEF7D9FD02460B46034817F0E8FB86
:10183000002003B05DF804FBCAC9020807B501A87F
:1018400000F06EFA0198FEF7C7FD02460B4603480A
:1018500017F0D6FB002003B05DF804FBDFC90208D7
:101860002DE9F3474648474C474E484D17F0C8FB13
:1018700014F8011B304617F0C3FBAC42F8D10A2024
:10188000434CDFF83C81DFF83C91DFF83CA117F0D6
:10189000FDFB404817F058FC3F4817F0B1FB2168AA
:1018A0003E4817F0ADFB61683C4817F0A9FBA16802
:1018B0003A4817F0A5FB0A2017F0E8FB384867689C
:1018C00017F09EFB00240025E619A95D404601356E
:1018D00017F096FB102DF8D1484617F091FB002524
:1018E000A85DA0F120035E2B88BF2E20013517F0E4
:1018F000CDFB102DF4D10A2017F0C8FB04F580743D
:10190000504617F07DFBB4F5E06FDCD10A2017F0EC
:10191000BDFB684600F004FA0098FEF75DFD024644
:101920000B46204817F06CFB04210DEB010000F082
:1019300037FA0198FEF750FD02460B461A4817F099
:101940005FFB04210DEB010000F066FA0198FEF741
:1019500043FD0B460246154817F052FB4FF4005169
:10196000134807F09BFD134A1349002808BF11468E
:10197000124817F045FB002002B0BDE8F08700BF19
:10198000F7C90208107AFF1F04CA0208207AFF1F55
:101990000000FF1F09CA020815CA020822CA02086D
:1019A00029CA0208DFC9020849CA0208CAC90208CE
:1019B000000802401CED0208DEDC02085ECA0208D4
:1019C00036CA020846CA02083CCA0208002070470C
:1019D00008B5024817F0B8FB002008BDE2CA0208AB
:1019E00008B5024817F0B0FB002008BD69020308E3
:1019F0007FB50A4B04930A4B03930A4B02930A4A9E
:101A00000A4B0193D37F0093937F09480A32102138
:101A100017F0F6FA002007B05DF804FB11CB0208BE
:101A20002BCB020838CB0208200000203CCB020858
:101A3000E9CA020838B51B4C1B4817F0E1FA2368C5
:101A4000986817F079F8194817F0DAFA2368986857
:101A500017F072F83125284617F018FB23689868AC
:101A600017F06AF8013564200FF0B5FF362DF2D17A
:101A700023680F48996817F09DFA2368986817F053
:101A80005BF832200FF0A7FFBFF34F8F09490A4BD5
:101A9000CA6802F4E0621343CB60BFF34F8F00BF0C
:101AA000FDE700BFE8020020F6C5020843CB0208AC
:101AB00062CB020800ED00E00400FA0508B5032A35
:101AC00018D8DFE802F0020E10120B4B1968072934
:101AD0000DD80A4B0A4833F8111017F091FA00207C
:101AE00008BD084BF2E7084BF0E7084BEEE7084863
:101AF00017F086FA0120F3E714000020A212030871
:101B00006ACD0208100000200C0000200800002010
:101B10006ECD020807B5032A38D8DFE802F00213B9
:101B20001F2B1B4B01A8196800F03AF90198FEF72A
:101B300053FC024617480B4617F062FA002003B028
:101B40005DF804FB144B01A8196800F065F90198D1
:101B5000FEF742FC02460B461048EDE7104B01A889
:101B6000196800F095F90198FEF736FC02460B461D
:101B70000C48E1E70C4B01A8196800F0C5F9019881
:101B8000FEF72AFC02460B460848D5E70120D6E7B7
:101B90001400002049CA020810000020CAC9020827
:101BA0000C00002087CD0208080000209CCD020810
:101BB00013B50846144601AB4FF4F072032112F03E
:101BC000E1FF68BB019B542B1CD00DD81C2B1BD0F4
:101BD00006D8032B1AD00F2B1AD04FF48B701FE0AE
:101BE000382BFAD1032307E0902B13D0B3F5F07F05
:101BF00012D0702BF1D10523032C19D8DFE804F0A3
:101C00000E1214160423F7E70223F5E70346F3E761
:101C10000123F1E70623EFE70723EDE7054A136009
:101C200002B010BD044AFAE7044AF8E7044AF6E7AE
:101C30000120F5E714000020100000200C00002017
:101C40000800002010B58CB0314B002101911446E2
:101C50005A6C42F480725A645A6C02F48072019297
:101C6000019A02915A6C42F400725A645A6C02F45E
:101C700000720292029A03915A6C42F480625A6492
:101C80005A6C02F480620392039A04911A6B42F038
:101C900001021A631A6B02F001020492049A059180
:101CA0001A6B42F002021A631A6B02F002020592EA
:101CB000059A06911A6B42F004021A631B6B03F03B
:101CC00004030693142207A8069B17F0D5FC032CE7
:101CD0001BD8DFE804F0020D0F13012307930D4812
:101CE0000323089307A907F0E3F900200CB010BD07
:101CF0000223F3E7084817F027FAF6E70222032346
:101D0000CDE90723054807A9EDE70120EEE700BF6D
:101D10000038024000000240B1CD02080004024039
:101D20007FB51A4B1A4D06460FCB6C4684E80F0060
:101D30002146284605F08EFF322012F0ADFB2846E2
:101D400005F0A0FE6421284605F02EFF284605F088
:101D50007EFF104B9FED107A9A8DDB8D811A07EE76
:101D6000901AF8EE677A9B1A67EE877A07EE103AB8
:101D7000B8EEC77A0020C7EE876AF3EE0E7A76EEE9
:101D8000A77AC6ED007A04B070BD00BFA0BE0208FD
:101D900000360020007AFF1F0000A0420000000073
:101DA0007FB51B4C00250123CDE902150646694687
:101DB0002046CDE9005305F04DFF322012F06CFBB8
:101DC000204605F05FFE6421204605F0EDFE20462A
:101DD00005F03DFF07EE900A9FED0E7AF8EE677A68
:101DE000C7EE877A17EE900AFEF7F6FA06A3D3E954
:101DF0000023FEF749FBFEF73FFE3060284604B0A3
:101E000070BD00BFAFF300806666666666660A4016
:101E10007035002000F07F457FB51B4C02910123F7
:101E20006946054600262046CDE90033039605F0B5
:101E300011FF322012F030FB204605F023FE642112
:101E4000204605F0B1FE204605F001FF07EE900A9E
:101E50009FED0E7AF8EE677AC7EE877A17EE900A52
:101E6000FEF7BAFA06A3D3E90023FEF70DFBFEF74F
:101E700003FE2860304604B070BD00BFAFF30080A1
:101E80006666666666660A40B835002000F07F45E3
:101E90007FB51B4C00250123CDE902150646694696
:101EA0002046CDE9005305F0D5FE322012F0F4FAB9
:101EB000204605F0E7FD6421204605F075FE20462A
:101EC00005F0C5FE07EE900A9FED0E7AF8EE677AF0
:101ED000C7EE877A17EE900AFEF77EFA06A3D3E9DB
:101EE0000023FEF7D1FAFEF7C7FD3060284604B0A4
:101EF00070BD00BFAFF300806666666666660A4026
:101F0000B835002000F07F457FB51B4C02910922B7
:101F100001236946054600262046CDE900230396A5
:101F200005F098FE322012F0B7FA204605F0AAFD1F
:101F30006421204605F038FE204605F088FE07EEB5
:101F4000900A9FED0E7AF8EE677AC7EE877A17EE61
:101F5000900AFEF741FA06A3D3E90023FEF794FAAC
:101F6000FEF78AFD2860304604B070BDAFF30080F4
:101F70006666666666660A400036002000F07F45A9
:101F80002DE9F0418AB014468846142200216846A3
:101F900017F072FB04F01F03013B112B5AD8304A93
:101FA00052F823502F4A32F8136004F0C003C02BBC
:101FB00005D100966946284607F07AF821E004F03A
:101FC000A003A02B1FD10027012305A928460693B3
:101FD000CDE907770997059607F06AF805A9404605
:101FE0008DF8147012F00CFC044620B1B0F58B7F14
:101FF00017D18DF814709DF814203146284607F04B
:102000005FFA00240DE0A1060FD505A9404612F0A5
:10201000F7FB044628B99DF814203146284607F0FE
:102020004FFA20460AB0BDE8F08162060CD5314671
:10203000284607F033FA0C4A0C4B00280CBF104618
:10204000184617F081F8DCE7E30503D50323009673
:102050000193AFE7064817F077F80124E1E700BFE6
:10206000D8120308B21203086902030886F50208B1
:10207000B0CF0208024BF7221A700020704700BF51
:10208000081D0020034A137843F008031370002052
:10209000704700BF081D002007B508460DF1070175
:1020A00012F0AEFB38B99DF80720064B32B11A7812
:1020B00042F004021A7003B05DF804FB1A7802F0D3
:1020C000FB02F7E7081D002007B508460DF10701E0
:1020D00012F096FB38B99DF80720064B32B11A78FA
:1020E00042F002021A7003B05DF804FB1A7802F0A5
:1020F000FD02F7E7081D002007B508460DF10701AE
:1021000012F07EFB38B99DF80720064B32B11A78E1
:1021100042F001021A7003B05DF804FB1A7802F075
:10212000FE02F7E7081D002010B586B00C46142209
:10213000002101A817F0A0FA20460DF103030222A6
:10214000002112F066FD044678B99DF803307BB19A
:10215000012B0CBF012302230648039301A906F0BB
:10216000A7FF054801A906F0A3FF204606B010BD51
:102170000346F1E7000802400004024007B50846A4
:102180003AB10C490C4816F03BFF002003B05DF853
:1021900004FB0DF1070112F033FB0028F6D19DF886
:1021A00007300648003B18BF0123DB01036207F03C
:1021B000A1FBEBE72EDD0208790D03088C39002026
:1021C00007B508463AB10C490C4816F019FF002033
:1021D00003B05DF804FB0DF1070112F011FB0028BC
:1021E000F6D19DF807300648003B18BF01239B013C
:1021F000C36107F07FFBEBE72EDD0208790D0308D2
:102200008C39002007B508463AB10C490C4816F045
:10221000F7FE002003B05DF804FB0DF1070112F09A
:10222000EFFA0028F6D19DF807300648003B18BFAA
:102230000123436107F05EFBECE700BF2EDD0208DF
:10224000790D03088C39002007B5084642B10B4BC5
:102250000B48596816F0D4FE002003B05DF804FB6B
:10226000084A01AB012112F08DFC0028F5D103488A
:10227000019B436007F03EFBEFE700BF8C39002075
:1022800035DD0208801A060007B5084611464AB136
:10229000104B11481B68196916F0B2FE002003B0FC
:1022A0005DF804FB01AB4FF0FF3212F06BFC00282D
:1022B000F5D108490B681A6822F001021A60019AE8
:1022C0004A6022F070621A611A6842F001021A60D4
:1022D000E5E700BF4836002035DD0208F0B50E46C0
:1022E000C7B000211546022704AB4FF6FF723046F7
:1022F000ADF81610ADF8147012F080FC01460028FD
:1023000040F02481BDF81030012D4FEA4303ADF8B1
:10231000103038D80DF112034FF6FF72304612F02C
:102320006DFC044638B905AB3A460121304612F03F
:1023300065FC044620B1204647B0F0BD062D32D8DA
:102340005523EB40DA0709D50DF11603FF220121D1
:10235000304612F053FC04460028ECD1AA23EB408F
:10236000DB0722D5002706AB3B44FF220021304685
:1023700012F04FFC044608BB0137B7F5807FF2D15D
:10238000ADF8167011E02B1F012BD7D80DF11203F9
:102390004FF6FF72304612F031FC04460028CAD1D5
:1023A00005AB1022C1E7072DD8D9072D00F2D08048
:1023B000DFE805F00B3042616C90A1C140F23D13A3
:1023C0009842B8D1002FDBD1B5E76423029306AD64
:1023D000BDF816300193BDF81220BDF81430BDF8D9
:1023E00010105C48009506F0C7FC04460028A2D1F6
:1023F000594EBDF81630A34201DC00249BE714B10E
:102400002C2016F043FE15F8011B304616F0F8FD9F
:102410000134EEE764230293BDF81630019306AB56
:102420000093BDF81220BDF81430BDF810104948D3
:1024300006F0BEFB04467EE764230093BDF810104F
:10244000BDF81630434806AA06F018FB04460028DB
:102450007FF471AF404E06ADBDF81630A342CCDD1F
:1024600014B12C2016F012FE15F8011B304616F0A0
:10247000C7FD0134F0E764230093BDF81010BDF8E8
:102480001630344806AA06F04BFAD3E764230293C9
:1024900006ADBDF816300193BDF81220BDF814301A
:1024A000BDF810102D48009507F01EFE04460028C8
:1024B0007FF441AF284EBDF81630A3429DDD14B124
:1024C0002C2016F0E3FD15F8011B304616F098FDA0
:1024D0000134F0E764230293BDF81630019306AB94
:1024E0000093BDF81220BDF81430BDF810101B4841
:1024F00007F060FD9EE764230093BDF81010BDF85F
:102500001630164806AA07F0DBFB044600287FF4C5
:1025100012AF114E06ADBDF81630A3427FF76DAF76
:1025200014B12C2016F0B2FD15F8011B304616F040
:1025300067FD0134EFE764230093BDF81010BDF888
:102540001630064806AA07F0E1FA73E70446F2E6F9
:102550000124F0E6483600203DDD02088C390020D9
:10256000154A38B5D2F8944014F440040D4607D10A
:10257000124B036008F080FD034600202B6038BD3D
:10258000D2F8943003F44003B3F5800F04D10C4B20
:10259000036009F0EDF8EFE7D2F8943003F440035C
:1025A000B3F5000F03D1074B0360074BE5E7074B7B
:1025B000036000230120E1E70038024042DD020809
:1025C00048DD02084FDD02080024F40053DD020854
:1025D00030B585B008469FED181B9FED190B02AA78
:1025E000002112F06DF9044608BB01A96846FFF707
:1025F000B7FF0446D8B9DDE90201FEF71DFA01462E
:10260000019800F0B9F9054601460F4816F0F8FCAC
:1026100085B10E490B681A6822F001021A604D60FC
:1026200025F070651D611A6842F001021A602046AB
:1026300005B030BD0124FAE70000000065CDCD41B2
:1026400000000000000000005BDD020848360020AA
:1026500008B532B1012A09D0064816F075FD0120EF
:1026600003E0054804F06EFA002008BD034804F0BA
:10267000DBFBF9E7B0CF0208483600208C39002098
:1026800008B532B1012A09D0084816F05DFD0120D5
:1026900003E0074804F010FA002008BD054804F0E4
:1026A00071FB044807F026F9F6E700BFB0CF020837
:1026B000483600208C39002007B5084672B1114B0E
:1026C00011491B69114813F4804F114B18BF19466B
:1026D00016F096FC002003B05DF804FB0DF1070135
:1026E00012F08EF80028F6D19DF807300548002B2F
:1026F0000CBF4FF440434FF48043036107F0FAF8F6
:10270000E9E700BF8C39002059E20208790D03087F
:1027100075DD020807B508467AB1104B10491B68F1
:1027200010481B6813F4805F0F4B18BF194616F052
:1027300067FC002003B05DF804FB0DF1070112F007
:102740005FF80028F6D19DF8073023B10146034811
:1027500006F0FAFBEEE74FF48051F8E74836002028
:10276000DEDC0208790D03081CED02080000000001
:1027700073B5002A41D101A96846FFF7F1FEDDEDEE
:10278000017A354CF8EE677A17EE900AFDF724FED1
:102790002FA3D3E90023FDF7A1FF02460B462F48E4
:1027A000009916F02DFC23682D48196916F028FCB5
:1027B0002C4BDA6AD2071ED5DB6A2B4913F0020FC5
:1027C0002A4B08BF19462A4816F01AFC23682948E4
:1027D0001968C1F3032116F013FC236826481B680F
:1027E000214913F4805F214B18BF194616F008FCED
:1027F000002002B070BD1D49E5E7012AF8D11F4C49
:102800001F486168194E184D16F0FAFB1D4A1E4B01
:1028100021691E4800290CBF1146194616F0F0FB2D
:1028200061691B4800290CBF3146294616F0E8FBB8
:10283000E169184800290CBF3146294616F0E0FB33
:10284000216A154800290CBF31462946CEE700BF52
:102850000000000080842E414836002085DD0208FB
:102860005BDD020800380140DEDC02081CED0208D6
:10287000A4DD0208B9DD0208CEDD02088C39002093
:10288000E3DD02087FDD02087ADD0208F8DD0208D8
:102890000FDE020826DE02083DDE020807B5084604
:1028A00011465AB10D4B0E481B681968C1F303213C
:1028B00016F0A6FB002003B05DF804FB0DF1070342
:1028C0000F2212F0A6F90028F5D19DF80710034851
:1028D00001F00F0106F072FBEDE700BF4836002063
:1028E000AD10030813B508467AB1134BDA6AD20764
:1028F00009D5DB6A9B0706D5104816F081FB00243A
:10290000204602B010BD0E48F7E70DF1070111F0A7
:1029100077FF04460028F3D19DF8073001202BB142
:1029200006F084FB022006F081FBE9E706F09EFB3F
:10293000022006F09BFBE3E700380140DEDC0208E2
:102940001CED020808B5094816F0FEFB08490B68A3
:102950001A6822F001021A60064A1A614A601A686F
:1029600042F001021A60002008BD00BF54DE0208D8
:1029700048360020362C90002DE9F04F91B018B960
:10298000002011B0BDE8F08F924B9942F8D9924BDC
:1029900099425CD9914B9942F2D9914B994258D9BD
:1029A000904BA1F56721A1F56F619942E8D8022209
:1029B000DFF840E20EEB5003B3FBF0F300938A4BD9
:1029C000009D2C2101FB02334FF0100B596A03913B
:1029D000196A0191019859691B694118029103997B
:1029E000A1F13206009901EB4101761A1B1A0099F8
:1029F000A3F58273A3EB81037C490C68002126EACE
:102A0000E67623EAE3738A46A9464FF0000C029863
:102A1000CDF810C048450CF1010C25D80027B84668
:102A2000BE421BD8BB4219D38B4517D0142000FBE4
:102A300004FB6F48013400EB0B0A40F80B100498BC
:102A40007F2CCAE9010806D9684B1C6018E00022F7
:102A5000AEE70122ACE78B464FF0010A08F101080E
:102A6000B8F1100F2F44DBD1BCF1100FA944CED127
:102A70000098013110290544C6D1BAF1000FE3D105
:102A80002C214A43584B0098594903EB020C9B58A0
:102A90000EEB5302B2FBF3F2DCF80430BEFBF3F3AF
:102AA0000893DCF80830BEFBF3F309934F4B049214
:102AB0001B680B93009B5B00069332330793039BC9
:102AC00003EB80030198034400264FF0FF3B0F9374
:102AD0000B9B9E421BD1BBF17F0F3FF651AF444988
:102AE000142303FB0BF3CA18CB58107C40EA037085
:102AF00053681B0503F47003184393681B0403F425
:102B000070231843D3681B029BB2184339E700981F
:102B10000B6803FB0003DCF818000A9007981844C0
:102B200005900F98141AA4EB43000290019C03989F
:102B300005190698059C0544AD1A1D4405F132009F
:102B40004FF0000E0E900A98CDF830E0A0420EF142
:102B5000010E34D20098A4F13205B0EB950F2ED2BD
:102B60000E98DDF81490051902984FF00008A0F1B6
:102B7000640A0998CDF834805719B84208F1010861
:102B800016D80898B84213D3DCF81C704F450FD8FC
:102B9000009848450CD2049835EA250728BF5746C7
:102BA000B84205D90C9808610D98C8600497B346DF
:102BB000B8F5807F1D44AAEB030A9944D9D1029845
:102BC000BEF5807FA0EB03001C440290BBD1013610
:102BD00014317DE78F5F0100B0AD01003F7E05003D
:102BE000C0B60600A08601002013030808040020D8
:102BF0000C04002000CA9A3B13B5084612F02001CD
:102C000014463BD09FED3A1B9FED3B0B6A460021DB
:102C100011F056FEC8B9DDE900013B4B0022FDF77B
:102C200033FC04F01F04013CCDE90001052C20D841
:102C3000DFE804F003030D131919FDF71DFF00EE83
:102C4000100A052000F0EAFE002002B010BDFDF7DA
:102C500013FF00EE100A0C20F4E7FDF70DFF00EE65
:102C6000100A0220EEE7FDF707FF00EE100A03202E
:102C7000E8E7264816F068FA0120E6E71306F8D5DB
:102C80009FED1F1B9FED1C0B6A4611F019FE0028DB
:102C9000DBD104F01F04013C052CEAD8DFE804F086
:102CA00003030D151D1DDDE90001FDF7E5FE00EE36
:102CB000100A052000F008FFC6E7DDE90001FDF776
:102CC000DBFE00EE100A0C20F4E7DDE90001FDF761
:102CD000D3FE00EE100A0220ECE7DDE90001FDF76B
:102CE000CBFE00EE100A0320E4E700BFAFF3008044
:102CF000000000000000594000000000000000003B
:102D00000000000000408F4000002440B0CF0208C7
:102D100008B5154816F018FA144B1548196816F03E
:102D20006FF9144B1448196816F06AF9134B1868B8
:102D300007EE900AF8EE677A17EE900AFDF74CFB63
:102D40000F4B0022FDF7CAFC02460B460D4816F059
:102D500057F90D4B0D48196816F052F90C4816F04A
:102D6000F3F9002008BD00BF80E40208200E002017
:102D700096E402081C0E0020A7E40208180E0020AA
:102D800000002440B8E40208140E0020CBE402083E
:102D900043C60208DFB551062FD502F01F02013AE3
:102DA000052A25D8DFE802F00315171A221F002292
:102DB000052102A800F02AFF044638B90298FDF761
:102DC0000BFB02460B461E4816F01AF9204604B0CB
:102DD000D0BD0422ECE700220C21EAE70822022100
:102DE0000DEB0200E6E700220321E2E70422FBE705
:102DF000144816F0A9F90124E8E71306F8D502F003
:102E00001F02012A1AD0053A012AF1D8032203A988
:102E100002A800F09FFE04460028D7D10398FDF7D2
:102E2000DBFA064602980F46FDF7D6FA3246CDE9A0
:102E300000013B46044816F0E3F8C7E70522E6E741
:102E4000E2E40208B0CF0208DCE4020802F43870C1
:102E500002F01F02013A08B5052A1CD8DFE802F08B
:102E600003070B0F1317BDE8084000F01BBFBDE8B8
:102E7000084000F0F5BFBDE8084001F0CFB8BDE85C
:102E8000084001F057B9BDE8084001F0E1B9BDE8DC
:102E9000084001F0D1BA024816F056F9012008BDE9
:102EA000B0CF020808B500F059FBFEF707F900F0B3
:102EB000BFFA002008BD000007B59FED0B0B0846C8
:102EC0009FED0B1B6A4600218DED000B11F0F8FC05
:102ED00028B9DDE90001FDF7AFFDFEF7FDF803B00D
:102EE0005DF804FBAFF3008000000000000000006C
:102EF000000000002A75854108B500F099FA00F03D
:102F00002DFBFEF75DF8002008BD08B500F090FA33
:102F1000FEF7D4F8BDE8084000F0A6BAF0B5ADF26F
:102F2000BC4D01230846ADF802304FF496720DF106
:102F30000203002111F062FE0446E0B901464FF49D
:102F4000966202A816F098FBBDF8020001AA02A939
:102F500000F07AF9044670B90E4F02AD0646BDF88E
:102F60000230B3420BDC0198FDF736FA02460B46FD
:102F7000094816F045F820460DF2BC4DF0BD55F855
:102F8000040BFDF729FA02460B46384616F038F8CE
:102F90000136E4E7ECE40208F2E4020808B5FEF7C3
:102FA0008DF800F0DBFA00F0CDF9002008BD00003C
:102FB000037F012B02D1044A13607047022B02BF2A
:102FC000024B01221A6070470C0E0020100E0020E8
:102FD00010B5002488B0CDE90544144B01941A6C57
:102FE000134842F008021A641A6C02F008020192B7
:102FF000019A02941A6B42F001021A631B6B03F0F0
:1030000001030293029B0122022303A9CDE90323BA
:10301000079306F04DF822460521322004F0F2FE17
:10302000322004F031FF08B010BD00BF003802406C
:103030000000024030B5002589B0CDE90555314B7F
:1030400001951A6C304C42F008021A641A6C02F0B6
:1030500008020192019A02951A6B42F001021A636A
:103060001B6B03F001030293029B01200223CDE9B5
:10307000030303A92548079306F01AF8DFF89CC05C
:103080004FF04063C4E900C34FF4806E4FF48053A7
:10309000C4E904E320464FF48043C4E90255C4E97F
:1030A0000635C4E9085504F031FF08B103F0E6FE27
:1030B000174D184A6C62A563174C4FF04063C4E982
:1030C00000234FF480614FF480520023C4E90412BE
:1030D00020464FF48042C4E90233C4E90623C4E920
:1030E000083304F013FF08B103F0C8FE00220521E5
:1030F0003220AC62A56304F085FE322004F0C4FEE9
:1031000009B030BD00380240E41700200000024042
:103110004418002070600240841700204060024084
:10312000074A084808B5136C23F00803136401210B
:1031300006F004F9BDE80840322004F0B9BE00BF33
:10314000003802400000024038B5044607F094FF02
:10315000237F022B1FD1002120460AF02DF9104DAC
:103160000421286020460AF027F90E4A0E49106013
:1031700013680E4C83B113682A684FF47A70434386
:10318000B3FBF2F3C31A0B6007F076FF2B68400025
:10319000B0FBF3F0206038BD0B602360FBE700BF9D
:1031A000200E00201C0E0020180E0020140E0020FF
:1031B0002DE9F84F0EF0D9FBDFF888B01D4F1E4DFA
:1031C000824600260EF0D1FBA0EB0A00FDF7E2F8E4
:1031D0003246804689463B46DBE90001FDF754F95B
:1031E00002460B4640464946FDF7C0FB044660B91F
:1031F000014612480CF042F9104804210CF03EF947
:103200000F4B2C601C60032012E02B68012BD9D1DE
:103210000B4B1A68012AD5D10024214607481C60AF
:103220002C600CF02BF9054804210CF027F92046FE
:10323000BDE8F88F00408F40100E00204418002099
:103240000C0E0020180000202DE9F04F384B87B0FD
:103250000C460021039206465962364A36484FF41E
:1032600096730BF0C5FF354A33484FF4967304212B
:103270000BF0BEFFFFF79CFF0546002852D1DFF898
:10328000BCA02C4F04EB860B80465C450CD1B8FBF0
:10329000F6F807EE908A039BF8EE677AC3ED007AA2
:1032A000284607B0BDE8F08FD7F8049057F8043BE4
:1032B0005AF8042F0593994536BF09F1FF30A9EB61
:1032C0000300C01A0492FDF765F8049A059B914526
:1032D000CDE9000134BFA2EB0900D01AFDF75AF87E
:1032E000DDE90023FDF7FAF9154B0022FDF7CCF8D4
:1032F000FDF7C2FB44F8040B4046FDF74BF8DDE94F
:1033000000238046894608A1D1E90001FDF7E6F9CE
:1033100002460B4640464946FCF700FFFDF78CFB92
:103320008046B2E70325BBE7000000002A759541FF
:10333000000C0040D412002044180020240E00206D
:103340000000594030B58DB00025344B01951A6B03
:10335000334C42F400121A631B6B03F400132A4629
:10336000052101930D20019B04F04CFD0D2004F07C
:103370008BFD2A4605210F2004F044FD0F2004F0A8
:1033800083FD102229460DEB020016F075F910227C
:10339000294608A8CDE9025516F06EF9214A2946BA
:1033A00020460AF0B7F8204BA560C4E90035204656
:1033B0004FF0FF33C4E90335A5610CF05FF928BB7A
:1033C0004FF4805304A9204604930AF05DFDE8B948
:1033D00020460CF069FBC8B9CDE9020002A92046DD
:1033E0000CF014FC024688B90123CDE9093008909D
:1033F0000B9008A920460AF0EDFB38B902230422FD
:1034000008A92046CDE908330AF0E4FB074A04483E
:1034100012210AF07FF80DB030BD00BF0038024025
:103420004418002035300108000C0040B12F01087D
:103430000A4A0B48136C10B523F00803094C1364B7
:10344000012105F07BFF606A04F08AFEA06A04F0A7
:1034500087FE322004F02CFD002010BD0038024011
:10346000000002404418002070B590B010220021E6
:1034700003A8354C16F000F9142200210BA80025F2
:1034800016F0FAF81022002107A816F0F5F82F4AD6
:1034900029462046CDE901550AF03CF82C4A012185
:1034A00020460AF037F82B4BA560C4E900352046CA
:1034B0004FF0FF33C4E90335A5610CF0DFF890BB92
:1034C0004FF4805303A9204603930AF0DDFC50BB60
:1034D00020460CF0E9FA30BB0225CDE90D5050230F
:1034E0000F9004260BA92046CDE90B630BF0A2F840
:1034F0000246C0B90123CDE908300A9007A9204649
:1035000007950AF067FB70B9CDE90705324607A9B0
:1035100020460AF05FFB30B9CDE901000DEB060152
:1035200020460CF073FB084804210BF0F5FC48B969
:10353000014605480BF0F0FC20B9074A0248122169
:1035400009F0E8FF10B070BD44180020D12F010829
:1035500021310108000C00404931010810B5094C27
:1035600023686BB1042120460BF0ACFD00212046FE
:103570000BF0A8FD322004F09BFC204609F0C0FCB3
:10358000002010BD44180020014809F075BE00BF9E
:1035900044180020014804F0ABBE00BFE41700202F
:1035A000014804F0A5BE00BF8417002010B5142206
:1035B0008AB0044600210DEB020016F05DF8236886
:1035C000224A934220D1224B2248002101911A6CB9
:1035D00042F008021A641A6C02F008020192019A81
:1035E00002911A6B42F001021A631B6B03F0010394
:1035F00002930121029B0223CDE90513099305A93A
:1036000005F056FD0AB010BD134A9342FAD1104B93
:103610001248002103911A6C42F002021A641A6CDB
:1036200002F002020392039A04911A6B42F0040220
:103630001A631B6B03F004030493049B40220223D0
:10364000CDE90523099305A9DAE700BF000C004086
:103650000038024000000240000400400008024020
:1036600010B504468EB01422002109A816F004F803
:103670002368B3F1804F20D103F50E33002101916F
:103680001A6C42F001021A641A6C02F001020192F3
:10369000019A02911A6B42F002021A631B6B03F04B
:1036A00002030293029B4FF480610223CDE90913C8
:1036B00001233C480D9309A922E03B4A934227D1BC
:1036C0003A4B002103911A6C42F002021A641A6C00
:1036D00002F002020392039A04911A6B42F0040270
:1036E0001A631B6B03F004030493049B304B1B7899
:1036F00053B9402309932F4802230A930D9309A934
:1037000005F0D6FC0EB010BD042BFBD18023F1E7F1
:10371000294A934225D1254B002105911A6C42F08C
:1037200008021A641A6C02F008020592059A0691C2
:103730001A6B42F001021A631B6B03F0010306933C
:10374000069B1B4B1B783BB90123099302231B48A3
:103750000A930D9309A9D3E7042BD3D1022309932C
:10376000F5E7174A9342CDD1104B002107911A6C0F
:1037700042F040021A641A6C02F040020792079A63
:1037800008911A6B42F002021A631B6B03F00203EA
:103790000893089B4FF480420223CDE909230923B3
:1037A00087E700BF000402400004004000380240E8
:1037B000F818002000080240000C00400000024001
:1037C00000180040FFF74CBF08B50368B3F1804F05
:1037D0000CD1082126480BF025FB264A136C23F058
:1037E000010313644FF48061234815E0234A934298
:1037F00016D1002122480BF015FB042120480BF0C4
:1038000011FB1C4A1F48136C23F002034021136470
:1038100005F094FD1B488021BDE8084005F08EBDF1
:10382000194A934213D1002118480BF0FBFA0421E6
:1038300016480BF0F7FA0F4A1548136C23F00803EB
:103840000121136405F07AFD11480221E4E7114AD1
:1038500093420BD1002110480BF0E4FA054A136C97
:1038600023F0400313644FF48041BDE708BD00BF5F
:10387000181B0020003802400004024000040040F1
:10388000641A002000080240000C0040B01900201B
:103890000000024000180040FC18002008B5036832
:1038A000B3F1804F0FD12D4809F0A0FB08212B4820
:1038B0000BF06EF92A4A136C23F0010313644FF4E2
:1038C0008061284818E0284A934219D1274809F016
:1038D00003FC002125480BF05BF9042123480BF081
:1038E00057F91F4A2248136C23F002034021136446
:1038F00005F024FD1E488021BDE8084005F01EBDEE
:103900001C4A934216D11C4809F0E6FB00211A48D4
:103910000BF03EF9042118480BF03AF9104A174809
:10392000136C23F008030121136405F007FD13480D
:103930000221E1E7124A93420ED1124809F0CCFB72
:10394000002110480BF024F9054A136C23F04003C2
:1039500013644FF48041B4E708BD00BF181B00207A
:10396000003802400004024000040040641A0020B5
:1039700000080240000C0040B01900200000024086
:1039800000180040FC1800200B4A136C10B50B4CBB
:1039900023F002031364204609F09EFB0021204619
:1039A0000BF040FA042120460BF03CFABDE8104031
:1039B0000348402105F0C2BC00380240641A0020D0
:1039C0000008024008B5114A0368934216D102F577
:1039D0000B320F48136C23F00803136409F07CFBCF
:1039E00000210B480BF01EFA042109480BF01AFACB
:1039F000BDE808400748012105F0A0BC064A9342F3
:103A000003D1BDE80840FFF7BFBF08BD000C004070
:103A1000B0190020000002400004004001380B28CB
:103A200041D8DFE800F0061729403C4040404040C4
:103A3000403E1E4BD3ED037ADFED1D6A1A68F8EEA7
:103A4000677A67EE807A87EEA67ABCEEC77A82ED57
:103A50000D7A0FE0174BDFED166AD3ED037A1A6883
:103A6000F8EE677A67EE807A87EEA67ABCEEC77AC0
:103A700082ED0F7A002070470F4BD3ED037ADFED14
:103A80000C6A1A68F8EE677A67EE807A87EEA67A93
:103A9000FCEEC77AC2ED0D7AC2ED0E7AEAE7074B6B
:103AA000EBE7074BC6E74FF48B707047CC1B002049
:103AB00000007A44181B0020641A0020B01900206E
:103AC000FC18002000000000013810B50B282BD88E
:103AD000DFE800F00622242A262A2A2A2A2A2A286F
:103AE000154CDFED167A60EE277A17EE900AFCF798
:103AF00073FC02460B460EA1D1E90001FCF7EEFD76
:103B00000F4B0022FCF708FBFCF796FFE060204615
:103B10000BF0B4FD002010BD0A4CE2E70A4CE0E7D0
:103B20000A4CDEE70A4CDCE74FF48B70F3E700BF8A
:103B3000000000002A758541CC1B002000007A445B
:103B40000000F03F181B0020641A0020B01900206C
:103B5000FC180020032A2DE9F04706460D4629D01F
:103B6000052A48D1254F0DF000FF00F59678002179
:103B7000384609F021FC04218246384609F01CFC35
:103B800000218146384609F017FC8245044688BF6B
:103B900000F58034CA4528BF09F580390DF0E5FEEF
:103BA0004045A4EB0A0407D90023336003202B60AF
:103BB000BDE8F087124FD6E7002CD8D0114BB3FBED
:103BC000F4F307EE903AF8EEE77AA9EB0A09C6EDAE
:103BD000007A07EE909AB8EE677A07EE904AF8EE10
:103BE000677A0020C7EE276ADFED077A66EEA77ACC
:103BF000C5ED007ADCE74FF48B70D9E7B0190020EF
:103C0000641A002040A5AE020000C84202392DE926
:103C1000F041064617460A2936D8DFE801F00626A5
:103C200035223535353535352400194D0DF09DFEDD
:103C300000F596783946284609F0BEFB3946044619
:103C4000284609F0B9FB844288BF00F58030041B88
:103C50000DF08BFE40450AD9002333600320BDE8F8
:103C6000F0810C4DE2E70C4DE0E70C4DDEE7002C57
:103C7000E0D00B4BB3FBF4F307EE903AF8EEE77AA3
:103C80000020C6ED007AEAE74FF48B70E7E700BF4B
:103C9000181B0020B0190020FC180020641A002016
:103CA00040A5AE0270B592B004461C2200210BA8BC
:103CB00015F0E2FC1022002103A815F0DDFC002124
:103CC000102207A815F0D8FC5F4D604B012600219B
:103CD000C5E900364FF6FF73C5E903315C4BA960B7
:103CE000202CCDE90111A961197028D1594A06216A
:103CF000284609F00FFC28460BF024FE0446D8B9EC
:103D00004FF4805307A9284607930AF0BDF80446EC
:103D100090B96023CDE90B300D900F9002460BA9AE
:103D2000284609F0FBFD044630B9284609F05EF943
:103D3000214628460AF078FE204612B070BD402C7D
:103D40002ED1454A0221284609F0E4FB28460BF013
:103D5000ABFE04460028EFD14FF4805307A9284654
:103D600007930AF091F804460028E5D1CDE9010057
:103D700001A928460BF04AFF04460028DCD1CDE912
:103D80000306CDE90500024603A9284609F022FFF3
:103D900004460028D0D1014628460AF081FFCBE72F
:103DA000802C42D12D4A284609F0B4FB28460BF05E
:103DB00065FC04460028BFD14FF4805307A928466C
:103DC00007930AF061F804460028B5D128460BF0A5
:103DD0006BFE04460028AFD1CDE9010001A92846B9
:103DE0000BF014FF04460028A6D1CDE90306CDE967
:103DF0000500024603A9284609F0ECFE0446002807
:103E00009AD10223042203A92846CDE9033309F0FD
:103E1000E1FE044600288FD1284609F0E7F8214644
:103E200028460AF03DFF0421B6E7B4F5007F01D033
:103E3000002481E72846FFF7C5FD2846FFF7C4FCAC
:103E40002846FFF72BFDF3E7B0190020000C0040D7
:103E5000F818002061360108C5370108AD350108A2
:103E6000F0B593B004461C2200210BA815F004FC09
:103E70001022002103A815F0FFFB0021102207A843
:103E800015F0FAFB5F4D604B01270021C5E90037B3
:103E90004FF6FF73C5E903315C4BA9600426202C63
:103EA000CDE90111A9611E7028D1594A0621284681
:103EB00009F030FB28460BF045FD0446D8B94FF415
:103EC000805307A92846079309F0DEFF044690B9FE
:103ED0006023CDE90B300D900F9032460BA9284698
:103EE00009F01CFD044630B9284609F07FF8314638
:103EF00028460AF099FD204613B0F0BD402C2ED183
:103F0000444A0221284609F005FB28460BF0CCFD67
:103F100004460028EFD14FF4805307A928460793A1
:103F200009F0B2FF04460028E5D1CDE9010001A95E
:103F300028460BF06BFE04460028DCD1CDE90307D0
:103F4000CDE90500324603A9284609F043FE0446A0
:103F50000028D0D1314628460AF0A2FECBE7802CBB
:103F600041D12D4A284609F0D5FA28460BF086FBA8
:103F700004460028BFD14FF4805307A92846079371
:103F800009F082FF04460028B5D128460BF08CFDCD
:103F900004460028AFD1CDE9010001A928460BF065
:103FA00035FE04460028A6D1CDE90307CDE905007A
:103FB000324603A9284609F00DFE044600289AD18E
:103FC0000223024603A92846CDE9033309F002FE85
:103FD000044600288FD1284609F008F821462846D3
:103FE0000AF05EFEB6E7B4F5007F01D0002482E758
:103FF0002846FFF7E7FC2846FFF7E6FB2846FFF7D1
:104000004DFCF3E7B0190020000C0040F818002028
:1040100061360108C5370108AD35010870B592B0A9
:1040200004461C2200210BA815F026FB10220021BB
:1040300003A815F021FB1022002107A815F01CFB96
:10404000394D3A4A01260023C5E90026402C4FF697
:10405000FF72CDE90133C5E90323AB60AB612CD11D
:10406000334A0221284609F055FA28460BF01CFD78
:104070000446F8B94FF4805307A92846079309F07E
:1040800003FF0446B0B9CDE9010001A928460BF0B1
:10409000BDFD044670B9CDE90306CDE90500024631
:1040A00003A9284609F096FD044618B9014628469A
:1040B0000AF0F6FD204612B070BD202C27D128460C
:1040C0000BF040FC04460028F4D12846FFF7C8FA5C
:1040D0004FF4805307A92846079309F0D5FE0446FC
:1040E0000028E7D16023CDE90B300D900F900246F8
:1040F0000BA9284609F012FC04460028DAD128460C
:1041000008F074FF214628460AF08EFCD2E7B4F589
:10411000007F01D00024CDE72846FFF755FB284655
:10412000FFF7BCFBF6E700BFFC18002000180040BA
:10413000C537010870B592B004461C2200210BA8B7
:1041400015F09AFA1022002103A815F095FA3D4DBA
:104150001022002107A815F08FFA01264FF08042A7
:104160000023C5E90026402C4FF6FF72CDE901334C
:10417000C5E90323AB60AB612CD1334A0221284649
:1041800009F0C8F928460BF08FFC0446F8B94FF443
:10419000805307A92846079309F076FE0446B0B974
:1041A000CDE9010001A928460BF030FD044670B9A5
:1041B000CDE90306CDE90500082203A9284609F048
:1041C00009FD044618B9082128460AF069FD204671
:1041D00012B070BD202C29D11C4A0621284609F0B6
:1041E00099F928460BF0AEFB04460028EFD14FF4B6
:1041F000805307A92846079309F046FE0446002885
:10420000E5D16023CDE90B300D900F9008220BA96A
:10421000284609F083FB04460028D8D1284608F038
:10422000E5FE082128460AF0FFFBD0E7B4F5007F41
:1042300001D00024CBE72846FFF7C6FA2846FFF74F
:104240002DFBF6E7181B0020C53701086136010871
:10425000F0B593B004461C2200210BA815F00CFA0F
:104260001022002103A815F007FA0021102207A848
:1042700015F002FA674D684B01270021C5E90037A8
:104280004FF6FF73C5E90331644BA9600426202C67
:10429000CDE90111A9611E7028D1614A0621284685
:1042A00009F038F928460BF04DFB0446D8B94FF415
:1042B000805307A92846079309F0E6FD044690B904
:1042C0006023CDE90B300D900F9032460BA92846A4
:1042D00009F024FB044630B9284608F087FE314631
:1042E00028460AF0A1FB204613B0F0BD402C2ED189
:1042F0004C4A0221284609F00DF928460BF0D4FB60
:1043000004460028EFD14FF4805307A928460793AD
:1043100009F0BAFD04460028E5D1CDE9010001A964
:1043200028460BF073FC04460028DCD1CDE90307D6
:10433000CDE90500324603A9284609F04BFC0446A6
:104340000028D0D1314628460AF0AAFCCBE7802CC1
:1043500041D1354A284609F0DDF828460BF08EF9A0
:1043600004460028BFD14FF4805307A9284607937D
:1043700009F08AFD04460028B5D128460BF094FBCD
:1043800004460028AFD1CDE9010001A928460BF071
:104390003DFC04460028A6D1CDE90307CDE9050080
:1043A000324603A9284609F015FC044600289AD194
:1043B0000223024603A92846CDE9033309F00AFC8B
:1043C000044600288FD1284608F010FE21462846D2
:1043D0000AF066FCB6E7B4F5007F01D0002482E75E
:1043E000124A0721284609F095F82846FFF7ECF90C
:1043F0000F4A0321284609F08DF82846FFF74EFAA8
:104400000C4A3946284609F085F82846FFF7DAFABB
:10441000E4E700BF641A002000040040F818002000
:1044200061360108C5370108AD350108C9370108F3
:104430009D380108C539010870B592B004461C22A8
:1044400000210BA815F018F91022002103A815F07F
:1044500013F90021102207A815F00EF95F4D604BEB
:1044600001260021C5E900364FF6FF73C5E9033187
:104470005C4BA960202CCDE90111A961197028D1EC
:10448000594A0621284609F045F828460BF05AFA01
:104490000446D8B94FF4805307A92846079309F07A
:1044A000F3FC044690B96023CDE90B300D900F90DA
:1044B00002460BA9284609F031FA044630B92846CD
:1044C00008F094FD214628460AF0AEFA204612B0C4
:1044D00070BD402C2ED1454A0221284609F01AF819
:1044E00028460BF0E1FA04460028EFD14FF4805340
:1044F00007A92846079309F0C7FC04460028E5D120
:10450000CDE9010001A928460BF080FB04460028F4
:10451000DCD1CDE90306CDE90500024603A9284612
:1045200009F058FB04460028D0D1014628460AF07D
:10453000B7FBCBE7802C42D12D4A284608F0EAFF92
:1045400028460BF09BF804460028BFD14FF4805357
:1045500007A92846079309F097FC04460028B5D11F
:1045600028460BF0A1FA04460028AFD1CDE901009E
:1045700001A928460BF04AFB04460028A6D1CDE944
:104580000306CDE90500024603A9284609F022FBEF
:10459000044600289AD10223042203A92846CDE923
:1045A000033309F017FB044600288FD1284608F092
:1045B0001DFD214628460AF073FB0421B6E7B4F539
:1045C000007F01D0002481E7FFF7DEF92846FFF7DE
:1045D000FBF82846FFF762F9F4E700BF641A0020F1
:1045E00000040040F818002061360108C5370108B2
:1045F000AD35010810B5094C00222046102104F009
:104600005FFF20460122802104F05AFF204601224C
:10461000102104F055FF002010BD00BF0010024023
:1046200010B5094C00222046102104F049FF204615
:104630000022802104F044FF20460122102104F0D2
:104640003FFF002010BD00BF0010024008B5034826
:104650000022102104F034FF002008BD00100240A9
:104660002DE9F04F1446ADF2144D00236206894641
:10467000ADF80E3003D584F04004824F04E02306E9
:10468000FBD5814F84F08004A4F11303022B26D8BC
:104690007C4B7E4E9F427E4B84F0100412BF4FF441
:1046A000804510251E4600222946304604F008FFAA
:1046B000032C3CD10DF10E03FF220121484610F0DE
:1046C0009DFA834640BB032C00F088804FF0010B1D
:1046D00016B301222946304604F0F2FE1CE0A4F194
:1046E0002303022B08D8674D684E84F02004AF42A4
:1046F0000CBF01250225D6E7631E012B11D803ABA1
:104700004FF6FF720021484610F078FA834618B938
:10471000012C09D04FF0010B58460DF2144DBDE8A5
:10472000F08F00252E46C3E705460646C2E7231F45
:10473000012B50D80DF1100A4FF00008514BD968E9
:10474000002939D104AB4344FF22484610F061FAF6
:104750008346002837D108F10108B8F5807F0AF1B7
:10476000020AEBD1ADF80E80042C6FD0052CAFD12E
:104770006423009384AABDF80E3004A9384608F0DB
:10478000A7F883460028A3D13E4AD26884AC002A09
:1047900065D0404FBDF80E205A4546DDBBF1000FF5
:1047A00002D02C2014F072FC34F8021B384614F0AE
:1047B00027FC0BF1010BEDE75346FF220021484691
:1047C00010F01CFAC4E740F23D129042A4D1B8F1B7
:1047D000000FC7D1A0E74FF0010BC5E7BDF80E20D1
:1047E000642384A9384608F079F9834600287FF4C9
:1047F0006FAF244AD26884AC92B1264FBDF80E2028
:104800005A4512DDBBF1000F02D02C2014F03EFC03
:1048100034F8021B384614F0F3FB0BF1010BEDE703
:104820001D4FBDF80E205A4502DC4FF0000B4FE73C
:10483000BBF1000F02D02C2014F028FC14F8011B4F
:10484000384614F0DDFB0BF1010BEAE7BDF80E2052
:10485000642304A9384607F07FFF834638E70E4FEC
:10486000BDF80E205A45E0DDBBF1000F02D02C2030
:1048700014F00CFC14F8011B384614F0C1FB0BF1CA
:10488000010BEDE7583A0020003A002000040240F6
:1048900000000240D4EB02083DDD020808B50A48DA
:1048A000102104F0FBFD68B18021074804F0F6FDFB
:1048B0000649074B002818BF1946064814F0A0FB0C
:1048C000002008BD0449F8E70010024047ED020847
:1048D00053ED0208790D03081CED020837B50846B0
:1048E0000DF1070115460FF08BFF044648B99DF8FE
:1048F00007301A1E18BF012235B90121034804F000
:10490000DFFD204603B030BD0221F7E7000402407E
:10491000130613B5084611D50DF107010FF070FF0E
:10492000044640B99DF807200948003A18BF012203
:10493000102104F0C5FD204602B010BD12F0400465
:10494000F9D00DF107010FF05BFF0446F3E700BF5C
:1049500000000240F0B5274B274E802A18BF1E46A4
:10496000351D0F460FCD8DB001AC0FC40FCD0FC458
:1049700095E807000DF1020384E807004FF4807208
:104980000221384610F03AF9341D30BBBDF8023030
:10499000202B24D00CD8082B23D005D8022B0FD0E5
:1049A000042B20D0162018E0102BFBD1182007E094
:1049B000802B1AD0B3F5807F19D0402BF2D128205C
:1049C000079001AD0FCD0FC40FCD0FC495E80700C0
:1049D00084E80700304607F07FFD0DB0F0BD1846B3
:1049E000EEE71020ECE70820EAE73020E8E738207F
:1049F000E6E700BF583A0020003A002013B5002334
:104A000008460DF1070114468DF807300FF0F8FE47
:104A100038B9112C1FD006DC012C08D0022C11D083
:104A2000162002B010BD122CFAD10C480BE00C4835
:104A30009DF80730003B18BF01235B00036107F0BE
:104A40004BFDEEE706489DF80730003B18BF0123F9
:104A50005B004361F3E70148EAE700BF003A00204A
:104A6000583A002013B5002308460DF107011446FB
:104A70008DF807300FF0C4FE20B9402C04D0802CF4
:104A80000DD0162002B010BD06489DF80730003B3F
:104A900018BF0123DB01036207F01EFDF2E70248A5
:104AA000F3E700BF583A0020003A002013B5002376
:104AB00008460DF1070114468DF807300FF0A0FEEF
:104AC00020B9402C04D0802C0DD0162002B010BD8F
:104AD00006489DF80730003B18BF0123DB02C36086
:104AE00007F0FAFCF2E70248F3E700BF583A00206B
:104AF000003A002013B5002308460DF107011446C3
:104B00008DF807300FF07CFE20B9402C04D0802CAB
:104B10000DD0162002B010BD06489DF80730003BAE
:104B200018BF01231B01436207F0D6FCF2E70248DD
:104B3000F3E700BF583A0020003A002070B5294C36
:104B4000236886B00D465BB9CDE903330593012692
:104B50005723254801A9CDE9013604F0A9FA2660BA
:104B600001A928460FF04CFE0446C0BB0DF105011B
:104B700028460FF045FE044688BB0DF10601284685
:104B80000FF03EFE044650BB0DF1070128460FF022
:104B900037FE044618BB02A928460FF031FE044632
:104BA000E8B99DF804201048012104F089FC9DF823
:104BB00005200D48022104F083FC9DF806200A48D8
:104BC000042104F07DFC9DF807200748102104F023
:104BD00077FC9DF808200448402104F071FC204631
:104BE00006B070BD801C0020000C024070B586B07D
:104BF0000846154600210DF1030302228DF803102B
:104C000010F007F8044620B9402D05D0802D36D08D
:104C10001624204606B070BD9DF80330012B15D038
:104C2000022B1BD053B9CDE9033305931022012386
:104C3000CDE901232E4801A904F03AFA2D4802F0EB
:104C4000C7FA2C4807F048FC0446E2E7CDE9030028
:104C5000CDE901330590284801A9EDE7CDE903002E
:104C6000059010230125224801A9CDE9013504F062
:104C70001FFACDE90344CDE901550594EBE79DF812
:104C80000350012D18D0022D1CD085B94FF480445B
:104C9000CDE903550595019401251748029501A911
:104CA00004F006FA14482A46214604F009FC134889
:104CB00002F08EFA1148C5E70224CDE90300059001
:104CC0000194EAE7CDE9030005904FF48043012603
:104CD00001A90948CDE9013604F0EAF9064805942E
:104CE00001A9CDE90344CDE9015604F0E1F9DEE77D
:104CF00000000240583A002000040240003A002020
:104D0000F7B51546002A66D0012A7DD0644C616A49
:104D1000644A654B654800290CBF1146194614F0DA
:104D20006FF9E168624A634B634800290CBF114682
:104D3000194614F065F9216A604A614B61480029FF
:104D40000CBF1146194614F05BF921695E4A5F4BAE
:104D50005F4800290CBF1146194614F051F96169EA
:104D60005C4A5D4B5D4800290CBF1146194614F0A2
:104D700047F9E469202C6FD065D8102C6BD05ED831
:104D8000002C7ED0082C7ED0554814F0DDF9FDB9FA
:104D90000121544804F082FB02210446514804F0EA
:104DA0007DFB042105464F4804F078FB10210646A0
:104DB0004C4804F073FB402107464A4804F06EFB60
:104DC0003346CDE900702A464748214614F018F9C9
:104DD000002003B0F0BD10214448454E454C04F07E
:104DE0005DFB00280CBF31462146434814F008F90A
:104DF0000121424804F052FB00280CBF31462146F5
:104E00003F4814F0FDF881E74FF480413B48394CAE
:104E1000374E04F043FB00280CBF3146214636488C
:104E200014F0EEF80221354804F038FB00280CBFDE
:104E3000314621463248334C14F0E2F867E7182C2B
:104E4000A2D1102408E0302C1FD0382C1FD0282CE1
:104E50009AD1402400E008242046FBF7ABFA024632
:104E60000B460DA1D1E90001FBF738FC264B0022CF
:104E7000FBF734FC02460B462448214614F0C0F8E8
:104E800085E70224E8E70424E6E78024E4E74FF41A
:104E90008074E1E7AFF30080000000002A759541BF
:104EA000583A0020D9EB02084AEE020825EC020825
:104EB000E8EB0208E2EB020837EC0208F1EB02082B
:104EC000EDEB020849EC0208A5100308F5EB020817
:104ED0005BEC0208FAEB020809EF02086DEC02082D
:104EE0007FEC0208000C0240C5EC02080000024002
:104EF0006902030886F5020801EC0208000402407A
:104F000013EC0208003A002000408F409DEC02089C
:104F100010B5094C5AB90121084804F0BFFA2368BA
:104F2000996830B1312013F0EDFF002010BD02214F
:104F3000F2E73020F7E700BFE8020020000402405B
:104F400010B50A4C5AB90A48102104F0A7FA236890
:104F5000996840B1312013F0D5FF002010BD0548FD
:104F60004FF48041F1E73020F5E700BFE802002070
:104F70000000024000040240402A08B503D0802A05
:104F800008D0162008BD064802F0A4F9044807F02E
:104F9000B3FBF7E7034802F09DF90248F7E700BFCB
:104FA000583A0020003A002010B5044688B0142278
:104FB000002103A814F060FB2268134B9A4221D110
:104FC00003F5F633002101911A6C104842F40022D7
:104FD0001A641A6C02F400220192019A02911A6B6F
:104FE00042F001021A631B6B03F001030293029B60
:104FF00002220323CDE90332069303A90823079372
:1050000004F056F808B010BD004C0040000002400B
:105010000268064B9A4208D1054A0648136C23F4ED
:1050200000231364032104F089B97047004C004049
:10503000003802400000024010B5104C104A0B210D
:1050400020460AF055FF0F4A0C2120460AF050FF77
:105050000D4A4FF4E133C4E90023204600230C221B
:10506000C4E90233C4E905232361E3610BF054F87A
:1050700018B1BDE8104001F001BF10BD841C002034
:10508000A94F010811500108004C00400148FFF7EA
:10509000BFBF00BF841C002010B51B4B1B4C1C481D
:1050A000012A18BF1C46616813F0AAFF194A1A4B5F
:1050B000A1681A4800290CBF1146194613F0A0FF39
:1050C000174BE168174A184800290CBF11461946CA
:1050D00013F096FF2369A3B11449154AB3F5806F05
:1050E00008BF1146134813F08BFFE169124A094BC0
:1050F000124800290CBF1146194613F081FF002009
:1051000010BD0F49EEE700BFCC3C0020841C0020FE
:105110002EF402081EF402081CF4020842F40208ED
:105120005F02030886F5020855F4020820F402081D
:1051300029F4020868F4020874EE02087BF40208FD
:1051400024F40208F0B5C3B0002532F002030F4684
:105150001646ADF806500BD10DF10603FF220121D2
:1051600038460FF04BFD044698B1204643B0F0BDE1
:10517000012B1BD102AB2B44FF22002138460FF03C
:1051800048FD044658B90135B5F5807FF2D1ADF838
:105190000650032E0AD8DFE806F00B28314C40F207
:1051A0003D139842E1D1002DF1D1DEE70124DCE787
:1051B000BDF806202248642302A90AF02FFF044606
:1051C0000028D2D11F4E02ADBDF80630A34201DC4B
:1051D0000024CAE714B12C2013F058FF15F8011B66
:1051E000304613F00DFF0134EEE7BDF806201448F9
:1051F000642302A90AF0C4FE0446B6E7BDF80620FF
:105200001148642302A90AF009FF04460028ACD122
:105210000C4E02ADBDF80630A342D9DD14B12C20EE
:1052200013F034FF15F8011B304613F0E9FE01348A
:10523000F0E7BDF806200448642302A9DAE700BFBE
:10524000CC3C00203DDD0208841C002007B5084648
:10525000032A2BD8DFE802F0021420280DF1070101
:105260000FF0CEFA48B912489DF80730B3FA83F32D
:105270005B09DB03C3610AF04FFF03B05DF804FB79
:105280000B4BDB690B48B3F5004F14BF102108210D
:1052900013F0B6FE0020F0E70DF107010FF0B0FAB1
:1052A0000028EAD10448DFE7034BEAE71620E4E7E9
:1052B000CC3C00208EF40208841C002007B5084670
:1052C000032A50D8DFE802F002212F4B0DF107032B
:1052D000022200210FF09DFC38B99DF807303BB940
:1052E000224A136121480AF017FF03B05DF804FB5E
:1052F000012B04D11D4B4FF4C0621A61F2E7022B5F
:10530000F0D11A4B4FF48062F7E7184B1B6943B397
:105310001749184AB3F5806F08BF1146164813F0B5
:105320006FFE0020E1E70DF10703022200210FF0DC
:1053300070FC0028D9D19DF807301BB90F4A1361C2
:105340000E48D0E7012B04D10C4B4FF4C0621A6118
:10535000F6E7022BF4D1094B4FF48062F7E7074BD5
:10536000D4E70749DAE71620BFE700BFCC3C0020AE
:1053700020F4020829F402086FF40208841C0020BB
:1053800024F4020807B5023A0846032A20D8DFE8C9
:1053900002F00216212B0DF10703022201210FF06A
:1053A00038FC48B911489DF80730013B18BF01236C
:1053B0005B03C3600AF0B0FE03B05DF804FB0B4B67
:1053C000DB680B48002B14BF0221012113F018FEEB
:1053D0000020F1E70DF10703022201210FF019FC73
:1053E0000028E9D10348DEE7024BE9E7CC3C002086
:1053F0009FF40208841C002007B50846032A2AD817
:10540000DFE802F002141F270DF107010FF0F8F991
:1054100048B912489DF80730003B18BF01231B0311
:1054200083600AF079FE03B05DF804FB0B4B9B68C8
:105430000B48002B14BF0921082113F0E1FD0020C7
:10544000F1E70DF107010FF0DBF90028EBD105487A
:10545000E0E7044BEBE71620E5E700BFCC3C00207B
:10546000ACF40208841C0020022A37B50846144612
:1054700001D0042A1DD12F4D01AB2A4600210FF087
:1054800081FB00284DD10199B1F5614F0ED023D891
:10549000B1F5165F0AD016D8B1F5166F06D00FD841
:1054A000B1F5967F02D0B1F5966F40D1224813F046
:1054B000A7FD023C032C33D8DFE804F0272D353755
:1054C000B1F5965FF1E7B1F5964FEFD0B1F5164F14
:1054D000ECD0B1F5615FE8E7184B9942E6D00CD803
:1054E000B1F5E12FE2D005D8B1F5E13FDED0B1F55D
:1054F000613FDAE7B1F5612FD7E7114B9942D5D07B
:10550000A942D3D00F4B9942CFE70F48019B43608C
:105510000AF002FE05E00C4B59680C4813F070FDD0
:10552000002003B030BD0A48F0E7094BF4E716202D
:10553000F7E700BFA0252600C1F4020840420F0093
:1055400080841E0060E31600CC3C0020D7F40208E3
:10555000841C0020012A08B503D0022A05D00020AF
:1055600008BD034802F0C2F8F9E7FFF78FFDF6E740
:10557000CC3C0020012A08B503D0022A05D0002027
:1055800008BD034802F046F8F9E7FFF755FDF6E7D6
:10559000CC3C002010B5324B324A19689142A2B07F
:1055A0005CD13149314A00201860314B019302919E
:1055B000039204910591A1F51051069101F5205136
:1055C00007920891A1F5804109910A9101F5405196
:1055D0000B9128490C930D92274A0E930F9210932A
:1055E0001193129101F58031139114912349159172
:1055F00001F580511691A1F500611791189220498B
:105600001992204A1A931B921C911D931E931F926C
:1056100072B64FF0E024206106F0F2F81A4A4FF01B
:10562000FF33C2F88030C2F88031C4F88431C4F846
:105630008432C4F88831C4F88832C4F88C31C4F894
:105640008C32C4F89031C4F8903262B60E9B0E9A38
:10565000126882F308885B689847FEE722B010BDA5
:10566000D8600020EFBEADDE00ECFF1F00D8FF1FAA
:105670000000FF1F0070F80B0000F01F0098F01FE3
:105680000080F80B0000F90B00E100E0074B084A2E
:105690001A60BFF34F8F0749074BCA6802F4E062F4
:1056A0001343CB60BFF34F8F00BFFDE7D8600020EE
:1056B000EFBEADDE00ED00E00400FA05082870B58D
:1056C0000D46144607D00A280BD121462846BDE8CE
:1056D00070400FF009BF28461146BDE8704010F039
:1056E00003B80C4E30680028EFD00DF077F8A042D8
:1056F00008D230680DF04CF80749306800231322B7
:105700000DF08CF830680023224629460DF086F80B
:10571000DBE700BF045F002049FA02080346072BBD
:10572000084611464FF47A7201D10FF0E7BF0FF02F
:10573000FBBE0000BFF34F8F0549064BCA6802F459
:10574000E0621343CB60BFF34F8F00BFFDE700BFA4
:1057500000ED00E00400FA050FB413B504AB114CE2
:1057600053F8042B216801930F4B994204D16068D0
:1057700040F6FB71884202D92360002363606168B0
:10578000019B01F10800C1F57F610C31204413F049
:10579000C1FE63680344636002B0BDE8104004B01A
:1057A000704700BFDC600020CDAB34120C4C0D48BC
:1057B00008B52368D96813F0FDFB0B48FFF7CCFF51
:1057C00023680A48D96813F0F5FB2368D86813F0FA
:1057D000B3F94FF4FA600CF0FEF8FFF7ABFF00BF2F
:1057E000E80200205DFA02086FFA02089DFA02083A
:1057F00070B55D4C5D485E4E5E4DFFF7ADFFA36A30
:105800005D4813F0007F0CBF31462946FFF7A4FF27
:10581000A36A5A4813F0807F0CBF31462946FFF730
:105820009BFFA36A564813F4002F0CBF314629464C
:10583000FFF792FFA36A534813F4802F0CBF314641
:105840002946FFF789FFA36A4F4813F4003F0CBFB6
:1058500031462946FFF780FFA36A4C4813F4803F86
:105860000CBF31462946FFF777FF4948FFF774FF21
:10587000A36A4848A26B13F4004F0CBF3146294677
:10588000FFF76AFFA36A444813F4005F0CBF314678
:105890002946FFF761FFA36A404813F4805F0CBFFD
:1058A00031462946FFF758FFA36A3D4813F4006FBD
:1058B0000CBF31462946FFF74FFFA36A394813F45E
:1058C000806F0CBF31462946FFF746FFA36A364872
:1058D00013F4007F0CBF31462946FFF73DFFA36A52
:1058E000324813F4807F0CBF31462946FFF734FF5E
:1058F0002F48FFF731FFA36A2E48626B13F0800F29
:105900000CBF31462946FFF727FFA36A2A4813F048
