:020000040800F2
:1000000000000220A1820108817F0108857F01088C
:10001000A17F0108A37F0108A57F0108000000005F
:1000200000000000000000000000000091500208E5
:10003000A77F010800000000215102088551020835
:10004000F1820108F1820108F1820108F1820108C0
:10005000F1820108F1820108F1820108F1820108B0
:10006000F1820108F1820108F1820108F1820108A0
:10007000F182010895330108F1820108A1330108DA
:10008000F1820108F1820108F1820108F182010880
:10009000F1820108F1820108F1820108F182010870
:1000A0002D650208F1820108F1820108F182010840
:1000B000F1820108F1820108F1820108F182010850
:1000C000F1820108F1820108F1820108F182010840
:1000D000F1820108F182010895730208F18201089A
:1000E000F1820108F1820108F1820108F182010820
:1000F000F1820108F1820108F1820108F182010810
:10010000F1820108F182010889330108F1820108B6
:10011000F1820108F1820108A97F0108F18201083A
:10012000F1820108F1820108F1820108F1820108DF
:10013000F18201080000000000000000F1820108C7
:10014000F1820108F1820108F1820108B57F0108FE
:10015000F1820108F1820108F1820108F1820108AF
:10016000F1820108F1820108F1820108F18201089F
:10017000F1820108F1820108F1820108000000000B
:1001800000000000F18201080000000000000000F3
:10019000F18201080000000000000000F182010867
:1001A000000000000000000000000000F1820108D3
:1001B000F1820108F1820108F1820108F18201084F
:0401C000F1820108BF
:020000040801F1
:1000000010F8012B11F8013B012A28BF9A42F7D0C2
:10001000D01A70470000000000000000000000003F
:1000200001F0FF01102A2BDB10F0070F08D010F8A9
:10003000013B013A8B422DD010F0070F42B3F6D1AD
:10004000F0B441EA012141EA014122F007047FF0C6
:1000500000070023F0E80256083C85EA010586EA1D
:10006000010685FA47F5A3FA87F586FA47F6A5FA59
:1000700087F68EB9EED1F0BC01F0FF0102F0070265
:1000800032B110F8013B013A83EA010313B1F8D110
:100090000020704701387047002D06BF35460338F1
:1000A000073815F0010F07D1013015F4807F02BF2A
:1000B000013015F4C03F0130F0BC0138704700BF7B
:1000C000034613F8012B002AFBD1181A0138704798
:1000D00081F0004102E000BF83F0004330B54FEAF9
:1000E00041044FEA430594EA050F08BF90EA020F66
:1000F0001FBF54EA000C55EA020C7FEA645C7FEAF9
:10010000655C00F0E2804FEA5454D4EB5555B8BF1B
:100110006D420CDD2C4480EA020281EA030382EA8C
:10012000000083EA010180EA020281EA0303362D1E
:1001300088BF30BD11F0004F4FEA01314FF4801CF1
:100140004CEA113102D0404261EB410113F0004F03
:100150004FEA03334CEA133302D0524263EB4303BA
:1001600094EA050F00F0A780A4F10104D5F1200E58
:100170000DDB02FA0EFC22FA05F2801841F10001B3
:1001800003FA0EF2801843FA05F359410EE0A5F187
:1001900020050EF1200E012A03FA0EFC28BF4CF0B8
:1001A000020C43FA05F3C01851EBE37101F000456E
:1001B00007D54FF0000EDCF1000C7EEB00006EEB7B
:1001C0000101B1F5801F1BD3B1F5001F0CD3490805
:1001D0005FEA30004FEA3C0C04F101044FEA44525C
:1001E00012F5800F80F09A80BCF1004F08BF5FEAE3
:1001F000500C50F1000041EB045141EA050130BDC3
:100200005FEA4C0C404141EB0101013C28BFB1F5D4
:10021000801FE9D291F0000F04BF01460020B1FA1F
:1002200081F308BF2033A3F10B03B3F120020CDAF2
:100230000C3208DD02F1140CC2F10C0201FA0CF0D0
:1002400021FA02F10CE002F11402D8BFC2F1200C35
:1002500001FA02F120FA0CFCDCBF41EA0C019040EB
:10026000E41AA2BF01EB0451294330BD6FEA040434
:100270001F3C1CDA0C340EDC04F11404C4F120021F
:1002800020FA04F001FA02F340EA030021FA04F331
:1002900045EA030130BDC4F10C04C4F1200220FA88
:1002A00002F001FA04F340EA0300294630BD21FAC6
:1002B00004F0294630BD94F0000F83F4801306BF8C
:1002C00081F480110134013D4EE77FEA645C18BF80
:1002D0007FEA655C29D094EA050F08BF90EA020F17
:1002E00005D054EA000C04BF1946104630BD91EA0F
:1002F000030F1EBF0021002030BD5FEA545C05D112
:100300004000494128BF41F0004130BD14F5800450
:100310003CBF01F5801130BD01F0004545F0FE41C4
:1003200041F470014FF0000030BD7FEA645C1ABFF9
:10033000194610467FEA655C1CBF0B46024650EA30
:10034000013406BF52EA033591EA030F41F400215C
:1003500030BD00BF90F0000F04BF0021704730B5E2
:100360004FF4806404F132044FF000054FF00001B7
:1003700050E700BF90F0000F04BF0021704730B578
:100380004FF4806404F1320410F0004548BF40424D
:100390004FF000013EE700BF42004FEAE2014FEAA2
:1003A00031014FEA02701FBF12F07F4393F07F4F7D
:1003B00081F06051704732F07F4208BF704793F080
:1003C0007F4F04BF41F40021704730B54FF4607493
:1003D00001F0004521F000411CE700BF50EA010296
:1003E00008BF704730B54FF000050AE050EA01023F
:1003F00008BF704730B511F0004502D5404261EBAF
:1004000041014FF4806404F132045FEA915C3FF4EF
:10041000D8AE4FF003025FEADC0C18BF03325FEA8C
:10042000DC0C18BF033202EBDC02C2F1200300FA3D
:1004300003FC20FA02F001FA03FE40EA0E0021FA62
:1004400002F11444BDE600BF70B54FF0FF0C4CF450
:10045000E06C1CEA11541DBF1CEA135594EA0C0F02
:1004600095EA0C0F00F0DEF82C4481EA030621EA3D
:100470004C5123EA4C5350EA013518BF52EA033578
:1004800041F4801143F4801338D0A0FB02CE4FF02A
:100490000005E1FB02E506F00042E0FB03E54FF05A
:1004A0000006E1FB03569CF0000F18BF4EF0010E52
:1004B000A4F1FF04B6F5007F64F5407404D25FEA4E
:1004C0004E0E6D4146EB060642EAC62141EA555101
:1004D0004FEAC52040EA5E504FEACE2EB4F1FD0C43
:1004E00088BFBCF5E06F1ED8BEF1004F08BF5FEAC1
:1004F000500E50F1000041EB045170BD06F0004673
:1005000046EA010140EA020081EA0301B4EB5C041F
:10051000C2BFD4EB0C0541EA045170BD41F4801117
:100520004FF0000E013C00F3AB8014F1360FDEBF3C
:10053000002001F0004170BDC4F10004203C35DA18
:100540000C341BDC04F11404C4F1200500FA05F39B
:1005500020FA04F001FA05F240EA020001F000423C
:1005600021F0004110EBD37021FA04F642EB0601B2
:100570005EEA430E08BF20EAD37070BDC4F10C04DC
:10058000C4F1200500FA04F320FA05F001FA04F2A0
:1005900040EA020001F0004110EBD37041F100018C
:1005A0005EEA430E08BF20EAD37070BDC4F1200597
:1005B00000FA05F24EEA020E20FA04F301FA05F2FF
:1005C00043EA020321FA04F001F0004121FA04F2A7
:1005D00020EA020000EBD3705EEA430E08BF20EA77
:1005E000D37070BD94F0000F0FD101F000464000B1
:1005F00041EB010111F4801F08BF013CF7D041EA33
:10060000060195F0000F18BF704703F00046520036
:1006100043EB030313F4801F08BF013DF7D043EA07
:100620000603704794EA0C0F0CEA135518BF95EABD
:100630000C0F0CD050EA410618BF52EA4306D1D144
:1006400081EA030101F000414FF0000070BD50EA63
:10065000410606BF1046194652EA430619D094EAED
:100660000C0F02D150EA013613D195EA0C0F05D1D7
:1006700052EA03361CBF104619460AD181EA03012B
:1006800001F0004141F0FE4141F470014FF00000E3
:1006900070BD41F0FE4141F4780170BD70B54FF07E
:1006A000FF0C4CF4E06C1CEA11541DBF1CEA1355FE
:1006B00094EA0C0F95EA0C0F00F0A7F8A4EB0504E0
:1006C00081EA030E52EA03354FEA013100F08880D7
:1006D0004FEA03334FF0805545EA131343EA1263A0
:1006E0004FEA022245EA111545EA10654FEA002655
:1006F0000EF000419D4208BF964244F1FD0404F50E
:10070000407402D25B084FEA3202B61A65EB030569
:100710005B084FEA32024FF480104FF4002CB6EB26
:10072000020E75EB030E22BFB61A754640EA0C00A6
:100730005B084FEA3202B6EB020E75EB030E22BFE6
:10074000B61A754640EA5C005B084FEA3202B6EB27
:10075000020E75EB030E22BFB61A754640EA9C00E6
:100760005B084FEA3202B6EB020E75EB030E22BFB6
:10077000B61A754640EADC0055EA060E18D04FEA74
:10078000051545EA16754FEA06164FEAC30343EA14
:1007900052734FEAC2025FEA1C1CC0D111F4801FE1
:1007A0000BD141EA00014FF000004FF0004CB6E7DA
:1007B00011F4801F04BF01430020B4F1FD0C88BF79
:1007C000BCF5E06F3FF6AFAEB5EB030C04BFB6EB84
:1007D000020C5FEA500C50F1000041EB045170BD77
:1007E0000EF0004E4EEA113114EB5C04C2BFD4EBA4
:1007F0000C0541EA045170BD41F480114FF0000E28
:10080000013C90E645EA060E8DE60CEA135594EAA3
:100810000C0F08BF95EA0C0F3FF43BAF94EA0C0FA6
:100820000AD150EA01347FF434AF95EA0C0F7FF41B
:1008300025AF104619462CE795EA0C0F06D152EA6F
:1008400003353FF4FDAE1046194622E750EA410653
:1008500018BF52EA43067FF4C5AE50EA41047FF464
:100860000DAF52EA43057FF4EBAE12E74FF0FF3CC9
:1008700006E000BF4FF0010C02E000BF4FF0010C9A
:100880004DF804CD4FEA410C7FEA6C5C4FEA430C13
:1008900018BF7FEA6C5C1BD001B050EA410C0CBF62
:1008A00052EA430C91EA030F02BF90EA020F0020C4
:1008B000704710F1000F91EA030F58BF994208BF2B
:1008C00090422CBFD8176FEAE37040F001007047E8
:1008D0004FEA410C7FEA6C5C02D150EA013C07D13F
:1008E0004FEA430C7FEA6C5CD6D152EA033CD3D08A
:1008F0005DF8040B704700BF8446104662468C4684
:100900001946634600E000BF01B5FFF7B7FF0028B6
:1009100048BF10F1000F01BD4DF808EDFFF7F4FFDF
:100920000CBF012000205DF808FB00BF4DF808ED6A
:10093000FFF7EAFF34BF012000205DF808FB00BF8D
:100940004DF808EDFFF7E0FF94BF012000205DF8AF
:1009500008FB00BF4DF808EDFFF7CEFF94BF012064
:1009600000205DF808FB00BF4DF808EDFFF7C4FF5D
:1009700034BF012000205DF808FB00BF4FEA410CA6
:100980007FEA6C5C02D150EA013C0AD14FEA430C89
:100990007FEA6C5C02D152EA033C02D14FF00000C6
:1009A00070474FF0010070474FEA410212F5001204
:1009B00015D211D56FF47873B3EB625212D94FEAA6
:1009C000C12343F0004343EA505311F0004F23FA90
:1009D00002F018BF404270474FF00000704750EAE5
:1009E000013005D111F0004008BF6FF000407047A2
:1009F0004FF00000704700BF4A0011D212F50012FC
:100A000011D20DD56FF47873B3EB62520ED44FEA66
:100A1000C12343F0004343EA505323FA02F07047E6
:100A20004FF00000704750EA013002D14FF0FF3024
:100A300070474FF0000070474FEA4102B2F1E043C7
:100A400024BFB3F5001CDCF1FE5C0DD901F0004CB5
:100A50004FEAC0024CEA5070B2F1004F40EB830005
:100A600008BF20F00100704711F0804F21D113F131
:100A70003872BCBF01F00040704741F480114FEA6A
:100A80005252C2F11802C2F1200C10FA0CF320FAF3
:100A900002F018BF40F001004FEAC1234FEAD32310
:100AA00003FA0CFC40EA0C0023FA02F34FEA43037A
:100AB000CCE77FEA625307D150EA01331EBF4FF003
:100AC000FE4040F44000704701F0004040F0FE401E
:100AD00040F40000704700BF53B94AB9002908BF6D
:100AE00000281CBF4FF0FF314FF0FF3000F00CB872
:100AF000ADF1080C6DE904CE1DF060FDDDF804E0F9
:100B0000DDE9022304B07047704700BF0348044B7F
:100B1000834202D0034B03B11847704750030020B3
:100B200050030020000000000548064B1B1AD90F97
:100B300001EBA301491002D0034B03B118477047E2
:100B400050030020500300200000000010B5064CA8
:100B5000237843B9FFF7DAFF044B13B10448AFF32E
:100B600000800123237010BD50030020000000000E
:100B700078E8020808B5054B1BB105490548AFF3F5
:100B80000080BDE80840FFF7CFBF00BF00000000B5
:100B90005403002078E802082DE9F043324E334C2C
:100BA000334F87B003220025012301A93046CDE948
:100BB00001324FF00209CDE90355059509F0AEFA6F
:100BC00001A93046CDF8049009F0A8FA4FF48053FB
:100BD00001A9204601934FF4806809F09FFA01A90A
:100BE0003846CDF8048009F099FA4FF4804301A902
:100BF0003846019309F092FA01A93846CDF80490DD
:100C000009F08CFA802301A92046019309F086FAA5
:100C1000402301A92046019309F080FA01A920464A
:100C2000CDF8048009F07AFA082301A9204601933F
:100C300009F074FA04230DEB03012046019309F037
:100C40006DFA4FF4007301A93046019309F066FA7A
:100C50004FF40063204601A9019309F05FFA28468A
:100C600007B0BDE8F08300BF00000240000802406A
:100C70000004024082B000230193064B1A6C42F03C
:100C800008021A641B6C03F008030193019B02B075
:100C9000704700BF00380240024A136C23F008037B
:100CA000136470470038024070B5102694B0374D79
:100CB0000024324600210DEB06001DF055F82146B8
:100CC0001C220DA8CDE902441DF04EF82146304A01
:100CD00028460DF093FC2F4A012128460DF08EFC8A
:100CE0002D4BAE60C5E900342C23C5E903342846FA
:100CF0008023AB610FF078FE0446002843D14FF407
:100D000080530DEB0601284604930EF043F9044688
:100D1000002838D128460FF019FF0446002832D1A8
:100D2000CDE9020002A9284610F026F9044650BB7E
:100D30003023CDE90D300F90119002460DA92846C1
:100D40000DF07EFD0446F0B92A689369CDE90A00EA
:100D500043F008039361114B01901A6B104842F065
:100D600001021A631B6B03F001030193019B012233
:100D7000022308A9CDE908230C9309F0CFF92146F5
:100D800028460EF09FFD204614B070BD6C03002075
:100D9000750C0108990C0108000C00400038024055
:100DA0000000024010B5054C002120460EF054FE14
:100DB00020460DF019F9002010BD00BF6C03002083
:100DC00070B5134E3368D3B1124CB4FBF0F4651E0A
:100DD0002946114819F052FF2046FFF7BBFA024698
:100DE0000B4609A1D1E90001FFF758FC02460B466A
:100DF0000A4819F043FF33680020DD6270BD01200E
:100E0000FCE700BFAFF30080000000002A758541B9
:100E10006C03002040A5AE0248E9020854E902082C
:100E200008B502481AF070FB002008BD5FE902080F
:100E300008B514F0DFFC0146024819F01FFF00203E
:100E400008BD00BF07EE0208F7B54FF4F0401AF0F6
:100E500035FD0446002800F08D81CD481AF054FB82
:100E6000CC4B1B68DB0340F172810BF0C3FC07EE37
:100E7000900AF8EE677A17EE900AFFF78DFAC0A392
:100E8000D3E90023FFF70AFC0246C3480B4619F0DA
:100E9000F5FEC249C24819F0F1FEC2481AF034FB0F
:100EA00014F0A8FC142605464FF4F0420021204619
:100EB0001CF05AFF013EF7D114F09CFC401B07EEDA
:100EC000900AF8EE677A142617EE900AFFF764FA94
:100ED000B54B0022FFF7E2FB02460B46B3481E214A
:100EE00019F0CCFE14F086FC04F5705705464FF45B
:100EF0007052394620461AF0D3FC013EF7D114F067
:100F000079FC401B07EE900AF8EE677A142617EE7C
:100F1000900AFFF741FAA44B0022FFF7BFFB0246FD
:100F20000B46A3480F2119F0A9FE14F063FC0546F7
:100F30004FF47052394620461CF0ECFE013E019001
:100F4000F6D114F057FC401B07EE900AF8EE677AD2
:100F5000984F17EE900AFFF71FFA934B0022FFF706
:100F60009DFB02460B4694480F2119F087FE9348DB
:100F70001AF0CAFA14F03EFC142605464FF47052DB
:100F8000394620461AF08CFC013EF7D114F032FCB1
:100F9000401B07EE900AF8EE677A864F17EE900A2C
:100FA000FFF7FAF9804B0022FFF778FB02460B4669
:100FB0007F480F2119F062FE14F01CFC1426054630
:100FC0004FF47052214638461CF0A4FE013E0190B9
:100FD000F6D114F00FFC401B07EE900AF8EE677A8A
:100FE00017EE900AFFF7D8F96F4B0022FFF756FB78
:100FF00002460B4670480F2119F040FE70481AF067
:1010000083FA0023009314F0F5FB42F210730546B7
:10101000B7EE007ADDED007A77EE877A013BCDED11
:10102000007AF7D114F0E6FB401B07EE900AF8EEC9
:10103000677A644F17EE900AFFF7AEF952A3D3E92F
:101040000023FFF72BFB02460B465F4819F016FE04
:10105000009714F0CFFB4FF47A7605460098FFF71F
:101060009BF941EC100B16F067FB51EC100BFFF7EE
:10107000E3FC013E0090F1D114F0BCFB401B07EEF5
:10108000900AF8EE677A4FF47A7617EE900AFFF737
:1010900083F94E4B0022FFF701FB02460B464C48FA
:1010A00019F0ECFD4B4B009314F0A4FB054600989F
:1010B000FFF772F941EC100B16F0B2FC51EC100B7B
:1010C000FFF7BAFC013E0090F1D114F093FB401BF6
:1010D00007EE900AF8EE677A4FF47A7517EE900AE9
:1010E000FFF75AF9394B0022FFF7D8FA02460B46B0
:1010F000394819F0C3FD009714F07CFB06460098B0
:10110000FFF74AF941EC100B16F046FC51EC100BBE
:10111000FFF792FC013D0090F1D114F06BFB801BB6
:1011200007EE900AF8EE677A17EE900AFFF734F9A7
:10113000264B0022FFF7B2FA02460B46274819F069
:101140009DFD20461AF0C2FB284603B0F0BD0BF00F
:1011500051FB07EE900AF8EE677A17EE900AFFF758
:101160001BF907A3D3E90023FFF798FA02460B46C1
:101170001B488CE64FF48670E7E700BFAFF30080B2
:101180000000000080842E41000000000088C34061
:101190000CEE02080038024026EE020845EE020876
:1011A00049EE020852EE0208000034406EEE0208DA
:1011B00086EE0208F97A01089EEE0208B6EE0208F1
:1011C000D3EE020800401C46F0EE020800408F40BB
:1011D00008EF0208C3F5484020EF020838EF020884
:1011E00034EE020813B547F23052084601AB012134
:1011F00015F098FC044610B9019811F07CFD2046CA
:1012000002B010BD13B5074A084601AB012115F025
:1012100089FC044610B9019814F0E2FA204602B0A5
:1012200010BD00BF80C3C90108B507F089F80146A9
:10123000024819F023FD002008BD00BF07EE020898
:1012400030B58DB00D461422002107A81CF08CFD8E
:101250000023069340F633020DF116034FF4FA61B2
:10126000284615F09BFC0446002864D1BDF81630D2
:1012700030338DF81B300C220DF119030121284663
:1012800015F097FC0446002855D10DF11A031F22D2
:101290000121284615F08DFC044600284BD101465B
:1012A00007AB1722284615F084FC0446002842D1DB
:1012B00001460DF11D033B22284615F07AFC044639
:1012C000002838D101460DF11E033B22284615F0B7
:1012D00070FC044678BB024606A918480BF0B6FF1E
:1012E000044640BB024607A914480BF0B5FE04466D
:1012F00008BB024607A911480BF078FF0446D0B995
:10130000024606A90D480CF04DF8044698B99DF820
:101310001E309DF81B1002939DF81D3001939DF81F
:101320001C3000939DF819209DF81A30044801F5EF
:10133000FA6119F0A3FC20460DB030BD084A002028
:1013400050EF020810B58AB01248002205A90BF030
:101350004DFF0446D0B9024604A90E480CF022F80D
:10136000044698B99DF816309DF8131002939DF825
:10137000153001939DF8143000939DF811209DF8CD
:101380001230054801F5FA6119F078FC20460AB0E0
:1013900010BD00BF084A002050EF020808B5002029
:1013A00015F0E8FD002008BD10B5084C20461AF0E5
:1013B000ABF815F0CDF805F001FA0146044819F034
:1013C0005DFC20461AF0A0F8002010BD6FEF020867
:1013D000ACEF020813B5FF2208460DF10703002108
:1013E00015F0E7FB0446A0B99DF807302A2B13D16E
:1013F0000A481AF089F80A2011F07DFC084B1B6896
:1014000098681AF039FA4FF4FA7011F074FC04F08D
:10141000D9FE204602B010BD0124FAE7C2EF02084F
:10142000F40200202DE9F843214B224C1868224B8E
:101430001E68224BE41A241118B103780BB11AF07C
:1014400063F81E4DDFF88880DFF878900027BC42F3
:1014500008D126B1337813B130461AF055F8002080
:10146000BDE8F883EA68D2B12968C1B11378B3B195
:101470000B7818F80300800703D103F0EF002A2847
:1014800003D1484619F0FAFB09E02D2B04D03F2B7D
:1014900008D00B490B48F5E70B481AF035F801372F
:1014A0001035D4E71146094819F0E8FBF7E700BF0B
:1014B00004000020686D030800000020F8550308B0
:1014C00037F40208EDEF0208F9EF020849F00208CC
:1014D0009751030807B504210DEB010000F010FB44
:1014E0000198FEF759FF02460B46034819F0C6FB68
:1014F000002003B05DF804FBBAF3020807B504212D
:101500000DEB010000F0C0FA0198FEF745FF02461E
:101510000B46034819F0B2FB002003B05DF804FB52
:10152000BAF3020807B501A800F06EFA0198FEF7B9
:1015300033FF02460B46034819F0A0FB002003B01E
:101540005DF804FBCFF302082DE9F3474648474C0A
:10155000474E484D19F092FB14F8011B304619F024
:101560008DFBAC42F8D10A20434CDFF83C81DFF818
:101570003C91DFF83CA119F0CFFD404819F0C4FFC1
:101580003F4819F07BFB21683E4819F077FB616802
:101590003C4819F073FBA1683A4819F06FFB0A2028
:1015A00019F0BAFD3848676819F068FB0024002577
:1015B0003E19A95D4046013519F060FB102DF8D1A8
:1015C000484619F05BFB0025A85DA0F120035E2BC7
:1015D00088BF2E20013519F09FFD102DF4D10A206F
:1015E00019F09AFD04F58074504619F047FBB4F5E4
:1015F000E06FDCD10A2019F08FFD684600F004FA94
:101600000098FEF7C9FE02460B46204819F036FB4B
:1016100004210DEB010000F037FA0198FEF7BCFE43
:1016200002460B461A4819F029FB04210DEB010074
:1016300000F066FA0198FEF7AFFE0B460246154829
:1016400019F01CFB4FF40051134808F05FFF134AD8
:101650001349002808BF1146124819F00FFB00205B
:1016600002B0BDE8F08700BFE7F30208107AFF1F61
:10167000F4F30208207AFF1F0000FF1FF9F30208AD
:1016800005F4020812F4020819F40208CFF3020864
:1016900039F40208BAF302080008024036190308B8
:1016A0006B0703084EF4020826F4020836F4020819
:1016B0002CF402080020704708B5024819F024FFF6
:1016C000002008BDD2F4020808B5024819F01CFF3A
:1016D000002008BD433903087FB50A4B04930A4B29
:1016E00003930A4B02930A4A0A4B0193D37F009358
:1016F000937F09480A32102119F0C0FA002007B080
:101700005DF804FB01F502081BF5020827F5020845
:10171000240000202BF50208D9F4020838B51B4C30
:101720001B4819F0ABFA236898681AF0A5F8194815
:1017300019F0A4FA236898681AF09EF83125284613
:1017400019F0EAFC236898681AF096F801356420CD
:1017500011F0D1FA362DF2D123680F4899681AF0AA
:10176000EBFB236898681AF087F8322011F0C3FA6F
:10177000BFF34F8F09490A4BCA6802F4E062134372
:10178000CB60BFF34F8F00BFFDE700BFF402002026
:10179000E6EF020832F5020851F5020800ED00E01C
:1017A0000400FA0508B5032A18D8DFE802F0020E93
:1017B00010120B4B196807290DD80A4B0A4833F849
:1017C000111019F05BFA002008BD084BF2E7084B36
:1017D000F0E7084BEEE7084819F050FA0120F3E76C
:1017E00014000020B0F7020859F70208100000208A
:1017F0000C000020080000205DF7020807B5032A4E
:1018000038D8DFE802F002131F2B1B4B01A8196820
:1018100000F03AF90198FEF7BFFD024617480B4663
:1018200019F02CFA002003B05DF804FB144B01A85A
:10183000196800F065F90198FEF7AEFD02460B4607
:101840001048EDE7104B01A8196800F095F90198D0
:10185000FEF7A2FD02460B460C48E1E70C4B01A83F
:10186000196800F0C5F90198FEF796FD02460B468F
:101870000848D5E70120D6E71400002039F4020813
:1018800010000020BAF302080C00002076F70208CE
:10189000080000208BF7020813B50846144601AB78
:1018A0004FF4F072032115F03DF968BB019B542BF6
:1018B0001CD00DD81C2B1BD006D8032B1AD00F2BF5
:1018C0001AD04FF48B701FE0382BFAD1032307E0B6
:1018D000902B13D0B3F5F07F12D0702BF1D10523EC
:1018E000032C19D8DFE804F00E1214160423F7E7CE
:1018F0000223F5E70346F3E70123F1E70623EFE7C9
:101900000723EDE7054A136002B010BD044AFAE769
:10191000044AF8E7044AF6E70120F5E7140000203E
:10192000100000200C0000200800002010B58CB032
:10193000314B0021019114465A6C42F480725A6472
:101940005A6C02F480720192019A02915A6C42F42C
:1019500000725A645A6C02F400720292029A039165
:101960005A6C42F480625A645A6C02F480620392A8
:10197000039A04911A6B42F001021A631A6B02F087
:1019800001020492049A05911A6B42F002021A6352
:101990001A6B02F002020592059A06911A6B42F048
:1019A00004021A631B6B03F004030693142207A8B6
:1019B000069B1CF0D9F9032C1BD8DFE804F0020DBC
:1019C0000F13012307930D480323089307A908F079
:1019D000A5FB00200CB010BD0223F3E7084819F066
:1019E00093FDF6E702220323CDE90723054807A963
:1019F000EDE70120EEE700BF0038024000000240A2
:101A0000A0F70208000402407FB51A4B1A4D0646A3
:101A10000FCB6C4684E80F002146284606F0D0FE26
:101A2000322013F0DDFE284606F0E2FD6421284650
:101A300006F070FE284606F0C0FE104B9FED107AAF
:101A40009A8DDB8D811A07EE901AF8EE677A9B1A51
:101A500067EE877A07EE103AB8EEC77A0020C7EE35
:101A6000876AF3EE0E7A76EEA77AC6ED007A04B0B6
:101A700070BD00BF90E8020828460020007AFF1FD2
:101A80000000A042000000007FB51B4C0025012390
:101A9000CDE90215064669462046CDE9005306F019
:101AA0008FFE322013F09CFE204606F0A1FD64213B
:101AB000204606F02FFE204606F07FFE07EE900A35
:101AC0009FED0E7AF8EE677AC7EE877A17EE900AE6
:101AD000FEF762FC06A3D3E90023FEF7B5FCFEF790
:101AE000ABFF3060284604B070BD00BFAFF300808C
:101AF0006666666666660A409845002000F07F4587
:101B00007FB51B4C029101236946054600262046FD
:101B1000CDE90033039606F053FE322013F060FE49
:101B2000204606F065FD6421204606F0F3FD2046C0
:101B300006F043FE07EE900A9FED0E7AF8EE677A04
:101B4000C7EE877A17EE900AFEF726FC06A3D3E9C4
:101B50000023FEF779FCFEF76FFF2860304604B0E3
:101B600070BD00BFAFF300806666666666660A40B9
:101B7000E045002000F07F457FB51B4C0025012388
:101B8000CDE90215064669462046CDE9005306F028
:101B900017FE322013F024FE204606F029FD6421B2
:101BA000204606F0B7FD204606F007FE07EE900A35
:101BB0009FED0E7AF8EE677AC7EE877A17EE900AF5
:101BC000FEF7EAFB06A3D3E90023FEF73DFCFEF790
:101BD00033FF3060284604B070BD00BFAFF3008013
:101BE0006666666666660A40E045002000F07F454E
:101BF0007FB51B4C02910922012369460546002648
:101C00002046CDE90023039606F0DAFD322013F0DA
:101C1000E7FD204606F0ECFC6421204606F07AFD44
:101C2000204606F0CAFD07EE900A9FED0E7AF8EE08
:101C3000677AC7EE877A17EE900AFEF7ADFB06A328
:101C4000D3E90023FEF700FCFEF7F6FE28603046DD
:101C500004B070BDAFF300806666666666660A40D3
:101C60002846002000F07F452DE9F0418AB0144657
:101C700088461422002168461CF076F804F01F0301
:101C8000013B112B60D8334A52F82350324A32F8C4
:101C9000136004F0C003C02B0AD10021102206A853
:101CA0001CF062F8059605A9284608F037FA21E0ED
:101CB00004F0A003A02B1FD10027012305A928466B
:101CC0000693CDE907770997059608F027FA05A945
:101CD00040468DF8147014F0F7FC044620B1B0F5BE
:101CE0008B7F17D18DF814709DF81420314628464B
:101CF00008F020FC00240DE0A1060FD505A9404600
:101D000014F0E2FC044628B99DF814203146284618
:101D100008F010FC20460AB0BDE8F08162060CD540
:101D20003146284608F0F2FB0C4A0D4B00280CBF48
:101D30001046184619F0E8FBDCE7E30504D5032359
:101D4000009601936946AFE7064819F0DDFB0124D0
:101D5000E0E700BFE4F90208C0F9020843390308CC
:101D600097230308AFF90208024BF7221A700020EC
:101D7000704700BF302D0020034A137843F008035A
:101D800013700020704700BF302D002007B50846B3
:101D90000DF1070114F098FC38B99DF80720064BA7
:101DA00032B11A7842F004021A7003B05DF804FBF5
:101DB0001A7802F0FB02F7E7302D002007B508463D
:101DC0000DF1070114F080FC38B99DF80720064B8F
:101DD00032B11A7842F002021A7003B05DF804FBC7
:101DE0001A7802F0FD02F7E7302D002007B508460B
:101DF0000DF1070114F068FC38B99DF80720064B77
:101E000032B11A7842F001021A7003B05DF804FB97
:101E10001A7802F0FE02F7E7302D002010B586B0E8
:101E20000C461422002101A81BF09EFF20460DF154
:101E300003030222002114F0BCFE044678B99DF889
:101E400003307BB1012B0CBF01230223064803930F
:101E500001A908F063F9054801A908F05FF92046D7
:101E600006B010BD0346F1E700080240000402403E
:101E700007B508463AB10C490C4818F0FFFE00209F
:101E800003B05DF804FB0DF1070114F01DFC002800
:101E9000F6D19DF807300648003B18BF0123DB014F
:101EA000036208F061FDEBE7BB0703086A4503081E
:101EB000B449002007B508463AB10C490C4818F05F
:101EC000DDFE002003B05DF804FB0DF1070114F006
:101ED000FBFB0028F6D19DF807300648003B18BFF1
:101EE00001239B01C36108F03FFDEBE7BB0703083B
:101EF0006A450308B449002007B508463AB10C49C1
:101F00000C4818F0BBFE002003B05DF804FB0DF197
:101F1000070114F0D9FB0028F6D19DF807300648D8
:101F2000003B18BF0123436108F01EFDECE700BF32
:101F3000BB0703086A450308B449002007B50846F3
:101F400042B10B4B0B48596818F098FE002003B0C3
:101F50005DF804FB084A01AB012114F0E3FD002801
:101F6000F5D10348019B436008F0FEFCEFE700BF9A
:101F7000B4490020C2070308801A060007B50846C6
:101F800011464AB1104B11481B68196918F076FECA
:101F9000002003B05DF804FB01AB4FF0FF3214F0FA
:101FA000C1FD0028F5D108490B681A6822F001022A
:101FB0001A60019A4A6022F070621A611A6842F04F
:101FC00001021A60E4E700BF70460020C207030860
:101FD0002DE9F0410E46C6B0002115464FF002082B
:101FE00004AB4FF6FF723046ADF81610ADF8148012
:101FF00014F0D4FD0146002840F08381BDF8103074
:102000006F1E5B00012FADF8103016D80DF11203D2
:102010004FF6FF72304614F0C1FD044648B905ABD7
:1020200042460121304614F0B9FD0446002800F074
:102030006F81204646B0BDE8F081AB1F012B00F256
:1020400062810DF112034FF6FF72304614F0A6FDC7
:1020500004460028EDD105AB10220121304614F0D2
:102060009DFD04460028E4D14FF4AD63EB40DB074F
:102070000ED50DF11603FF220121304614F08EFD1E
:1020800004460028D5D1022D00F045810A2D05D83F
:102090004FF4D663EB40DA0700F13D810023092FAE
:1020A00000F23481DFE817F00A00310041006300DC
:1020B0006C009900C200D100F500FE006423029379
:1020C00006ADBDF816300193BDF81220BDF81430EE
:1020D000BDF810109C48009507F084FE04460028C7
:1020E000A7D1BDF816304BB1984E2978304618F07C
:1020F000C5FDBDF8163001349C4201DB002498E791
:102100002C20013519F008F8EFE76422CDE90132FF
:1021100006AB0093BDF81220BDF81430BDF81010C6
:10212000894807F07BFD044683E764230093BDF8EC
:102130001010BDF81630844806AA07F0D5FC0446F6
:1021400000287FF476AFBDF8163006AD002BD5D051
:102150007E4E2978304618F091FDBDF816300134D6
:102160009C42CBDA2C20013518F0D6FFF1E764222F
:102170000092BDF81010744806AA07F007FCD2E7D9
:102180006425BDF810107048009506AA07F0FEFB04
:10219000044600287FF44DAFBDF81630BDF810108E
:1021A0006948009506AA07F09FFC044600287FF4C2
:1021B00040AFBDF8163006AD002B9FD0634E297896
:1021C000304618F05BFDBDF8163001349C4295DABC
:1021D0002C20013518F0A0FFF1E76423029306AD2F
:1021E000BDF816300193BDF81220BDF81430BDF8CB
:1021F00010105748009508F0AFFF044600287FF400
:1022000018AFBDF81630002B3FF478AF4F4E297849
:10221000304618F033FDBDF8163001349C42BFF64D
:102220006DAF2C20013518F077FFF0E76422CDE97F
:10223000013206AB0093BDF81220BDF81430BDF892
:102240001010434808F0EEFE6DE764230093BDF8DC
:102250001010BDF816303E4806AA08F069FD044685
:1022600000287FF4E6AEBDF8163006AD002B3FF433
:1022700045AF364E2978304618F000FDBDF81630CF
:1022800001349C42BFF63AAF2C20013518F044FFD0
:10229000F0E764220092BDF810102D4806AA08F05D
:1022A0006DFC40E76425BDF810102948009506AA8A
:1022B00008F064FC044600287FF4BBAEBDF816307D
:1022C000BDF810102248009506AA08F031FD04461A
:1022D00000287FF4AEAEBDF8163006AD002B3FF4FB
:1022E0000DAF1A4E2978304618F0C8FCBDF81630EC
:1022F00001349C42BFF602AF2C20013518F00CFFD0
:10230000F0E7044695E60A2D7FF6AEAE012490E68E
:10231000012D3FF4AEAE002506AB2B44FF22002179
:10232000304614F046FC044628B90135B5F5807FE7
:10233000F2D1ABB2B3E640F23D1398427FF479AEEE
:10234000002DF6D175E600BF70460020CA070308CD
:10235000B4490020154A38B5D2F8944014F440042A
:102360000D4607D1124B036009F0C0FE0346002062
:102370002B6038BDD2F8943003F44003B3F5800FDE
:1023800004D10C4B03600AF035FAEFE7D2F8943031
:1023900003F44003B3F5000F03D1074B0360074B71
:1023A000E5E7074B036000230120E1E70038024026
:1023B000CF070308D5070308DC0703080024F4004F
:1023C000E00703080000000030B585B008469FED27
:1023D000181B9FED190B02AA002114F0D5F9044631
:1023E00008BB01A96846FFF7B5FF0446D8B9DDE987
:1023F0000201FEF701FB0146019800F0BBF905461A
:1024000001460F4818F03AFC85B10E490B681A686E
:1024100022F001021A604D6025F070651D611A6896
:1024200042F001021A60204605B030BD0124FAE7EF
:102430000000000065CDCD4100000000000000005C
:10244000E80703087046002008B532B1012A09D018
:10245000064819F059F8012003E0054805F028F96D
:10246000002008BD034805F095FAF9E7AFF9020826
:1024700070460020B449002007B5084672B1114BE0
:1024800011491B69114813F4804F114B18BF1946AD
:1024900018F0F4FB002003B05DF804FB0DF1070118
:1024A00014F012F90028F6D19DF807300548002BEA
:1024B0000CBF4FF440434FF48043036108F054FADB
:1024C000E9E700BFB4490020070803086A4503088C
:1024D0000208030807B508467AB1104B10491B687B
:1024E00010481B6813F4805F0F4B18BF194618F093
:1024F000C5FB002003B05DF804FB0DF1070114F0EB
:10250000E3F80028F6D19DF8073023B101460348CF
:1025100007F050FDEEE74FF48051F8E770460020D9
:102520006B0703086A45030836190308000000001A
:1025300073B5002A41D101A96846FFF70BFFDDED15
:10254000017A354CF8EE677A17EE900AFDF724FF12
:102550002FA3D3E90023FEF7A1F802460B462F482C
:10256000009918F08BFB23682D48196918F086FB39
:102570002C4BDA6AD2071ED5DB6A2B4913F0020F07
:102580002A4B18BF19462A4818F078FB23682948B7
:102590001968C1F3032118F071FB236826481B68F2
:1025A000224913F4805F204B18BF194618F066FBD0
:1025B000002002B070BD1C49E5E7012AF8D11F4C8C
:1025C0001F486168184E194D18F058FB1D4A1E4BE4
:1025D00021691E4800290CBF1146194618F04EFB10
:1025E00061691B4800290CBF3146294618F046FB9B
:1025F000E169184800290CBF3146294618F03EFB16
:10260000216A154800290CBF31462946CEE700BF94
:102610000000000080842E41704600201808030846
:10262000E807030800380140361903086B07030860
:10263000370803084C08030861080308B449002060
:1026400076080308120803080D0803088B0803081E
:10265000A2080308B9080308D008030807B508460C
:1026600011465AB10D4B0E481B681968C1F303217E
:1026700018F004FB002003B05DF804FB0DF1070324
:102680000F2214F096FA0028F5D19DF807100348A0
:1026900001F00F0107F0C8FCEDE700BF7046002015
:1026A0005C4C030813B508467AB1134BDA6AD207BB
:1026B00009D5DB6A9B0706D5104818F0DFFA00241D
:1026C000204602B010BD0E48F7E70DF1070113F0E8
:1026D000FBFF04460028F3D19DF8073001202BB101
:1026E00007F0DAFC022007F0D7FCE9E707F0F4FC7A
:1026F000022007F0F1FCE3E7003801406B07030814
:102700003619030808B5094818F0FEFE08490B6899
:102710001A6822F001021A60064A1A614A601A68B1
:1027200042F001021A60002008BD00BFE70803085C
:1027300070460020362C900008B532B1012A0BD02B
:10274000094818F0E1FE012005E0FFF7DBFF07482C
:1027500004F068FF002008BD054805F0C9F80448EA
:1027600008F002F9F6E700BFAFF902087046002052
:10277000B44900202DE9F04F91B018B9002011B0F4
:10278000BDE8F08F924B9942F8D9924B99425CD9AF
:10279000914B9942F2D9914B994259D9904BA1F55D
:1027A0004321A1F5A0619942E8D84FF0020C8D4F6A
:1027B0008D4A07EB5003B3FBF0F301932C2303FB8B
:1027C0000C23019C5A6A03921A6A029202995A696E
:1027D0001B698A180592039AA2F13205019A02EB4D
:1027E0004202AD1A5B1A019AA3F58273A3EB82032E
:1027F0007E4A1168002225EAE57523EAE3739246D2
:102800004FF0100BA1464FF0000E0598CDF810E0E8
:1028100048450EF1010E27D80026B046B5421DD816
:10282000B3421BD3934519D0142000FB01FB704821
:10283000013100EB0B0A40F80B2004987F29CAE90C
:10284000010808D9694B19601AE04FF0000CAEE797
:102850004FF0010CABE793464FF0010A08F1010875
:10286000B8F1100F2644D9D1BEF1100FA144CCD13C
:1028700001980132102A0444C4D1BAF1000FE1D109
:102880002C2303FB0CF35849CC58CA1807EB54010E
:10289000B1FBF4F154689268B7FBF2F20992534A23
:1028A000B7FBF4F012680B92019A514C0890520059
:1028B000323206924C4A0591D318019A07936FF071
:1028C0006303A3EB82034FF0000C4FF0FF3B0F9329
:1028D0000B9B9C451BD1BBF17F0F3FF64FAF44498B
:1028E000142303FB0BF3CA18CB58107C40EA037087
:1028F00053681B0503F47003184393681B0403F427
:1029000070231843D3681B029BB2184337E7019A20
:1029100023680398069E03FB0223079A92690A9292
:10292000069A9A1804920F9A049D121A0298121A83
:102930000398861902980644761A0A44F018A2EB06
:1029400043024FF0000E0E900A98CDF834E0854215
:102950000EF1010E32D90198A5F13206B0EB960FB7
:102960002CD20E98DDF81090461992464FF00008D0
:102970000998CDF830808F19B84208F1010816D8AF
:102980000898B84213D30798C7694F450FD80198E4
:1029900048450CD2059836EA260728BF5746874295
:1029A00005D20D9820610C98E0600597E346B8F5D4
:1029B000807F1E44AAEB030A9944D9D1BEF5807FDB
:1029C0001D44A2EB0302BFD10CF1010C14347FE7CC
:1029D0007F380100C0D40100FFE10400005307006C
:1029E000801A060000CA9A3BE80F03082004002062
:1029F000240400200000000013B5084612F0200156
:102A000014463BD09FED3A1B9FED3B0B6A460021DD
:102A100013F0BAFEC8B9DDE900013B4B0022FDF717
:102A200013FD04F01F04013CCDE90001052C20D862
:102A3000DFE804F003030D131919FDF7FDFF00EEA5
:102A4000100A052000F0EAFE002002B010BDFDF7DC
:102A5000F3FF00EE100A0C20F4E7FDF7EDFF00EEA7
:102A6000100A0220EEE7FDF7E7FF00EE100A032050
:102A7000E8E7264818F048FD0120E6E71306F8D5F8
:102A80009FED1F1B9FED1C0B6A4613F07DFE002877
:102A9000DBD104F01F04013C052CEAD8DFE804F088
:102AA00003030D151D1DDDE90001FDF7C5FF00EE57
:102AB000100A052000F008FFC6E7DDE90001FDF778
:102AC000BBFF00EE100A0C20F4E7DDE90001FDF782
:102AD000B3FF00EE100A0220ECE7DDE90001FDF78C
:102AE000ABFF00EE100A0320E4E700BFAFF3008065
:102AF000000000000000594000000000000000003D
:102B00000000000000408F4000002440AFF90208A0
:102B100008B5154818F0F8FC144B1548196818F05A
:102B2000ADF8144B1448196818F0A8F8134B18683E
:102B300007EE900AF8EE677A17EE900AFDF72CFC84
:102B40000F4B0022FDF7AAFD02460B460D4818F078
:102B500095F80D4B0D48196818F090F80C4818F0CE
:102B6000D3FC002008BD00BF6C100308380E002005
:102B700082100308340E002093100308300E00204A
:102B800000002440A41003082C0E0020B7100308F6
:102B900033F0020830B5510685B02ED502F01F0281
:102BA000013A052A24D8DFE802F003141619211E81
:102BB0000022052102A800F029FF40B90298FDF784
:102BC000EBFB02460B461E4818F058F8002005B0F3
:102BD00030BD0422EDE700220C21EBE708220221A0
:102BE0000DEB0200E7E700220321E3E70422FBE705
:102BF000144818F089FC0120E9E71306F8D502F023
:102C00001F02012A19D0053A012AF1D8032203A98B
:102C100002A800F09FFE0028D9D10398FDF7BCFB65
:102C2000044602980D46FDF7B7FB2246CDE90001A8
:102C30002B46054818F022F8C8E70522E7E700BF51
:102C4000CE100308AFF90208C810030802F4387068
:102C500002F01F02013A08B5052A1CD8DFE802F08D
:102C600003070B0F1317BDE8084000F01BBFBDE8BA
:102C7000084000F0F5BFBDE8084001F0CFB8BDE85E
:102C8000084001F055B9BDE8084001F0D7B9BDE8EA
:102C9000084001F0C5BA024818F036FC012008BD12
:102CA000AFF9020808B500F059FBFEF77BF800F019
:102CB000BFFA002008BD000007B59FED0B0B0846CA
:102CC0009FED0B1B6A4600218DED000B13F05CFDA0
:102CD00028B9DDE90001FDF78FFEFEF771F803B0BA
:102CE0005DF804FBAFF3008000000000000000006E
:102CF000000000002A75854108B500F099FA00F03F
:102D00002DFBFDF7D1FF002008BD08B500F090FABB
:102D1000FEF748F8BDE8084000F0A6BAF0B5ADF2FD
:102D2000BC4D01230846ADF802304FF496720DF108
:102D30000203002113F032FF0446E0B901464FF4CC
:102D4000966202A81BF010F8BDF8020001AA02A9C1
:102D500000F07AF9044670B90E4F02AD0646BDF890
:102D60000230B3420BDC0198FDF716FB02460B461E
:102D7000094817F083FF20460DF2BC4DF0BD55F811
:102D8000040BFDF709FB02460B46384617F076FFA9
:102D90000136E4E7D8100308DE10030808B5FEF793
:102DA00001F800F0DBFA00F0CDF9002008BD0000CA
:102DB000037F012B02D1044A13607047022B02BF2C
:102DC000024B01221A607047240E0020280E0020BA
:102DD00010B5002488B0CDE90544144B01941A6C59
:102DE000134842F008021A641A6C02F008020192B9
:102DF000019A02941A6B42F001021A631B6B03F0F2
:102E000001030293029B0122022303A9CDE90323BC
:102E1000079307F083F922460521322005F0AEFD25
:102E2000322005F0EDFD08B010BD00BF00380240B3
:102E30000000024030B5002589B0CDE90555314B81
:102E400001951A6C304C42F008021A641A6C02F0B8
:102E500008020192019A02951A6B42F001021A636C
:102E60001B6B03F001030293029B01200223CDE9B7
:102E7000030303A92548079307F050F9DFF89CC026
:102E80004FF04063C4E900C34FF4806E4FF48053A9
:102E9000C4E904E320464FF48043C4E90255C4E981
:102EA0000635C4E9085505F0EDFD08B104F09CFDB8
:102EB000174D184A6C62A563174C4FF04063C4E984
:102EC00000234FF480614FF480520023C4E90412C0
:102ED00020464FF48042C4E90233C4E90623C4E922
:102EE000083305F0CFFD08B104F07EFD0022052176
:102EF0003220AC62A56305F041FD322005F080FD73
:102F000009B030BD00380240FC170020000002402C
:102F10005C180020706002409C1700204060024056
:102F2000074A084808B5136C23F00803136401210D
:102F300007F03CFABDE80840322005F075BD00BF3F
:102F4000003802400000024038B5044609F0CEF8CF
:102F5000237F022B1FD1002120460BF0A1FA104D38
:102F60000421286020460BF09BFA0E4A0E4910609F
:102F700013680E4C83B113682A684FF47A70434388
:102F8000B3FBF2F3C31A0B6009F0B0F82B684000F2
:102F9000B0FBF3F0206038BD0B602360FBE700BF9F
:102FA000380E0020340E0020300E00202C0E0020A1
:102FB0002DE9F84F0FF069FEDFF888B01D4F1E4D68
:102FC000824600260FF061FEA0EB0A00FDF7C2F971
:102FD0003246804689463B46DBE90001FDF734FA7C
:102FE00002460B4640464946FDF7A0FC044660B940
:102FF000014612480DF0A6FB104804210DF0A2FB7B
:103000000F4B2C601C60032012E02B68012BD9D1E0
:103010000B4B1A68012AD5D10024214607481C60B1
:103020002C600DF08FFB054804210DF08BFB204632
:10303000BDE8F88F00408F40280E00205C1800206B
:10304000240E0020180000202DE9F04F384B87B0E7
:103050000C460021039206465962364A36484FF420
:1030600096730DF00DFA354A33484FF496730421E8
:103070000DF006FAFFF79CFF0546002852D1DFF855
:10308000BCA02C4F04EB860B8046A3450CD1B8FBAB
:10309000F6F807EE908A039BF8EE677AC3ED007AA4
:1030A000284607B0BDE8F08FD7F8049057F8043BE6
:1030B0005AF8042F0593994536BF09F1FF30A9EB63
:1030C0000300C01A0492FDF745F9049A059B914547
:1030D000CDE9000134BFA2EB0900D01AFDF73AF99F
:1030E000DDE90023FDF7DAFA154B0022FDF7ACF914
:1030F000FDF7A2FC44F8040B4046FDF72BF9DDE98F
:1031000000238046894608A1D1E90001FDF7C6FAEF
:1031100002460B4640464946FCF7E0FFFDF76CFCD3
:103120008046B2E70325BBE7000000002A75954101
:10313000000C0040EC1200205C1800203C0E002027
:103140000000594030B58DB00025344B01951A6B05
:10315000334C42F400121A631B6B03F400132A462B
:10316000052101930D20019B05F008FC0D2005F0C1
:1031700047FC2A4605210F2005F000FC0F2005F032
:103180003FFC102229460DEB02001AF0EDFD102243
:10319000294608A8CDE902551AF0E6FD214A29463C
:1031A00020460BF02BFA204BA560C4E900352046E1
:1031B0004FF0FF33C4E90335A5610DF015FC28BBC2
:1031C0004FF4805304A9204604930BF0E3FEE8B9C2
:1031D00020460DF01FFEC8B9CDE9020002A9204625
:1031E0000DF0CAFE024688B90123CDE909300890E6
:1031F0000B9008A920460BF06DFD38B9022304227C
:1032000008A92046CDE908330BF064FD074A0448BD
:1032100012210BF0F3F90DB030BD00BF00380240B1
:103220005C180020352E0108000C0040B12D01086B
:103230000A4A0B48136C10B523F00803094C1364B9
:10324000012107F0B3F8606A05F04CFDA06A05F0B3
:1032500049FD322005F0E8FB002010BD0038024097
:10326000000002405C18002070B590B010220021D0
:1032700003A8354C1AF078FD142200210BA8002574
:103280001AF072FD1022002107A81AF06DFD2F4AD6
:1032900029462046CDE901550BF0B0F92C4A012111
:1032A00020460BF0ABF92B4BA560C4E90035204656
:1032B0004FF0FF33C4E90335A5610DF095FB90BBDA
:1032C0004FF4805303A9204603930BF063FE50BBD9
:1032D00020460DF09FFD30BB0225CDE90D50502357
:1032E0000F9004260BA92046CDE90B630CF028FAB9
:1032F0000246C0B90123CDE908300A9007A920464B
:1033000007950BF0E7FC70B9CDE90705324607A930
:1033100020460BF0DFFC30B9CDE901000DEB0601D2
:1033200020460DF029FE084804210CF0D9FE48B9CA
:10333000014605480CF0D4FE20B9074A0248122184
:103340000BF05CF910B070BD5C180020D12D0108A5
:10335000212F0108000C0040492F010810B5094C2D
:1033600023686BB1042120460CF0C6FF00212046E3
:103370000CF0C2FF322005F057FB20460AF034FE65
:10338000002010BD5C18002001480AF0E9BF00BF12
:103390005C180020014805F06DBD00BFFC1700203F
:1033A000014805F067BD00BF9C17002010B514222E
:1033B0008AB0044600210DEB02001AF0D5FC236808
:1033C000224A934220D1224B2248002101911A6CBB
:1033D00042F008021A641A6C02F008020192019A83
:1033E00002911A6B42F001021A631B6B03F0010396
:1033F00002930121029B0223CDE90513099305A93C
:1034000006F08CFE0AB010BD134A9342FAD1104B5D
:103410001248002103911A6C42F002021A641A6CDD
:1034200002F002020392039A04911A6B42F0040222
:103430001A631B6B03F004030493049B40220223D2
:10344000CDE90523099305A9DAE700BF000C004088
:103450000038024000000240000400400008024022
:1034600010B504468EB01422002109A81AF07CFC85
:103470002368B3F1804F20D103F50E330021019171
:103480001A6C42F001021A641A6C02F001020192F5
:10349000019A02911A6B42F002021A631B6B03F04D
:1034A00002030293029B4FF480610223CDE90913CA
:1034B00001233C480D9309A922E03B4A934227D1BE
:1034C0003A4B002103911A6C42F002021A641A6C02
:1034D00002F002020392039A04911A6B42F0040272
:1034E0001A631B6B03F004030493049B304B1B789B
:1034F00053B9402309932F4802230A930D9309A936
:1035000006F00CFE0EB010BD042BFBD18023F1E7BA
:10351000294A934225D1254B002105911A6C42F08E
:1035200008021A641A6C02F008020592059A0691C4
:103530001A6B42F001021A631B6B03F0010306933E
:10354000069B1B4B1B783BB90123099302231B48A5
:103550000A930D9309A9D3E7042BD3D1022309932E
:10356000F5E7174A9342CDD1104B002107911A6C11
:1035700042F040021A641A6C02F040020792079A65
:1035800008911A6B42F002021A631B6B03F00203EC
:103590000893089B4FF480420223CDE909230923B5
:1035A00087E700BF000402400004004000380240EA
:1035B0001019002000080240000C004000000240EA
:1035C00000180040FFF74CBF08B50368B3F1804F07
:1035D0000CD1082126480CF007FD264A136C23F075
:1035E000010313644FF48061234815E0234A93429A
:1035F00016D1002122480CF0F7FC042120480CF0E1
:10360000F3FC1C4A1F48136C23F00203402113648F
:1036100006F0CCFE1B488021BDE8084006F0C6BE7F
:10362000194A934213D1002118480CF0DDFC042103
:1036300016480CF0D9FC0F4A1548136C23F0080308
:103640000121136406F0B2FE11480221E4E7114A99
:1036500093420BD1002110480CF0C6FC054A136CB4
:1036600023F0400313644FF48041BDE708BD00BF61
:10367000301B0020003802400004024000040040DB
:103680007C1A002000080240000C0040C8190020ED
:1036900000000240001800401419002008B503681B
:1036A000B3F1804F0FD12D480AF014FD08212B48AB
:1036B0000CF024FB2A4A136C23F0010313644FF42B
:1036C0008061284818E0284A934219D127480AF017
:1036D00077FD002125480CF011FB042123480CF054
:1036E0000DFB1F4A2248136C23F002034021136490
:1036F00006F05CFE1E488021BDE8084006F056BE7C
:103700001C4A934216D11C480AF05AFD00211A485F
:103710000CF0F4FA042118480CF0F0FA104A17489B
:10372000136C23F008030121136406F03FFE1348D5
:103730000221E1E7124A93420ED112480AF040FDFD
:10374000002110480CF0DAFA054A136C23F040030C
:1037500013644FF48041B4E708BD00BF301B002064
:103760000038024000040240000400407C1A00209F
:1037700000080240000C0040C81900200000024070
:1037800000180040141900200B4A136C10B50B4CA4
:1037900023F00203136420460AF012FD00212046A4
:1037A0000CF022FC042120460CF01EFCBDE8104069
:1037B0000348402106F0FABD003802407C1A002080
:1037C0000008024008B5114A0368934216D102F579
:1037D0000B320F48136C23F0080313640AF0F0FC5B
:1037E00000210B480CF000FC042109480CF0FCFB04
:1037F000BDE808400748012106F0D8BD064A9342BB
:1038000003D1BDE80840FFF7BFBF08BD000C004072
:10381000C8190020000002400004004001380B28B5
:1038200041D8DFE800F0061729403C4040404040C6
:10383000403E1E4BD3ED037ADFED1D6A1A68F8EEA9
:10384000677A67EE807A87EEA67ABCEEC77A82ED59
:103850000D7A0FE0174BDFED166AD3ED037A1A6885
:10386000F8EE677A67EE807A87EEA67ABCEEC77AC2
:1038700082ED0F7A002070470F4BD3ED037ADFED16
:103880000C6A1A68F8EE677A67EE807A87EEA67A95
:10389000FCEEC77AC2ED0D7AC2ED0E7AEAE7074B6D
:1038A000EBE7074BC6E74FF48B707047E41B002033
:1038B00000007A44301B00207C1A0020C819002028
:1038C0001419002000000000013810B50B282BD877
:1038D000DFE800F00622242A262A2A2A2A2A2A2871
:1038E000154CDFED167A60EE277A17EE900AFCF79A
:1038F00053FD02460B460EA1D1E90001FCF7CEFEB6
:103900000F4B0022FCF7E8FBFDF776F8E06020465D
:103910000DF06AF8002010BD0A4CE2E70A4CE0E71F
:103920000A4CDEE70A4CDCE74FF48B70F3E700BF8C
:10393000000000002A758541E41B002000007A4445
:103940000000F03F301B00207C1A0020C819002026
:1039500014190020032A2DE9F04706460D4629D008
:10396000052A48D1254F0FF090F900F596780021EF
:1039700038460AF095FD0421824638460AF090FD4B
:103980000021814638460AF08BFD8245044688BFF7
:1039900000F58034CA4528BF09F580390FF075F964
:1039A0004045A4EB0A0407D90023336003202B60B1
:1039B000BDE8F087124FD6E7002CD8D0114BB3FBEF
:1039C000F4F307EE903AF8EEE77AA9EB0A09C6EDB0
:1039D000007A07EE909AB8EE677A07EE904AF8EE12
:1039E000677A0020C7EE276ADFED077A66EEA77ACE
:1039F000C5ED007ADCE74FF48B70D9E7C8190020D9
:103A00007C1A002040A5AE020000C84202392DE910
:103A1000F041064617460A2936D8DFE801F00626A7
:103A200035223535353535352400194D0FF02DF952
:103A300000F59678394628460AF032FD39460446A4
:103A400028460AF02DFD844288BF00F58030041B13
:103A50000FF01BF940450AD9002333600320BDE86D
:103A6000F0810C4DE2E70C4DE0E70C4DDEE7002C59
:103A7000E0D00B4BB3FBF4F307EE903AF8EEE77AA5
:103A80000020C6ED007AEAE74FF48B70E7E700BF4D
:103A9000301B0020C8190020141900207C1A0020B7
:103AA00040A5AE0270B592B004461C2200210BA8BE
:103AB0001AF05AF91022002103A81AF055F9002132
:103AC000102207A81AF050F95F4D604B0126002123
:103AD000C5E900364FF6FF73C5E903315C4BA960B9
:103AE000202CCDE90111A961197029D1594A06216B
:103AF00028460AF083FD28460DF0DAF80446E0B9BE
:103B00004FF4805307A9284607930BF043FA024667
:103B1000044690B96023CDE90B300D900F900BA9AE
:103B200028460AF077FF044638B928460AF0D2FA48
:103B3000214628460CF018F80024204612B070BD2B
:103B4000402C2ED1444A022128460AF057FD28462F
:103B50000DF060F904460028EFD14FF4805307A917
:103B6000284607930BF016FA04460028E5D1CDE964
:103B7000010001A928460DF0FFF90246044600287D
:103B8000DBD1CDE90306CDE9050003A928460BF0FA
:103B9000A1F804460028D0D1014628460CF036F999
:103BA000CAE7802C42D12D4A28460AF027FD284634
:103BB0000CF01AFF04460028BFD14FF4805307A928
:103BC000284607930BF0E6F904460028B5D12846AD
:103BD0000DF020F904460028AFD1CDE9010001A97C
:103BE00028460DF0C9F9024604460028A5D1CDE9C2
:103BF0000306CDE9050003A928460BF06BF804463F
:103C000000289AD10223042203A92846CDE90333D0
:103C10000BF060F8044600288FD128460AF05AFAC3
:103C2000214628460CF0F2F80421B6E7B4F5007FEF
:103C300082D12846FFF7C6FD2846FFF7C5FC284677
:103C4000FFF72CFD78E700BFC8190020000C0040EA
:103C50001019002061340108C5350108AD33010891
:103C6000F0B593B004461C2200210BA81AF07CF892
:103C70001022002103A81AF077F80021102207A8CB
:103C80001AF072F85F4D604B01270021C5E900373B
:103C90004FF6FF73C5E903315C4BA9600426202C65
:103CA000CDE90111A9611E7029D1594A0621284682
:103CB0000AF0A4FC28460CF0FBFF0446E0B94FF4E0
:103CC000805307A9284607930BF064F9044698B976
:103CD0006023CDE90B300D900F9032460BA928469A
:103CE0000AF098FE044638B928460AF0F3F931463E
:103CF00028460BF039FF0024204613B0F0BD402CBD
:103D00002ED1444A022128460AF078FC28460DF0BC
:103D100081F804460028EFD14FF4805307A92846C4
:103D200007930BF037F904460028E5D1CDE90100EF
:103D300001A928460DF020F904460028DCD1CDE980
:103D40000307CDE90500324603A928460AF0C2FF61
:103D500004460028D0D1314628460CF057F8CAE76F
:103D6000802C41D12C4A28460AF048FC28460CF009
:103D70003BFE04460028BFD14FF4805307A92846D4
:103D800007930BF007F904460028B5D128460DF03B
:103D900041F804460028AFD1CDE9010001A9284629
:103DA0000DF0EAF804460028A6D1CDE90307CDE9D5
:103DB0000500324603A928460AF08CFF0446002875
:103DC0009AD10223024603A92846CDE903330AF01B
:103DD00081FF044600288FD128460AF07BF921464E
:103DE00028460CF013F8B6E7B4F5007F83D12846D7
:103DF000FFF7E8FC2846FFF7E7FB2846FFF74EFCF5
:103E000079E700BFC8190020000C004010190020FD
:103E100061340108C5350108AD33010870B592B0B1
:103E200004461C2200210BA819F09EFF102200213D
:103E300003A819F099FF1022002107A819F094FF98
:103E4000384D394A01260023C5E90026402C4FF69B
:103E5000FF72CDE90133C5E90323AB60AB612DD11E
:103E6000324A022128460AF0C9FB28460CF0D2FF4C
:103E7000044600BB4FF4805307A9284607930BF074
:103E800089F80446B8B9CDE9010001A928460DF02A
:103E900073F80246044670B9CDE90306CDE9050082
:103EA00003A928460AF016FF044620B90146284611
:103EB0000BF0ACFF0024204612B070BD202C27D19F
:103EC00028460CF0F5FE04460028F4D12846FFF7FA
:103ED000C7FA4FF4805307A9284607930BF05AF806
:103EE000024604460028E6D16023CDE90B300D9050
:103EF0000F900BA928460AF08DFD04460028DAD160
:103F000028460AF0E7F8214628460BF02DFED1E7B7
:103F1000B4F5007FCED12846FFF756FB2846FFF7C1
:103F2000BDFBC7E71419002000180040C535010883
:103F300070B592B006461C2200210BA819F014FFA0
:103F40001022002103A819F00FFF394C1022002184
:103F500007A819F009FF01254FF080420023C4E9AA
:103F60000025402E4FF6FF72CDE90133C4E903234B
:103F7000A360A36128D12F4A022120460AF03EFB0C
:103F800020460CF047FFE8B94FF4805307A92046BC
:103F900007930AF0FFFFA8B9CDE9010001A9204667
:103FA0000CF0EAFF70B9CDE90305CDE90500082260
:103FB00003A920460AF08EFE20B9082120460BF006
:103FC00025FF002012B070BD202E26D11A4A0621EE
:103FD00020460AF013FB20460CF06AFE0028F1D1BF
:103FE0004FF4805307A9204607930AF0D3FF002817
:103FF000E8D16022CDE90B200D900F9008220BA98B
:1040000020460AF007FD0028DCD120460AF062F8BD
:10401000082120460BF0A8FDD3E7B6F5007FD0D1EC
:104020002046FFF7D1FA2046FFF738FBC9E700BF6B
:10403000301B0020C535010861340108F0B593B08C
:1040400004461C2200210BA819F08EFE102200212C
:1040500003A819F089FE0021102207A819F084FE98
:10406000664D674B01270021C5E900374FF6FF7306
:10407000C5E90331634BA9600426202CCDE9011169
:10408000A9611E7029D1604A062128460AF0B6FAB5
:1040900028460CF00DFE0446E0B94FF4805307A902
:1040A000284607930AF076FF044698B96023CDE9C5
:1040B0000B300D900F9032460BA928460AF0AAFC4F
:1040C000044638B928460AF005F8314628460BF070
:1040D0004BFD0024204613B0F0BD402C2ED14B4A9E
:1040E000022128460AF08AFA28460CF093FE04467C
:1040F0000028EFD14FF4805307A9284607930AF010
:1041000049FF04460028E5D1CDE9010001A9284670
:104110000CF032FF04460028DCD1CDE90307CDE9DD
:104120000500324603A928460AF0D4FD04460028BB
:10413000D0D1314628460BF069FECAE7802C41D128
:10414000334A28460AF05AFA28460CF04DFC044639
:104150000028BFD14FF4805307A9284607930AF0DF
:1041600019FF04460028B5D128460CF053FE04463A
:104170000028AFD1CDE9010001A928460CF0FCFED2
:1041800004460028A6D1CDE90307CDE90500324653
:1041900003A928460AF09EFD044600289AD102236E
:1041A000024603A92846CDE903330AF093FD0446ED
:1041B00000288FD1284609F08DFF214628460BF0B4
:1041C00025FEB6E7B4F5007F83D1124A07212846C1
:1041D0000AF014FA2846FFF7F7F90F4A0321284698
:1041E0000AF00CFA2846FFF759FA0C4A39462846D5
:1041F0000AF004FA2846FFF7E5FA6AE77C1A00207D
:10420000000400401019002061340108C535010880
:10421000AD330108C93501089D360108C5370108CD
:1042200070B592B004461C2200210BA819F09CFD29
:104230001022002103A819F097FD0021102207A8E1
:1042400019F092FD5E4D5F4B01260021C5E9003655
:104250004FF6FF73C5E903315B4BA960202CCDE914
:104260000111A961197029D1584A062128460AF07E
:10427000C5F928460CF01CFD0446E0B94FF4805304
:1042800007A9284607930AF085FE0246044690B91E
:104290006023CDE90B300D900F900BA928460AF052
:1042A000B9FB044638B9284609F014FF21462846D0
:1042B0000BF05AFC0024204612B070BD402C2ED1C9
:1042C000434A022128460AF099F928460CF0A2FD3B
:1042D00004460028EFD14FF4805307A928460793DE
:1042E0000AF058FE04460028E5D1CDE9010001A9F5
:1042F00028460CF041FE024604460028DBD1CDE9F9
:104300000306CDE9050003A928460AF0E3FC0446AC
:104310000028D0D1014628460BF078FDCAE7802C52
:1043200042D12C4A28460AF069F928460CF05CFB79
:1043300004460028BFD14FF4805307A928460793AD
:104340000AF028FE04460028B5D128460CF062FD8C
:1043500004460028AFD1CDE9010001A928460CF0A0
:104360000BFE024604460028A5D1CDE90306CDE99F
:10437000050003A928460AF0ADFC044600289AD19E
:104380000223042203A92846CDE903330AF0A2FC44
:10439000044600288FD1284609F09CFE2146284675
:1043A0000BF034FD0421B6E7B4F5007F82D1FFF7AE
:1043B000EBF92846FFF708F92846FFF76FF979E788
:1043C0007C1A00200004004010190020613401080C
:1043D000C5350108AD33010810B5094C002220464F
:1043E000102106F0A7F820460122802106F0A2F84D
:1043F00020460122102106F09DF8002010BD00BFCC
:104400000010024010B5094C00222046102106F091
:1044100091F820460022802106F08CF820460122E7
:10442000102106F087F8002010BD00BF00100240E8
:1044300008B503480022102106F07CF8002008BDD2
:10444000001002402DE9F04F1546ADF2144D002347
:104450006A068A46ADF80E3003D585F040059C4FBC
:1044600004E02B06FBD59B4F85F08005A5F11303D7
:10447000032B3CD8964B9F4285F0100545D0964BB8
:10448000D3F80080954BB3F80090B8F1000F40D1FD
:10449000032D01D0062D09D10DF10E03FF220121BC
:1044A000504612F07BFB044600284CD12B1F022BF8
:1044B0005DD80DF1100B0026F96800294FD104AB2F
:1044C0003344FF22504612F074FB0446002840F0AB
:1044D000F5800136B6F5807F0BF1020BECD1B6B258
:1044E000033D032D6ED8DFE805F0457B83AFA5F1D2
:1044F0002303032B18D8764B9F4285F020050ED05E
:10450000774BD3F80080774BBDE7DFF8E4814FF0BD
:10451000100900224946404606F00CF8B8E7DFF8DB
:10452000D4814FF00109F4E76B1E012B10D803ABC7
:104530004FF6FF720021504612F030FB044610B9CE
:10454000012D09D0012420460DF2144DBDE8F08F55
:104550004FF00009C8469BE7814680469CE75B46D2
:104560004FF6FF720021504612F018FBADE7012410
:104570000026B5E7BDF80E20642384A9384609F06B
:1045800003FB0446F0B9FB6884AD6BB1CEB1564F66
:1045900029883846013416F071FBA64211DD2C2023
:1045A000023516F0B9FDF3E7BDF80E304BB14F4EB2
:1045B0002978304616F062FBBDF80E3001349C427B
:1045C00009DB0024B8F1000FBDD001224946404666
:1045D00005F0B0FFB7E72C20013516F09DFDE7E7A9
:1045E0006423324604A9384609F00CF90446E9E789
:1045F0006423009384AA334604A9384609F0BEF91F
:1046000004460028DED1FB6884AD73B1002ED8D0FB
:10461000354F29883846013416F030FBA642D0DDEC
:104620002C20023516F078FDF3E7002EC9D02F4F6D
:1046300029783846013416F021FBA642C1DD2C2032
:10464000013516F069FDF3E76423324604A93846C4
:1046500009F0D8F804460028B4D1BDF80E20642330
:1046600084A9384609F090FA04460028AAD1FA68CD
:10467000BDF80E3084AD82B1002BA2D01A4E29882D
:10468000304616F0FBFABDF80E3001349C4298DA41
:104690002C20023516F040FDF1E7002B91D0134E8F
:1046A0002978304616F0EAFABDF80E3001349C4203
:1046B00087DA2C20013516F02FFDF1E740F23D138B
:1046C00098427FF440AF002E7FF409AF3BE700BF74
:1046D000804A0020284A0020A81C0020A41C00209A
:1046E000A01C00209C1C00207A450308CA07030870
:1046F000000002400004024008B50A48102105F0FD
:1047000005FF68B18021074805F000FF0649074B07
:10471000002818BF1946064816F0B0FA002008BD58
:104720000449F8E7001002405D1903086519030801
:104730006A45030836190308F0B50E4612F0400129
:1047400087B0144637D0A4070DF10201304619D0C6
:1047500011F0BAFFA0B9CDE9030005901024384844
:10476000012301A9CDE9014305F0D8FC9DF8022001
:104770003348003A18BF0122214605F0DBFE002035
:1047800007B0F0BD11F0A0FF0028F9D1CDE903007A
:10479000059000F18040012401A900F50130CDE928
:1047A000014405F0BBFC9DF802202648003A18BFE2
:1047B00001222146E1E71006E1D50DF102030722AF
:1047C000304612F0F6F90028DAD19DF80230072BB6
:1047D0009DBF1D4A52F823701C4A054694BF32F80B
:1047E00013502F46A20724D0194B1F60194B1D8070
:1047F00000240DF1030130468DF8034011F064FFF1
:1048000020B1B0F58B7FBBD18DF803400023CDE9FB
:104810000333059301A9012338460195029305F05E
:104820007DFC9DF80320003A18BF01222946384636
:10483000A3E76307DCD5084B1F60084BD7E700BF31
:104840000000024000040240E0180308CE180308EC
:10485000A81C0020A41C0020A01C00209C1C0020E0
:1048600070B5294C236886B00D465BB9CDE903339A
:10487000059301265723254801A9CDE9013605F006
:104880004DFC266001A9284611F01EFF0446C0BB5E
:104890000DF10501284611F017FF044688BB0DF104
:1048A0000601284611F010FF044650BB0DF1070128
:1048B000284611F009FF044618BB02A9284611F04A
:1048C00003FF0446E8B99DF804201048012105F0D3
:1048D00031FE9DF805200D48022105F02BFE9DF8C4
:1048E00006200A48042105F025FE9DF80720074808
:1048F000102105F01FFE9DF808200448402105F016
:1049000019FE204606B070BD981C0020000C024025
:10491000F0B5274B274E802A18BF1E46351D0F467F
:104920000FCD8DB001AC0FC40FCD0FC495E80700BB
:104930000DF1020384E807004FF48072022138462B
:1049400012F02CF9341D30BBBDF80230202B24D0DE
:104950000CD8082B23D005D8022B0FD0042B20D045
:10496000162018E0102BFBD1182007E0802B1AD05E
:10497000B3F5807F19D0402BF2D12820079001ADEC
:104980000FCD0FC40FCD0FC495E8070084E80700D2
:10499000304608F0F7FD0DB0F0BD1846EEE71020E8
:1049A000ECE70820EAE73020E8E73820E6E700BF38
:1049B000804A0020284A002013B5002308460DF144
:1049C000070114468DF8073011F07EFE38B9112C1E
:1049D0001FD006DC012C08D0022C11D0162002B00A
:1049E00010BD122CFAD10C480BE00C489DF8073092
:1049F000003B18BF01235B00036108F0C3FDEEE735
:104A000006489DF80730003B18BF01235B00436157
:104A1000F3E70148EAE700BF284A0020804A002067
:104A200013B5002308460DF1070114468DF8073031
:104A300011F04AFE20B9402C04D0802C0DD0162055
:104A400002B010BD06489DF80730003B18BF012397
:104A5000DB01036208F096FDF2E70248F3E700BFCE
:104A6000804A0020284A002013B5002308460DF193
:104A7000070114468DF8073011F026FE20B9402CAE
:104A800004D0802C0DD0162002B010BD06489DF831
:104A90000730003B18BF0123DB02C36008F072FD42
:104AA000F2E70248F3E700BF804A0020284A0020CE
:104AB00013B5002308460DF1070114468DF80730A1
:104AC00011F002FE20B9402C04D0802C0DD016200D
:104AD00002B010BD06489DF80730003B18BF012307
:104AE0001B01436208F04EFDF2E70248F3E700BF06
:104AF000804A0020284A002070B586B00846154636
:104B000000210DF1030302228DF8031012F051F879
:104B1000044620B9402D05D0802D36D016242046DD
:104B200006B070BD9DF80330012B15D0022B1BD0B1
:104B300053B9CDE90333059310220123CDE90123B5
:104B40002E4801A905F0EAFA2D4803F0F7F82C48A1
:104B500008F018FD0446E2E7CDE90300CDE9013392
:104B60000590284801A9EDE7CDE903000590102341
:104B70000125224801A9CDE9013505F0CFFACDE99B
:104B80000344CDE901550594EBE79DF80350012D51
:104B900018D0022D1CD085B94FF48044CDE90355BF
:104BA0000595019401251748029501A905F0B6FA6B
:104BB00014482A46214605F0BDFC134803F0BEF810
:104BC0001148C5E70224CDE9030005900194EAE706
:104BD000CDE9030005904FF48043012601A909485F
:104BE000CDE9013605F09AFA0648059401A9CDE908
:104BF0000344CDE9015605F091FADEE700000240DA
:104C0000804A002000040240284A002000000000E2
:104C1000F7B51546002A66D0012A7DD0644C616A3A
:104C2000644A654B654800290CBF1146194616F0C9
:104C300025F8E168624A634B634800290CBF1146BE
:104C4000194616F01BF8216A604A614B6148002939
:104C50000CBF1146194616F011F821695E4A5F4BE8
:104C60005F4800290CBF1146194616F007F8616924
:104C70005C4A5D4B5D4800290CBF1146194615F092
:104C8000FDFFE469202C6FD065D8102C6BD05ED866
:104C9000002C7ED0082C7ED0554816F035FCFDB98E
:104CA0000121544805F032FC02210446514805F028
:104CB0002DFC042105464F4805F028FC102106462E
:104CC0004C4805F023FC402107464A4805F01EFCED
:104CD0003346CDE900702A464748214615F0CEFFFD
:104CE000002003B0F0BD10214448454E454C05F06E
:104CF0000DFC00280CBF31462146434815F0BEFF8D
:104D00000121424805F002FC00280CBF3146214633
:104D10003F4815F0B3FF81E74FF480413B48394CE1
:104D2000374E05F0F3FB00280CBF314621463648CC
:104D300015F0A4FF0221354805F0E8FB00280CBF60
:104D4000314621463248334C15F098FF67E7182C5E
:104D5000A2D1102408E0302C1FD0382C1FD0282CD2
:104D60009AD1402400E008242046FBF703FB0246CA
:104D70000B460DA1D1E90001FBF790FC264B002268
:104D8000FBF78CFC02460B462448214615F076FFC3
:104D900085E70224E8E70424E6E78024E4E74FF40B
:104DA0008074E1E7AFF30080000000002A759541B0
:104DB000804A0020C0170308641A03080C1803086F
:104DC000CF170308C91703081E180308D8170308CC
:104DD000D417030830180308224A0308DC17030815
:104DE00042180308E1170308231B0308541803089B
:104DF00066180308000C0240AC18030800000240CB
:104E00004339030897230308E81703080004024006
:104E1000FA170308284A002000408F40841803082E
:104E2000500638B50ED510212A4805F06FFB2A4BE5
:104E30001B68996820B1312017F026F8002038BD92
:104E40003020F9E71106F9D5930718D0234B1D68D8
:104E5000234B1C882146284605F058FB1E4B1B6837
:104E60009968A8B11F4817F067F81F4B9D421ED1E3
:104E7000B4F5806F0ED11D4815F000FFDEE712F08B
:104E8000040403D01A4B1D681A4BE2E72546E1E7FC
:104E90001948E8E7B4F5006F05D0402C05D0802C08
:104EA000CCD11648E8E71648E6E71648E4E7164B83
:104EB0009D4204D1B4F5806FC0D11448DCE7054BA6
:104EC0009D42BBD1022C01D11148D5E7012CB5D1AF
:104ED0001048D1E700000240F4020020A81C002086
:104EE000A41C0020C518030800080240C8180308C5
:104EF000A01C00209C1C0020D41103084E090308AC
:104F0000CB180308C41B030800040240D70C030895
:104F100096230308C1F40208402A08B503D0802A6A
:104F200008D0162008BD064802F08AFF044808F0A1
:104F300039FCF7E7034802F083FF0248F7E700BFB8
:104F4000804A0020284A002010B5044688B0142268
:104F5000002103A818F008FF2268134B9A4221D1C0
:104F600003F5F633002101911A6C104842F4002237
:104F70001A641A6C02F400220192019A02911A6BCF
:104F800042F001021A631B6B03F001030293029BC0
:104F900002220323CDE90332069303A908230793D2
:104FA00005F0BCF808B010BD004C00400000024005
:104FB0000268064B9A4208D1054A0648136C23F44E
:104FC00000231364032105F0F1B97047004C004041
:104FD000003802400000024010B5104C104A0B216E
:104FE00020460CF03BF90F4A0C2120460CF036F914
:104FF0000D4A4FF4E133C4E90023204600230C227C
:10500000C4E90233C4E905232361E3610CF03AFAF1
:1050100018B1BDE8104002F0E7BC10BDAC1C002088
:10502000494F0108B14F0108004C00400148FFF70B
:10503000BFBF00BFAC1C002010B51B4B1B4C1C4855
:10504000012A18BF1C46616815F018FE194A1A4B50
:10505000A1681A4800290CBF1146194615F00EFE2A
:10506000174BE168174A184800290CBF114619462A
:1050700015F004FE2369A3B11449154AB3F5806FF6
:1050800008BF1146134815F0F9FDE169124A094BB2
:10509000124800290CBF1146194615F0EFFD0020FB
:1050A00010BD0F49EEE700BFF44C0020AC1C0020FF
:1050B0003F22030830F502082F2203085322030879
:1050C00039390308972303086622030831220308AD
:1050D0003A220308792203088E1A03088C22030857
:1050E00035220308F0B5C3B00023062A0F46164642
:1050F000ADF806300AD86FF05A031341DB070FD51D
:10510000B31E012B19D9731F012B16D90022013EA2
:10511000052E00F2BA80DFE806F02241486E8C903E
:105120000DF10603FF220121384611F037FD044638
:105130000028E5D0204643B0F0BD002502AB2B444B
:10514000FF220021384611F034FD0446002840F0CB
:105150009E800135B5F5807FF0D1AAB2D7E7BDF8C2
:1051600006204F48642302A90CF00EF904460028DB
:10517000E0D1BDF8063002AD4BB14A4E2978304639
:1051800015F07CFDBDF8063001349C4201DB0024A3
:10519000D0E72C20013515F0BFFFEFE7404864232E
:1051A00002A90CF0A3F80446C4E73D48642302A911
:1051B0000CF09CF804460028BCD1BDF80620384805
:1051C000642302A90CF0E0F804460028B2D1BDF82F
:1051D000063002AD002BDAD0324E2978304615F079
:1051E0004DFDBDF8063001349C42D0DA2C2001354B
:1051F00015F092FFF1E7BDF806202B48642302A9C1
:105200000CF0C2F80446002894D1BDF8063002AD77
:10521000002BBCD0234E2978304615F02FFDBDF869
:10522000063001349C42B2DA2C20013515F074FFAF
:10523000F1E71D48642302A9B3E71B48642302A9D0
:105240000CF054F8044600287FF474AFBDF8062033
:105250001548642302A90CF097F8044600287FF44F
:1052600069AFBDF8063002AD002B90D00D4E297805
:10527000304615F003FDBDF8063001349C4286DA55
:105280002C20013515F048FFF1E7012452E740F2E8
:105290003D1398427FF44EAF002D7FF45EAF49E797
:1052A000F44C0020CA070308AC1C002007B50846D0
:1052B000032A2BD8DFE802F0021420280DF10701A1
:1052C00011F002FA48B912489DF80730B3FA83F397
:1052D0005B09DB03C3610CF0D5F803B05DF804FB98
:1052E0000B4BDB690B48B3F5004F14BF10210821AD
:1052F00015F0C4FC0020F0E70DF1070111F0E4F90E
:105300000028EAD10448DFE7034BEAE71620E4E788
:10531000F44C00209F220308AC1C002007B508466F
:10532000032A50D8DFE802F002212F4B0DF10703CA
:105330000222002111F03DFC38B99DF807303BB93D
:10534000224A136121480CF09DF803B05DF804FB7C
:10535000012B04D11D4B4FF4C0621A61F2E7022BFE
:10536000F0D11A4B4FF48062F7E7184B1B6943B337
:105370001749184AB3F5806F08BF1146164815F053
:105380007DFC0020E1E70DF107030222002111F06E
:1053900010FC0028D9D19DF807301BB90F4A1361C2
:1053A0000E48D0E7012B04D10C4B4FF4C0621A61B8
:1053B000F6E7022BF4D1094B4FF48062F7E7074B75
:1053C000D4E70749DAE71620BFE700BFF44C002016
:1053D000312203083A22030880220308AC1C002073
:1053E0003522030807B5023A0846032A20D8DFE829
:1053F00002F00216212B0DF107030222012111F008
:10540000D8FB48B911489DF80730013B18BF01236C
:105410005B03C3600CF036F803B05DF804FB0B4B84
:10542000DB680B48002B14BF0221012115F026FC7C
:105430000020F1E70DF107030222012111F0B9FB71
:105440000028E9D10348DEE7024BE9E7F44C0020ED
:10545000B0220308AC1C002007B50846032A2AD84E
:10546000DFE802F002141F270DF1070111F02CF9FB
:1054700048B912489DF80730003B18BF01231B03B1
:1054800083600BF0FFFF03B05DF804FB0B4B9B68E0
:105490000B48002B14BF0921082115F0EFFB002059
:1054A000F1E70DF1070111F00FF90028EBD10548E4
:1054B000E0E7044BEBE71620E5E700BFF44C0020E3
:1054C000BD220308AC1C0020022A37B5084614464A
:1054D00001D0042A1DD12F4D01AB2A46002111F025
:1054E00021FB002846D10199B1F5614F0ED023D898
:1054F000B1F5165F0AD016D8B1F5166F06D00FD8E1
:10550000B1F5967F02D0B1F5966F40D1224815F0E3
:10551000B5FB023C032C34D8DFE804F0272E3537E6
:10552000B1F5965FF1E7B1F5964FEFD0B1F5164FB3
:10553000ECD0B1F5615FE8E7184B9942E6D00CD8A2
:10554000B1F5E12FE2D005D8B1F5E13FDED0B1F5FC
:10555000613FDAE7B1F5612FD7E7114B9942D5D01A
:10556000A942D3D00F4B9942CFE70F48019B43602C
:105570000BF088FF03B030BD0B4B59680B4815F09A
:105580007DFB0020F6E70A48F0E7094BF5E7162017
:10559000F0E700BFA0252600D222030840420F00FA
:1055A00080841E0060E31600F44C0020E82203080B
:1055B000AC1C0020032A08B503D0042A05D0002023
:1055C00008BD034802F048FEF9E7FFF72FFDF6E7B4
:1055D000F44C0020012A08B503D0022A05D000208F
:1055E00008BD034802F0CCFDF9E7FFF7F5FCF6E74C
:1055F000F44C0020034B1A78FF2A04BF00221A70D3
:10560000704700BF241D002010B5044B044800243F
:105610001C7015F079FF204610BD00BF241D00202E
:105620007A28030807B5002308460DF107018DF815
:10563000073011F049F89DF807100348012200F0E7
:10564000B7FB03B05DF804FB241D002008B500F093
:10565000C9FC002008BD000008B50348042110F073
:105660002DFE002008BD00BF241D002007B54FF00F
:10567000FF330193084601AB4FF48062002111F023
:1056800015FA019A044801234FF4805100F022FBDF
:1056900003B05DF804FB00BF241D00200346B3F5F2
:1056A000867F084611460BD0B3F58B7F024605D0A6
:1056B000B3F5817F07D1054815F0E0BA0448FBE750
:1056C000044815F0DBBA044815F0D8BAE1280308FD
:1056D000F9280308152903082F29030830B5ADF56B
:1056E000825D81B008464022694610F0CFFF054632
:1056F000F0B92E216846FFF77DFF15F0E1FC044666
:1057000080B305704FF48053194810AA694610F011
:10571000C3F910B1174A694607E00134214610A8C1
:1057200010F0FCFB48B1134A2146FFF7B7FF0125F3
:1057300028460DF5825D01B030BD0D48694610F078
:10574000EDFB10B1B0F5817FE4D109484FF48053EF
:1057500010AA694610F0AAFD0028DBD1064815F012
:10576000D3FEE5E76946024810F0D8FBF4E700BF36
:10577000241D002043290308AC38030810B5ADF5FB
:10578000825D08464022694610F080FF044668B9F1
:105790000B484FF4805310AA694610F07DF9044677
:1057A00040B1084A6946FFF779FF012420460DF50C
:1057B000825D10BD042110A810F080FDF6E700BF47
:1057C000241D00204A29030830B50D4699B0402217
:1057D00008A9284610F05AFF0446002839D1202293
:1057E0006946284610F052FF044690BB2848FFF750
:1057F00001FF6A4612F8013B73BB26496846FAF777
:10580000FFFB90B324496846FAF7FAFB68B32349D3
:105810006846FAF7F5FB40B321496846FAF7F0FB12
:1058200018B320496846FAF7EBFBF8B11E49684601
:10583000FAF7E6FBD0B11D496846FAF7E1FBA8B1DB
:105840001B496846FAF7DCFB80B11A4815F05CFE8C
:105850000124204619B030BDC15C01F003010129CB
:1058600008BF203302F8013CC4E7012002464FF490
:105870008053114808A910F007FD044620B10F4AD3
:1058800008A9FFF70BFFE3E70D4815F03DFEE0E741
:1058900097510308972303084E29030840F602088E
:1058A0005329030843390308572903085D290308CE
:1058B0006129030864290308241D002079290308AD
:1058C000AC38030830B50D46A3B0402202A92846E3
:1058D00010F0DCFE0446C8B9402212A9284610F098
:1058E000D5FE044690B901A912A8FFF783FE14F073
:1058F0007BFA019B1B7851EC100B53B10F4AD35C20
:105900001B0706D40E4815F0FFFD0124204623B0E6
