:020000040800F2
:10000000000002209DA8010879A501087DA501082E
:1000100099A501089BA501089DA501080000000005
:100020000000000000000000000000003173020822
:100030009FA5010800000000C17302082574020892
:10004000EDA80108EDA80108EDA80108EDA8010838
:10005000EDA80108EDA80108EDA80108EDA8010828
:10006000EDA80108EDA80108EDA80108EDA8010818
:10007000EDA8010869330108EDA8010875330108EE
:10008000EDA80108EDA80108EDA80108EDA80108F8
:10009000EDA80108EDA80108EDA80108EDA80108E8
:1000A000A5870208EDA80108EDA80108EDA8010840
:1000B000EDA80108EDA80108EDA80108EDA80108C8
:1000C000EDA80108EDA80108EDA80108EDA80108B8
:1000D000EDA80108EDA80108AD950208EDA80108FA
:1000E000EDA80108EDA80108EDA80108EDA8010898
:1000F000EDA80108EDA80108EDA80108EDA8010888
:10010000EDA80108EDA801085D330108EDA801087C
:10011000EDA80108EDA80108A1A50108EDA80108B6
:10012000EDA80108EDA80108EDA80108EDA8010857
:10013000EDA801080000000000000000EDA8010883
:10014000EDA80108EDA80108EDA80108ADA501087A
:10015000EDA80108EDA80108EDA80108EDA8010827
:10016000EDA80108EDA80108EDA80108EDA8010817
:10017000EDA80108EDA80108EDA8010800000000A5
:1001800000000000EDA801080000000000000000D1
:10019000EDA801080000000000000000EDA8010823
:1001A000000000000000000000000000EDA80108B1
:1001B000EDA80108EDA80108EDA80108EDA80108C7
:0401C000EDA801089D
:020000040801F1
:1000000010F8012B11F8013B012A28BF9A42F7D0C2
:10001000D01A70470000000000000000000000003F
:1000200001F0FF01102A2BDB10F0070F08D010F8A9
:10003000013B013A8B422DD010F0070F42B3F6D1AD
:10004000F0B441EA012141EA014122F007047FF0C6
:1000500000070023F0E80256083C85EA010586EA1D
:10006000010685FA47F5A3FA87F586FA47F6A5FA59
:1000700087F68EB9EED1F0BC01F0FF0102F0070265
:1000800032B110F8013B013A83EA010313B1F8D110
:100090000020704701387047002D06BF35460338F1
:1000A000073815F0010F07D1013015F4807F02BF2A
:1000B000013015F4C03F0130F0BC0138704700BF7B
:1000C000034613F8012B002AFBD1181A0138704798
:1000D00081F0004102E000BF83F0004330B54FEAF9
:1000E00041044FEA430594EA050F08BF90EA020F66
:1000F0001FBF54EA000C55EA020C7FEA645C7FEAF9
:10010000655C00F0E2804FEA5454D4EB5555B8BF1B
:100110006D420CDD2C4480EA020281EA030382EA8C
:10012000000083EA010180EA020281EA0303362D1E
:1001300088BF30BD11F0004F4FEA01314FF4801CF1
:100140004CEA113102D0404261EB410113F0004F03
:100150004FEA03334CEA133302D0524263EB4303BA
:1001600094EA050F00F0A780A4F10104D5F1200E58
:100170000DDB02FA0EFC22FA05F2801841F10001B3
:1001800003FA0EF2801843FA05F359410EE0A5F187
:1001900020050EF1200E012A03FA0EFC28BF4CF0B8
:1001A000020C43FA05F3C01851EBE37101F000456E
:1001B00007D54FF0000EDCF1000C7EEB00006EEB7B
:1001C0000101B1F5801F1BD3B1F5001F0CD3490805
:1001D0005FEA30004FEA3C0C04F101044FEA44525C
:1001E00012F5800F80F09A80BCF1004F08BF5FEAE3
:1001F000500C50F1000041EB045141EA050130BDC3
:100200005FEA4C0C404141EB0101013C28BFB1F5D4
:10021000801FE9D291F0000F04BF01460020B1FA1F
:1002200081F308BF2033A3F10B03B3F120020CDAF2
:100230000C3208DD02F1140CC2F10C0201FA0CF0D0
:1002400021FA02F10CE002F11402D8BFC2F1200C35
:1002500001FA02F120FA0CFCDCBF41EA0C019040EB
:10026000E41AA2BF01EB0451294330BD6FEA040434
:100270001F3C1CDA0C340EDC04F11404C4F120021F
:1002800020FA04F001FA02F340EA030021FA04F331
:1002900045EA030130BDC4F10C04C4F1200220FA88
:1002A00002F001FA04F340EA0300294630BD21FAC6
:1002B00004F0294630BD94F0000F83F4801306BF8C
:1002C00081F480110134013D4EE77FEA645C18BF80
:1002D0007FEA655C29D094EA050F08BF90EA020F17
:1002E00005D054EA000C04BF1946104630BD91EA0F
:1002F000030F1EBF0021002030BD5FEA545C05D112
:100300004000494128BF41F0004130BD14F5800450
:100310003CBF01F5801130BD01F0004545F0FE41C4
:1003200041F470014FF0000030BD7FEA645C1ABFF9
:10033000194610467FEA655C1CBF0B46024650EA30
:10034000013406BF52EA033591EA030F41F400215C
:1003500030BD00BF90F0000F04BF0021704730B5E2
:100360004FF4806404F132044FF000054FF00001B7
:1003700050E700BF90F0000F04BF0021704730B578
:100380004FF4806404F1320410F0004548BF40424D
:100390004FF000013EE700BF42004FEAE2014FEAA2
:1003A00031014FEA02701FBF12F07F4393F07F4F7D
:1003B00081F06051704732F07F4208BF704793F080
:1003C0007F4F04BF41F40021704730B54FF4607493
:1003D00001F0004521F000411CE700BF50EA010296
:1003E00008BF704730B54FF000050AE050EA01023F
:1003F00008BF704730B511F0004502D5404261EBAF
:1004000041014FF4806404F132045FEA915C3FF4EF
:10041000D8AE4FF003025FEADC0C18BF03325FEA8C
:10042000DC0C18BF033202EBDC02C2F1200300FA3D
:1004300003FC20FA02F001FA03FE40EA0E0021FA62
:1004400002F11444BDE600BF70B54FF0FF0C4CF450
:10045000E06C1CEA11541DBF1CEA135594EA0C0F02
:1004600095EA0C0F00F0DEF82C4481EA030621EA3D
:100470004C5123EA4C5350EA013518BF52EA033578
:1004800041F4801143F4801338D0A0FB02CE4FF02A
:100490000005E1FB02E506F00042E0FB03E54FF05A
:1004A0000006E1FB03569CF0000F18BF4EF0010E52
:1004B000A4F1FF04B6F5007F64F5407404D25FEA4E
:1004C0004E0E6D4146EB060642EAC62141EA555101
:1004D0004FEAC52040EA5E504FEACE2EB4F1FD0C43
:1004E00088BFBCF5E06F1ED8BEF1004F08BF5FEAC1
:1004F000500E50F1000041EB045170BD06F0004673
:1005000046EA010140EA020081EA0301B4EB5C041F
:10051000C2BFD4EB0C0541EA045170BD41F4801117
:100520004FF0000E013C00F3AB8014F1360FDEBF3C
:10053000002001F0004170BDC4F10004203C35DA18
:100540000C341BDC04F11404C4F1200500FA05F39B
:1005500020FA04F001FA05F240EA020001F000423C
:1005600021F0004110EBD37021FA04F642EB0601B2
:100570005EEA430E08BF20EAD37070BDC4F10C04DC
:10058000C4F1200500FA04F320FA05F001FA04F2A0
:1005900040EA020001F0004110EBD37041F100018C
:1005A0005EEA430E08BF20EAD37070BDC4F1200597
:1005B00000FA05F24EEA020E20FA04F301FA05F2FF
:1005C00043EA020321FA04F001F0004121FA04F2A7
:1005D00020EA020000EBD3705EEA430E08BF20EA77
:1005E000D37070BD94F0000F0FD101F000464000B1
:1005F00041EB010111F4801F08BF013CF7D041EA33
:10060000060195F0000F18BF704703F00046520036
:1006100043EB030313F4801F08BF013DF7D043EA07
:100620000603704794EA0C0F0CEA135518BF95EABD
:100630000C0F0CD050EA410618BF52EA4306D1D144
:1006400081EA030101F000414FF0000070BD50EA63
:10065000410606BF1046194652EA430619D094EAED
:100660000C0F02D150EA013613D195EA0C0F05D1D7
:1006700052EA03361CBF104619460AD181EA03012B
:1006800001F0004141F0FE4141F470014FF00000E3
:1006900070BD41F0FE4141F4780170BD70B54FF07E
:1006A000FF0C4CF4E06C1CEA11541DBF1CEA1355FE
:1006B00094EA0C0F95EA0C0F00F0A7F8A4EB0504E0
:1006C00081EA030E52EA03354FEA013100F08880D7
:1006D0004FEA03334FF0805545EA131343EA1263A0
:1006E0004FEA022245EA111545EA10654FEA002655
:1006F0000EF000419D4208BF964244F1FD0404F50E
:10070000407402D25B084FEA3202B61A65EB030569
:100710005B084FEA32024FF480104FF4002CB6EB26
:10072000020E75EB030E22BFB61A754640EA0C00A6
:100730005B084FEA3202B6EB020E75EB030E22BFE6
:10074000B61A754640EA5C005B084FEA3202B6EB27
:10075000020E75EB030E22BFB61A754640EA9C00E6
:100760005B084FEA3202B6EB020E75EB030E22BFB6
:10077000B61A754640EADC0055EA060E18D04FEA74
:10078000051545EA16754FEA06164FEAC30343EA14
:1007900052734FEAC2025FEA1C1CC0D111F4801FE1
:1007A0000BD141EA00014FF000004FF0004CB6E7DA
:1007B00011F4801F04BF01430020B4F1FD0C88BF79
:1007C000BCF5E06F3FF6AFAEB5EB030C04BFB6EB84
:1007D000020C5FEA500C50F1000041EB045170BD77
:1007E0000EF0004E4EEA113114EB5C04C2BFD4EBA4
:1007F0000C0541EA045170BD41F480114FF0000E28
:10080000013C90E645EA060E8DE60CEA135594EAA3
:100810000C0F08BF95EA0C0F3FF43BAF94EA0C0FA6
:100820000AD150EA01347FF434AF95EA0C0F7FF41B
:1008300025AF104619462CE795EA0C0F06D152EA6F
:1008400003353FF4FDAE1046194622E750EA410653
:1008500018BF52EA43067FF4C5AE50EA41047FF464
:100860000DAF52EA43057FF4EBAE12E74FF0FF3CC9
:1008700006E000BF4FF0010C02E000BF4FF0010C9A
:100880004DF804CD4FEA410C7FEA6C5C4FEA430C13
:1008900018BF7FEA6C5C1BD001B050EA410C0CBF62
:1008A00052EA430C91EA030F02BF90EA020F0020C4
:1008B000704710F1000F91EA030F58BF994208BF2B
:1008C00090422CBFD8176FEAE37040F001007047E8
:1008D0004FEA410C7FEA6C5C02D150EA013C07D13F
:1008E0004FEA430C7FEA6C5CD6D152EA033CD3D08A
:1008F0005DF8040B704700BF8446104662468C4684
:100900001946634600E000BF01B5FFF7B7FF0028B6
:1009100048BF10F1000F01BD4DF808EDFFF7F4FFDF
:100920000CBF012000205DF808FB00BF4DF808ED6A
:10093000FFF7EAFF34BF012000205DF808FB00BF8D
:100940004DF808EDFFF7E0FF94BF012000205DF8AF
:1009500008FB00BF4DF808EDFFF7CEFF94BF012064
:1009600000205DF808FB00BF4DF808EDFFF7C4FF5D
:1009700034BF012000205DF808FB00BF4FEA410CA6
:100980007FEA6C5C02D150EA013C0AD14FEA430C89
:100990007FEA6C5C02D152EA033C02D14FF00000C6
:1009A00070474FF0010070474FEA410212F5001204
:1009B00015D211D56FF47873B3EB625212D94FEAA6
:1009C000C12343F0004343EA505311F0004F23FA90
:1009D00002F018BF404270474FF00000704750EAE5
:1009E000013005D111F0004008BF6FF000407047A2
:1009F0004FF00000704700BF4A0011D212F50012FC
:100A000011D20DD56FF47873B3EB62520ED44FEA66
:100A1000C12343F0004343EA505323FA02F07047E6
:100A20004FF00000704750EA013002D14FF0FF3024
:100A300070474FF0000070474FEA4102B2F1E043C7
:100A400024BFB3F5001CDCF1FE5C0DD901F0004CB5
:100A50004FEAC0024CEA5070B2F1004F40EB830005
:100A600008BF20F00100704711F0804F21D113F131
:100A70003872BCBF01F00040704741F480114FEA6A
:100A80005252C2F11802C2F1200C10FA0CF320FAF3
:100A900002F018BF40F001004FEAC1234FEAD32310
:100AA00003FA0CFC40EA0C0023FA02F34FEA43037A
:100AB000CCE77FEA625307D150EA01331EBF4FF003
:100AC000FE4040F44000704701F0004040F0FE401E
:100AD00040F40000704700BF7BB972B90029BEBF67
:100AE00000204FF0004106E008BF00281CBF6FF057
:100AF00000414FF0FF3000F057B8ADF1080C6DE940
:100B000004CE002909DB002B1ADB2FF017FFDDF8DC
:100B100004E0DDE9022304B07047404261EB41018B
:100B2000002B1BDB2FF00AFFDDF804E0DDE90223D8
:100B300004B0404261EB4101524263EB4303704712
:100B4000524263EB43032FF0F9FEDDF804E0DDE9E8
:100B5000022304B0404261EB41017047524263EB13
:100B600043032FF0EBFEDDF804E0DDE9022304B0DF
:100B7000524263EB4303704753B94AB9002908BF97
:100B800000281CBF4FF0FF314FF0FF3000F00CB8D1
:100B9000ADF1080C6DE904CE2FF0D0FEDDF804E0D5
:100BA000DDE9022304B07047704700BF0348044BDF
:100BB000834202D0034B03B1184770476003002003
:100BC00060030020000000000548064B1B1AD90FE7
:100BD00001EBA301491002D0034B03B11847704742
:100BE00060030020600300200000000010B5064CE8
:100BF000237843B9FFF7DAFF044B13B10448AFF38E
:100C000000800123237010BD60030020000000005D
:100C1000340C040808B5054B1BB105490548AFF372
:100C20000080BDE80840FFF7CFBF00BF0000000014
:100C300064030020340C040870B586B0032200243D
:100C4000012301A92B480594CDE901320226CDE903
:100C500003440BF023FD01A9264801960BF01EFD6D
:100C60004FF4805301A9244801934FF480650BF0A1
:100C700015FD01A9214801950BF010FD4FF48043AB
:100C800001A91E4801930BF009FD01A91B4801961B
:100C90000BF004FD802301A9174801930BF0FEFC23
:100CA000402301A9144801930BF0F8FC01A9124854
:100CB00001950BF0F3FC082301A90F4801930BF0F9
:100CC000EDFC04230DEB03010B4801930BF0E6FC54
:100CD0004FF4007301A9074801930BF0DFFC4FF4B8
:100CE00000630548019301A90BF0D8FC204606B02B
:100CF00070BD00BF00000240000802400004024036
:100D000082B000230193064B1A6C42F008021A6469
:100D10001B6C03F008030193019B02B0704700BFF6
:100D200000380240024A136C23F008031364704732
:100D30000038024070B5102694B0374D002432467A
:100D400000210DEB06002CF0CAFD21461C220DA847
:100D5000CDE902442CF0C3FD2146304A28460FF06D
:100D6000D1FE2F4A012128460FF0CCFE2D4BAE605C
:100D7000C5E900342C23C5E9033428468023AB6140
:100D800011F06EFF0446002843D14FF480530DEB61
:100D900006012846049310F06FFB0446002838D162
:100DA000284612F00FF80446002832D1CDE902009F
:100DB00002A9284612F01CFA044650BB3023CDE9A4
:100DC0000D300F90119002460DA928460FF0B4FF88
:100DD0000446F0B92A689369CDE90A0043F0080394
:100DE0009361114B01901A6B104842F001021A6393
:100DF0001B6B03F001030193019B0122022308A94D
:100E0000CDE908230C930BF049FC2146284610F04D
:100E1000C5FF204614B070BD7C030020010D010801
:100E2000250D0108000C004000380240000002407F
:100E300008B50021034811F063F802480FF05AFB8F
:100E4000002008BD7C03002070B5134E3368D3B179
:100E5000124CB4FBF0F4651E294611482CF09EF9A3
:100E60002046FFF777FA02460B4609A1D1E90001B7
:100E7000FFF714FC02460B460A482CF08FF9336842
:100E80000020DD6270BD0120FCE700BFAFF30080F1
:100E9000000000002A7585417C03002040A5AE02B9
:100EA000900D04089C0D040808B502482CF01AFAAD
:100EB000002008BDA70D040808B516F0DDFD0146A9
:100EC00002482CF06BF9002008BD00BF4F12040847
:100ED000F7B54FF4F04029F0D3FF0446002800F0A6
:100EE0008B81CB482CF0FEF9CA4B1B68DB0340F129
:100EF00070810DF02FFF07EE900AF8EE677A17EE7B
:100F0000900AFFF749FABEA3D3E90023FFF7C6FB17
:100F10000246C1480B462CF041F9C049C0482CF0AC
:100F20003DF9C0482CF0DEF916F0A6FD1426054662
:100F30004FF4F042002120462CF0D1FC013EF7D1C5
:100F400016F09AFD401B07EE900AF8EE677A142619
:100F500017EE900AFFF720FAB34B0022FFF79EFB33
:100F600002460B46B1481E212CF018F916F084FDFC
:100F700004F5705705464FF47052394620462CF060
:100F800070FE013EF7D116F077FD401B07EE900A88
:100F9000F8EE677A142617EE900AFFF7FDF9A24BD8
:100FA0000022FFF77BFB02460B46A1480F212CF0E5
:100FB000F5F816F061FD05464FF4705239462046AB
:100FC0002CF064FC013E0190F6D116F055FD401B5B
:100FD00007EE900AF8EE677A142617EE900AFFF7EC
:100FE000DBF9914B0022FFF759FB02460B46914873
:100FF0000F212CF0D3F890482CF074F916F03CFD3A
:1010000005468E494FF4705220462CF02AFE013ED0
:10101000F7D116F031FD401B07EE900AF8EE677A23
:10102000142617EE900AFFF7B7F97F4B0022FFF75F
:1010300035FB02460B467E480F212CF0AFF816F028
:101040001BFD05467D484FF4705221462CF01EFCD6
:10105000013E0190F6D116F00FFD401B07EE900AFD
:10106000F8EE677A17EE900AFFF796F96E4B0022BA
:10107000FFF714FB02460B466E480F212CF08EF84A
:101080006F482CF02FF90023009316F0F5FC42F284
:1010900010730546B7EE007ADDED007A77EE877AB9
:1010A000013BCDED007AF7D116F0E6FC401B07EED0
:1010B000900AF8EE677A634F17EE900AFFF76CF923
:1010C00051A3D3E90023FFF7E9FA02460B465E4835
:1010D0002CF064F8009716F0CFFC4FF47A760546B2
:1010E0000098FFF759F941EC100B28F09FF951ECEB
:1010F000100BFFF7A1FC013E0090F1D116F0BCFCF3
:10110000401B07EE900AF8EE677A4FF47A7617EEF6
:10111000900AFFF741F94D4B0022FFF7BFFA024654
:101120000B464B482CF03AF84A4B009316F0A4FCBF
:1011300005460098FFF730F941EC100B28F0ACF9A8
:1011400051EC100BFFF778FC013E0090F1D116F046
:1011500093FC401B07EE900AF8EE677A4FF47A751D
:1011600017EE900AFFF718F9384B0022FFF796FAAE
:1011700002460B4638482CF011F8009716F07CFC1C
:1011800006460098FFF708F941EC100B28F00CF91F
:1011900051EC100BFFF750FC013D0090F1D116F01F
:1011A0006BFC801B07EE900AF8EE677A17EE900A48
:1011B000FFF7F2F8254B0022FFF770FA02460B46C4
:1011C00026482BF0EBFF204629F062FE284603B0AC
:1011D000F0BD0DF0BFFD07EE900AF8EE677A17EE4E
:1011E000900AFFF7D9F806A3D3E90023FFF756FAD0
:1011F00002460B461A488EE64FF48670E7E700BFBA
:101200000000000080842E41000000000088C340E0
:1012100054120408003802406E1204084A6A040896
:101220008D1204089612040800003440B21204081B
:10123000CA120408E2120408FA120408E5A0010820
:101240001713040800401C463413040800408F4064
:101250004C130408C3F54840641304087C130408C5
:101260007C12040813B547F23052084601AB012145
:1012700017F064FD044610B9019813F08FFE204664
:1012800002B010BD13B5074A084601AB012117F0A3
:1012900055FD044610B9019816F0E4FB204602B053
:1012A00010BD00BF80C3C90108B509F047FB014666
:1012B00002482BF073FF002008BD00BF4F12040846
:1012C00030B58DB00D461422002107A82CF007FB85
:1012D0000023069340F633020DF116034FF4FA6132
:1012E000284617F072FD0446002864D1BDF8163078
:1012F00030338DF81B300C220DF1190301212846E3
:1013000017F06EFD0446002855D10DF11A031F2277
:101310000121284617F064FD044600284BD1014600
:1013200007AB1722284617F05BFD0446002842D180
:1013300001460DF11D033B22284617F051FD0446DE
:10134000002838D101460DF11E033B22284617F034
:1013500047FD044678BB024606A918480EF028FA55
:10136000044640BB024607A914480EF023F9044680
:1013700008BB024607A911480EF0EAF90446D0B9A5
:10138000024606A90D480EF0B1FA044698B99DF838
:101390001E309DF81B1002939DF81D3001939DF89F
:1013A0001C3000939DF819209DF81A30044801F56F
:1013B000FA612BF0F3FE20460DB030BDF03700206F
:1013C0009413040810B58AB01248002205A90EF043
:1013D000BFF90446D0B9024604A90E480EF086FAB9
:1013E000044698B99DF816309DF8131002939DF8A5
:1013F000153001939DF8143000939DF811209DF84D
:101400001230054801F5FA612BF0C8FE20460AB0FB
:1014100010BD00BFF03700209413040808B5002069
:1014200017F0C0FE002008BD08B508482BF05AFF91
:1014300017F0CAF907F0DCFA014605482BF0AEFEBA
:1014400002482BF04FFF002008BD00BFB313040873
:10145000F013040813B5FF2208460DF1070300211D
:1014600017F0BEFC0446A0B99DF807302A2B13D113
:101470000A482BF037FF0A2013F090FD084B1B6839
:1014800098682BF025FC4FF4FA7013F087FD06F0F6
:10149000B5FF204602B010BD0124FAE70614040887
:1014A00010030020204B1868204B2DE9F0411E68E6
:1014B0001F4C204BE41A241118B103780BB12BF008
:1014C00011FF1C4DDFF880800027BC4208D126B1F7
:1014D000337813B130462BF005FF0020BDE8F081D2
:1014E000EA68CAB12968B9B11378ABB10B7818F8BA
:1014F0000300800703D103F0EF002A2803D10E4830
:101500002BF04CFE08E02D2B03D03F2B07D00B49CE
:10151000F5E70B482BF0E6FE01371035D5E711460D
:1015200008482BF03BFEF7E70400002000000020F5
:1015300098C7040828AE0408311404087B1804086E
:101540003D1404088D140408B9A8040807B5042143
:101550000DEB010000F004FB0198FEF71DFF0246B1
:101560000B4603482BF01AFE002003B05DF804FB85
:10157000FE17040807B504210DEB010000F0B4FAD2
:101580000198FEF709FF02460B4603482BF006FEC2
:10159000002003B05DF804FBFE17040807B501A89E
:1015A00000F064FA0198FEF7F7FE02460B46034886
:1015B0002BF0F4FD002003B05DF804FB13180408C1
:1015C000F7B54248424C434D2BF0E8FD14F8011B9F
:1015D00041482BF0E3FDAC42F8D10A203F4C2BF000
:1015E00023FE3F482BF07EFE3E482BF0D7FD2168BE
:1015F0003D482BF0D3FD61683B482BF0CFFDA1683F
:1016000039482BF0CBFD0A202BF00EFE37486768D7
:101610002BF0C4FD00240025E619A95D34480135EE
:101620002BF0BCFD102DF8D132482BF0B7FD002572
:10163000A85DA0F120035E2B88BF2E2001352BF082
:10164000F3FD102DF4D10A202BF0EEFD04F580748B
:1016500029482BF0A3FDB4F5E06FDCD10A202BF074
:10166000E3FD684600F002FA0098FEF795FE024698
:101670000B4622482BF092FD04210DEB010000F0F7
:1016800033FA0198FEF788FE02460B461C482BF001
:1016900085FD04210DEB010000F062FA0198FEF7D0
:1016A0007BFE02460B4617482BF078FD4FF40051A5
:1016B00015480BF0E9F9154B1549002808BF1946E4
:1016C00014482BF06BFD002003B0F0BD2B1804086C
:1016D000107AFF1F207AFF1F381804080000FF1F30
:1016E0003D18040849180408561804085D18040831
:1016F0006A1804087A1804087018040813180408F3
:101700007D180408FE17040800080240FB65040861
:10171000402B0408921804080020704708B50248BE
:101720002BF0E0FD002008BD1619040808B502489A
:101730002BF0D8FD002008BD538A04087FB50A4B62
:1017400004930A4B03930A4B02930A4A0A4B0193F0
:10175000D37F0093937F09480A3210212BF01EFD9E
:10176000002007B05DF804FB451904085F19040860
:101770006B190408240000207C1904081D190408B2
:1017800038B51B4C1B482BF009FD236898682BF0DB
:101790009FFA19482BF002FD236898682BF098FAFD
:1017A000312528462BF040FD236898682BF090FAED
:1017B0000135642013F0F2FB362DF2D123680F4877
:1017C00099682BF0C5FC236898682BF081FA3220C9
:1017D00013F0E4FBBFF34F8F09490A4BCA6802F4C8
:1017E000E0621343CB60BFF34F8F00BFFDE700BF44
:1017F000100300202A14040883190408A2190408FD
:1018000000ED00E00400FA0508B5032A18D8DFE867
:1018100002F0020E10120B4B196807290DD80A4B63
:101820000A4833F811102BF0B9FC002008BD084B12
:10183000F2E7084BF0E7084BEEE708482BF0AEFC68
:101840000120F3E714000020689B0408AA1B040889
:10185000100000200C00002008000020AE1B04082F
:1018600007B5032A38D8DFE802F002131F2B1B4B01
:1018700001A8196800F038F90198FEF78DFD0246BD
:1018800017480B462BF08AFC002003B05DF804FBE0
:10189000144B01A8196800F063F90198FEF77CFD6C
:1018A00002460B461048EDE7104B01A8196800F0FE
:1018B00093F90198FEF770FD02460B460C48E1E7EC
:1018C0000C4B01A8196800F0C3F90198FEF764FDFC
:1018D00002460B460848D5E70120D6E71400002051
:1018E0007D18040810000020FE1704080C000020DA
:1018F000C71B040808000020DC1B040813B50846B9
:10190000144601AB4FF4F072032117F017FA68BBCD
:10191000019B542B1CD00DD81C2B1BD006D8032B9D
:101920001AD00F2B1AD04FF48B701FE0382BFAD13E
:10193000032307E0902B13D0B3F5F07F12D0702B68
:10194000F1D10523032C19D8DFE804F00E12141688
:101950000423F7E70223F5E70346F3E70123F1E762
:101960000623EFE70723EDE7054A136002B010BD39
:10197000044AFAE7044AF8E7044AF6E70120F5E7E3
:1019800014000020100000200C000020080000209F
:1019900010B58CB0314B0021019114465A6C42F4C1
:1019A00080725A645A6C02F480720192019A029118
:1019B0005A6C42F400725A645A6C02F40072029239
:1019C000029A03915A6C42F480625A645A6C02F48F
:1019D00080620392039A04911A6B42F001021A6327
:1019E0001A6B02F001020492049A05911A6B42F0FC
:1019F00002021A631A6B02F002020592059A06911E
:101A00001A6B42F004021A631B6B03F00403069383
:101A1000142207A8069B2BF062FF032C1BD8DFE8DB
:101A200004F0020D0F13012307930D4803230893BD
:101A300007A90AF033FE00200CB010BD0223F3E723
:101A400008482BF04FFCF6E702220323CDE90723D9
:101A5000054807A9EDE70120EEE700BF0038024086
:101A600000000240F11B040800040240194B30B58D
:101A700005460FCB85B08DE80F006946164809F082
:101A80009BF9322015F0EEFF134809F0ADF8642100
:101A9000114809F03BF9104809F08BF90F4B9FED05
:101AA000107A9A8DDB8D811A07EE901AF8EE677A1C
:101AB0009B1A67EE877A07EE103AB8EEC77A0020D5
:101AC000C7EE876AF3EE0E7A76EEA77AC5ED007A56
:101AD00005B030BD500C040810340020007AFF1F00
:101AE0000000A0420000000030B5002485B00123B2
:101AF000CDE90214054669461748CDE9004309F0CF
:101B00005BF9322015F0AEFF134809F06DF864213F
:101B1000114809F0FBF8104809F04BF907EE900A5C
:101B20009FED0E7AF8EE677AC7EE877A17EE900A85
:101B3000FEF732FC06A3D3E90023FEF785FCFEF78F
:101B40007BFF2860204605B030BD00BFAFF30080AA
:101B50006666666666660A408033002000F07F4550
:101B600030B585B001230446029100256946184826
:101B70000395CDE9003309F01FF9322015F072FF0B
:101B8000134809F031F86421114809F0BFF81048F2
:101B900009F00FF907EE900A9FED0E7AF8EE677ADA
:101BA000C7EE877A17EE900AFEF7F6FB06A3D3E995
:101BB0000023FEF749FCFEF73FFF2060284605B0F2
:101BC00030BD00BFAFF300806666666666660A4099
:101BD000C833002000F07F4530B5002485B00123D4
:101BE000CDE90214054669461748CDE9004309F0DE
:101BF000E3F8322015F036FF134808F0F5FF6421B2
:101C0000114809F083F8104809F0D3F807EE900A5C
:101C10009FED0E7AF8EE677AC7EE877A17EE900A94
:101C2000FEF7BAFB06A3D3E90023FEF70DFCFEF78F
:101C300003FF2860204605B030BD00BFAFF3008031
:101C40006666666666660A40C833002000F07F4517
:101C500030B585B00922012304460291002569466A
:101C600017480395CDE9002309F0A6F8322015F0B6
:101C7000F9FE134808F0B8FF6421114809F046F84E
:101C80000F4809F096F807EE900A9FED0E7AF8EEED
:101C9000677AC7EE877A17EE900AFEF77DFB06A3F8
:101CA000D3E90023FEF7D0FBFEF7C6FE20602846EE
:101CB00005B030BDAFF300806666666666660A40B2
:101CC0001034002000F07F45F0B58BB014460F466D
:101CD0001422002168462BF002FE04F01F03013B92
:101CE000112B64D8344A52F82350344A32F8136026
:101CF00004F0C003C02B0AD10021102206A82BF04B
:101D0000EEFD059605A928460AF0C8FC26E004F079
:101D1000A003A02B24D10024012305A92846CDE946
:101D200007440994069305960AF0B8FC05A93846BD
:101D30008DF8144016F002FE044648B1B0F58B7FD2
:101D400003D040F23D13984218D100238DF814308F
:101D50009DF81420314628460AF0A8FE00240DE024
:101D6000A1060ED505A9384616F0E8FD044628B9A7
:101D70009DF81420314628460AF098FE20460BB004
:101D8000F0BD62060CD5314628460AF07DFE0C4BAC
:101D90000C4A002818BF1A4610462BF0A3FADDE7BC
:101DA000E30504D50323009601936946ABE7064893
:101DB0002BF098FA0124E1E79C9B0408789B040827
:101DC00081190408538A0408F01D0408024BF72205
:101DD0001A700020704700BF5C330020034A13785C
:101DE00043F0080313700020704700BF5C330020ED
:101DF00007B508460DF1070116F0A0FD38B99DF8AA
:101E00000720064B32B11A7842F004021A7003B070
:101E10005DF804FB1A7802F0FB02F7E75C33002060
:101E200007B508460DF1070116F088FD38B99DF891
:101E30000720064B32B11A7842F002021A7003B042
:101E40005DF804FB1A7802F0FD02F7E75C3300202E
:101E500007B508460DF1070116F070FD38B99DF879
:101E60000720064B32B11A7842F001021A7003B013
:101E70005DF804FB1A7802F0FE02F7E75C330020FD
:101E800010B586B00C461422002101A82BF027FDC6
:101E900020460DF103030222002116F0A1FF0446A3
:101EA00078B99DF803307BB1012B0CBF01230223CD
:101EB0000648039301A90AF0F1FB054801A90AF0BD
:101EC000EDFB204606B010BD0346F1E700080240D6
:101ED0000004024007B508463AB10D490D482BF001
:101EE0005DF9002003B05DF804FB0DF1070116F069
:101EF00025FD0028F6D19DF80730074A003B18BFA2
:101F00000123DB01104613620AF0F6FFEAE700BF87
:101F1000902B0408C49404089C37002007B5084699
:101F20003AB10D490D482BF039F9002003B05DF8A6
:101F300004FB0DF1070116F001FD0028F6D19DF814
:101F40000730074A003B18BF01239B011046D361AD
:101F50000AF0D2FFEAE700BF902B0408C4940408FB
:101F60009C37002007B508463AB10C490C482BF0C5
:101F700015F9002003B05DF804FB0DF1070116F020
:101F8000DDFC0028F6D19DF80730064A003B18BF5B
:101F90000123104653610AF0AFFFEBE7902B0408D2
:101FA000C49404089C37002007B5084642B10B4B87
:101FB0000B4859682BF0F2F8002003B05DF804FBE1
:101FC000084A01AB012116F0B9FE0028F5D1034AF9
:101FD000019B536010460AF08FFFEEE79C3700200C
:101FE000972B0408801A060007B5084611464AB127
:101FF000104B11481B6819692BF0D0F8002003B072
:102000005DF804FB01AB4FF0FF3216F097FE00289D
:10201000F5D108490B681A6822F001021A60019A8A
:102020004A6022F070621A611A6842F001021A6076
:10203000E5E700BF58340020972B04082DE9F04F46
:10204000C7B08A460DF114080DF1160704AE002141
:1020500015464FF0020B33464FF6FF72504639805B
:10206000A8F800B016F0B1FE0146002840F06281E9
:10207000338805F1FF395B00B9F1010F338050D887
:102080000DF112034FF6FF72504616F09EFE044605
:1020900038B943465A460121504616F096FE04468A
:1020A00030B1204647B0BDE8F08FB9F1090F0ED826
:1020B00040F2B52323FA09F3DB0708D53B46FF229C
:1020C0000121504616F081FE04460028E9D1023D68
:1020D000082D3DD840F2AD13EB4013F0010310D0B2
:1020E00000250DF1180B0BEB0503FF2200215046D4
:1020F00016F076FE044620BB0135B5F5807FF2D19F
:10210000ABB2B9F1090F00F21781DFE819F0230033
:10211000440053006E0076009B00BB00C900E50040
:10212000ED00AB1F012BC0D80DF112034FF6FF726B
:10213000504616F04AFE04460028B2D1434610220B
:10214000A9E740F23D139842ABD1002DD8D1A8E7C2
:102150000023D6E7642302933B88019306AD0095E4
:10216000B8F80030BDF81220318874480AF0FAF847
:102170000446002895D13B88A34201DC002490E767
:1021800014B12C202BF050F815F8011B6C482BF0E3
:1021900005F80134EFE76422CDE9013206AB009384
:1021A000B8F80030BDF812203188644809F0F6FF15
:1021B000044676E7642300933B8831885F4806AA8B
:1021C00009F052FF044600287FF46BAF06AD3B8850
:1021D000A342D3DD14B12C202BF026F815F8011BF7
:1021E00057482AF0DBFF0134F1E76422009231887E
:1021F000524806AA09F08AFEDAE76425009531887C
:102200004E4806AA09F082FE044600287FF449AF32
:1022100000953B883188494806AA09F025FF044605
:1022200000287FF43EAF06AD3B88A342A6DD14B183
:102230002C202AF0F9FF15F8011B41482AF0AEFFC7
:102240000134F1E7642302933B88019306AD0095C6
:10225000B8F80030BDF8122031883A480BF044FA43
:10226000044600287FF41DAF3B88A34286DD14B1ED
:102270002C202AF0D9FF15F8011B31482AF08EFFD7
:102280000134F1E76422CDE9013206AB0093B8F8DE
:102290000030BDF8122031882A480BF08BF987E70F
:1022A000642300933B883188264806AA0BF00AF87D
:1022B000044600287FF4F5AE06AD3B88A3427FF7C5
:1022C0005DAF14B12C202AF0AFFF15F8011B1C489C
:1022D0002AF064FF0134F0E7642200923188194843
:1022E00006AA0AF015FF63E76425009531881548B2
:1022F00006AA0AF00DFF044600287FF4D2AE00952E
:102300003B8831880F4806AA0AF0DCFF0446002803
:102310007FF4C7AE06AD3B88A3427FF72FAF14B161
:102320002C202AF081FF15F8011B05482AF036FF02
:102330000134F0E70446B4E60124B2E65834002044
:102340009F2B04089C37002037B59FED251B0846BE
:102350009FED250B6A46002116F04EFB054600282E
:1023600037D1234BD3F8942012F4400F1FD10CF037
:1023700071F90446DDE90001FEF73EFB0146204607
:1023800000F0FCF9044601461A482AF007FFFCB1A8
:1023900019490B681A6822F001021A604C6024F097
:1023A00070641C611A6842F001021A6011E0D3F8EF
:1023B000942002F44002B2F5800F02D10CF0CAFC66
:1023C000D7E7D3F8943003F44003B3F5000F03D0FC
:1023D0000125284603B030BD084CCBE7AFF30080A1
:1023E0000000000065CDCD410000000000000000AD
:1023F00000380240A42B0408583400200024F400C4
:1024000008B532B1012A09D006482AF06BFF012035
:1024100003E0054807F04AFC002008BD034807F028
:10242000AFFDF9E7F01D0408583400209C37002068
:1024300007B5084672B1114B11491B69114813F4D5
:10244000804F114B18BF19462AF0A8FE002003B098
:102450005DF804FB0DF1070116F070FA0028F6D1C3
:102460009DF807300548002B0CBF4FF440434FF454
:10247000804303610AF040FDE9E700BF9C3700207C
:10248000C32B0408C4940408BE2B040807B50846EF
:102490007AB1104B10491B6810481B6813F4805F19
:1024A0000F4B18BF19462AF079FE002003B05DF8E3
:1024B00004FB0DF1070116F041FA0028F6D19DF852
:1024C000073023B1014603480AF034F8EEE74FF431
:1024D0008051F8E758340020402B0408C4940408C5
:1024E000FB65040807B5084611465AB10D4B0E4866
:1024F0001B681968C1F303212AF050FE002003B0C5
:102500005DF804FB0DF107030F2216F069FC0028AB
:10251000F5D19DF80710034801F00F010AF044F8C7
:10252000EDE700BF583400202C58040807B50846D2
:102530007AB1134BDA6AD20709D5DB6A9B0706D555
:1025400010482AF02BFE002003B05DF804FB0E4873
:10255000F7E70DF1070116F0F1F90028F4D19DF825
:10256000073001202BB10AF057F802200AF054F886
:10257000E9E70AF071F802200AF06EF8E3E700BF1D
:1025800000380140402B0408FB65040800000000EF
:1025900038B51046002A5BD1454BD3F8942012F48D
:1025A000400F3DD10CF056F8424C07EE900AF8EE81
:1025B000677A17EE900AFDF7EFFE3BA3D3E90023FD
:1025C000FEF76CF80B4621463B4C02463B482AF08E
:1025D000E5FD23683A4819692AF0E0FD394BDA6ACB
:1025E000D20733D5DB6A384913F0020F374B08BFE7
:1025F000194637482AF0D2FD236836481968C1F3D6
:1026000003212AF0CBFD236833481B682E4913F4BD
:10261000805F2E4B18BF19462AF0C0FD002038BD40
:10262000D3F8942002F44002B2F5800F03D10CF0ED
:1026300091FB2A4CB9E7D3F8943003F44003B3F587
:10264000000F12BF264C2748274CAEE71F49D0E7A2
:10265000012AE3D1254C264861681B4D2AF09EFDD6
:102660002269244B24492548002A08BF19462AF02C
:1026700095FD636915492248002B18BF29462AF0A9
:102680008DFDE36911491F48002B18BF29462AF028
:1026900085FD216A0D4B1C48002918BF2B461946A1
:1026A000BAE700BFAFF300800000000080842E4135
:1026B00000380240D82B040858340020ED2B0408C1
:1026C000A42B040800380140402B0408FB650408D3
:1026D0000C2C0408212C0408362C0408C92B0408EF
:1026E000D02B04080024F400DE2B04089C370020C3
:1026F0004B2C0408E72B0408E22B0408602C040888
:10270000772C04088E2C0408A52C040808B5094869
:102710002AF0E8FD08490B681A6822F001021A60E5
:10272000064A1A614A601A6842F001021A600020E3
:1027300008BD00BFBC2C040858340020362C900083
:1027400008B532B1012A0BD009482AF0CBFD01208F
:1027500005E0FFF7DBFF074807F062FA002008BD3D
:10276000054807F0BBFB04480AF0C6FBF6E700BFCC
:10277000F01D0408583400209C3700202DE9F04F4C
:102780008BB018B900200BB0BDE8F08F834B994295
:10279000F8D9834B99425ED9824B9942F2D9824B48
:1027A00099425AD9814BA1F54321A1F5A0619942E3
:1027B000E8D80221DFF804C20CEB5003B3FBF0F0C1
:1027C0007B4B2C2202FB013305465A6A03921A6A9C
:1027D0000192019C5A691B69A2180492039A1B1B5F
:1027E000A2F13206A3F5827300EB4002B61AA3EB06
:1027F0008003704A23EAE373029313680093002472
:1028000026EAE6761A46A2464FF0100BA9464FF08C
:10281000000E049BCDF814E099450EF1010E27D36C
:102820000027B846BE421DD8029BBB421AD35C4566
:1028300018D0142303FB02FB5F4B013203EB0B0A9E
:1028400043F80B40059B7F2ACAE9013807D9594B49
:1028500000921A6017E00021ACE70121AAE7A34625
:102860004FF0010A08F10108B8F1100F2F44D9D137
:10287000BEF1100FA944CCD10134102C0544C5D1B0
:10288000BAF1000FE3D12C225143494B039C019D27
:1028900003EB010E5B5848490CEB53022C44B2FB8E
:1028A000F3FBDEF80430BCFBF3F30293DEF80830F0
:1028B000BCFBF3F30493430003F13202E3180592E7
:1028C000D94600264FF0FF320993009B9E4219D152
:1028D0007F2A3FF657AF384B14214A4399189B582B
:1028E000087C40EA03704B681B0503F4700318432F
:1028F0008B681B0403F470231843CB681B029BB244
:10290000184340E7DEF818400B680394059C03FB6E
:1029100000031C190194099CE5183235019C0895A7
:102920004FF0000C039DCDF81CC0AC420CF1010C23
:102930002CD9A4F13205B0EB950F27D2089DDDF814
:1029400004A025444FF00008049FCDF81880AF4242
:1029500008F1010815D8029FAF4212D3DEF81C70AF
:1029600057450ED850450CD2A5EB0B07002FB8BF2A
:102970007F42B94505D9079A0A61069ACA60B946E5
:102980003246B8F5807F1D449A44DDD1BCF5807F86
:102990001C44C7D10136143197E700BF7F380100CE
:1029A000C0D40100FFE1040000530700801A0600B4
:1029B000E49B0408300400203404002000CA9A3B41
:1029C00013B5084612F0200114463BD09FED3A1B88
:1029D0009FED3B0B6A46002116F00EF8C8B9DDE901
:1029E00000013B4B0022FDF72FFD04F01F04013CCA
:1029F000CDE90001052C20D8DFE804F003030D1316
:102A00001919FEF719F800EE100A052000F0F0FE83
:102A1000002002B010BDFEF70FF800EE100A0C20E7
:102A2000F4E7FEF709F800EE100A0220EEE7FEF7E1
:102A300003F800EE100A0320E8E726482AF052FCCB
:102A40000120E6E71306F8D59FED1F1B9FED1C0B39
:102A50006A4615F0D1FF0028DBD104F01F04013CC9
:102A6000052CEAD8DFE804F003030D151D1DDDE990
:102A70000001FDF7E1FF00EE100A052000F00CFF59
:102A8000C6E7DDE90001FDF7D7FF00EE100A0C20D4
:102A9000F4E7DDE90001FDF7CFFF00EE100A0220A8
:102AA000ECE7DDE90001FDF7C7FF00EE100A0320A7
:102AB000E4E700BFAFF300800000000000005940D1
:102AC00000000000000000000000000000408F40F7
:102AD00000002440F01D040808B515482AF002FC47
:102AE000144B154819682AF059FB144B14481968FF
:102AF0002AF054FB134B186807EE900AF8EE677A39
:102B000017EE900AFDF748FC0F4B0022FDF7C6FDBB
:102B100002460B460D482AF041FB0D4B0D48196843
:102B20002AF03CFB0C482AF0DDFB002008BD00BF6A
:102B3000BD330408480E0020D3330408440E00209F
:102B4000E4330408400E002000002440F53304085C
:102B50003C0E00200834040877140408DFB5510641
:102B60002FD502F01F02013A052A25D8DFE802F02E
:102B70000315171A221F0022052102A800F082FF68
:102B8000044638B90298FDF707FC02460B461E487A
:102B90002AF004FB204604B0D0BD0422ECE700225A
:102BA0000C21EAE7082202210DEB0200E6E70022F1
:102BB0000321E2E70422FBE714482AF093FB0124F7
:102BC000E8E71306F8D502F01F02012A1AD0053AE9
:102BD000012AF1D8032203A902A800F0F7FE044657
:102BE0000028D7D10398FDF7D7FB064602980F4679
:102BF000FDF7D2FB3246CDE900013B4604482AF0FE
:102C0000CDFAC7E70522E6E71F340408F01D0408E3
:102C10001934040802F4387002F01F02013A08B5B2
:102C2000052A1CD8DFE802F003070B0F1317BDE8D5
:102C3000084000F073BFBDE8084001F04DB8BDE8A2
:102C4000084001F027B9BDE8084001F0AFB9BDE880
:102C5000084001F039BABDE8084001F029BB02483C
:102C60002AF040FB012008BDF01D040808B500F063
:102C70005FFBFEF7DDF800F0C3FA002008BD00009E
:102C800007B59FED0B0B08469FED0B1B6A46002115
:102C90008DED000B15F0B0FE28B9DDE90001FDF760
:102CA000ABFEFEF7D1F803B05DF804FBAFF3008094
:102CB0000000000000000000000000002A758541AF
:102CC00008B500F09DFA00F033FBFEF733F8002062
:102CD00008BD08B500F094FAFEF7AAF8BDE8084070
:102CE00000F0AABA2DE9F041ADF5976D0DF102069D
:102CF0000123084633804FF496723346002116F0C4
:102D000064F80446E0B901464FF4966202A80DF15A
:102D100004082AF0E4FD3088424602A900F07CF95C
:102D2000044668B902AD07463388BB420DDCD8F8CB
:102D30000000FDF731FB02460B4609482AF02EFA47
:102D400020460DF5976DBDE8F08155F8040BFDF7B1
:102D500023FB02460B4603482AF020FA0137E3E73B
:102D60002F3404082934040808B5FEF761F800F090
:102D7000DFFA00F0CFF9002008BD0000037F012B2F
:102D800002D1044A13607047022B02BF024B01229A
:102D90001A607047340E0020380E002010B5002451
:102DA00088B0CDE90544144B01941A6C134842F0E5
:102DB00008021A641A6C02F008020192019A029445
:102DC0001A6B42F001021A631B6B03F001030293BA
:102DD000029B0122022303A9CDE90323079309F0F3
:102DE0005DFC22460521322008F0BEF8322008F0B2
:102DF000FDF808B010BD00BF0038024000000240DE
:102E000030B5002589B0CDE90555314B01951A6CD7
:102E1000304C42F008021A641A6C02F00802019267
:102E2000019A02951A6B42F001021A631B6B03F0C0
:102E300001030293029B01200223CDE9030303A9AE
:102E40002548079309F02AFCDFF89CC04FF0406347
:102E5000C4E900C34FF4806E4FF48053C4E904E327
:102E600020464FF48043C4E90255C4E90635C4E95D
:102E7000085508F0FDF808B107F0ACF8174D184AEE
:102E80006C62A563174C4FF04063C4E900234FF414
:102E900080614FF480520023C4E9041220464FF4AD
:102EA0008042C4E90233C4E90623C4E9083308F0C8
:102EB000DFF808B107F08EF8002205213220AC625D
:102EC000A56308F051F8322008F090F809B030BD41
:102ED000003802400C180020000002406C1800204E
:102EE00070600240AC17002040600240074A08486A
:102EF00008B5136C23F008031364012109F014FDD5
:102F0000BDE80840322008F085B800BF0038024014
:102F10000000024038B504460BF09CFB237F022BD7
:102F20001FD1002120460DF03FFD104D04212860E7
:102F300020460DF039FD0E4A0E49106013680E4C04
:102F400083B113682A684FF47A704343B3FBF2F3FA
:102F5000C31A0B600BF07EFB2B684000B0FBF3F054
:102F6000206038BD0B602360FBE700BF480E0020E7
:102F7000440E0020400E00203C0E00202DE9F84FAA
:102F800011F0D6FFDFF888B01D4F1E4D8246002697
:102F900011F0CEFFA0EB0A00FDF7DCF932468046C7
:102FA00089463B46DBE90001FDF74EFA02460B4637
:102FB00040464946FDF7BAFC044660B9014612484E
:102FC0000FF04EFD104804210FF04AFD0F4B2C600E
:102FD0001C60032012E02B68012BD9D10B4B1A681F
:102FE000012AD5D10024214607481C602C600FF02F
:102FF00037FD054804210FF033FD2046BDE8F88F6A
:1030000000408F40380E00206C180020340E002045
:1030100018000020000000002DE9F04F384B87B069
:103020000C460021039206465962364A36484FF450
:1030300096730FF0CFFB354A33484FF49673042153
:103040000FF0C8FBFFF79AFF0546002852D1DFF8C2
:10305000BCA02C4F04EB860B80465C450CD1B8FB22
:10306000F6F807EE908A039BF8EE677AC3ED007AD4
:10307000284607B0BDE8F08FD7F8049057F8043B16
:103080005AF8042F0593994536BF09F1FF30A9EB93
:103090000300C01A0492FDF75DF9049A059B91455F
:1030A000CDE9000134BFA2EB0900D01AFDF752F9B7
:1030B000DDE90023FDF7F2FA154B0022FDF7C4F914
:1030C000FDF7BAFC44F8040B4046FDF743F9DDE98F
:1030D00000238046894608A1D1E90001FDF7DEFA08
:1030E00002460B4640464946FCF7F8FFFDF784FCD4
:1030F0008046B2E70325BBE7000000002A75954132
:10310000000C0040FC1200206C1800204C0E002027
:103110000000594010B58CB00024344B01941A6B58
:1031200042F400121A631B6B03F4001322460521BC
:1031300001930D20019B07F017FF0D2007F056FFAC
:10314000224605210F2007F00FFF0F2007F04EFF4A
:10315000102221460DEB02002AF0C1FB102221466D
:1031600008A8CDE902442AF0BAFB214A21482146A9
:103170000DF0C8FC1F4A204B9460C2E90034104691
:103180004FF0FF33C2E9033494610FF069FD28BBAF
:103190004FF480531748049304A90EF06DF9E8B971
:1031A00014480FF073FFC8B9CDE9020002A9114815
:1031B00010F01EF8024688B90123CDE909300890C5
:1031C0000B9008A90B480DF0FDFF38B90223094800
:1031D000042208A9CDE908330DF0F4FF074A054899
:1031E00012210DF08FFC0CB010BD00BF0038024062
:1031F000012E01086C180020000C00407D2D0108F4
:103200000A4A0B48136C10B523F00803094C1364E9
:10321000012109F089FB606A08F054F8A06A08F0FF
:1032200051F8322007F0F6FE002010BD00380240B1
:10323000000002406C18002030B591B0102200212F
:1032400003A82AF04CFB142200210BA800242AF02A
:1032500046FB1022002107A82AF041FB2F4A3048E4
:103260002146CDE901440DF04DFC2E4A2C480121A8
:103270000DF048FC2A4A2C4B9460C2E900341046F9
:103280004FF0FF33C2E9033494610FF0E9FC0028EA
:1032900032D14FF480532248039303A90EF0ECF887
:1032A00050BB1F480FF0F2FE30BB0224CDE90D40A9
:1032B00050230F9004251A480BA9CDE90B530EF0AB
:1032C000B1FC0246C0B90123CDE908300A9007A934
:1032D000134807940DF076FF70B9CDE907042A462C
:1032E0000F4807A90DF06EFF30B9CDE901000DEBD5
:1032F00005010B480FF07CFF094804210FF0FEF890
:1033000048B9014606480FF0F9F820B9074A0448C1
:1033100012210DF0F7FB11B030BD00BF9D2D01084B
:103320006C180020ED2E0108000C0040152F01083C
:1033300010B5094C23686BB1042120460FF0B4F995
:10334000002120460FF0B0F9322007F063FE20463E
:103350000DF0D0F8002010BD6C18002001480DF0D1
:1033600083BA00BF6C180020014808F073B800BF92
:103370000C180020014808F06DB800BFAC17002001
:1033800010B514228AB0044600210DEB02002AF089
:10339000A6FA2368224A934220D1224B22480021D8
:1033A00001911A6C42F008021A641A6C02F00802C9
:1033B0000192019A02911A6B42F001021A631B6B8F
:1033C00003F0010302930121029B0223CDE90513BF
:1033D000099305A909F062F90AB010BD134A934296
:1033E000FAD1104B1248002103911A6C42F00202EC
:1033F0001A641A6C02F002020392039A04911A6B87
:1034000042F004021A631B6B03F004030493049B51
:1034100040220223CDE90523099305A9DAE700BF7D
:10342000000C004000380240000002400004004050
:103430000008024010B504468EB01422002109A8ED
:103440002AF04DFA2368B3F1804F20D103F50E33F3
:10345000002101911A6C42F001021A641A6C02F008
:1034600001020192019A02911A6B42F002021A6360
:103470001B6B03F002030293029B4FF48061022353
:10348000CDE9091301233C480D9309A922E03B4AE9
:10349000934227D13A4B002103911A6C42F0020269
:1034A0001A641A6C02F002020392039A04911A6BD6
:1034B00042F004021A631B6B03F004030493049BA1
:1034C000304B1B7853B9402309932F4802230A93AA
:1034D0000D9309A909F0E2F80EB010BD042BFBD141
:1034E0008023F1E7294A934225D1254B00210591FC
:1034F0001A6C42F008021A641A6C02F00802059273
:10350000059A06911A6B42F001021A631B6B03F0D5
:1035100001030693069B1B4B1B783BB901230993C0
:1035200002231B480A930D9309A9D3E7042BD3D197
:1035300002230993F5E7174A9342CDD1104B00219E
:1035400007911A6C42F040021A641A6C02F04002B1
:103550000792079A08911A6B42F002021A631B6BDA
:1035600003F002030893089B4FF480420223CDE945
:103570000923092387E700BF00040240000400403C
:10358000003802402019002000080240000C0040D2
:103590000000024000180040FFF74CBF08B5036868
:1035A000B3F1804F0CD1082126480EF02DFF264A9A
:1035B000136C23F0010313644FF48061234815E07A
:1035C000234A934216D1002122480EF01DFF042108
:1035D00020480EF019FF1C4A1F48136C23F0020309
:1035E0004021136409F0A0F91B488021BDE8084080
:1035F00009F09AB9194A934213D1002118480EF0E4
:1036000003FF042116480EF0FFFE0F4A1548136C05
:1036100023F008030121136409F086F911480221FF
:10362000E4E7114A93420BD1002110480EF0ECFE62
:10363000054A136C23F0400313644FF48041BDE747
:1036400008BD00BF401B00200038024000040240BB
:10365000000400408C1A002000080240000C0040CA
:10366000D819002000000240001800402419002052
:1036700008B50368B3F1804F0FD12D480CF0AEFFB1
:1036800008212B480EF076FD2A4A136C23F0010323
:1036900013644FF48061284818E0284A934219D1F6
:1036A00027480DF011F8002125480EF063FD042194
:1036B00023480EF05FFD1F4A2248136C23F00203DB
:1036C0004021136409F030F91E488021BDE808400C
:1036D00009F02AB91C4A934216D11C480CF0F4FF99
:1036E00000211A480EF046FD042118480EF042FD54
:1036F000104A1748136C23F008030121136409F0E2
:1037000013F913480221E1E7124A93420ED11248FD
:103710000CF0DAFF002110480EF02CFD054A136C66
:1037200023F0400313644FF48041B4E708BD00BFA9
:10373000401B00200038024000040240000400400A
:103740008C1A002000080240000C0040D81900200C
:103750000000024000180040241900200B4A0C48C9
:1037600008B5136C23F0020313640CF0ADFF0021C5
:1037700007480EF049FE042105480EF045FEBDE85D
:1037800008400448402109F0CFB800BF003802408B
:103790008C1A00200008024008B5114A03689342C1
:1037A00016D102F50B320F48136C23F00803136493
:1037B0000CF08AFF00210B480EF026FE0421094878
:1037C0000EF022FEBDE808400748012109F0ACB820
:1037D000064A934203D1BDE80840FFF7BFBF08BDCA
:1037E000000C0040D81900200000024000040040F6
:1037F00001380B2841D8DFE800F0061729403C408B
:1038000040404040403E1E4BD3ED037ADFED1D6A41
:103810001A68F8EE677A67EE807A87EEA67ABCEED1
:10382000C77A82ED0D7A0FE0174BDFED166AD3ED04
:10383000037A1A68F8EE677A67EE807A87EEA67ADE
:10384000BCEEC77A82ED0F7A002070470F4BD3EDA4
:10385000037ADFED0C6A1A68F8EE677A67EE807A11
:1038600087EEA67AFCEEC77AC2ED0D7AC2ED0E7A2B
:10387000EAE7074BEBE7074BC6E74FF48B7070475F
:10388000F41B002000007A44401B00208C1A00200A
:10389000D819002024190020013808B50B287FD83A
:1038A000DFE800F00622397E507E7E7E7E7E7E67D7
:1038B000DFED3F7A60EE277A17EE900AFCF76CFD99
:1038C00002460B4638A1D1E90001FCF7E7FE394B6F
:1038D0000022FCF701FCFDF78FF8374BD860184643
:1038E0000FF0BEF9002008BDDFED317A60EE277AD7
:1038F00017EE900AFCF750FD02460B462AA1D1E9CB
:103900000001FCF7CBFE2B4B0022FCF7E5FBFDF79B
:1039100073F82A4BE2E7DFED267A60EE277A17EE9E
:10392000900AFCF739FD02460B461FA1D1E90001C0
:10393000FCF7B4FE1F4B0022FCF7CEFBFDF75CF852
:103940001F4BCBE7DFED1A7A60EE277A17EE900A6D
:10395000FCF722FD02460B4613A1D1E90001FCF75A
:103960009DFE144B0022FCF7B7FBFDF745F8154B05
:10397000B4E7DFED0F7A60EE277A17EE900AFCF7D6
:103980000BFD02460B4608A1D1E90001FCF786FEBB
:10399000084B0022FCF7A0FBFDF72EF80A4B9DE731
:1039A0004FF48B709FE700BF000000002A7585412F
:1039B00000007A440000F03FF41B0020401B002070
:1039C0008C1A0020D819002024190020032A2DE980
:1039D000F04706460D4629D0052A48D1254F11F05B
:1039E000A7FA00F59678002138460CF0DDFF042197
:1039F000824638460CF0D8FF0021814638460CF04C
:103A0000D3FF8245044688BF00F58034CA4528BFED
:103A100009F5803911F08CFA4045A4EB0A0407D966
:103A20000023336003202B60BDE8F087124FD6E7F8
:103A3000002CD8D0114BB3FBF4F307EE903AF8EE1C
:103A4000E77AA9EB0A09C6ED007A07EE909AB8EE7C
:103A5000677A07EE904AF8EE677A0020C7EE276A89
:103A6000DFED077A66EEA77AC5ED007ADCE74FF462
:103A70008B70D9E7D81900208C1A002040A5AE021F
:103A80000000C84202392DE9F041064617460A29CE
:103A900036D8DFE801F0062635223535353535359F
:103AA0002400194D11F044FA00F59678394628465D
:103AB0000CF07AFF3946044628460CF075FF844224
:103AC00088BF00F58030041B11F032FA40450AD956
:103AD000002333600320BDE8F0810C4DE2E70C4D7C
:103AE000E0E70C4DDEE7002CE0D00B4BB3FBF4F32A
:103AF00007EE903AF8EEE77A0020C6ED007AEAE7A2
:103B00004FF48B70E7E700BF401B0020D81900205E
:103B1000241900208C1A002040A5AE0230B593B0C5
:103B200004461C2200210BA829F0D9FE10220021F6
:103B300003A829F0D4FE1022002107A829F0CFFE07
:103B40005F4A604B136000214FF6FF73C2E90331F7
:103B50005D4B91610125202CCDE90111C2E9015194
:103B6000197028D1594A564806210CF0CBFF544809
:103B70000FF0DAF90446D8B94FF480535048079350
:103B800007A90DF079FC044690B96023CDE90B300C
:103B90000D900F9002460BA949480DF0B7F9044665
:103BA00030B947480CF01AFD454821460EF030FA6E
:103BB000204613B030BD402C2ED1454A404802214A
:103BC0000CF0A0FF3E480FF061FA04460028EFD148
:103BD0004FF480533A48079307A90DF04DFC044673
:103BE0000028E5D1CDE9010001A935480FF000FB1F
:103BF00004460028DCD1CDE90305CDE905000246E5
:103C000003A92F480DF0DEFA04460028D0D1014662
:103C10002B480EF037FBCBE7802C42D12D4A2848A9
:103C20000CF070FF26480FF01BF804460028BFD1A7
:103C30004FF480532248079307A90DF01DFC04465A
:103C40000028B5D11E480FF021FA04460028AFD154
:103C5000CDE9010001A91A480FF0CAFA044600286C
:103C6000A6D1CDE90305CDE90500024603A9144814
:103C70000DF0A8FA044600289AD102231048042225
:103C800003A9CDE903330DF09DFA044600288FD136
:103C90000B480CF0A3FC214609480EF0F3FA04216E
:103CA000B6E7B4F5007F01D0002481E70448FFF7B0
:103CB00073FD0348FFF772FC0148FFF7D9FCF3E7F7
:103CC000D8190020000C00402019002035340108CC
:103CD000993501088133010870B592B004461C2261
:103CE00000210BA829F0FBFD1022002103A829F0D8
:103CF000F6FD1022002107A829F0F1FD5F4A604B74
:103D0000136000214FF6FF73C2E903315D4B9161EF
:103D100001260425202CCDE90111C2E901611D70A5
:103D200028D1594A554806210CF0ECFE53480FF0B3
:103D3000FBF80446D8B94FF480535048079307A9BD
:103D40000DF09AFB044690B96023CDE90B300D903D
:103D50000F902A4649480BA90DF0D8F8044630B90F
:103D600046480CF03BFC454829460EF051F92046E8
:103D700012B070BD402C2ED1444A404802210CF0B4
:103D8000C1FE3E480FF082F904460028EFD14FF4FF
:103D900080533A48079307A90DF06EFB04460028AC
:103DA000E5D1CDE9010001A934480FF021FA04461C
:103DB0000028DCD1CDE90306CDE905002A462F48CD
:103DC00003A90DF0FFF904460028D0D129462B485D
:103DD0000EF058FACBE7802C41D12D4A27480CF041
:103DE00091FE26480EF03CFF04460028BFD14FF458
:103DF00080532248079307A90DF03EFB0446002894
:103E0000B5D11E480FF042F904460028AFD1CDE9E4
:103E1000010001A919480FF0EBF904460028A6D1CA
:103E2000CDE90306CDE905002A46144803A90DF0A3
:103E3000C9F9044600289AD10223024603A90F4873
:103E4000CDE903330DF0BEF9044600288FD10B48AD
:103E50000CF0C4FB214609480EF014FAB6E7B4F59D
:103E6000007F01D0002482E70448FFF795FC034857
:103E7000FFF794FB0148FFF7FBFBF3E7D81900209D
:103E8000000C004020190020353401089935010844
:103E90008133010830B593B004461C2200210BA8E1
:103EA00029F01DFD1022002103A829F018FD102281
:103EB000002107A829F013FD39493A4A0A60002376
:103EC00001254FF6FF72402CCDE90133C1E90153C2
:103ED000C1E903238B612CD1334A314802210CF014
:103EE00011FE2F480FF0D2F80446F8B94FF4805372
:103EF0002B48079307A90DF0BFFA0446B0B9CDE9E6
:103F0000010001A926480FF073F9044670B9CDE904
:103F10000305CDE90500024603A921480DF052F939
:103F2000044618B901461E480EF0ACF9204613B0FD
:103F300030BD202C27D11A480EF0F6FF0446002889
:103F4000F4D11748FFF776FA4FF4805314480793DB
:103F500007A90DF091FA04460028E7D16023CDE9C6
:103F60000B300D900F9002460BA90D480CF0CEFFC0
:103F700004460028DAD10A480CF030FB21460848F4
:103F80000EF046F8D2E7B4F5007F01D00024CDE76B
:103F90000348FFF703FB0248FFF76AFBF6E700BFA1
:103FA00024190020001800409935010830B593B05D
:103FB00004461C2200210BA829F091FC10220021AC
:103FC00003A829F08CFC1022002107A829F087FC07
:103FD0003A494FF0804200230A6001254FF6FF72F4
:103FE000402CCDE90133C1E90153C1E903238B61C1
:103FF0002CD1334A314802210CF084FD2F480FF0B8
:1040000045F80446F8B94FF480532C48079307A9A4
:104010000DF032FA0446B0B9CDE9010001A92748F4
:104020000FF0E6F8044670B9CDE90305CDE90500C7
:104030000822224803A90DF0C5F8044618B91F4804
:1040400008210EF01FF9204613B030BD202C29D1D5
:104050001C4A1A4806210CF055FD18480EF064FF62
:1040600004460028EFD14FF480531448079307A962
:104070000DF002FA04460028E5D16023CDE90B30AB
:104080000D900F9008220D480BA90CF03FFF04463D
:104090000028D8D109480CF0A1FA082107480DF0F2
:1040A000B7FFD0E7B4F5007F01D00024CBE7034889
:1040B000FFF774FA0148FFF7DBFAF6E7401B002030
:1040C000993501083534010870B592B004461C22B8
:1040D00000210BA829F003FC1022002103A829F0DD
:1040E000FEFB1022002107A829F0F9FB674A684B64
:1040F000136000214FF6FF73C2E90331654B9161F4
:1041000001260425202CCDE90111C2E901611D70B1
:1041100028D1614A5D4806210CF0F4FC5B480EF0A2
:1041200003FF0446D8B94FF480535848079307A9B2
:104130000DF0A2F9044690B96023CDE90B300D9043
:104140000F902A4651480BA90CF0E0FE044630B906
:104150004E480CF043FA4D4829460DF059FF2046D1
:1041600012B070BD402C2ED14C4A484802210CF0B0
:10417000C9FC46480EF08AFF04460028EFD14FF4F0
:1041800080534248079307A90DF076F904460028AA
:10419000E5D1CDE9010001A93C480FF029F804461A
:1041A0000028DCD1CDE90306CDE905002A463748D1
:1041B00003A90DF007F804460028D0D1294633485A
:1041C0000EF060F8CBE7802C41D1354A2F480CF037
:1041D00099FC2E480EF044FD04460028BFD14FF450
:1041E00080532A48079307A90DF046F90446002892
:1041F000B5D126480EF04AFF04460028AFD1CDE9DC
:10420000010001A921480EF0F3FF04460028A6D1C1
:10421000CDE90306CDE905002A461C4803A90CF0A8
:10422000D1FF044600289AD10223024603A9174869
:10423000CDE903330CF0C6FF044600288FD11348A4
:104240000CF0CCF9214611480EF01CF8B6E7B4F595
:10425000007F01D0002482E7124A0C4807210CF0AD
:1042600051FC0A48FFF79AF90F4A084803210CF05D
:1042700049FC0648FFF7FCF90C4A044831460CF0AB
:1042800041FC0248FFF788FAE4E700BF8C1A0020DF
:104290000004004020190020353401089935010838
:1042A000813301089D3501087136010899370108ED
:1042B00030B593B004461C2200210BA829F00FFB57
:1042C0001022002103A829F00AFB1022002107A8D0
:1042D00029F005FB5F4A604B136000214FF6FF7326
:1042E000C2E903315D4B91610125202CCDE901111B
:1042F000C2E90151197028D1594A564806210CF0DB
:1043000001FC54480EF010FE0446D8B94FF4805317
:104310005048079307A90DF0AFF8044690B9602301
:10432000CDE90B300D900F9002460BA949480CF0D7
:10433000EDFD044630B947480CF050F94548214698
:104340000DF066FE204613B030BD402C2ED1454AFC
:10435000404802210CF0D6FB3E480EF097FE044682
:104360000028EFD14FF480533A48079307A90DF086
:1043700083F804460028E5D1CDE9010001A93548BC
:104380000EF036FF04460028DCD1CDE90305CDE967
:104390000500024603A92F480CF014FF044600282C
:1043A000D0D101462B480DF06DFFCBE7802C42D1D8
:1043B0002D4A28480CF0A6FB26480EF051FC044676
:1043C0000028BFD14FF480532248079307A90DF06E
:1043D00053F804460028B5D11E480EF057FE044697
:1043E0000028AFD1CDE9010001A91A480EF000FF65
:1043F00004460028A6D1CDE90305CDE90500024613
:1044000003A914480CF0DEFE044600289AD10223CA
:104410001048042203A9CDE903330CF0D3FE04466F
:1044200000288FD10B480CF0D9F8214609480DF02F
:1044300029FF0421B6E7B4F5007F01D0002481E70D
:10444000FFF78CF90348FFF7A9F80248FFF710F9C6
:10445000F4E700BF8C1A002000040040201900205F
:1044600035340108993501088133010808B5084839
:104470000022102108F01AFB05480122802108F0D3
:1044800015FB03480122102108F010FB002008BD95
:104490000010024008B508480022102108F006FB71
:1044A00005480022802108F001FB03480122102169
:1044B00008F0FCFA002008BD0010024008B50348CF
:1044C0000022102108F0F2FA002008BD001002407E
:1044D00013B5084614460DF107030722002114F016
:1044E0007FFC90B99DF80730072B9FBF0B4A0C4902
:1044F00052F8232031F8133084BF03460246A10747
:1045000005D008490A60084A138002B010BD61074F
:10451000FBD506490A60064AF6E700BF789C040806
:10452000689C0408B81C0020B41C0020B01C0020AB
:10453000AC1C00202DE9F04FADF21C4D14460DF1DE
:104540001609002362068A46A9F8003003D584F0D4
:1045500040049A4E04E02306FBD5994E84F0800473
:10456000A4F11303032B39D8944B9E4284F010041A
:1045700041D0944B1F68944BB3F80080002F3DD17D
:10458000032C01D0062C08D14B46FF2201215046B6
:1045900014F01BFC834600284AD1231F022B61D84C
:1045A00006AB03930025F16800294CD106AB2B44E0
:1045B000FF22504614F014FC834600284BD1039B85
:1045C00001350233B5F5807F0393ECD1ADB2033CE6
:1045D000032C7AD8DFE804F04A8189B7A4F12303D9
:1045E000032B15D8754B9E4284F020040CD0774BDA
:1045F0001F68774BC0E7774F4FF010080022414605
:10460000384608F053FABBE7734F4FF00108F5E75F
:10461000631E012B11D805AB4FF6FF7200215046E7
:1046200014F0D3FB834618B9012C09D04FF0010BCD
:1046300058460DF21C4DBDE8F08F0027B8469FE7A5
:1046400007468046A0E7039B4FF6FF7200215046C5
:1046500014F0BBFBB0E740F23D129042E8D1002DD0
:10466000B4D1E5E74FF0010B0025B0E7B9F8002021
:10467000642386A930460BF02BFD834628BBF268E5
:1046800086ACE2B15D451EDDBBF1000F02D02C20EF
:1046900028F0CAFD34F8021B504828F07FFD0BF1CA
:1046A000010BEFE7BBF1000F02D02C2028F0BCFD7E
:1046B00014F8011B4A4828F071FD0BF1010BB9F801
:1046C00000205A45EEDC4FF0000B002FB0D0012245
:1046D0004146384608F0EAF9AAE764232A4606A9C3
:1046E00030460BF033FB8346EFE76423009386AA42
:1046F0002B4606A930460BF0E5FB83460028E4D1A3
:10470000F26886ACE2B15D45DDDDBBF1000F02D0A1
:104710002C2028F089FD34F8021B304828F03EFD9B
:104720000BF1010BEFE7BBF1000F02D02C2028F0BA
:104730007BFD14F8011B2A4828F030FD0BF1010B1A
:104740005D45F0DCBFE764232A4606A930460BF03E
:10475000FDFA83460028B8D1B9F80020642386A961
:1047600030460BF0B5FC83460028AED1F26886AC2B
:10477000F2B1B9F800205A45A5DDBBF1000F02D017
:104780002C2028F051FD34F8021B144828F006FDB7
:104790000BF1010BEDE7BBF1000F02D02C2028F04C
:1047A00043FD14F8011B0E4828F0F8FC0BF1010B37
:1047B000B9F800205A45EEDC85E700BF68380020D4
:1047C00010380020B81C0020B41C0020B01C0020B1
:1047D000AC1C00200000024000040240CF940408FA
:1047E0009F2B040808B50A48102108F04DF968B15C
:1047F0008021074808F048F90649074B002818BFF0
:104800001946064828F0CAFC002008BD0449F8E70C
:10481000001002407A3C0408823C0408C494040856
:10482000FB65040870B50846510686B035D5920779
:104830000DF103011AD014F081F8044698B9CDE9BE
:104840000300059010252D48012301A9CDE901534E
:1048500007F024FF9DF803202848003A18BF0122E2
:10486000294608F023F9204606B070BD14F066F81A
:1048700004460028F7D1CDE9030005900125204822
:1048800001A9CDE9015507F009FF9DF803201C4857
:10489000003A18BF01222946E3E712F08004E2D073
:1048A00093070DF1030119D014F048F804460028CD
:1048B000D9D1144E144D33880193CDE9030001235F
:1048C00005900293286801A907F0E8FE9DF80320EF
:1048D00031882868003A18BF0122C2E714F02EF888
:1048E00004460028BFD1094E094D338801930123A6
:1048F000CDE9030005900293E4E700BF0000024009
:1049000000040240B41C0020B81C0020AC1C002095
:10491000B01C002070B5294C236886B00D465BB9E9
:10492000CDE90333059301265723254801A9CDE995
:10493000013607F0B3FE266001A9284613F0FEFFFA
:104940000446C0BB0DF10501284613F0F7FF0446ED
:1049500088BB0DF10601284613F0F0FF044650BB5A
:104960000DF10701284613F0E9FF044618BB02A920
:10497000284613F0E3FF0446E8B99DF804201048E8
:10498000012108F093F89DF805200D48022108F058
:104990008DF89DF806200A48042108F087F89DF854
:1049A00007200748102108F081F89DF808200448E6
:1049B000402108F07BF8204606B070BDA81C0020FE
:1049C000000C0240F0B5274B274E802A18BF1E4628
:1049D000351D0F460FCD8DB001AC0FC40FCD0FC4E8
:1049E00095E807000DF1020384E807004FF4807298
:1049F0000221384614F0E9F9341D30BBBDF802300D
:104A0000202B24D00CD8082B23D005D8022B0FD074
:104A1000042B20D0162018E0102BFBD1182007E023
:104A2000802B1AD0B3F5807F19D0402BF2D12820EB
:104A3000079001AD0FCD0FC40FCD0FC495E807004F
:104A400084E8070030460BF041F80DB0F0BD184681
:104A5000EEE71020ECE70820EAE73020E8E738200E
:104A6000E6E700BF683800201038002013B50023A7
:104A700008460DF1070114468DF8073013F05EFF6C
:104A800038B9112C26D006DC012C0ED0022C18D0FF
:104A9000162002B010BD122CFAD19DF80730114A31
:104AA000003B18BF01235B0012E09DF807300E4A5F
:104AB000003B18BF01235B00136110460BF006F8A2
:104AC000E7E79DF80730084A003B18BF01235B0069
:104AD0005361F2E79DF80730024A003B18BF0123FB
:104AE0005B00E9E7103800206838002013B5002388
:104AF00008460DF1070114468DF8073013F01EFF2C
:104B000020B9402C04D0802C0ED0162002B010BD4D
:104B10009DF80730084A003B18BF0123DB011362F0
:104B200010460AF0D3FFF1E79DF80730034A003B37
:104B300018BF0123DB01F2E768380020103800209D
:104B400013B5002308460DF1070114468DF8073010
:104B500013F0F4FE20B9402C04D0802C0ED0162087
:104B600002B010BD9DF80730084A003B18BF012372
:104B7000DB02D36010460AF0A9FFF1E79DF8073089
:104B8000034A003B18BF0123DB02F2E7683800202C
:104B90001038002013B5002308460DF10701144614
:104BA0008DF8073013F0CAFE20B9402C04D0802CB9
:104BB0000ED0162002B010BD9DF80730084A003B09
:104BC00018BF01231B01536210460AF07FFFF1E773
:104BD0009DF80730034A003B18BF01231B01F2E791
:104BE00068380020103800202DE9F04186B00846D2
:104BF000144600210DF1030303228DF8031014F075
:104C0000EFF848B1B0F58B7F03D040F23D139842E6
:104C100007D102238DF80330402C05D0802C4BD0D7
:104C2000162006B0BDE8F0819DF80340012C19D094
:104C3000022C25D07CB9CDE90344504805940125C8
:104C4000102401A9CDE9014507F028FD4B482A466B
:104C5000214607F02BFF4A4805F06CFB48480AF054
:104C600035FFDEE700234748059301A9CDE903336B
:104C7000CDE9014407F012FD224642481146E8E71B
:104C8000002401253D480594102601A9CDE90344DF
:104C9000CDE9016507F002FD2A463848314607F0A4
:104CA00005FF3848059401A9CDE90344CDE9015534
:104CB00007F0F4FC2A46E0E79DF80340012C19D0E8
:104CC000022C31D05CBB2F4D0594CDE90344012665
:104CD0004FF4804401A92846CDE9014607F0DEFCE7
:104CE00032462146284607F0E1FE274B1D60274B40
:104CF0001C8014E0234E0023022501A93046CDE993
:104D000003330593CDE9015407F0C8FC2246294638
:104D1000304607F0CBFE1E4B1E601E4B1D801E480A
:104D200005F008FB1C489AE7164D002601274FF4B2
:104D3000804801A92846CDE90366CDE9018705969B
:104D400007F0ACFC3A464146284607F0AFFE0E4B52
:104D500005961D600D4B01A92846A3F80080CDE9FA
:104D60000366CDE9014707F099FC3A4621462846FB
:104D700007F09CFE064B1D60064BB9E700000240A1
:104D80006838002000040240B81C0020B41C002039
:104D9000B01C0020AC1C00201038002000000000D7
:104DA000F7B51546002A66D0012A7CD0624C616AAC
:104DB000624B634A6348002918BF1A46114628F01F
:104DC000EDF9E168604B614A6148002918BF1A4655
:104DD000114628F0E3F9216A5E4B5F4A5F480029DB
:104DE00018BF1A46114628F0D9F921695C4B5D4A73
:104DF0005D48002918BF1A46114628F0CFF96169AD
:104E00005A4B5B4A5B48002918BF1A46114628F0E6
:104E1000C5F9E469202C6DD063D8102C69D05CD81A
:104E2000002C7CD0082C7CD0534828F05BFAFDB9CC
:104E30000121524807F028FE022104464F4807F09E
:104E400023FE042105464D4807F01EFE10210646AC
:104E50004A4807F019FE40210746484807F014FE6B
:104E60003346CDE900702A464548214628F096F998
:104E7000002003B0F0BD10214248434C07F004FE6F
:104E80004249002818BF2146414828F087F90121EE
:104E9000404807F0F9FD3D49002818BF21463E482B
:104EA00028F07CF982E74FF480413A48364C07F00D
:104EB000EBFD3649002818BF2146354828F06EF929
:104EC0000221344807F0E0FD3049002818BF214690
:104ED0003148324C28F062F969E7182CA4D110242B
:104EE00008E0302C1FD0382C1FD0282C9CD1402417
:104EF00000E008242046FBF73DFA02460B460CA1D1
:104F0000D1E90001FBF7CAFB254B0022FBF7C6FBEA
:104F100002460B462348214628F040F987E7022441
:104F2000E8E70424E6E78024E4E74FF48074E1E74F
:104F3000000000002A75954168380020893D04086A
:104F4000113B0408583B04081A3B0408203B0408A2
:104F50006A3B0408253B0408293B04087C3B040801
:104F6000AB660408589904088E3B0408483E0408C0
:104F70002D3B0408A03B0408B23B0408000C02408F
:104F8000F83B04080000024081190408538A040811
:104F9000343B040800040240463B0408103800205B
:104FA00000408F40D03B0408500638B50ED5102184
:104FB0002C4807F069FD2C4B1B68996820B1312003
:104FC00028F06EF8002038BD3020F9E71106F9D539
:104FD000930718D0254B1D68254B1C882146284671
:104FE00007F052FD204B1B689968A8B1214828F0B2
:104FF000AFF8214B9D421ED1B4F5806F0ED11F48F2
:1050000028F0CCF8DEE712F0040403D01C4B1D6836
:105010001C4BE2E72546E1E71B48E8E7B4F5006FE3
:1050200001D11A48ECE7402C01D11948E8E7802C5F
:10503000C8D11848E4E7184B9D4208D1022C01D191
:105040001648DDE7B4F5804FBCD11548D8E7054BCD
:105050009D42B7D1022C01D11248D1E7012CB1D128
:105060001148CDE70000024010030020B81C0020CA
:10507000B41C0020113C040800080240143C040841
:10508000B01C0020AC1C002025350408173C040887
:10509000E93E0408232D040800040240AC30040853
:1050A0001A3C0408ED46040805190408402A08B50E
:1050B00003D0802A08D0162008BD064805F0BCF9A8
:1050C00004480AF013FEF7E7034805F0B5F9024873
:1050D000F7E700BF683800201038002010B50446FC
:1050E00088B01422002103A828F0F9FB2268134B92
:1050F0009A4221D103F5F633002101911A6C104830
:1051000042F400221A641A6C02F400220192019AFD
:1051100002911A6B42F001021A631B6B03F0010348
:105120000293029B02220323CDE90332069303A9D3
:105130000823079307F0B2FA08B010BD004C0040F6
:10514000000002400268064B9A4208D1054A064810
:10515000136C23F400231364032107F0E5BB7047AD
:10516000004C0040003802400000024008B5104AE0
:1051700010480B210EF0AEF90F4A0E480C210EF02C
:10518000A9F90C490D4B0B604FF4E1320023C1E942
:10519000012308460C22C1E90333C1E90523CB6191
:1051A0000EF0ACFA18B1BDE8084004F013BF08BD1A
:1051B000DD500108BC1C002045510108004C004096
:1051C0000148FFF7BFBF00BFBC1C002010B51B4B40
:1051D0001B4C1C48012A18BF1C46616827F0DEFFE3
:1051E000A168194B194A1A48002918BF1A461146D6
:1051F00027F0D4FFE168174B174A1848002918BF59
:105200001A46114627F0CAFF2369A3B11449154A6B
:10521000B3F5806F08BF1146134827F0BFFFE1695F
:105220000A4B124A1248002918BF1A46114627F0A5
:10523000B5FF002010BD0F49EEE700BFDC3A0020AB
:10524000BC1C0020964504088445040886450408D3
:10525000AA450408498A040881190408BD450408C0
:105260008845040891450408D0450408B33D040866
:10527000E34504088C4504082DE9F043C3B00DF163
:1052800006070023062A884616463B8000F2B680B1
:105290005A23D340DB0707D53B46FF220121404676
:1052A00013F093FD044640BB032E0BDC012E0CDCF7
:1052B0000022013E052E00F2A480DFE806F0223C29
:1052C00043637B7F731F012BF2D800250DF1080982
:1052D00009EB0503FF220021404613F081FD04463F
:1052E00028B90135B5F5807FF2D1AAB2E1E740F2E5
:1052F0003D13984201D1002DF7D1204643B0BDE8BF
:10530000F0833A884048642302A90EF079F90446F4
:105310000028F2D102AD3B88A34201DC0024ECE777
:1053200014B12C2027F080FF15F8011B374827F017
:1053300035FF0134EFE73448642302A90EF012F977
:105340000446DAE73048642302A90EF00BF904465C
:105350000028D2D13A882C48642302A90EF050F9D3
:1053600004460028C9D102AD3B88A342D6DD14B162
:105370002C2027F059FF15F8011B244827F00EFFB9
:105380000134F1E73A882248642302A90EF038F983
:1053900004460028B1D102AD3B88A342BEDD14B162
:1053A0002C2027F041FF15F8011B184827F0F6FEC6
:1053B0000134F1E71648642302A9BFE714486423C7
:1053C00002A90EF0CFF80446002896D13A8810487A
:1053D000642302A90EF014F9044600288DD102AD11
:1053E0003B88A3429ADD14B12C2027F01DFF15F84D
:1053F000011B064827F0D2FE0134F1E7032A7FF7AC
:1054000057AF012479E700BFDC3A00209F2B040846
:10541000BC1C002007B50846032A32D8DFE802F09A
:105420000215212F0DF1070113F088FA50B99DF8EC
:105430000730154AB3FA83F35B09DB03D3611046E7
:105440000EF05CF903B05DF804FB0F4BDB690F480D
:10545000B3F5004F14BF1021082127F09FFE002054
:10546000F0E70DF1070113F069FA0028EAD19DF881
:105470000730074AB3FA83F35B09DB03DEE7044B2B
:10548000E4E71620DEE700BFDC3A0020F64504081A
:10549000BC1C002007B50846032A50D8DFE802F0FC
:1054A00002212F4B0DF107030222002113F098FC7B
:1054B00038B99DF807303BB9224A136121480EF0F4
:1054C0001DF903B05DF804FB012B04D11D4B4FF413
:1054D000C0621A61F2E7022BF0D11A4B4FF48062DE
:1054E000F7E7184B1B6943B31749184AB3F5806FA8
:1054F00008BF1146164827F051FE0020E1E70DF1E4
:1055000007030222002113F06BFC0028D9D19DF87B
:1055100007301BB90F4A13610E48D0E7012B04D1A5
:105520000C4B4FF4C0621A61F6E7022BF4D1094B21
:105530004FF48062F7E7074BD4E70749DAE7162014
:10554000BFE700BFDC3A0020884504089145040805
:10555000D7450408BC1C00208C45040807B5023A56
:105560000846032A21D8DFE802F0021722320DF1A3
:1055700007030222012113F033FC50B99DF80730D4
:10558000144A013B18BF01235B03D36010460EF0A1
:10559000B5F803B05DF804FB0E4BDB680E48002B3A
:1055A00014BF0221012127F0F9FD0020F1E70DF1E0
:1055B00007030222012113F013FC0028E9D19DF812
:1055C0000730064A013B18BF01235B03DDE7034BAD
:1055D000E3E700BFDC3A002007460408BC1C0020BB
:1055E00007B50846032A31D8DFE802F00215202E5D
:1055F0000DF1070113F0A2F950B99DF80730144AD4
:10560000003B18BF01231B03936010460EF076F891
:1056100003B05DF804FB0E4B9B680E48002B14BFD3
:105620000921082127F0BAFD0020F1E70DF107015B
:1056300013F084F90028EBD19DF80730064A003BAF
:1056400018BF01231B03DFE7034BE5E71620DFE765
:10565000DC3A002014460408BC1C0020022A37B59E
:105660000846144601D0042A1DD1304D01AB2A460C
:10567000002113F063FB00284ED10199B1F5614F71
:105680000ED023D8B1F5165F0AD016D8B1F5166F33
:1056900006D00FD8B1F5967F02D0B1F5966F42D102
:1056A000234827F07BFD023C032C34D8DFE804F0CC
:1056B000272E3639B1F5965FF1E7B1F5964FEFD069
:1056C000B1F5164FECD0B1F5615FE8E7194B99429F
:1056D000E6D00CD8B1F5E12FE2D005D8B1F5E13F25
:1056E000DED0B1F5613FDAE7B1F5612FD7E7124BB4
:1056F0009942D5D0A942D3D0104B9942CFE7019B14
:105700000F4A536010460DF0F9FF05E00C4B596845
:105710000C4827F043FD002003B030BD019B0A4A2E
:10572000EFE7094BF3E71620F6E700BFA0252600B8
:105730002946040840420F0080841E0060E31600E2
:10574000DC3A00203F460408BC1C0020032A08B5B0
:1057500003D0042A05D0002008BD034805F07AF8DC
:10576000F9E7FFF72DFDF6E7DC3A0020012A08B53E
:1057700003D0022A05D0002008BD034804F0FEFF34
:10578000F9E7FFF7F3FCF6E7DC3A0020034B1A7861
:10579000FF2A04BF00221A70704700BF341D00208A
:1057A00010B5044B044800241C7027F09BFD2046D4
:1057B00010BD00BF341D0020D14B040807B50023E5
:1057C00008460DF107018DF8073013F0B7F89DF882
:1057D00007100348012200F0A5FB03B05DF804FBAD
:1057E000341D002008B500F0C5FC002008BD0000F5
:1057F00008B50348042112F09DFE002008BD00BF3B
:10580000341D002007B54FF0FF330193084601AB6C
:105810004FF48062002113F055FA019A04480123E5
:105820004FF4805100F0E2FA03B05DF804FB00BFD2
:10583000341D00200346B3F5867F084611460BD081
:10584000B3F58B7F024605D0B3F5817F07D10548BC
:1058500027F0A4BC0448FBE7044827F09FBC044899
:1058600027F09CBC384C0408504C04086C4C0408CD
:10587000864C040870B590B008464022694613F083
:105880003FF8054610BB2E216846FFF77FFF28F042
:105890004BF80446A8B305704FF4805025F0F0FA99
:1058A0000423064602466946194812F039FA10B137
:1058B000184A694607E001342146304612F076FC6A
:1058C00038B1144A2146FFF7B5FF0125284610B02C
:1058D00070BD0F48694612F069FC10B1B0F5817FC8
:1058E000E6D10B484FF480533246694612F01AFE57
:1058F0000028DDD1304625F0CBFA074827F0F2FC2E
:10590000E4E70348694612F051FC0028F5D0CFE7E0
