:020000040800F2
:10000000000002206DB4010849B101084DB101089A
:1000100069B101086BB101086DB101080000000071
:10002000000000000000000000000000017F020846
:100030006FB1010800000000917F0208F57F0208FF
:10004000BDB40108BDB40108BDB40108BDB40108C8
:10005000BDB40108BDB40108BDB40108BDB40108B8
:10006000BDB40108BDB40108BDB40108BDB40108A8
:10007000BDB4010869330108BDB401087533010836
:10008000BDB40108BDB40108BDB40108BDB4010888
:10009000BDB40108BDB40108BDB40108BDB4010878
:1000A00075930208BDB40108BDB40108BDB40108D0
:1000B000BDB40108BDB40108BDB40108BDB4010858
:1000C000BDB40108BDB40108BDB40108BDB4010848
:1000D000BDB40108BDB401087DA10208BDB401088A
:1000E000BDB40108BDB40108BDB40108BDB4010828
:1000F000BDB40108BDB40108BDB40108BDB4010818
:10010000BDB40108BDB401085D330108BDB40108E8
:10011000BDB40108BDB4010871B10108BDB4010846
:10012000BDB40108BDB40108BDB40108BDB40108E7
:10013000BDB401080000000000000000BDB40108CB
:10014000BDB40108BDB40108BDB401087DB101080A
:10015000BDB40108BDB40108BDB40108BDB40108B7
:10016000BDB40108BDB40108BDB40108BDB40108A7
:10017000BDB40108BDB40108BDB401080000000011
:1001800000000000BDB401080000000000000000F5
:10019000BDB401080000000000000000BDB401086B
:1001A000000000000000000000000000BDB40108D5
:1001B000BDB40108BDB40108BDB40108BDB4010857
:0401C000BDB40108C1
:020000040801F1
:1000000010F8012B11F8013B012A28BF9A42F7D0C2
:10001000D01A70470000000000000000000000003F
:1000200001F0FF01102A2BDB10F0070F08D010F8A9
:10003000013B013A8B422DD010F0070F42B3F6D1AD
:10004000F0B441EA012141EA014122F007047FF0C6
:1000500000070023F0E80256083C85EA010586EA1D
:10006000010685FA47F5A3FA87F586FA47F6A5FA59
:1000700087F68EB9EED1F0BC01F0FF0102F0070265
:1000800032B110F8013B013A83EA010313B1F8D110
:100090000020704701387047002D06BF35460338F1
:1000A000073815F0010F07D1013015F4807F02BF2A
:1000B000013015F4C03F0130F0BC0138704700BF7B
:1000C000034613F8012B002AFBD1181A0138704798
:1000D00081F0004102E000BF83F0004330B54FEAF9
:1000E00041044FEA430594EA050F08BF90EA020F66
:1000F0001FBF54EA000C55EA020C7FEA645C7FEAF9
:10010000655C00F0E2804FEA5454D4EB5555B8BF1B
:100110006D420CDD2C4480EA020281EA030382EA8C
:10012000000083EA010180EA020281EA0303362D1E
:1001300088BF30BD11F0004F4FEA01314FF4801CF1
:100140004CEA113102D0404261EB410113F0004F03
:100150004FEA03334CEA133302D0524263EB4303BA
:1001600094EA050F00F0A780A4F10104D5F1200E58
:100170000DDB02FA0EFC22FA05F2801841F10001B3
:1001800003FA0EF2801843FA05F359410EE0A5F187
:1001900020050EF1200E012A03FA0EFC28BF4CF0B8
:1001A000020C43FA05F3C01851EBE37101F000456E
:1001B00007D54FF0000EDCF1000C7EEB00006EEB7B
:1001C0000101B1F5801F1BD3B1F5001F0CD3490805
:1001D0005FEA30004FEA3C0C04F101044FEA44525C
:1001E00012F5800F80F09A80BCF1004F08BF5FEAE3
:1001F000500C50F1000041EB045141EA050130BDC3
:100200005FEA4C0C404141EB0101013C28BFB1F5D4
:10021000801FE9D291F0000F04BF01460020B1FA1F
:1002200081F308BF2033A3F10B03B3F120020CDAF2
:100230000C3208DD02F1140CC2F10C0201FA0CF0D0
:1002400021FA02F10CE002F11402D8BFC2F1200C35
:1002500001FA02F120FA0CFCDCBF41EA0C019040EB
:10026000E41AA2BF01EB0451294330BD6FEA040434
:100270001F3C1CDA0C340EDC04F11404C4F120021F
:1002800020FA04F001FA02F340EA030021FA04F331
:1002900045EA030130BDC4F10C04C4F1200220FA88
:1002A00002F001FA04F340EA0300294630BD21FAC6
:1002B00004F0294630BD94F0000F83F4801306BF8C
:1002C00081F480110134013D4EE77FEA645C18BF80
:1002D0007FEA655C29D094EA050F08BF90EA020F17
:1002E00005D054EA000C04BF1946104630BD91EA0F
:1002F000030F1EBF0021002030BD5FEA545C05D112
:100300004000494128BF41F0004130BD14F5800450
:100310003CBF01F5801130BD01F0004545F0FE41C4
:1003200041F470014FF0000030BD7FEA645C1ABFF9
:10033000194610467FEA655C1CBF0B46024650EA30
:10034000013406BF52EA033591EA030F41F400215C
:1003500030BD00BF90F0000F04BF0021704730B5E2
:100360004FF4806404F132044FF000054FF00001B7
:1003700050E700BF90F0000F04BF0021704730B578
:100380004FF4806404F1320410F0004548BF40424D
:100390004FF000013EE700BF42004FEAE2014FEAA2
:1003A00031014FEA02701FBF12F07F4393F07F4F7D
:1003B00081F06051704732F07F4208BF704793F080
:1003C0007F4F04BF41F40021704730B54FF4607493
:1003D00001F0004521F000411CE700BF50EA010296
:1003E00008BF704730B54FF000050AE050EA01023F
:1003F00008BF704730B511F0004502D5404261EBAF
:1004000041014FF4806404F132045FEA915C3FF4EF
:10041000D8AE4FF003025FEADC0C18BF03325FEA8C
:10042000DC0C18BF033202EBDC02C2F1200300FA3D
:1004300003FC20FA02F001FA03FE40EA0E0021FA62
:1004400002F11444BDE600BF70B54FF0FF0C4CF450
:10045000E06C1CEA11541DBF1CEA135594EA0C0F02
:1004600095EA0C0F00F0DEF82C4481EA030621EA3D
:100470004C5123EA4C5350EA013518BF52EA033578
:1004800041F4801143F4801338D0A0FB02CE4FF02A
:100490000005E1FB02E506F00042E0FB03E54FF05A
:1004A0000006E1FB03569CF0000F18BF4EF0010E52
:1004B000A4F1FF04B6F5007F64F5407404D25FEA4E
:1004C0004E0E6D4146EB060642EAC62141EA555101
:1004D0004FEAC52040EA5E504FEACE2EB4F1FD0C43
:1004E00088BFBCF5E06F1ED8BEF1004F08BF5FEAC1
:1004F000500E50F1000041EB045170BD06F0004673
:1005000046EA010140EA020081EA0301B4EB5C041F
:10051000C2BFD4EB0C0541EA045170BD41F4801117
:100520004FF0000E013C00F3AB8014F1360FDEBF3C
:10053000002001F0004170BDC4F10004203C35DA18
:100540000C341BDC04F11404C4F1200500FA05F39B
:1005500020FA04F001FA05F240EA020001F000423C
:1005600021F0004110EBD37021FA04F642EB0601B2
:100570005EEA430E08BF20EAD37070BDC4F10C04DC
:10058000C4F1200500FA04F320FA05F001FA04F2A0
:1005900040EA020001F0004110EBD37041F100018C
:1005A0005EEA430E08BF20EAD37070BDC4F1200597
:1005B00000FA05F24EEA020E20FA04F301FA05F2FF
:1005C00043EA020321FA04F001F0004121FA04F2A7
:1005D00020EA020000EBD3705EEA430E08BF20EA77
:1005E000D37070BD94F0000F0FD101F000464000B1
:1005F00041EB010111F4801F08BF013CF7D041EA33
:10060000060195F0000F18BF704703F00046520036
:1006100043EB030313F4801F08BF013DF7D043EA07
:100620000603704794EA0C0F0CEA135518BF95EABD
:100630000C0F0CD050EA410618BF52EA4306D1D144
:1006400081EA030101F000414FF0000070BD50EA63
:10065000410606BF1046194652EA430619D094EAED
:100660000C0F02D150EA013613D195EA0C0F05D1D7
:1006700052EA03361CBF104619460AD181EA03012B
:1006800001F0004141F0FE4141F470014FF00000E3
:1006900070BD41F0FE4141F4780170BD70B54FF07E
:1006A000FF0C4CF4E06C1CEA11541DBF1CEA1355FE
:1006B00094EA0C0F95EA0C0F00F0A7F8A4EB0504E0
:1006C00081EA030E52EA03354FEA013100F08880D7
:1006D0004FEA03334FF0805545EA131343EA1263A0
:1006E0004FEA022245EA111545EA10654FEA002655
:1006F0000EF000419D4208BF964244F1FD0404F50E
:10070000407402D25B084FEA3202B61A65EB030569
:100710005B084FEA32024FF480104FF4002CB6EB26
:10072000020E75EB030E22BFB61A754640EA0C00A6
:100730005B084FEA3202B6EB020E75EB030E22BFE6
:10074000B61A754640EA5C005B084FEA3202B6EB27
:10075000020E75EB030E22BFB61A754640EA9C00E6
:100760005B084FEA3202B6EB020E75EB030E22BFB6
:10077000B61A754640EADC0055EA060E18D04FEA74
:10078000051545EA16754FEA06164FEAC30343EA14
:1007900052734FEAC2025FEA1C1CC0D111F4801FE1
:1007A0000BD141EA00014FF000004FF0004CB6E7DA
:1007B00011F4801F04BF01430020B4F1FD0C88BF79
:1007C000BCF5E06F3FF6AFAEB5EB030C04BFB6EB84
:1007D000020C5FEA500C50F1000041EB045170BD77
:1007E0000EF0004E4EEA113114EB5C04C2BFD4EBA4
:1007F0000C0541EA045170BD41F480114FF0000E28
:10080000013C90E645EA060E8DE60CEA135594EAA3
:100810000C0F08BF95EA0C0F3FF43BAF94EA0C0FA6
:100820000AD150EA01347FF434AF95EA0C0F7FF41B
:1008300025AF104619462CE795EA0C0F06D152EA6F
:1008400003353FF4FDAE1046194622E750EA410653
:1008500018BF52EA43067FF4C5AE50EA41047FF464
:100860000DAF52EA43057FF4EBAE12E74FF0FF3CC9
:1008700006E000BF4FF0010C02E000BF4FF0010C9A
:100880004DF804CD4FEA410C7FEA6C5C4FEA430C13
:1008900018BF7FEA6C5C1BD001B050EA410C0CBF62
:1008A00052EA430C91EA030F02BF90EA020F0020C4
:1008B000704710F1000F91EA030F58BF994208BF2B
:1008C00090422CBFD8176FEAE37040F001007047E8
:1008D0004FEA410C7FEA6C5C02D150EA013C07D13F
:1008E0004FEA430C7FEA6C5CD6D152EA033CD3D08A
:1008F0005DF8040B704700BF8446104662468C4684
:100900001946634600E000BF01B5FFF7B7FF0028B6
:1009100048BF10F1000F01BD4DF808EDFFF7F4FFDF
:100920000CBF012000205DF808FB00BF4DF808ED6A
:10093000FFF7EAFF34BF012000205DF808FB00BF8D
:100940004DF808EDFFF7E0FF94BF012000205DF8AF
:1009500008FB00BF4DF808EDFFF7CEFF94BF012064
:1009600000205DF808FB00BF4DF808EDFFF7C4FF5D
:1009700034BF012000205DF808FB00BF4FEA410CA6
:100980007FEA6C5C02D150EA013C0AD14FEA430C89
:100990007FEA6C5C02D152EA033C02D14FF00000C6
:1009A00070474FF0010070474FEA410212F5001204
:1009B00015D211D56FF47873B3EB625212D94FEAA6
:1009C000C12343F0004343EA505311F0004F23FA90
:1009D00002F018BF404270474FF00000704750EAE5
:1009E000013005D111F0004008BF6FF000407047A2
:1009F0004FF00000704700BF4A0011D212F50012FC
:100A000011D20DD56FF47873B3EB62520ED44FEA66
:100A1000C12343F0004343EA505323FA02F07047E6
:100A20004FF00000704750EA013002D14FF0FF3024
:100A300070474FF0000070474FEA4102B2F1E043C7
:100A400024BFB3F5001CDCF1FE5C0DD901F0004CB5
:100A50004FEAC0024CEA5070B2F1004F40EB830005
:100A600008BF20F00100704711F0804F21D113F131
:100A70003872BCBF01F00040704741F480114FEA6A
:100A80005252C2F11802C2F1200C10FA0CF320FAF3
:100A900002F018BF40F001004FEAC1234FEAD32310
:100AA00003FA0CFC40EA0C0023FA02F34FEA43037A
:100AB000CCE77FEA625307D150EA01331EBF4FF003
:100AC000FE4040F44000704701F0004040F0FE401E
:100AD00040F40000704700BF7BB972B90029BEBF67
:100AE00000204FF0004106E008BF00281CBF6FF057
:100AF00000414FF0FF3000F057B8ADF1080C6DE940
:100B000004CE002909DB002B1ADB33F01FFCDDF8D3
:100B100004E0DDE9022304B07047404261EB41018B
:100B2000002B1BDB33F012FCDDF804E0DDE90223CF
:100B300004B0404261EB4101524263EB4303704712
:100B4000524263EB430333F001FCDDF804E0DDE9DE
:100B5000022304B0404261EB41017047524263EB13
:100B6000430333F0F3FBDDF804E0DDE9022304B0D6
:100B7000524263EB4303704753B94AB9002908BF97
:100B800000281CBF4FF0FF314FF0FF3000F00CB8D1
:100B9000ADF1080C6DE904CE33F0D8FBDDF804E0CC
:100BA000DDE9022304B07047704700BF0348044BDF
:100BB000834202D0034B03B11847704778030020EB
:100BC00078030020000000000548064B1B1AD90FCF
:100BD00001EBA301491002D0034B03B11847704742
:100BE00078030020780300200000000010B5064CB8
:100BF000237843B9FFF7DAFF044B13B10448AFF38E
:100C000000800123237010BD780300200000000045
:100C10004446040808B5054B1BB105490548AFF328
:100C20000080BDE80840FFF7CFBF00BF0000000014
:100C30007C0300204446040870B586B003220024DB
:100C4000012301A92B480594CDE901320226CDE903
:100C500003440CF00BFB01A9264801960CF006FB9F
:100C60004FF4805301A9244801934FF480650CF0A0
:100C7000FDFA01A9214801950CF0F8FA4FF48043E0
:100C800001A91E4801930CF0F1FA01A91B48019635
:100C90000CF0ECFA802301A9174801930CF0E6FA56
:100CA000402301A9144801930CF0E0FA01A912486D
:100CB00001950CF0DBFA082301A90F4801930CF011
:100CC000D5FA04230DEB03010B4801930CF0CEFA87
:100CD0004FF4007301A9074801930CF0C7FA4FF4D1
:100CE00000630548019301A90CF0C0FA204606B044
:100CF00070BD00BF00000240000802400004024036
:100D000082B000230193064B1A6C42F008021A6469
:100D10001B6C03F008030193019B02B0704700BFF6
:100D200000380240024A136C23F008031364704732
:100D30000038024070B5102694B0374D002432467A
:100D400000210DEB060030F0BEFA21461C220DA852
:100D5000CDE9024430F0B7FA2146304A284610F077
:100D6000B9FC2F4A0121284610F0B4FC2D4BAE608F
:100D7000C5E900342C23C5E9033428468023AB6140
:100D800012F056FD0446002843D14FF480530DEB7A
:100D900006012846049311F057F90446002838D17B
:100DA000284612F0F7FD0446002832D1CDE90200B2
:100DB00002A9284613F004F8044650BB3023CDE9BD
:100DC0000D300F90119002460DA9284610F09CFDA1
:100DD0000446F0B92A689369CDE90A0043F0080394
:100DE0009361114B01901A6B104842F001021A6393
:100DF0001B6B03F001030193019B0122022308A94D
:100E0000CDE908230C930CF031FA2146284611F065
:100E1000ADFD204614B070BD94030020010D010803
:100E2000250D0108000C004000380240000002407F
:100E300008B50021034811F04BFE024810F042F9BA
:100E4000002008BD9403002070B5134E3368D3B161
:100E5000124CB4FBF0F4651E294611482FF092FEA7
:100E60002046FFF777FA02460B4609A1D1E90001B7
:100E7000FFF714FC02460B460A482FF083FE336846
:100E80000020DD6270BD0120FCE700BFAFF30080F1
:100E9000000000002A7585419403002040A5AE02A1
:100EA000A0470408AC47040808B502482FF00EFF1D
:100EB000002008BDB747040808B517F0C5FB014678
:100EC00002482FF05FFE002008BD00BF5F4C040801
:100ED000F7B54FF4F0402DF0C7FC0446002800F0B1
:100EE0008B81CB482FF0F2FECA4B1B68DB0340F12D
:100EF00070810EF017FD07EE900AF8EE677A17EE94
:100F0000900AFFF749FABEA3D3E90023FFF7C6FB17
:100F10000246C1480B462FF035FEC049C0482FF0AD
:100F200031FEC0482FF0D2FE17F08EFB1426054686
:100F30004FF4F0420021204630F0C5F9013EF7D1D0
:100F400017F082FB401B07EE900AF8EE677A142632
:100F500017EE900AFFF720FAB34B0022FFF79EFB33
:100F600002460B46B1481E212FF00CFE17F06CFB19
:100F700004F5705705464FF470523946204630F05C
:100F800064FB013EF7D117F05FFB401B07EE900AB0
:100F9000F8EE677A142617EE900AFFF7FDF9A24BD8
:100FA0000022FFF77BFB02460B46A1480F212FF0E2
:100FB000E9FD17F049FB05464FF4705239462046CB
:100FC00030F058F9013E0190F6D117F03DFB401B7F
:100FD00007EE900AF8EE677A142617EE900AFFF7EC
:100FE000DBF9914B0022FFF759FB02460B46914873
:100FF0000F212FF0C7FD90482FF068FE17F024FB5B
:1010000005468E494FF47052204630F01EFB013EDB
:10101000F7D117F019FB401B07EE900AF8EE677A3C
:10102000142617EE900AFFF7B7F97F4B0022FFF75F
:1010300035FB02460B467E480F212FF0A3FD17F02B
:1010400003FB05467D484FF47052214630F012F9FB
:10105000013E0190F6D117F0F7FA401B07EE900A17
:10106000F8EE677A17EE900AFFF796F96E4B0022BA
:10107000FFF714FB02460B466E480F212FF082FD4E
:101080006F482FF023FE0023009317F0DDFA42F2A1
:1010900010730546B7EE007ADDED007A77EE877AB9
:1010A000013BCDED007AF7D117F0CEFA401B07EEE9
:1010B000900AF8EE677A634F17EE900AFFF76CF923
:1010C00051A3D3E90023FFF7E9FA02460B465E4835
:1010D0002FF058FD009717F0B7FA4FF47A760546CF
:1010E0000098FFF759F941EC100B2BF0A7FE51ECDB
:1010F000100BFFF7A1FC013E0090F1D117F0A4FA0C
:10110000401B07EE900AF8EE677A4FF47A7617EEF6
:10111000900AFFF741F94D4B0022FFF7BFFA024654
:101120000B464B482FF02EFD4A4B009317F08CFADC
:1011300005460098FFF730F941EC100B2BF0B4FE98
:1011400051EC100BFFF778FC013E0090F1D117F045
:101150007BFA401B07EE900AF8EE677A4FF47A7537
:1011600017EE900AFFF718F9384B0022FFF796FAAE
:1011700002460B4638482FF005FD009717F064FA39
:1011800006460098FFF708F941EC100B2BF014FE0F
:1011900051EC100BFFF750FC013D0090F1D117F01E
:1011A00053FA801B07EE900AF8EE677A17EE900A62
:1011B000FFF7F2F8254B0022FFF770FA02460B46C4
:1011C00026482FF0DFFC20462DF056FB284603B0C2
:1011D000F0BD0EF0A7FB07EE900AF8EE677A17EE67
:1011E000900AFFF7D9F806A3D3E90023FFF756FAD0
:1011F00002460B461A488EE64FF48670E7E700BFBA
:101200000000000080842E41000000000088C340E0
:10121000644C0408003802407E4C040811AD0408F8
:101220009D4C0408A64C040800003440C24C04083D
:10123000DA4C0408F24C04080A4D0408B5AC010865
:10124000274D040800401C46444D040800408F40D0
:101250005C4D0408C3F54840744D04088C4D0408E7
:101260008C4C040813B547F23052084601AB0121FB
:1012700018F04CFB044610B9019814F077FC204696
:1012800002B010BD13B5074A084601AB012118F0A2
:101290003DFB044610B9019817F0CCF9204602B086
:1012A00010BD00BF80C3C90108B50AF02FF901467F
:1012B00002482FF067FC002008BD00BF5F4C040807
:1012C00030B58DB00D461422002107A82FF0FBFF8A
:1012D0000023069340F633020DF116034FF4FA6132
:1012E000284618F05AFB0446002864D1BDF8163091
:1012F00030338DF81B300C220DF1190301212846E3
:1013000018F056FB0446002855D10DF11A031F2290
:101310000121284618F04CFB044600284BD1014619
:1013200007AB1722284618F043FB0446002842D199
:1013300001460DF11D033B22284618F039FB0446F7
:10134000002838D101460DF11E033B22284618F033
:101350002FFB044678BB024606A918480FF010F888
:10136000044640BB024607A914480EF00BFF044692
:1013700008BB024607A911480EF0D2FF0446D0B9B7
:10138000024606A90D480FF099F8044698B99DF851
:101390001E309DF81B1002939DF81D3001939DF89F
:1013A0001C3000939DF819209DF81A30044801F56F
:1013B000FA612FF0E7FB20460DB030BD4838002021
:1013C000A44D040810B58AB01248002205A90EF0F9
:1013D000A7FF0446D0B9024604A90E480FF06EF8E4
:1013E000044698B99DF816309DF8131002939DF8A5
:1013F000153001939DF8143000939DF811209DF84D
:101400001230054801F5FA612FF0BCFB20460AB006
:1014100010BD00BF48380020A44D040808B50020C6
:1014200018F0A8FC002008BD08B508482FF04EFCB5
:1014300017F0B2FF08F0A8FA014605482FF0A2FB0A
:1014400002482FF043FC002008BD00BFC34D040834
:10145000004E040813B5FF2208460DF107030021D2
:1014600018F0A6FA0446A0B99DF807302A2B13D12C
:101470000A482FF02BFC0A2014F078FB084B1B685D
:1014800098682FF019F94FF4FA7014F06FFB07F019
:1014900081FF204602B010BD0124FAE7164E040871
:1014A00028030020204B1868204B2DE9F0411E68CE
:1014B0001F4C204BE41A241118B103780BB12FF004
:1014C00005FC1C4DDFF880800027BC4208D126B106
:1014D000337813B130462FF0F9FB0020BDE8F081DE
:1014E000EA68CAB12968B9B11378ABB10B7818F8BA
:1014F0000300800703D103F0EF002A2803D10E4830
:101500002FF040FB08E02D2B03D03F2B07D00B49D9
:10151000F5E70B482FF0DAFB01371035D5E7114618
:1015200008482FF02FFBF7E7040000200000002000
:1015300018110508C8F60408414E04088B52040827
:101540004D4E04089D4E040841F1040807B50421DE
:101550000DEB010000F004FB0198FEF71DFF0246B1
:101560000B4603482FF00EFB002003B05DF804FB90
:101570000E52040807B504210DEB010000F0B4FA87
:101580000198FEF709FF02460B4603482FF0FAFACE
:10159000002003B05DF804FB0E52040807B501A853
:1015A00000F064FA0198FEF7F7FE02460B46034886
:1015B0002FF0E8FA002003B05DF804FB2352040882
:1015C000F7B54248424C434D2FF0DCFA14F8011BAA
:1015D00041482FF0D7FAAC42F8D10A203F4C2FF007
:1015E00017FB3F482FF072FB3E482FF0CBFA2168E3
:1015F0003D482FF0C7FA61683B482FF0C3FAA16855
:1016000039482FF0BFFA0A202FF002FB37486768ED
:101610002FF0B8FA00240025E619A95D34480135F9
:101620002FF0B0FA102DF8D132482FF0ABFA002588
:10163000A85DA0F120035E2B88BF2E2001352FF07E
:10164000E7FA102DF4D10A202FF0E2FA04F58074A5
:1016500029482FF097FAB4F5E06FDCD10A202FF07B
:10166000D7FA684600F002FA0098FEF795FE0246A7
:101670000B4622482FF086FA04210DEB010000F002
:1016800033FA0198FEF788FE02460B461C482FF0FD
:1016900079FA04210DEB010000F062FA0198FEF7DF
:1016A0007BFE02460B4617482FF06CFA4FF40051B0
:1016B00015480BF0D1FF154B1549002808BF1946F6
:1016C00014482FF05FFA002003B0F0BD3B5204082D
:1016D000107AFF1F207AFF1F485204080000FF1FE6
:1016E0004D52040859520408665204086D52040809
:1016F0007A5204088A5204088052040823520408CB
:101700008D5204080E5204080008024048A704083D
:101710004A650408A25204080020704708B5024830
:101720002FF0D4FA002008BD2653040808B502485B
:101730002FF0CCFA002008BD28D104087FB50A4B51
:1017400004930A4B03930A4B02930A4A0A4B0193F0
:10175000D37F0093937F09480A3210212FF012FAA9
:10176000002007B05DF804FB555304086F530408CC
:101770007C53040824000020865304082D530408D9
:1017800038B51B4C1B482FF0FDF9236898682EF0E4
:1017900093FF19482FF0F6F9236898682EF08CFF14
:1017A000312528462FF034FA236898682EF084FFFC
:1017B0000135642014F0DAF9362DF2D123680F4890
:1017C00099682FF0B9F9236898682EF075FF3220D8
:1017D00014F0CCF9BFF34F8F09490A4BCA6802F4E1
:1017E000E0621343CB60BFF34F8F00BFFDE700BF44
:1017F000280300203A4E04088D530408AC53040813
:1018000000ED00E00400FA0508B5032A18D8DFE867
:1018100002F0020E10120B4B196807290DD80A4B63
:101820000A4833F811102FF0ADF9002008BD084B1D
:10183000F2E7084BF0E7084BEEE708482FF0A2F973
:101840000120F3E7140000203AE20408B45504082C
:10185000100000200C00002008000020B8550408EB
:1018600007B5032A38D8DFE802F002131F2B1B4B01
:1018700001A8196800F038F90198FEF78DFD0246BD
:1018800017480B462FF07EF9002003B05DF804FBEB
:10189000144B01A8196800F063F90198FEF77CFD6C
:1018A00002460B461048EDE7104B01A8196800F0FE
:1018B00093F90198FEF770FD02460B460C48E1E7EC
:1018C0000C4B01A8196800F0C3F90198FEF764FDFC
:1018D00002460B460848D5E70120D6E71400002051
:1018E0008D520408100000200E5204080C00002045
:1018F000D155040808000020E655040813B5084631
:10190000144601AB4FF4F072032117F0FFFF68BBE0
:10191000019B542B1CD00DD81C2B1BD006D8032B9D
:101920001AD00F2B1AD04FF48B701FE0382BFAD13E
:10193000032307E0902B13D0B3F5F07F12D0702B68
:10194000F1D10523032C19D8DFE804F00E12141688
:101950000423F7E70223F5E70346F3E70123F1E762
:101960000623EFE70723EDE7054A136002B010BD39
:10197000044AFAE7044AF8E7044AF6E70120F5E7E3
:1019800014000020100000200C000020080000209F
:1019900010B58CB0314B0021019114465A6C42F4C1
:1019A00080725A645A6C02F480720192019A029118
:1019B0005A6C42F400725A645A6C02F40072029239
:1019C000029A03915A6C42F480625A645A6C02F48F
:1019D00080620392039A04911A6B42F001021A6327
:1019E0001A6B02F001020492049A05911A6B42F0FC
:1019F00002021A631A6B02F002020592059A06911E
:101A00001A6B42F004021A631B6B03F00403069383
:101A1000142207A8069B2FF056FC032C1BD8DFE8E6
:101A200004F0020D0F13012307930D4803230893BD
:101A300007A90BF01BFC00200CB010BD0223F3E73C
:101A400008482FF043F9F6E702220323CDE90723E4
:101A5000054807A9EDE70120EEE700BF0038024086
:101A600000000240FB55040800040240194B30B549
:101A700005460FCB85B08DE80F006946164809F082
:101A800083FF322016F0D6FD134809F095FE64213D
:101A9000114809F023FF104809F073FF0F4B9FED29
:101AA000107A9A8DDB8D811A07EE901AF8EE677A1C
:101AB0009B1A67EE877A07EE103AB8EEC77A0020D5
:101AC000C7EE876AF3EE0E7A76EEA77AC5ED007A56
:101AD00005B030BD6046040868340020007AFF1F5E
:101AE0000000A0420000000030B5002485B00123B2
:101AF000CDE90214054669461748CDE9004309F0CF
:101B000043FF322016F096FD134809F055FE64217C
:101B1000114809F0E3FE104809F033FF07EE900A80
:101B20009FED0E7AF8EE677AC7EE877A17EE900A85
:101B3000FEF732FC06A3D3E90023FEF785FCFEF78F
:101B40007BFF2860204605B030BD00BFAFF30080AA
:101B50006666666666660A40D833002000F07F45F8
:101B600030B585B001230446029100256946184826
:101B70000395CDE9003309F007FF322016F05AFD36
:101B8000134809F019FE6421114809F0A7FE104816
:101B900009F0F7FE07EE900A9FED0E7AF8EE677AED
:101BA000C7EE877A17EE900AFEF7F6FB06A3D3E995
:101BB0000023FEF749FCFEF73FFF2060284605B0F2
:101BC00030BD00BFAFF300806666666666660A4099
:101BD0002034002000F07F4530B5002485B001237B
:101BE000CDE90214054669461748CDE9004309F0DE
:101BF000CBFE322016F01EFD134809F0DDFD6421F6
:101C0000114809F06BFE104809F0BBFE07EE900A80
:101C10009FED0E7AF8EE677AC7EE877A17EE900A94
:101C2000FEF7BAFB06A3D3E90023FEF70DFCFEF78F
:101C300003FF2860204605B030BD00BFAFF3008031
:101C40006666666666660A402034002000F07F45BE
:101C500030B585B00922012304460291002569466A
:101C600017480395CDE9002309F08EFE322016F0C7
:101C7000E1FC134809F0A0FD6421114809F02EFE93
:101C80000F4809F07EFE07EE900A9FED0E7AF8EEFF
:101C9000677AC7EE877A17EE900AFEF77DFB06A3F8
:101CA000D3E90023FEF7D0FBFEF7C6FE20602846EE
:101CB00005B030BDAFF300806666666666660A40B2
:101CC0006834002000F07F45F0B58BB014460F4615
:101CD0001422002168462FF0F6FA04F01F03013B9E
:101CE000112B64D8344A52F82350344A32F8136026
:101CF00004F0C003C02B0AD10021102206A82FF047
:101D0000E2FA059605A928460BF0B0FA26E004F0A1
:101D1000A003A02B24D10024012305A92846CDE946
:101D200007440994069305960BF0A0FA05A93846D6
:101D30008DF8144017F0EAFB044648B1B0F58B7FEC
:101D400003D040F23D13984218D100238DF814308F
:101D50009DF81420314628460BF090FC00240DE03D
:101D6000A1060ED505A9384617F0D0FB044628B9C0
:101D70009DF81420314628460BF080FC20460BB01D
:101D8000F0BD62060CD5314628460BF065FC0C4BC5
:101D90000C4A002818BF1A4610462EF097FFDDE7C0
:101DA000E30504D50323009601936946ABE7064893
:101DB0002EF08CFF0124E1E770E204084AE20408F7
:101DC0008B53040828D10408FA570408024BF72261
:101DD0001A700020704700BFBC330020034A1378FC
:101DE00043F0080313700020704700BFBC3300208D
:101DF00007B508460DF1070117F088FB38B99DF8C3
:101E00000720064B32B11A7842F004021A7003B070
:101E10005DF804FB1A7802F0FB02F7E7BC33002000
:101E200007B508460DF1070117F070FB38B99DF8AA
:101E30000720064B32B11A7842F002021A7003B042
:101E40005DF804FB1A7802F0FD02F7E7BC330020CE
:101E500007B508460DF1070117F058FB38B99DF892
:101E60000720064B32B11A7842F001021A7003B013
:101E70005DF804FB1A7802F0FE02F7E7BC3300209D
:101E800010B586B00C461422002101A82FF01BFAD1
:101E900020460DF103030222002117F089FD0446BC
:101EA00078B99DF803307BB1012B0CBF01230223CD
:101EB0000648039301A90BF0D9F9054801A90BF0D5
:101EC000D5F9204606B010BD0346F1E700080240F0
:101ED0000004024007B508463AB10D490D482EF0FE
:101EE00051FE002003B05DF804FB0DF1070117F06F
:101EF0000DFB0028F6D19DF80730074A003B18BFBC
:101F00000123DB01104613620BF0DEFDEAE700BFA0
:101F10009A6504081CB00408F437002007B5084689
:101F20003AB10D490D482EF02DFE002003B05DF8AA
:101F300004FB0DF1070117F0E9FA0028F6D19DF82E
:101F40000730074A003B18BF01239B011046D361AD
:101F50000BF0BAFDEAE700BF9A6504081CB004085C
:101F6000F437002007B508463AB10C490C482EF06A
:101F700009FE002003B05DF804FB0DF1070117F026
:101F8000C5FA0028F6D19DF80730064A003B18BF75
:101F90000123104653610BF097FDEBE79A650408A7
:101FA0001CB00408F437002007B5084642B10B4BBB
:101FB0000B4859682EF0E6FD002003B05DF804FBE5
:101FC000084A01AB012117F0A1FC0028F5D1034A12
:101FD000019B536010460BF077FDEEE7F4370020CD
:101FE000A1650408801A060007B5084611464AB1E3
:101FF000104B11481B6819692EF0C4FD002003B076
:102000005DF804FB01AB4FF0FF3217F07FFC0028B6
:10201000F5D108490B681A6822F001021A60019A8A
:102020004A6022F070621A611A6842F001021A6076
:10203000E5E700BFB0340020A16504082DE9F04FAA
:10204000C7B08A460DF114080DF1160704AE002141
:1020500015464FF0020B33464FF6FF72504639805B
:10206000A8F800B017F099FC0146002840F0628102
:10207000338805F1FF395B00B9F1010F338050D887
:102080000DF112034FF6FF72504617F086FC04461E
:1020900038B943465A460121504617F07EFC0446A3
:1020A00030B1204647B0BDE8F08FB9F1090F0ED826
:1020B00040F2B52323FA09F3DB0708D53B46FF229C
:1020C0000121504617F069FC04460028E9D1023D81
:1020D000082D3DD840F2AD13EB4013F0010310D0B2
:1020E00000250DF1180B0BEB0503FF2200215046D4
:1020F00017F05EFC044620BB0135B5F5807FF2D1B8
:10210000ABB2B9F1090F00F21781DFE819F0230033
:10211000440053006E0076009B00BB00C900E50040
:10212000ED00AB1F012BC0D80DF112034FF6FF726B
:10213000504617F032FC04460028B2D14346102224
:10214000A9E740F23D139842ABD1002DD8D1A8E7C2
:102150000023D6E7642302933B88019306AD0095E4
:10216000B8F80030BDF81220318874480AF0E2FE59
:102170000446002895D13B88A34201DC002490E767
:1021800014B12C202EF044FD15F8011B6C482EF0E4
:10219000F9FC0134EFE76422CDE9013206AB00938C
:1021A000B8F80030BDF81220318864480AF0DEFD2E
:1021B000044676E7642300933B8831885F4806AA8B
:1021C0000AF03AFD044600287FF46BAF06AD3B8869
:1021D000A342D3DD14B12C202EF01AFD15F8011BFB
:1021E00057482EF0CFFC0134F1E764220092318889
:1021F000524806AA0AF072FCDAE764250095318895
:102200004E4806AA0AF06AFC044600287FF449AF4B
:1022100000953B883188494806AA0AF00DFD04461E
:1022200000287FF43EAF06AD3B88A342A6DD14B183
:102230002C202EF0EDFC15F8011B41482EF0A2FCDD
:102240000134F1E7642302933B88019306AD0095C6
:10225000B8F80030BDF8122031883A480CF02CF85C
:10226000044600287FF41DAF3B88A34286DD14B1ED
:102270002C202EF0CDFC15F8011B31482EF082FCED
:102280000134F1E76422CDE9013206AB0093B8F8DE
:102290000030BDF8122031882A480BF073FF87E721
:1022A000642300933B883188264806AA0BF0F2FD90
:1022B000044600287FF4F5AE06AD3B88A3427FF7C5
:1022C0005DAF14B12C202EF0A3FC15F8011B1C48A7
:1022D0002EF058FC0134F0E764220092318819484E
:1022E00006AA0BF0FDFC63E76425009531881548CC
:1022F00006AA0BF0F5FC044600287FF4D2AE009548
:102300003B8831880F4806AA0BF0C4FD044600281C
:102310007FF4C7AE06AD3B88A3427FF72FAF14B161
:102320002C202EF075FC15F8011B05482EF02AFC18
:102330000134F0E70446B4E60124B2E6B0340020EC
:10234000A9650408F437002037B59FED251B084622
:102350009FED250B6A46002117F036F90546002847
:1023600037D1234BD3F8942012F4400F1FD10CF037
:1023700059FF0446DDE90001FEF73EFB0146204619
:1023800000F0FCF9044601461A482EF0FBFBFCB1B4
:1023900019490B681A6822F001021A604C6024F097
:1023A00070641C611A6842F001021A6011E0D3F8EF
:1023B000942002F44002B2F5800F02D10DF0B2FA7F
:1023C000D7E7D3F8943003F44003B3F5000F03D0FC
:1023D0000125284603B030BD084CCBE7AFF30080A1
:1023E0000000000065CDCD410000000000000000AD
:1023F00000380240AE650408B03400200024F40028
:1024000008B532B1012A09D006482EF05FFC012040
:1024100003E0054808F032FA002008BD034808F040
:1024200097FBF9E7FA570408B0340020F43700208E
:1024300007B5084672B1114B11491B69114813F4D5
:10244000804F114B18BF19462EF09CFB002003B0A3
:102450005DF804FB0DF1070117F058F80028F6D1DC
:102460009DF807300548002B0CBF4FF440434FF454
:10247000804303610BF028FBE9E700BFF43700203D
:10248000CD6504081CB00408C865040807B50846F3
:102490007AB1104B10491B6810481B6813F4805F19
:1024A0000F4B18BF19462EF06DFB002003B05DF8EE
:1024B00004FB0DF1070117F029F80028F6D19DF86B
:1024C000073023B1014603480AF01CFEEEE74FF443
:1024D0008051F8E7B03400204A6504081CB00408B5
:1024E00048A7040807B5084611465AB10D4B0E48D7
:1024F0001B681968C1F303212EF044FB002003B0D0
:102500005DF804FB0DF107030F2217F051FA0028C4
:10251000F5D19DF80710034801F00F010AF02CFED9
:10252000EDE700BFB03400207D94040807B50846ED
:102530007AB1134BDA6AD20709D5DB6A9B0706D555
:1025400010482EF01FFB002003B05DF804FB0E487E
:10255000F7E70DF1070116F0D9FF0028F4D19DF837
:10256000073001202BB10AF03FFE02200AF03CFEAA
:10257000E9E70AF059FE02200AF056FEE3E700BF41
:10258000003801404A65040848A70408000000001C
:1025900038B51046002A5BD1454BD3F8942012F48D
:1025A000400F3DD10CF03EFE424C07EE900AF8EE93
:1025B000677A17EE900AFDF7EFFE3BA3D3E90023FD
:1025C000FEF76CF80B4621463B4C02463B482EF08A
:1025D000D9FA23683A4819692EF0D4FA394BDA6AE5
:1025E000D20733D5DB6A384913F0020F374B08BFE7
:1025F000194637482EF0C6FA236836481968C1F3E1
:1026000003212EF0BFFA236833481B682E4913F4C8
:10261000805F2E4B18BF19462EF0B4FA002038BD4B
:10262000D3F8942002F44002B2F5800F03D10DF0EC
:1026300079F92A4CB9E7D3F8943003F44003B3F5A1
:10264000000F12BF264C2748274CAEE71F49D0E7A2
:10265000012AE3D1254C264861681B4D2EF092FAE1
:102660002269244B24492548002A08BF19462EF028
:1026700089FA636915492248002B18BF29462EF0B4
:1026800081FAE36911491F48002B18BF29462EF033
:1026900079FA216A0D4B1C48002918BF2B461946B0
:1026A000BAE700BFAFF300800000000080842E4135
:1026B00000380240E2650408B0340020F7650408E1
:1026C000AE650408003801404A65040848A70408BC
:1026D000166604082B66040840660408D3650408DF
:1026E000DA6504080024F400E8650408F4370020E3
:1026F00055660408F1650408EC6504086A66040878
:102700008166040898660408AF66040808B509489D
:102710002EF0DCFA08490B681A6822F001021A60F0
:10272000064A1A614A601A6842F001021A600020E3
:1027300008BD00BFC6660408B0340020362C9000E7
:1027400008B532B1012A0BD009482EF0BFFA01209A
:1027500005E0FFF7DBFF074808F04AF8002008BD56
:10276000054808F0A3F904480BF0AEF9F6E700BFFE
:10277000FA570408B0340020F43700202DE9F04F58
:102780008BB018B900200BB0BDE8F08F834B994295
:10279000F8D9834B99425ED9824B9942F2D9824B48
:1027A00099425AD9814BA1F54321A1F5A0619942E3
:1027B000E8D80221DFF804C20CEB5003B3FBF0F0C1
:1027C0007B4B2C2202FB013305465A6A03921A6A9C
:1027D0000192019C5A691B69A2180492039A1B1B5F
:1027E000A2F13206A3F5827300EB4002B61AA3EB06
:1027F0008003704A23EAE373029313680093002472
:1028000026EAE6761A46A2464FF0100BA9464FF08C
:10281000000E049BCDF814E099450EF1010E27D36C
:102820000027B846BE421DD8029BBB421AD35C4566
:1028300018D0142303FB02FB5F4B013203EB0B0A9E
:1028400043F80B40059B7F2ACAE9013807D9594B49
:1028500000921A6017E00021ACE70121AAE7A34625
:102860004FF0010A08F10108B8F1100F2F44D9D137
:10287000BEF1100FA944CCD10134102C0544C5D1B0
:10288000BAF1000FE3D12C225143494B039C019D27
:1028900003EB010E5B5848490CEB53022C44B2FB8E
:1028A000F3FBDEF80430BCFBF3F30293DEF80830F0
:1028B000BCFBF3F30493430003F13202E3180592E7
:1028C000D94600264FF0FF320993009B9E4219D152
:1028D0007F2A3FF657AF384B14214A4399189B582B
:1028E000087C40EA03704B681B0503F4700318432F
:1028F0008B681B0403F470231843CB681B029BB244
:10290000184340E7DEF818400B680394059C03FB6E
:1029100000031C190194099CE5183235019C0895A7
:102920004FF0000C039DCDF81CC0AC420CF1010C23
:102930002CD9A4F13205B0EB950F27D2089DDDF814
:1029400004A025444FF00008049FCDF81880AF4242
:1029500008F1010815D8029FAF4212D3DEF81C70AF
:1029600057450ED850450CD2A5EB0B07002FB8BF2A
:102970007F42B94505D9079A0A61069ACA60B946E5
:102980003246B8F5807F1D449A44DDD1BCF5807F86
:102990001C44C7D10136143197E700BF7F380100CE
:1029A000C0D40100FFE1040000530700801A0600B4
:1029B000B8E20408480400204C04002000CA9A3BF6
:1029C00013B5084612F0200114463BD09FED3A1B88
:1029D0009FED3B0B6A46002116F0F6FDC8B9DDE914
:1029E00000013B4B0022FDF72FFD04F01F04013CCA
:1029F000CDE90001052C20D8DFE804F003030D1316
:102A00001919FEF719F800EE100A052000F0F0FE83
:102A1000002002B010BDFEF70FF800EE100A0C20E7
:102A2000F4E7FEF709F800EE100A0220EEE7FEF7E1
:102A300003F800EE100A0320E8E726482EF046F9D6
:102A40000120E6E71306F8D59FED1F1B9FED1C0B39
:102A50006A4616F0B9FD0028DBD104F01F04013CE2
:102A6000052CEAD8DFE804F003030D151D1DDDE990
:102A70000001FDF7E1FF00EE100A052000F00CFF59
:102A8000C6E7DDE90001FDF7D7FF00EE100A0C20D4
:102A9000F4E7DDE90001FDF7CFFF00EE100A0220A8
:102AA000ECE7DDE90001FDF7C7FF00EE100A0320A7
:102AB000E4E700BFAFF300800000000000005940D1
:102AC00000000000000000000000000000408F40F7
:102AD00000002440FA57040808B515482EF0F6F80F
:102AE000144B154819682EF04DF8144B144819680A
:102AF0002EF048F8134B186807EE900AF8EE677A44
:102B000017EE900AFDF748FC0F4B0022FDF7C6FDBB
:102B100002460B460D482EF035F80D4B0D4819684E
:102B20002EF030F80C482EF0D1F8002008BD00BF80
:102B3000C76D0408600E0020DD6D04085C0E0020E7
:102B4000EE6D0408580E002000002440FF6D0408BC
:102B5000540E0020126E0408874E0408DFB551069B
:102B60002FD502F01F02013A052A25D8DFE802F02E
:102B70000315171A221F0022052102A800F082FF68
:102B8000044638B90298FDF707FC02460B461E487A
:102B90002DF0F8FF204604B0D0BD0422ECE700225F
:102BA0000C21EAE7082202210DEB0200E6E70022F1
:102BB0000321E2E70422FBE714482EF087F8012402
:102BC000E8E71306F8D502F01F02012A1AD0053AE9
:102BD000012AF1D8032203A902A800F0F7FE044657
:102BE0000028D7D10398FDF7D7FB064602980F4679
:102BF000FDF7D2FB3246CDE900013B4604482DF0FB
:102C0000C1FFC7E70522E6E7296E0408FA57040862
:102C1000236E040802F4387002F01F02013A08B56E
:102C2000052A1CD8DFE802F003070B0F1317BDE8D5
:102C3000084000F073BFBDE8084001F04DB8BDE8A2
:102C4000084001F027B9BDE8084001F0AFB9BDE880
:102C5000084001F039BABDE8084001F029BB02483C
:102C60002EF034F8012008BDFA57040808B500F02A
:102C70005FFBFEF7DDF800F0C3FA002008BD00009E
:102C800007B59FED0B0B08469FED0B1B6A46002115
:102C90008DED000B16F098FC28B9DDE90001FDF779
:102CA000ABFEFEF7D1F803B05DF804FBAFF3008094
:102CB0000000000000000000000000002A758541AF
:102CC00008B500F09DFA00F033FBFEF733F8002062
:102CD00008BD08B500F094FAFEF7AAF8BDE8084070
:102CE00000F0AABA2DE9F041ADF5976D0DF102069D
:102CF0000123084633804FF496723346002116F0C4
:102D00004CFE0446E0B901464FF4966202A80DF16C
:102D100004082EF0D8FA3088424602A900F07CF967
:102D2000044668B902AD07463388BB420DDCD8F8CB
:102D30000000FDF731FB02460B4609482DF022FF4B
:102D400020460DF5976DBDE8F08155F8040BFDF7B1
:102D500023FB02460B4603482DF014FF0137E3E73F
:102D60007EAF0408336E040808B5FEF761F800F082
:102D7000DFFA00F0CFF9002008BD0000037F012B2F
:102D800002D1044A13607047022B02BF024B01229A
:102D90001A6070474C0E0020500E002010B5002421
:102DA00088B0CDE90544144B01941A6C134842F0E5
:102DB00008021A641A6C02F008020192019A029445
:102DC0001A6B42F001021A631B6B03F001030293BA
:102DD000029B0122022303A9CDE9032307930AF0F2
:102DE00045FA22460521322008F0A6FE322008F0DE
:102DF000E5FE08B010BD00BF0038024000000240F0
:102E000030B5002589B0CDE90555314B01951A6CD7
:102E1000304C42F008021A641A6C02F00802019267
:102E2000019A02951A6B42F001021A631B6B03F0C0
:102E300001030293029B01200223CDE9030303A9AE
:102E4000254807930AF012FADFF89CC04FF0406360
:102E5000C4E900C34FF4806E4FF48053C4E904E327
:102E600020464FF48043C4E90255C4E90635C4E95D
:102E7000085508F0E5FE08B107F094FE174D184A12
:102E80006C62A563174C4FF04063C4E900234FF414
:102E900080614FF480520023C4E9041220464FF4AD
:102EA0008042C4E90233C4E90623C4E9083308F0C8
:102EB000C7FE08B107F076FE002205213220AC6281
:102EC000A56308F039FE322008F078FE09B030BD65
:102ED000003802402418002000000240841800201E
:102EE00070600240C417002040600240074A084852
:102EF00008B5136C23F00803136401210AF0FCFAEF
:102F0000BDE80840322008F06DBE00BF0038024026
:102F10000000024038B504460CF084F9237F022BF0
:102F20001FD1002120460EF027FB104D0421286000
:102F300020460EF021FB0E4A0E49106013680E4C1D
:102F400083B113682A684FF47A704343B3FBF2F3FA
:102F5000C31A0B600CF066F92B684000B0FBF3F06D
:102F6000206038BD0B602360FBE700BF600E0020CF
:102F70005C0E0020580E0020540E00202DE9F84F62
:102F800012F0BEFDDFF888B01D4F1E4D82460026B0
:102F900012F0B6FDA0EB0A00FDF7DCF932468046E0
:102FA00089463B46DBE90001FDF74EFA02460B4637
:102FB00040464946FDF7BAFC044660B9014612484E
:102FC00010F036FB1048042110F032FB0F4B2C6040
:102FD0001C60032012E02B68012BD9D10B4B1A681F
:102FE000012AD5D10024214607481C602C6010F02E
:102FF0001FFB0548042110F01BFB2046BDE8F88F9D
:1030000000408F40500E0020841800204C0E0020FD
:1030100018000020000000002DE9F04F384B87B069
:103020000C460021039206465962364A36484FF450
:10303000967310F0B7F9354A33484FF4967304216C
:1030400010F0B0F9FFF79AFF0546002852D1DFF8DB
:10305000BCA02C4F04EB860B80465C450CD1B8FB22
:10306000F6F807EE908A039BF8EE677AC3ED007AD4
:10307000284607B0BDE8F08FD7F8049057F8043B16
:103080005AF8042F0593994536BF09F1FF30A9EB93
:103090000300C01A0492FDF75DF9049A059B91455F
:1030A000CDE9000134BFA2EB0900D01AFDF752F9B7
:1030B000DDE90023FDF7F2FA154B0022FDF7C4F914
:1030C000FDF7BAFC44F8040B4046FDF743F9DDE98F
:1030D00000238046894608A1D1E90001FDF7DEFA08
:1030E00002460B4640464946FCF7F8FFFDF784FCD4
:1030F0008046B2E70325BBE7000000002A75954132
:10310000000C00401413002084180020640E0020DE
:103110000000594010B58CB00024344B01941A6B58
:1031200042F400121A631B6B03F4001322460521BC
:1031300001930D20019B08F0FFFC0D2008F03EFDDF
:10314000224605210F2008F0F7FC0F2008F036FD7D
:10315000102221460DEB02002EF0B5F81022214678
:1031600008A8CDE902442EF0AEF8214A21482146B4
:103170000EF0B0FA1F4A204B9460C2E900341046AA
:103180004FF0FF33C2E90334946110F051FB28BBC8
:103190004FF480531748049304A90EF055FFE8B983
:1031A000144810F05BFDC8B9CDE9020002A911482E
:1031B00010F006FE024688B90123CDE909300890D7
:1031C0000B9008A90B480EF0E5FD38B90223094819
:1031D000042208A9CDE908330EF0DCFD074A0548B2
:1031E00012210EF077FA0CB010BD00BF003802407B
:1031F000012E010884180020000C00407D2D0108DC
:103200000A4A0B48136C10B523F00803094C1364E9
:1032100001210AF071F9606A08F03CFEA06A08F02A
:1032200039FE322008F0DEFC002010BD00380240DC
:10323000000002408418002030B591B01022002117
:1032400003A82EF040F8142200210BA800242EF031
:103250003AF81022002107A82EF035F82F4A3048FE
:103260002146CDE901440EF035FA2E4A2C480121C1
:103270000EF030FA2A4A2C4B9460C2E90034104612
:103280004FF0FF33C2E90334946110F0D1FA002803
:1032900032D14FF480532248039303A90EF0D4FE99
:1032A00050BB1F4810F0DAFC30BB0224CDE90D40C2
:1032B00050230F9004251A480BA9CDE90B530FF0AA
:1032C00099FA0246C0B90123CDE908300A9007A94E
:1032D000134807940EF05EFD70B9CDE907042A4645
:1032E0000F4807A90EF056FD30B9CDE901000DEBEE
:1032F00005010B4810F064FD094804210FF0E6FEBB
:1033000048B9014606480FF0E1FE20B9074A0448D3
:1033100012210EF0DFF911B030BD00BF9D2D010864
:1033200084180020ED2E0108000C0040152F010824
:1033300010B5094C23686BB1042120460FF09CFFA7
:10334000002120460FF098FF322008F04BFC204669
:103350000DF0B8FE002010BD8418002001480EF0CA
:103360006BB800BF84180020014808F05BBE00BFA6
:1033700024180020014808F055BE00BFC4170020E3
:1033800010B514228AB0044600210DEB02002DF086
:103390009AFF2368224A934220D1224B22480021DF
:1033A00001911A6C42F008021A641A6C02F00802C9
:1033B0000192019A02911A6B42F001021A631B6B8F
:1033C00003F0010302930121029B0223CDE90513BF
:1033D000099305A909F04AFF0AB010BD134A9342A8
:1033E000FAD1104B1248002103911A6C42F00202EC
:1033F0001A641A6C02F002020392039A04911A6B87
:1034000042F004021A631B6B03F004030493049B51
:1034100040220223CDE90523099305A9DAE700BF7D
:10342000000C004000380240000002400004004050
:103430000008024010B504468EB01422002109A8ED
:103440002DF041FF2368B3F1804F20D103F50E33F7
:10345000002101911A6C42F001021A641A6C02F008
:1034600001020192019A02911A6B42F002021A6360
:103470001B6B03F002030293029B4FF48061022353
:10348000CDE9091301233C480D9309A922E03B4AE9
:10349000934227D13A4B002103911A6C42F0020269
:1034A0001A641A6C02F002020392039A04911A6BD6
:1034B00042F004021A631B6B03F004030493049BA1
:1034C000304B1B7853B9402309932F4802230A93AA
:1034D0000D9309A909F0CAFE0EB010BD042BFBD153
:1034E0008023F1E7294A934225D1254B00210591FC
:1034F0001A6C42F008021A641A6C02F00802059273
:10350000059A06911A6B42F001021A631B6B03F0D5
:1035100001030693069B1B4B1B783BB901230993C0
:1035200002231B480A930D9309A9D3E7042BD3D197
:1035300002230993F5E7174A9342CDD1104B00219E
:1035400007911A6C42F040021A641A6C02F04002B1
:103550000792079A08911A6B42F002021A631B6BDA
:1035600003F002030893089B4FF480420223CDE945
:103570000923092387E700BF00040240000400403C
:10358000003802403819002000080240000C0040BA
:103590000000024000180040FFF74CBF08B5036868
:1035A000B3F1804F0CD1082126480FF015FD264AB3
:1035B000136C23F0010313644FF48061234815E07A
:1035C000234A934216D1002122480FF005FD042121
:1035D00020480FF001FD1C4A1F48136C23F0020322
:1035E0004021136409F088FF1B488021BDE8084092
:1035F00009F082BF194A934213D1002118480FF0F5
:10360000EBFC042116480FF0E7FC0F4A1548136C39
:1036100023F008030121136409F06EFF1148022111
:10362000E4E7114A93420BD1002110480FF0D4FC7B
:10363000054A136C23F0400313644FF48041BDE747
:1036400008BD00BF581B00200038024000040240A3
:1036500000040040A41A002000080240000C0040B2
:10366000F019002000000240001800403C19002022
:1036700008B50368B3F1804F0FD12D480DF096FDCA
:1036800008212B480FF05EFB2A4A136C23F001033C
:1036900013644FF48061284818E0284A934219D1F6
:1036A00027480DF0F9FD002125480FF04BFB0421C0
:1036B00023480FF047FB1F4A2248136C23F00203F4
:1036C0004021136409F018FF1E488021BDE808401E
:1036D00009F012BF1C4A934216D11C480DF0DCFDC4
:1036E00000211A480FF02EFB042118480FF02AFB86
:1036F000104A1748136C23F008030121136409F0E2
:10370000FBFE13480221E1E7124A93420ED1124810
:103710000DF0C2FD002110480FF014FB054A136C98
:1037200023F0400313644FF48041B4E708BD00BFA9
:10373000581B0020003802400004024000040040F2
:10374000A41A002000080240000C0040F0190020DC
:1037500000000240001800403C1900200B4A0C48B1
:1037600008B5136C23F0020313640DF095FD0021DE
:1037700007480FF031FC042105480FF02DFCBDE88F
:1037800008400448402109F0B7BE00BF003802409D
:10379000A41A00200008024008B5114A03689342A9
:1037A00016D102F50B320F48136C23F00803136493
:1037B0000DF072FD00210B480FF00EFC04210948AA
:1037C0000FF00AFCBDE808400748012109F094BE4B
:1037D000064A934203D1BDE80840FFF7BFBF08BDCA
:1037E000000C0040F01900200000024000040040DE
:1037F00001380B2841D8DFE800F0061729403C408B
:1038000040404040403E1E4BD3ED037ADFED1D6A41
:103810001A68F8EE677A67EE807A87EEA67ABCEED1
:10382000C77A82ED0D7A0FE0174BDFED166AD3ED04
:10383000037A1A68F8EE677A67EE807A87EEA67ADE
:10384000BCEEC77A82ED0F7A002070470F4BD3EDA4
:10385000037ADFED0C6A1A68F8EE677A67EE807A11
:1038600087EEA67AFCEEC77AC2ED0D7AC2ED0E7A2B
:10387000EAE7074BEBE7074BC6E74FF48B7070475F
:103880000C1C002000007A44581B0020A41A0020C1
:10389000F01900203C190020013808B50B287FD80A
:1038A000DFE800F00622397E507E7E7E7E7E7E67D7
:1038B000DFED3F7A60EE277A17EE900AFCF76CFD99
:1038C00002460B4638A1D1E90001FCF7E7FE394B6F
:1038D0000022FCF701FCFDF78FF8374BD860184643
:1038E0000FF0A6FF002008BDDFED317A60EE277AE9
:1038F00017EE900AFCF750FD02460B462AA1D1E9CB
:103900000001FCF7CBFE2B4B0022FCF7E5FBFDF79B
:1039100073F82A4BE2E7DFED267A60EE277A17EE9E
:10392000900AFCF739FD02460B461FA1D1E90001C0
:10393000FCF7B4FE1F4B0022FCF7CEFBFDF75CF852
:103940001F4BCBE7DFED1A7A60EE277A17EE900A6D
:10395000FCF722FD02460B4613A1D1E90001FCF75A
:103960009DFE144B0022FCF7B7FBFDF745F8154B05
:10397000B4E7DFED0F7A60EE277A17EE900AFCF7D6
:103980000BFD02460B4608A1D1E90001FCF786FEBB
:10399000084B0022FCF7A0FBFDF72EF80A4B9DE731
:1039A0004FF48B709FE700BF000000002A7585412F
:1039B00000007A440000F03F0C1C0020581B00203F
:1039C000A41A0020F01900203C190020032A2DE938
:1039D000F04706460D4629D0052A48D1254F12F05A
:1039E0008FF800F59678002138460DF0C5FD0421CA
:1039F000824638460DF0C0FD0021814638460DF064
:103A0000BBFD8245044688BF00F58034CA4528BF07
:103A100009F5803912F074F84045A4EB0A0407D97F
:103A20000023336003202B60BDE8F087124FD6E7F8
:103A3000002CD8D0114BB3FBF4F307EE903AF8EE1C
:103A4000E77AA9EB0A09C6ED007A07EE909AB8EE7C
:103A5000677A07EE904AF8EE677A0020C7EE276A89
:103A6000DFED077A66EEA77AC5ED007ADCE74FF462
:103A70008B70D9E7F0190020A41A002040A5AE02EF
:103A80000000C84202392DE9F041064617460A29CE
:103A900036D8DFE801F0062635223535353535359F
:103AA0002400194D12F02CF800F596783946284676
:103AB0000DF062FD3946044628460DF05DFD844256
:103AC00088BF00F58030041B12F01AF840450AD96F
:103AD000002333600320BDE8F0810C4DE2E70C4D7C
:103AE000E0E70C4DDEE7002CE0D00B4BB3FBF4F32A
:103AF00007EE903AF8EEE77A0020C6ED007AEAE7A2
:103B00004FF48B70E7E700BF581B0020F01900202E
:103B10003C190020A41A002040A5AE0230B593B095
:103B200004461C2200210BA82DF0CDFB1022002101
:103B300003A82DF0C8FB1022002107A82DF0C3FB1D
:103B40005F4A604B136000214FF6FF73C2E90331F7
:103B50005D4B91610125202CCDE90111C2E9015194
:103B6000197028D1594A564806210DF0B3FD544822
:103B70000FF0C2FF0446D8B94FF480535048079362
:103B800007A90EF061FA044690B96023CDE90B3025
:103B90000D900F9002460BA949480DF09FFF044677
:103BA00030B947480DF002FB454821460FF018F8A0
:103BB000204613B030BD402C2ED1454A404802214A
:103BC0000DF088FD3E4810F049F804460028EFD17A
:103BD0004FF480533A48079307A90EF035FA04468C
:103BE0000028E5D1CDE9010001A9354810F0E8F839
:103BF00004460028DCD1CDE90305CDE905000246E5
:103C000003A92F480EF0C6F804460028D0D101467B
:103C10002B480FF01FF9CBE7802C42D12D4A2848C2
:103C20000DF058FD26480FF003FE04460028BFD1D2
:103C30004FF480532248079307A90EF005FA044673
:103C40000028B5D11E4810F009F804460028AFD16D
:103C5000CDE9010001A91A4810F0B2F80446002885
:103C6000A6D1CDE90305CDE90500024603A9144814
:103C70000EF090F8044600289AD10223104804223E
:103C800003A9CDE903330EF085F8044600288FD14F
:103C90000B480DF08BFA214609480FF0DBF80421A0
:103CA000B6E7B4F5007F01D0002481E70448FFF7B0
:103CB00073FD0348FFF772FC0148FFF7D9FCF3E7F7
:103CC000F0190020000C004038190020353401089C
:103CD000993501088133010870B592B004461C2261
:103CE00000210BA82DF0EFFA1022002103A82DF0DF
:103CF000EAFA1022002107A82DF0E5FA5F4A604B8E
:103D0000136000214FF6FF73C2E903315D4B9161EF
:103D100001260425202CCDE90111C2E901611D70A5
:103D200028D1594A554806210DF0D4FC53480FF0CC
:103D3000E3FE0446D8B94FF480535048079307A9CF
:103D40000EF082F9044690B96023CDE90B300D9056
:103D50000F902A4649480BA90DF0C0FE044630B921
:103D600046480DF023FA454829460EF039FF204613
:103D700012B070BD402C2ED1444A404802210DF0B3
:103D8000A9FC3E480FF06AFF04460028EFD14FF42B
:103D900080533A48079307A90EF056F904460028C5
:103DA000E5D1CDE9010001A9344810F009F8044635
:103DB0000028DCD1CDE90306CDE905002A462F48CD
:103DC00003A90DF0E7FF04460028D0D129462B486F
:103DD0000FF040F8CBE7802C41D12D4A27480DF059
:103DE00079FC26480FF024FD04460028BFD14FF48B
:103DF00080532248079307A90EF026F904460028AD
:103E0000B5D11E480FF02AFF04460028AFD1CDE9F6
:103E1000010001A919480FF0D3FF04460028A6D1DC
:103E2000CDE90306CDE905002A46144803A90DF0A3
:103E3000B1FF044600289AD10223024603A90F4885
:103E4000CDE903330DF0A6FF044600288FD10B48BF
:103E50000DF0ACF9214609480EF0FCFFB6E7B4F5C9
:103E6000007F01D0002482E70448FFF795FC034857
:103E7000FFF794FB0148FFF7FBFBF3E7F019002085
:103E8000000C00403819002035340108993501082C
:103E90008133010830B593B004461C2200210BA8E1
:103EA0002DF011FA1022002103A82DF00CFA102297
:103EB000002107A82DF007FA39493A4A0A60002381
:103EC00001254FF6FF72402CCDE90133C1E90153C2
:103ED000C1E903238B612CD1334A314802210DF013
:103EE000F9FB2F480FF0BAFE0446F8B94FF480539F
:103EF0002B48079307A90EF0A7F80446B0B9CDE9FF
:103F0000010001A926480FF05BFF044670B9CDE916
:103F10000305CDE90500024603A921480DF03AFF4B
:103F2000044618B901461E480EF094FF204613B00F
:103F300030BD202C27D11A480FF0DEFD04460028A2
:103F4000F4D11748FFF776FA4FF4805314480793DB
:103F500007A90EF079F804460028E7D16023CDE9DF
:103F60000B300D900F9002460BA90D480DF0B6FDD9
:103F700004460028DAD10A480DF018F9214608480D
:103F80000EF02EFED2E7B4F5007F01D00024CDE77D
:103F90000348FFF703FB0248FFF76AFBF6E700BFA1
:103FA0003C190020001800409935010830B593B045
:103FB00004461C2200210BA82DF085F910220021B7
:103FC00003A82DF080F91022002107A82DF07BF91D
:103FD0003A494FF0804200230A6001254FF6FF72F4
:103FE000402CCDE90133C1E90153C1E903238B61C1
:103FF0002CD1334A314802210DF06CFB2F480FF0D1
:104000002DFE0446F8B94FF480532C48079307A9B6
:104010000EF01AF80446B0B9CDE9010001A927480D
:104020000FF0CEFE044670B9CDE90305CDE90500D9
:104030000822224803A90DF0ADFE044618B91F4816
:1040400008210EF007FF204613B030BD202C29D1E7
:104050001C4A1A4806210DF03DFB18480FF04CFD94
:1040600004460028EFD14FF480531448079307A962
:104070000DF0EAFF04460028E5D16023CDE90B30BE
:104080000D900F9008220D480BA90DF027FD044656
:104090000028D8D109480DF089F8082107480EF00A
:1040A0009FFDD0E7B4F5007F01D00024CBE70348A3
:1040B000FFF774FA0148FFF7DBFAF6E7581B002018
:1040C000993501083534010870B592B004461C22B8
:1040D00000210BA82DF0F7F81022002103A82DF0E5
:1040E000F2F81022002107A82DF0EDF8674A684B7E
:1040F000136000214FF6FF73C2E90331654B9161F4
:1041000001260425202CCDE90111C2E901611D70B1
:1041100028D1614A5D4806210DF0DCFA5B480FF0BA
:10412000EBFC0446D8B94FF480535848079307A9CD
:104130000DF08AFF044690B96023CDE90B300D9055
:104140000F902A4651480BA90DF0C8FC044630B91F
:104150004E480DF02BF84D4829460EF041FD204603
:1041600012B070BD402C2ED14C4A484802210DF0AF
:10417000B1FA46480FF072FD04460028EFD14FF423
:1041800080534248079307A90DF05EFF04460028BC
:10419000E5D1CDE9010001A93C480FF011FE04462C
:1041A0000028DCD1CDE90306CDE905002A463748D1
:1041B00003A90DF0EFFD04460028D0D1294633486D
:1041C0000EF048FECBE7802C41D1354A2F480DF048
:1041D00081FA2E480FF02CFB04460028BFD14FF483
:1041E00080532A48079307A90DF02EFF04460028A4
:1041F000B5D126480FF032FD04460028AFD1CDE9F5
:10420000010001A921480FF0DBFD04460028A6D1DA
:10421000CDE90306CDE905002A461C4803A90DF0A7
:10422000B9FD044600289AD10223024603A9174883
:10423000CDE903330DF0AEFD044600288FD11348BD
:104240000CF0B4FF214611480EF004FEB6E7B4F5B9
:10425000007F01D0002482E7124A0C4807210DF0AC
:1042600039FA0A48FFF79AF90F4A084803210DF076
:1042700031FA0648FFF7FCF90C4A044831460DF0C4
:1042800029FA0248FFF788FAE4E700BFA41A0020E1
:104290000004004038190020353401089935010820
:1042A000813301089D3501087136010899370108ED
:1042B00030B593B004461C2200210BA82DF003F862
:1042C0001022002103A82CF0FEFF1022002107A8D5
:1042D0002CF0F9FF5F4A604B136000214FF6FF732B
:1042E000C2E903315D4B91610125202CCDE901111B
:1042F000C2E90151197028D1594A564806210DF0DA
:10430000E9F954480FF0F8FB0446D8B94FF480534C
:104310005048079307A90DF097FE044690B9602313
:10432000CDE90B300D900F9002460BA949480DF0D6
:10433000D5FB044630B947480CF038FF45482146C4
:104340000EF04EFC204613B030BD402C2ED1454A15
:10435000404802210DF0BEF93E480FF07FFC0446B4
:104360000028EFD14FF480533A48079307A90DF086
:104370006BFE04460028E5D1CDE9010001A93548CE
:104380000FF01EFD04460028DCD1CDE90305CDE980
:104390000500024603A92F480DF0FCFC0446002846
:1043A000D0D101462B480EF055FDCBE7802C42D1F1
:1043B0002D4A28480DF08EF926480FF039FA0446A8
:1043C0000028BFD14FF480532248079307A90DF06E
:1043D0003BFE04460028B5D11E480FF03FFC0446C2
:1043E0000028AFD1CDE9010001A91A480FF0E8FC7F
:1043F00004460028A6D1CDE90305CDE90500024613
:1044000003A914480DF0C6FC044600289AD10223E3
:104410001048042203A9CDE903330DF0BBFC044688
:1044200000288FD10B480CF0C1FE214609480EF040
:1044300011FD0421B6E7B4F5007F01D0002481E727
:10444000FFF78CF90348FFF7A9F80248FFF710F9C6
:10445000F4E700BFA41A002000040040381900202F
:1044600035340108993501088133010808B5084839
:104470000022102109F002F905480122802109F0EB
:10448000FDF803480122102109F0F8F8002008BDCA
:104490000010024008B508480022102109F0EEF88B
:1044A00005480022802109F0E9F803480122102183
:1044B00009F0E4F8002008BD0010024008B50348E8
:1044C0000022102109F0DAF8002008BD0010024097
:1044D00013B5084614460DF107030722002115F015
:1044E00067FA90B99DF80730072B9FBF0B4A0C491C
:1044F00052F8232031F8133084BF03460246A10747
:1045000005D008490A60084A138002B010BD61074F
:10451000FBD506490A60064AF6E700BF4CE30408EB
:104520003CE30408D01C0020CC1C0020C81C002048
:10453000C41C00202DE9F04FADF21C4D14460DF1C6
:104540001609002362068A46A9F8003003D584F0D4
:1045500040049A4E04E02306FBD5994E84F0800473
:10456000A4F11303032B39D8944B9E4284F010041A
:1045700041D0944B1F68944BB3F80080002F3DD17D
:10458000032C01D0062C08D14B46FF2201215046B6
:1045900015F003FA834600284AD1231F022B61D865
:1045A00006AB03930025F16800294CD106AB2B44E0
:1045B000FF22504615F0FCF9834600284BD1039B9F
:1045C00001350233B5F5807F0393ECD1ADB2033CE6
:1045D000032C7AD8DFE804F04A8189B7A4F12303D9
:1045E000032B15D8754B9E4284F020040CD0774BDA
:1045F0001F68774BC0E7774F4FF010080022414605
:10460000384609F03BF8BBE7734F4FF00108F5E778
:10461000631E012B11D805AB4FF6FF7200215046E7
:1046200015F0BBF9834618B9012C09D04FF0010BE6
:1046300058460DF21C4DBDE8F08F0027B8469FE7A5
:1046400007468046A0E7039B4FF6FF7200215046C5
:1046500015F0A3F9B0E740F23D129042E8D1002DE9
:10466000B4D1E5E74FF0010B0025B0E7B9F8002021
:10467000642386A930460CF013FB834628BBF268FE
:1046800086ACE2B15D451EDDBBF1000F02D02C20EF
:104690002CF0BEFA34F8021B50482CF073FA0BF1E0
:1046A000010BEFE7BBF1000F02D02C202CF0B0FA89
:1046B00014F8011B4A482CF065FA0BF1010BB9F80C
:1046C00000205A45EEDC4FF0000B002FB0D0012245
:1046D0004146384608F0D2FFAAE764232A4606A9D5
:1046E00030460CF01BF98346EFE76423009386AA5B
:1046F0002B4606A930460CF0CDF983460028E4D1BC
:10470000F26886ACE2B15D45DDDDBBF1000F02D0A1
:104710002C202CF07DFA34F8021B30482CF032FAB1
:104720000BF1010BEFE7BBF1000F02D02C202CF0B6
:104730006FFA14F8011B2A482CF024FA0BF1010B34
:104740005D45F0DCBFE764232A4606A930460CF03D
:10475000E5F883460028B8D1B9F80020642386A97B
:1047600030460CF09DFA83460028AED1F26886AC44
:10477000F2B1B9F800205A45A5DDBBF1000F02D017
:104780002C202CF045FA34F8021B14482CF0FAF9CE
:104790000BF1010BEDE7BBF1000F02D02C202CF048
:1047A00037FA14F8011B0E482CF0ECF90BF1010B51
:1047B000B9F800205A45EEDC85E700BFC03800207C
:1047C00068380020D01C0020CC1C0020C81C002011
:1047D000C41C00200000024000040240A2DB0408C8
:1047E000A965040808B50A48102108F035FF68B12A
:1047F0008021074808F030FF0649074B002818BF02
:10480000194606482CF0BEF9002008BD0449F8E717
:10481000001002407F760408877604081CB0040864
:1048200048A7040870B50846510686B035D59207EA
:104830000DF103011AD014F069FE044698B9CDE9D0
:104840000300059010252D48012301A9CDE901534E
:1048500008F00CFD9DF803202848003A18BF0122FB
:10486000294608F00BFF204606B070BD14F04EFE3E
:1048700004460028F7D1CDE9030005900125204822
:1048800001A9CDE9015508F0F1FC9DF803201C4871
:10489000003A18BF01222946E3E712F08004E2D073
:1048A00093070DF1030119D014F030FE04460028DF
:1048B000D9D1144E144D33880193CDE9030001235F
:1048C00005900293286801A908F0D0FC9DF8032008
:1048D00031882868003A18BF0122C2E714F016FE9A
:1048E00004460028BFD1094E094D338801930123A6
:1048F000CDE9030005900293E4E700BF0000024009
:1049000000040240CC1C0020D01C0020C41C00204D
:10491000C81C002070B5294C236886B00D465BB9D1
:10492000CDE90333059301265723254801A9CDE995
:10493000013608F09BFC266001A9284614F0E6FD2C
:104940000446C0BB0DF10501284614F0DFFD044606
:1049500088BB0DF10601284614F0D8FD044650BB73
:104960000DF10701284614F0D1FD044618BB02A939
:10497000284614F0CBFD0446E8B99DF80420104801
:10498000012108F07BFE9DF805200D48022108F06A
:1049900075FE9DF806200A48042108F06FFE9DF878
:1049A00007200748102108F069FE9DF808200448F8
:1049B000402108F063FE204606B070BDC01C0020F8
:1049C000000C0240F0B5274B274E802A18BF1E4628
:1049D000351D0F460FCD8DB001AC0FC40FCD0FC4E8
:1049E00095E807000DF1020384E807004FF4807298
:1049F0000221384614F0D1FF341D30BBBDF802301F
:104A0000202B24D00CD8082B23D005D8022B0FD074
:104A1000042B20D0162018E0102BFBD1182007E023
:104A2000802B1AD0B3F5807F19D0402BF2D12820EB
:104A3000079001AD0FCD0FC40FCD0FC495E807004F
:104A400084E8070030460BF029FE0DB0F0BD184693
:104A5000EEE71020ECE70820EAE73020E8E738200E
:104A6000E6E700BFC03800206838002013B50023F7
:104A700008460DF1070114468DF8073014F046FD85
:104A800038B9112C26D006DC012C0ED0022C18D0FF
:104A9000162002B010BD122CFAD19DF80730114A31
:104AA000003B18BF01235B0012E09DF807300E4A5F
:104AB000003B18BF01235B00136110460BF0EEFDB5
:104AC000E7E79DF80730084A003B18BF01235B0069
:104AD0005361F2E79DF80730024A003B18BF0123FB
:104AE0005B00E9E768380020C038002013B50023D8
:104AF00008460DF1070114468DF8073014F006FD45
:104B000020B9402C04D0802C0ED0162002B010BD4D
:104B10009DF80730084A003B18BF0123DB011362F0
:104B200010460BF0BBFDF1E79DF80730034A003B50
:104B300018BF0123DB01F2E7C038002068380020ED
:104B400013B5002308460DF1070114468DF8073010
:104B500014F0DCFC20B9402C04D0802C0ED01620A0
:104B600002B010BD9DF80730084A003B18BF012372
:104B7000DB02D36010460BF091FDF1E79DF80730A2
:104B8000034A003B18BF0123DB02F2E7C0380020D4
:104B90006838002013B5002308460DF107011446BC
:104BA0008DF8073014F0B2FC20B9402C04D0802CD2
:104BB0000ED0162002B010BD9DF80730084A003B09
:104BC00018BF01231B01536210460BF067FDF1E78C
:104BD0009DF80730034A003B18BF01231B01F2E791
:104BE000C0380020683800202DE9F04186B0084622
:104BF000144600210DF1030303228DF8031014F075
:104C0000D7FE48B1B0F58B7F03D040F23D139842F8
:104C100007D102238DF80330402C05D0802C4BD0D7
:104C2000162006B0BDE8F0819DF80340012C19D094
:104C3000022C25D07CB9CDE90344504805940125C8
:104C4000102401A9CDE9014508F010FB4B482A4684
:104C5000214608F013FD4A4806F054F948480BF085
:104C60001DFDDEE700234748059301A9CDE9033385
:104C7000CDE9014408F0FAFA224642481146E8E735
:104C8000002401253D480594102601A9CDE90344DF
:104C9000CDE9016508F0EAFA2A463848314608F0BD
:104CA000EDFC3848059401A9CDE90344CDE901554F
:104CB00008F0DCFA2A46E0E79DF80340012C19D001
:104CC000022C31D05CBB2F4D0594CDE90344012665
:104CD0004FF4804401A92846CDE9014608F0C6FA00
:104CE00032462146284608F0C9FC274B1D60274B59
:104CF0001C8014E0234E0023022501A93046CDE993
:104D000003330593CDE9015408F0B0FA2246294651
:104D1000304608F0B3FC1E4B1E601E4B1D801E4823
:104D200006F0F0F81C489AE7164D002601274FF4CC
:104D3000804801A92846CDE90366CDE9018705969B
:104D400008F094FA3A464146284608F097FC0E4B84
:104D500005961D600D4B01A92846A3F80080CDE9FA
:104D60000366CDE9014708F081FA3A462146284614
:104D700008F084FC064B1D60064BB9E700000240BA
:104D8000C038002000040240D01C0020CC1C0020B1
:104D9000C81C0020C41C002068380020000000004F
:104DA000F7B51546002A66D0012A7CD0624C616AAC
:104DB000624B634A6348002918BF1A4611462BF01C
:104DC000E1FEE168604B614A6148002918BF1A465C
:104DD00011462BF0D7FE216A5E4B5F4A5F480029DF
:104DE00018BF1A4611462BF0CDFE21695C4B5D4A77
:104DF0005D48002918BF1A4611462BF0C3FE6169B1
:104E00005A4B5B4A5B48002918BF1A4611462BF0E3
:104E1000B9FEE469202C6DD063D8102C69D05CD821
:104E2000002C7CD0082C7CD053482BF04FFFFDB9D0
:104E30000121524808F010FC022104464F4808F0B6
:104E40000BFC042105464D4808F006FC10210646DF
:104E50004A4808F001FC40210746484808F0FCFB9E
:104E60003346CDE900702A46454821462BF08AFE9C
:104E7000002003B0F0BD10214248434C08F0ECFB89
:104E80004249002818BF214641482BF07BFE0121F2
:104E9000404808F0E1FB3D49002818BF21463E4844
:104EA0002BF070FE82E74FF480413A48364C08F010
:104EB000D3FB3649002818BF214635482BF062FE47
:104EC0000221344808F0C8FB3049002818BF2146A9
:104ED0003148324C2BF056FE69E7182CA4D110242F
:104EE00008E0302C1FD0382C1FD0282C9CD1402417
:104EF00000E008242046FBF73DFA02460B460CA1D1
:104F0000D1E90001FBF7CAFB254B0022FBF7C6FBEA
:104F100002460B46234821462BF034FE87E7022445
:104F2000E8E70424E6E78024E4E74FF48074E1E74F
:104F3000000000002A759541C03800208E770408D3
:104F4000167504085D7504081F75040825750408A6
:104F50006F7504082A7504082E7504088175040805
:104F6000F8A704082BE00408937504084D7804089A
:104F700032750408A5750408B7750408000C0240D2
:104F8000FD750408000002408B53040828D1040872
:104F900039750408000402404B7504086838002085
:104FA00000408F40D5750408500638B50ED5102145
:104FB0002C4808F051FB2C4B1B68996820B131201C
:104FC0002BF062FD002038BD3020F9E71106F9D53D
:104FD000930718D0254B1D68254B1C882146284671
:104FE00008F03AFB204B1B689968A8B121482BF0C8
:104FF000A3FD214B9D421ED1B4F5806F0ED11F48F9
:105000002BF0C0FDDEE712F0040403D01C4B1D683A
:105010001C4BE2E72546E1E71B48E8E7B4F5006FE3
:1050200001D11A48ECE7402C01D11948E8E7802C5F
:10503000C8D11848E4E7184B9D4208D1022C01D191
:105040001648DDE7B4F5804FBCD11548D8E7054BCD
:105050009D42B7D1022C01D11248D1E7012CB1D128
:105060001148CDE70000024028030020D01C00209A
:10507000CC1C0020167604080008024019760408AB
:10508000C81C0020C41C00202A6F04081C760408D9
:10509000EE7804082D67040800040240B66A04088C
:1050A0001F760408F280040815530408402A08B546
:1050B00003D0802A08D0162008BD064805F0A4FFBA
:1050C00004480BF0FBFBF7E7034805F09DFF02489F
:1050D000F7E700BFC03800206838002010B504464C
:1050E00088B01422002103A82CF0EDF82268134B9D
:1050F0009A4221D103F5F633002101911A6C104830
:1051000042F400221A641A6C02F400220192019AFD
:1051100002911A6B42F001021A631B6B03F0010348
:105120000293029B02220323CDE90332069303A9D3
:105130000823079308F09AF808B010BD004C00400F
:10514000000002400268064B9A4208D1054A064810
:10515000136C23F400231364032108F0CDB97047C6
:10516000004C0040003802400000024008B5104AE0
:1051700010480B210EF096FF0F4A0E480C210EF03E
:1051800091FF0C490D4B0B604FF4E1320023C1E954
:10519000012308460C22C1E90333C1E90523CB6191
:1051A0000FF094F818B1BDE8084005F0FBBC08BD4D
:1051B000DD500108D41C002045510108004C00407E
:1051C0000148FFF7BFBF00BFD41C002010B51B4B28
:1051D0001B4C1C48012A18BF1C4661682BF0D2FCEE
:1051E000A168194B194A1A48002918BF1A461146D6
:1051F0002BF0C8FCE168174B174A1848002918BF64
:105200001A4611462BF0BEFC2369A3B11449154A76
:10521000B3F5806F08BF114613482BF0B3FCE1696A
:105220000A4B124A1248002918BF1A4611462BF0A1
:10523000A9FC002010BD0F49EEE700BF343B002061
:10524000D41C00209B7F0408897F04088B7F0408FE
:10525000AF7F04081ED104088B530408C27F0408E2
:105260008D7F0408967F0408D57F0408B87704086A
:10527000E87F0408917F04082DE9F043C3B00DF1E5
:1052800006070023062A884616463B8000F2B680B1
:105290005A23D340DB0707D53B46FF220121404676
:1052A00014F07BFB044640BB032E0BDC012E0CDC10
:1052B0000022013E052E00F2A480DFE806F0223C29
:1052C00043637B7F731F012BF2D800250DF1080982
:1052D00009EB0503FF220021404614F069FB044658
:1052E00028B90135B5F5807FF2D1AAB2E1E740F2E5
:1052F0003D13984201D1002DF7D1204643B0BDE8BF
:10530000F0833A884048642302A90EF061FF044606
:105310000028F2D102AD3B88A34201DC0024ECE777
:1053200014B12C202BF074FC15F8011B37482BF01E
:1053300029FC0134EFE73448642302A90EF0FAFE99
:105340000446DAE73048642302A90EF0F3FE04466F
:105350000028D2D13A882C48642302A90EF038FFE5
:1053600004460028C9D102AD3B88A342D6DD14B162
:105370002C202BF04DFC15F8011B24482BF002FCCF
:105380000134F1E73A882248642302A90EF020FF95
:1053900004460028B1D102AD3B88A342BEDD14B162
:1053A0002C202BF035FC15F8011B18482BF0EAFBDC
:1053B0000134F1E71648642302A9BFE714486423C7
:1053C00002A90EF0B7FE0446002896D13A8810488C
:1053D000642302A90EF0FCFE044600288DD102AD24
:1053E0003B88A3429ADD14B12C202BF011FC15F858
:1053F000011B06482BF0C6FB0134F1E7032A7FF7B7
:1054000057AF012479E700BF343B0020A9650408A9
:10541000D41C002007B50846032A32D8DFE802F082
:105420000215212F0DF1070114F070F850B99DF805
:105430000730154AB3FA83F35B09DB03D3611046E7
:105440000EF044FF03B05DF804FB0F4BDB690F481F
:10545000B3F5004F14BF102108212BF093FB00205F
:10546000F0E70DF1070114F051F80028EAD19DF89A
:105470000730074AB3FA83F35B09DB03DEE7044B2B
:10548000E4E71620DEE700BF343B0020FB7F040882
:10549000D41C002007B50846032A50D8DFE802F0E4
:1054A00002212F4B0DF107030222002114F080FA94
:1054B00038B99DF807303BB9224A136121480EF0F4
:1054C00005FF03B05DF804FB012B04D11D4B4FF425
:1054D000C0621A61F2E7022BF0D11A4B4FF48062DE
:1054E000F7E7184B1B6943B31749184AB3F5806FA8
:1054F00008BF114616482BF045FB0020E1E70DF1EF
:1055000007030222002114F053FA0028D9D19DF894
:1055100007301BB90F4A13610E48D0E7012B04D1A5
:105520000C4B4FF4C0621A61F6E7022BF4D1094B21
:105530004FF48062F7E7074BD4E70749DAE7162014
:10554000BFE700BF343B00208D7F0408967F04082E
:10555000DC7F0408D41C0020917F040807B5023AC0
:105560000846032A21D8DFE802F0021722320DF1A3
:1055700007030222012114F01BFA50B99DF80730ED
:10558000144A013B18BF01235B03D36010460EF0A1
:105590009DFE03B05DF804FB0E4BDB680E48002B4C
:1055A00014BF022101212BF0EDFA0020F1E70DF1EB
:1055B00007030222012114F0FBF90028E9D19DF82C
:1055C0000730064A013B18BF01235B03DDE7034BAD
:1055D000E3E700BF343B00200C800408D41C00200B
:1055E00007B50846032A31D8DFE802F00215202E5D
:1055F0000DF1070113F08AFF50B99DF80730144AE6
:10560000003B18BF01231B03936010460EF05EFEA3
:1056100003B05DF804FB0E4B9B680E48002B14BFD3
:10562000092108212BF0AEFA0020F1E70DF1070166
:1056300013F06CFF0028EBD19DF80730064A003BC1
:1056400018BF01231B03DFE7034BE5E71620DFE765
:10565000343B002019800408D41C0020022A37B5EE
:105660000846144601D0042A1DD1304D01AB2A460C
:10567000002114F04BF900284ED10199B1F5614F8A
:105680000ED023D8B1F5165F0AD016D8B1F5166F33
:1056900006D00FD8B1F5967F02D0B1F5966F42D102
:1056A00023482BF06FFA023C032C34D8DFE804F0D7
:1056B000272E3639B1F5965FF1E7B1F5964FEFD069
:1056C000B1F5164FECD0B1F5615FE8E7194B99429F
:1056D000E6D00CD8B1F5E12FE2D005D8B1F5E13F25
:1056E000DED0B1F5613FDAE7B1F5612FD7E7124BB4
:1056F0009942D5D0A942D3D0104B9942CFE7019B14
:105700000F4A536010460EF0E1FD05E00C4B59685E
:105710000C482BF037FA002003B030BD019B0A4A39
:10572000EFE7094BF3E71620F6E700BFA0252600B8
:105730002E80040840420F0080841E0060E31600A3
:10574000343B002044800408D41C0020032A08B500
:1057500003D0042A05D0002008BD034805F062FEEE
:10576000F9E7FFF72DFDF6E7343B0020012A08B5E5
:1057700003D0022A05D0002008BD034805F0E6FD4D
:10578000F9E7FFF7F3FCF6E7343B0020034B1A7808
:10579000FF2A04BF00221A70704700BF4C1D002072
:1057A00010B5044B044800241C702BF08FFA2046DF
:1057B00010BD00BF4C1D0020D685040807B500238E
:1057C00008460DF107018DF8073013F09FFE9DF894
:1057D00007100348012200F0A5FB03B05DF804FBAD
:1057E0004C1D002008B500F0C5FC002008BD0000DD
:1057F00008B50348042113F085FC002008BD00BF54
:105800004C1D002007B54FF0FF330193084601AB54
:105810004FF48062002114F03DF8019A04480123FE
:105820004FF4805100F0E2FA03B05DF804FB00BFD2
:105830004C1D00200346B3F5867F084611460BD069
:10584000B3F58B7F024605D0B3F5817F07D10548BC
:105850002BF098B90448FBE704482BF093B90448AF
:105860002BF090B93D86040855860408718604081B
:105870008B86040870B590B008464022694613F044
:1058800027FE054610BB2E216846FFF77FFF2BF051
:105890003FFD0446A8B305704FF4805028F0E4FFA4
:1058A0000423064602466946194813F021F810B150
:1058B000184A694607E001342146304613F05EFA83
:1058C00038B1144A2146FFF7B5FF0125284610B02C
:1058D00070BD0F48694613F051FA10B1B0F5817FE1
:1058E000E6D10B484FF480533246694613F002FC70
:1058F0000028DDD1304628F0BFFF07482BF0E6F93D
:10590000E4E70348694613F039FA0028F5D0CFE7F9
