:020000040800F2
:1000000000000220FDAE0108D9AB0108DDAB0108FC
:10001000F9AB0108FBAB0108FDAB010800000000D3
:1000200000000000000000000000000091790208BC
:10003000FFAB010800000000217A0208857A02085F
:100040004DAF01084DAF01084DAF01084DAF01089C
:100050004DAF01084DAF01084DAF01084DAF01088C
:100060004DAF01084DAF01084DAF01084DAF01087C
:100070004DAF0108693301084DAF01087533010820
:100080004DAF01084DAF01084DAF01084DAF01085C
:100090004DAF01084DAF01084DAF01084DAF01084C
:1000A000058E02084DAF01084DAF01084DAF0108A4
:1000B0004DAF01084DAF01084DAF01084DAF01082C
:1000C0004DAF01084DAF01084DAF01084DAF01081C
:1000D0004DAF01084DAF01080D9C02084DAF01085E
:1000E0004DAF01084DAF01084DAF01084DAF0108FC
:1000F0004DAF01084DAF01084DAF01084DAF0108EC
:100100004DAF01084DAF01085D3301084DAF010847
:100110004DAF01084DAF010801AC01084DAF01081A
:100120004DAF01084DAF01084DAF01084DAF0108BB
:100130004DAF010800000000000000004DAF0108B5
:100140004DAF01084DAF01084DAF01080DAC0108DE
:100150004DAF01084DAF01084DAF01084DAF01088B
:100160004DAF01084DAF01084DAF01084DAF01087B
:100170004DAF01084DAF01084DAF01080000000070
:10018000000000004DAF010800000000000000006A
:100190004DAF010800000000000000004DAF010855
:1001A0000000000000000000000000004DAF01084A
:1001B0004DAF01084DAF01084DAF01084DAF01082B
:0401C0004DAF010836
:020000040801F1
:1000000010F8012B11F8013B012A28BF9A42F7D0C2
:10001000D01A70470000000000000000000000003F
:1000200001F0FF01102A2BDB10F0070F08D010F8A9
:10003000013B013A8B422DD010F0070F42B3F6D1AD
:10004000F0B441EA012141EA014122F007047FF0C6
:1000500000070023F0E80256083C85EA010586EA1D
:10006000010685FA47F5A3FA87F586FA47F6A5FA59
:1000700087F68EB9EED1F0BC01F0FF0102F0070265
:1000800032B110F8013B013A83EA010313B1F8D110
:100090000020704701387047002D06BF35460338F1
:1000A000073815F0010F07D1013015F4807F02BF2A
:1000B000013015F4C03F0130F0BC0138704700BF7B
:1000C000034613F8012B002AFBD1181A0138704798
:1000D00081F0004102E000BF83F0004330B54FEAF9
:1000E00041044FEA430594EA050F08BF90EA020F66
:1000F0001FBF54EA000C55EA020C7FEA645C7FEAF9
:10010000655C00F0E2804FEA5454D4EB5555B8BF1B
:100110006D420CDD2C4480EA020281EA030382EA8C
:10012000000083EA010180EA020281EA0303362D1E
:1001300088BF30BD11F0004F4FEA01314FF4801CF1
:100140004CEA113102D0404261EB410113F0004F03
:100150004FEA03334CEA133302D0524263EB4303BA
:1001600094EA050F00F0A780A4F10104D5F1200E58
:100170000DDB02FA0EFC22FA05F2801841F10001B3
:1001800003FA0EF2801843FA05F359410EE0A5F187
:1001900020050EF1200E012A03FA0EFC28BF4CF0B8
:1001A000020C43FA05F3C01851EBE37101F000456E
:1001B00007D54FF0000EDCF1000C7EEB00006EEB7B
:1001C0000101B1F5801F1BD3B1F5001F0CD3490805
:1001D0005FEA30004FEA3C0C04F101044FEA44525C
:1001E00012F5800F80F09A80BCF1004F08BF5FEAE3
:1001F000500C50F1000041EB045141EA050130BDC3
:100200005FEA4C0C404141EB0101013C28BFB1F5D4
:10021000801FE9D291F0000F04BF01460020B1FA1F
:1002200081F308BF2033A3F10B03B3F120020CDAF2
:100230000C3208DD02F1140CC2F10C0201FA0CF0D0
:1002400021FA02F10CE002F11402D8BFC2F1200C35
:1002500001FA02F120FA0CFCDCBF41EA0C019040EB
:10026000E41AA2BF01EB0451294330BD6FEA040434
:100270001F3C1CDA0C340EDC04F11404C4F120021F
:1002800020FA04F001FA02F340EA030021FA04F331
:1002900045EA030130BDC4F10C04C4F1200220FA88
:1002A00002F001FA04F340EA0300294630BD21FAC6
:1002B00004F0294630BD94F0000F83F4801306BF8C
:1002C00081F480110134013D4EE77FEA645C18BF80
:1002D0007FEA655C29D094EA050F08BF90EA020F17
:1002E00005D054EA000C04BF1946104630BD91EA0F
:1002F000030F1EBF0021002030BD5FEA545C05D112
:100300004000494128BF41F0004130BD14F5800450
:100310003CBF01F5801130BD01F0004545F0FE41C4
:1003200041F470014FF0000030BD7FEA645C1ABFF9
:10033000194610467FEA655C1CBF0B46024650EA30
:10034000013406BF52EA033591EA030F41F400215C
:1003500030BD00BF90F0000F04BF0021704730B5E2
:100360004FF4806404F132044FF000054FF00001B7
:1003700050E700BF90F0000F04BF0021704730B578
:100380004FF4806404F1320410F0004548BF40424D
:100390004FF000013EE700BF42004FEAE2014FEAA2
:1003A00031014FEA02701FBF12F07F4393F07F4F7D
:1003B00081F06051704732F07F4208BF704793F080
:1003C0007F4F04BF41F40021704730B54FF4607493
:1003D00001F0004521F000411CE700BF50EA010296
:1003E00008BF704730B54FF000050AE050EA01023F
:1003F00008BF704730B511F0004502D5404261EBAF
:1004000041014FF4806404F132045FEA915C3FF4EF
:10041000D8AE4FF003025FEADC0C18BF03325FEA8C
:10042000DC0C18BF033202EBDC02C2F1200300FA3D
:1004300003FC20FA02F001FA03FE40EA0E0021FA62
:1004400002F11444BDE600BF70B54FF0FF0C4CF450
:10045000E06C1CEA11541DBF1CEA135594EA0C0F02
:1004600095EA0C0F00F0DEF82C4481EA030621EA3D
:100470004C5123EA4C5350EA013518BF52EA033578
:1004800041F4801143F4801338D0A0FB02CE4FF02A
:100490000005E1FB02E506F00042E0FB03E54FF05A
:1004A0000006E1FB03569CF0000F18BF4EF0010E52
:1004B000A4F1FF04B6F5007F64F5407404D25FEA4E
:1004C0004E0E6D4146EB060642EAC62141EA555101
:1004D0004FEAC52040EA5E504FEACE2EB4F1FD0C43
:1004E00088BFBCF5E06F1ED8BEF1004F08BF5FEAC1
:1004F000500E50F1000041EB045170BD06F0004673
:1005000046EA010140EA020081EA0301B4EB5C041F
:10051000C2BFD4EB0C0541EA045170BD41F4801117
:100520004FF0000E013C00F3AB8014F1360FDEBF3C
:10053000002001F0004170BDC4F10004203C35DA18
:100540000C341BDC04F11404C4F1200500FA05F39B
:1005500020FA04F001FA05F240EA020001F000423C
:1005600021F0004110EBD37021FA04F642EB0601B2
:100570005EEA430E08BF20EAD37070BDC4F10C04DC
:10058000C4F1200500FA04F320FA05F001FA04F2A0
:1005900040EA020001F0004110EBD37041F100018C
:1005A0005EEA430E08BF20EAD37070BDC4F1200597
:1005B00000FA05F24EEA020E20FA04F301FA05F2FF
:1005C00043EA020321FA04F001F0004121FA04F2A7
:1005D00020EA020000EBD3705EEA430E08BF20EA77
:1005E000D37070BD94F0000F0FD101F000464000B1
:1005F00041EB010111F4801F08BF013CF7D041EA33
:10060000060195F0000F18BF704703F00046520036
:1006100043EB030313F4801F08BF013DF7D043EA07
:100620000603704794EA0C0F0CEA135518BF95EABD
:100630000C0F0CD050EA410618BF52EA4306D1D144
:1006400081EA030101F000414FF0000070BD50EA63
:10065000410606BF1046194652EA430619D094EAED
:100660000C0F02D150EA013613D195EA0C0F05D1D7
:1006700052EA03361CBF104619460AD181EA03012B
:1006800001F0004141F0FE4141F470014FF00000E3
:1006900070BD41F0FE4141F4780170BD70B54FF07E
:1006A000FF0C4CF4E06C1CEA11541DBF1CEA1355FE
:1006B00094EA0C0F95EA0C0F00F0A7F8A4EB0504E0
:1006C00081EA030E52EA03354FEA013100F08880D7
:1006D0004FEA03334FF0805545EA131343EA1263A0
:1006E0004FEA022245EA111545EA10654FEA002655
:1006F0000EF000419D4208BF964244F1FD0404F50E
:10070000407402D25B084FEA3202B61A65EB030569
:100710005B084FEA32024FF480104FF4002CB6EB26
:10072000020E75EB030E22BFB61A754640EA0C00A6
:100730005B084FEA3202B6EB020E75EB030E22BFE6
:10074000B61A754640EA5C005B084FEA3202B6EB27
:10075000020E75EB030E22BFB61A754640EA9C00E6
:100760005B084FEA3202B6EB020E75EB030E22BFB6
:10077000B61A754640EADC0055EA060E18D04FEA74
:10078000051545EA16754FEA06164FEAC30343EA14
:1007900052734FEAC2025FEA1C1CC0D111F4801FE1
:1007A0000BD141EA00014FF000004FF0004CB6E7DA
:1007B00011F4801F04BF01430020B4F1FD0C88BF79
:1007C000BCF5E06F3FF6AFAEB5EB030C04BFB6EB84
:1007D000020C5FEA500C50F1000041EB045170BD77
:1007E0000EF0004E4EEA113114EB5C04C2BFD4EBA4
:1007F0000C0541EA045170BD41F480114FF0000E28
:10080000013C90E645EA060E8DE60CEA135594EAA3
:100810000C0F08BF95EA0C0F3FF43BAF94EA0C0FA6
:100820000AD150EA01347FF434AF95EA0C0F7FF41B
:1008300025AF104619462CE795EA0C0F06D152EA6F
:1008400003353FF4FDAE1046194622E750EA410653
:1008500018BF52EA43067FF4C5AE50EA41047FF464
:100860000DAF52EA43057FF4EBAE12E74FF0FF3CC9
:1008700006E000BF4FF0010C02E000BF4FF0010C9A
:100880004DF804CD4FEA410C7FEA6C5C4FEA430C13
:1008900018BF7FEA6C5C1BD001B050EA410C0CBF62
:1008A00052EA430C91EA030F02BF90EA020F0020C4
:1008B000704710F1000F91EA030F58BF994208BF2B
:1008C00090422CBFD8176FEAE37040F001007047E8
:1008D0004FEA410C7FEA6C5C02D150EA013C07D13F
:1008E0004FEA430C7FEA6C5CD6D152EA033CD3D08A
:1008F0005DF8040B704700BF8446104662468C4684
:100900001946634600E000BF01B5FFF7B7FF0028B6
:1009100048BF10F1000F01BD4DF808EDFFF7F4FFDF
:100920000CBF012000205DF808FB00BF4DF808ED6A
:10093000FFF7EAFF34BF012000205DF808FB00BF8D
:100940004DF808EDFFF7E0FF94BF012000205DF8AF
:1009500008FB00BF4DF808EDFFF7CEFF94BF012064
:1009600000205DF808FB00BF4DF808EDFFF7C4FF5D
:1009700034BF012000205DF808FB00BF4FEA410CA6
:100980007FEA6C5C02D150EA013C0AD14FEA430C89
:100990007FEA6C5C02D152EA033C02D14FF00000C6
:1009A00070474FF0010070474FEA410212F5001204
:1009B00015D211D56FF47873B3EB625212D94FEAA6
:1009C000C12343F0004343EA505311F0004F23FA90
:1009D00002F018BF404270474FF00000704750EAE5
:1009E000013005D111F0004008BF6FF000407047A2
:1009F0004FF00000704700BF4A0011D212F50012FC
:100A000011D20DD56FF47873B3EB62520ED44FEA66
:100A1000C12343F0004343EA505323FA02F07047E6
:100A20004FF00000704750EA013002D14FF0FF3024
:100A300070474FF0000070474FEA4102B2F1E043C7
:100A400024BFB3F5001CDCF1FE5C0DD901F0004CB5
:100A50004FEAC0024CEA5070B2F1004F40EB830005
:100A600008BF20F00100704711F0804F21D113F131
:100A70003872BCBF01F00040704741F480114FEA6A
:100A80005252C2F11802C2F1200C10FA0CF320FAF3
:100A900002F018BF40F001004FEAC1234FEAD32310
:100AA00003FA0CFC40EA0C0023FA02F34FEA43037A
:100AB000CCE77FEA625307D150EA01331EBF4FF003
:100AC000FE4040F44000704701F0004040F0FE401E
:100AD00040F40000704700BF7BB972B90029BEBF67
:100AE00000204FF0004106E008BF00281CBF6FF057
:100AF00000414FF0FF3000F057B8ADF1080C6DE940
:100B000004CE002909DB002B1ADB32F0EBFBDDF809
:100B100004E0DDE9022304B07047404261EB41018B
:100B2000002B1BDB32F0DEFBDDF804E0DDE9022305
:100B300004B0404261EB4101524263EB4303704712
:100B4000524263EB430332F0CDFBDDF804E0DDE914
:100B5000022304B0404261EB41017047524263EB13
:100B6000430332F0BFFBDDF804E0DDE9022304B00B
:100B7000524263EB4303704753B94AB9002908BF97
:100B800000281CBF4FF0FF314FF0FF3000F00CB8D1
:100B9000ADF1080C6DE904CE32F0A4FBDDF804E001
:100BA000DDE9022304B07047704700BF0348044BDF
:100BB000834202D0034B03B1184770476C030020F7
:100BC0006C030020000000000548064B1B1AD90FDB
:100BD00001EBA301491002D0034B03B11847704742
:100BE0006C0300206C0300200000000010B5064CD0
:100BF000237843B9FFF7DAFF044B13B10448AFF38E
:100C000000800123237010BD6C0300200000000051
:100C1000DC35040808B5054B1BB105490548AFF3A1
:100C20000080BDE80840FFF7CFBF00BF0000000014
:100C300070030020DC35040870B586B00322002460
:100C4000012301A92B480594CDE901320226CDE903
:100C500003440CF053F801A9264801960CF04EF815
:100C60004FF4805301A9244801934FF480650CF0A0
:100C700045F801A9214801950CF040F84FF4804354
:100C800001A91E4801930CF039F801A91B480196EF
:100C90000CF034F8802301A9174801930CF02EF8CA
:100CA000402301A9144801930CF028F801A9124827
:100CB00001950CF023F8082301A90F4801930CF0CB
:100CC0001DF804230DEB03010B4801930CF016F8FB
:100CD0004FF4007301A9074801930CF00FF84FF48B
:100CE00000630548019301A90CF008F8204606B0FE
:100CF00070BD00BF00000240000802400004024036
:100D000082B000230193064B1A6C42F008021A6469
:100D10001B6C03F008030193019B02B0704700BFF6
:100D200000380240024A136C23F008031364704732
:100D30000038024070B5102694B0374D002432467A
:100D400000210DEB06002FF08AFA21461C220DA887
:100D5000CDE902442FF083FA2146304A284610F0AC
:100D600001FA2F4A0121284610F0FCF92D4BAE6004
:100D7000C5E900342C23C5E9033428468023AB6140
:100D800012F09EFA0446002843D14FF480530DEB35
:100D900006012846049310F09FFE0446002838D12F
:100DA000284612F03FFB0446002832D1CDE902006C
:100DB00002A9284612F04CFD044650BB3023CDE971
:100DC0000D300F90119002460DA9284610F0E4FA5C
:100DD0000446F0B92A689369CDE90A0043F0080394
:100DE0009361114B01901A6B104842F001021A6393
:100DF0001B6B03F001030193019B0122022308A94D
:100E0000CDE908230C930BF079FF2146284611F019
:100E1000F5FA204614B070BD88030020010D0108CA
:100E2000250D0108000C004000380240000002407F
:100E300008B50021034811F093FB02480FF08AFE29
:100E4000002008BD8803002070B5134E3368D3B16D
:100E5000124CB4FBF0F4651E294611482EF05EFEDC
:100E60002046FFF777FA02460B4609A1D1E90001B7
:100E7000FFF714FC02460B460A482EF04FFE33687B
:100E80000020DD6270BD0120FCE700BFAFF30080F1
:100E9000000000002A7585418803002040A5AE02AD
:100EA000383704084437040808B502482EF0DAFE43
:100EB000002008BD4F37040808B517F00DF90146AA
:100EC00002482EF02BFE002008BD00BFF73B0408AF
:100ED000F7B54FF4F0402CF093FC0446002800F0E6
:100EE0008B81CB482EF0BEFECA4B1B68DB0340F162
:100EF00070810EF05FFA07EE900AF8EE677A17EE4F
:100F0000900AFFF749FABEA3D3E90023FFF7C6FB17
:100F10000246C1480B462EF001FEC049C0482EF0E3
:100F2000FDFDC0482EF09EFE17F0D6F814260546AB
:100F30004FF4F042002120462FF091F9013EF7D105
:100F400017F0CAF8401B07EE900AF8EE677A1426ED
:100F500017EE900AFFF720FAB34B0022FFF79EFB33
:100F600002460B46B1481E212EF0D8FD17F0B4F80A
:100F700004F5705705464FF47052394620462FF05D
:100F800030FB013EF7D117F0A7F8401B07EE900A9F
:100F9000F8EE677A142617EE900AFFF7FDF9A24BD8
:100FA0000022FFF77BFB02460B46A1480F212EF0E3
:100FB000B5FD17F091F805464FF4705239462046BA
:100FC0002FF024F9013E0190F6D117F085F8401B6F
:100FD00007EE900AF8EE677A142617EE900AFFF7EC
:100FE000DBF9914B0022FFF759FB02460B46914873
:100FF0000F212EF093FD90482EF034FE17F06CF880
:1010000005468E494FF4705220462FF0EAFA013E11
:10101000F7D117F061F8401B07EE900AF8EE677AF7
:10102000142617EE900AFFF7B7F97F4B0022FFF75F
:1010300035FB02460B467E480F212EF06FFD17F060
:101040004BF805467D484FF4705221462FF0DEF8EC
:10105000013E0190F6D117F03FF8401B07EE900AD1
:10106000F8EE677A17EE900AFFF796F96E4B0022BA
:10107000FFF714FB02460B466E480F212EF04EFD83
:101080006F482EF0EFFD0023009317F025F842F291
:1010900010730546B7EE007ADDED007A77EE877AB9
:1010A000013BCDED007AF7D117F016F8401B07EEA3
:1010B000900AF8EE677A634F17EE900AFFF76CF923
:1010C00051A3D3E90023FFF7E9FA02460B465E4835
:1010D0002EF024FD009716F0FFFF4FF47A760546B8
:1010E0000098FFF759F941EC100B2AF073FE51EC10
:1010F000100BFFF7A1FC013E0090F1D116F0ECFFC0
:10110000401B07EE900AF8EE677A4FF47A7617EEF6
:10111000900AFFF741F94D4B0022FFF7BFFA024654
:101120000B464B482EF0FAFC4A4B009316F0D4FFC6
:1011300005460098FFF730F941EC100B2AF080FECD
:1011400051EC100BFFF778FC013E0090F1D116F046
:10115000C3FF401B07EE900AF8EE677A4FF47A75EA
:1011600017EE900AFFF718F9384B0022FFF796FAAE
:1011700002460B4638482EF0D1FC009716F0ACFF23
:1011800006460098FFF708F941EC100B2AF0E0FD45
:1011900051EC100BFFF750FC013D0090F1D116F01F
:1011A0009BFF801B07EE900AF8EE677A17EE900A15
:1011B000FFF7F2F8254B0022FFF770FA02460B46C4
:1011C00026482EF0ABFC20462CF022FB284603B02C
:1011D000F0BD0EF0EFF807EE900AF8EE677A17EE22
:1011E000900AFFF7D9F806A3D3E90023FFF756FAD0
:1011F00002460B461A488EE64FF48670E7E700BFBA
:101200000000000080842E41000000000088C340E0
:10121000FC3B040800380240163C040836990408D8
:10122000353C04083E3C0408000034405A3C0408A5
:10123000723C04088A3C0408A23C040845A7010843
:10124000BF3C040800401C46DC3C040800408F40C2
:10125000F43C0408C3F548400C3D0408243D040850
:10126000243C040813B547F23052084601AB012173
:1012700018F094F8044610B9019814F0BFF920460C
:1012800002B010BD13B5074A084601AB012118F0A2
:1012900085F8044610B9019816F014FF204602B0F4
:1012A00010BD00BF80C3C90108B509F077FE014633
:1012B00002482EF033FC002008BD00BFF73B0408B5
:1012C00030B58DB00D461422002107A82EF0C7FFBF
:1012D0000023069340F633020DF116034FF4FA6132
:1012E000284618F0A2F80446002864D1BDF816304C
:1012F00030338DF81B300C220DF1190301212846E3
:1013000018F09EF80446002855D10DF11A031F224B
:101310000121284618F094F8044600284BD10146D4
:1013200007AB1722284618F08BF80446002842D154
:1013300001460DF11D033B22284618F081F80446B2
:10134000002838D101460DF11E033B22284618F033
:1013500077F8044678BB024606A918480EF058FDF7
:10136000044640BB024607A914480EF053FC04464D
:1013700008BB024607A911480EF01AFD0446D0B971
:10138000024606A90D480EF0E1FD044698B99DF805
:101390001E309DF81B1002939DF81D3001939DF89F
:1013A0001C3000939DF819209DF81A30044801F56F
:1013B000FA612EF0B3FB20460DB030BD3C38002062
:1013C0003C3D040810B58AB01248002205A90EF071
:1013D000EFFC0446D0B9024604A90E480EF0B6FD53
:1013E000044698B99DF816309DF8131002939DF8A5
:1013F000153001939DF8143000939DF811209DF84D
:101400001230054801F5FA612EF088FB20460AB03B
:1014100010BD00BF3C3800203C3D040808B500204A
:1014200018F0F0F9002008BD08B508482EF01AFCA5
:1014300017F0FAFC07F0F0FF014605482EF06EFBAE
:1014400002482EF00FFC002008BD00BF5B3D0408E1
:10145000983D040813B5FF2208460DF1070300214B
:1014600017F0EEFF0446A0B99DF807302A2B13D1E0
:101470000A482EF0F7FB0A2014F0C0F8084B1B684E
:1014800098682EF0E5F84FF4FA7014F0B7F807F00A
:10149000C9FC204602B010BD0124FAE7AE3D0408A5
:1014A0001C030020204B1868204B2DE9F0411E68DA
:1014B0001F4C204BE41A241118B103780BB12EF005
:1014C000D1FB1C4DDFF880800027BC4208D126B13B
:1014D000337813B130462EF0C5FB0020BDE8F08113
:1014E000EA68CAB12968B9B11378ABB10B7818F8BA
:1014F0000300800703D103F0EF002A2803D10E4830
:101500002EF00CFB08E02D2B03D03F2B07D00B490E
:10151000F5E70B482EF0A6FB01371035D5E711464D
:1015200008482EF0FBFAF7E7040000200000002036
:1015300074FA040884E00408D93D0408234204082E
:10154000E53D0408353E040809DB040807B504211D
:101550000DEB010000F004FB0198FEF71DFF0246B1
:101560000B4603482EF0DAFA002003B05DF804FBC6
:10157000A641040807B504210DEB010000F0B4FA00
:101580000198FEF709FF02460B4603482EF0C6FA03
:10159000002003B05DF804FBA641040807B501A8CC
:1015A00000F064FA0198FEF7F7FE02460B46034886
:1015B0002EF0B4FA002003B05DF804FBBB41040830
:1015C000F7B54248424C434D2EF0A8FA14F8011BDF
:1015D00041482EF0A3FAAC42F8D10A203F4C2EF03D
:1015E000E3FA3F482EF03EFB3E482EF097FA216882
:1015F0003D482EF093FA61683B482EF08FFAA168BF
:1016000039482EF08BFA0A202EF0CEFA3748676858
:101610002EF084FA00240025E619A95D344801352E
:101620002EF07CFA102DF8D132482EF077FA0025F2
:10163000A85DA0F120035E2B88BF2E2001352EF07F
:10164000B3FA102DF4D10A202EF0AEFA04F580740E
:1016500029482EF063FAB4F5E06FDCD10A202EF0B1
:10166000A3FA684600F002FA0098FEF795FE0246DB
:101670000B4622482EF052FA04210DEB010000F037
:1016800033FA0198FEF788FE02460B461C482EF0FE
:1016900045FA04210DEB010000F062FA0198FEF713
:1016A0007BFE02460B4617482EF038FA4FF40051E5
:1016B00015480BF019FD154B1549002808BF1946B0
:1016C00014482EF02BFA002003B0F0BDD3410408DB
:1016D000107AFF1F207AFF1FE04104080000FF1F5F
:1016E000E5410408F1410408FE41040805420408EC
:1016F000124204082242040818420408BB410408AC
:1017000025420408A641040800080240BA930408D0
:10171000E25404083A4204080020704708B5024821
:101720002EF0A0FA002008BDBE42040808B5024809
:101730002EF098FA002008BD53BB04087FB50A4B71
:1017400004930A4B03930A4B02930A4A0A4B0193F0
:10175000D37F0093937F09480A3210212EF0DEF9DF
:10176000002007B05DF804FBED42040807430408BD
:1017700014430408240000201E430408C542040842
:1017800038B51B4C1B482EF0C9F9236898682DF01A
:101790005FFF19482EF0C2F9236898682DF058FFB2
:1017A000312528462EF000FA236898682DF050FF66
:1017B0000135642013F022FF362DF2D123680F4843
:1017C00099682EF085F9236898682DF041FF322042
:1017D00013F014FFBFF34F8F09490A4BCA6802F494
:1017E000E0621343CB60BFF34F8F00BFFDE700BF44
:1017F0001C030020D23D0408254304084443040888
:1018000000ED00E00400FA0508B5032A18D8DFE867
:1018100002F0020E10120B4B196807290DD80A4B63
:101820000A4833F811102EF079F9002008BD084B52
:10183000F2E7084BF0E7084BEEE708482EF06EF9A8
:101840000120F3E71400002068CC04084C4504088C
:10185000100000200C000020080000205045040863
:1018600007B5032A38D8DFE802F002131F2B1B4B01
:1018700001A8196800F038F90198FEF78DFD0246BD
:1018800017480B462EF04AF9002003B05DF804FB20
:10189000144B01A8196800F063F90198FEF77CFD6C
:1018A00002460B461048EDE7104B01A8196800F0FE
:1018B00093F90198FEF770FD02460B460C48E1E7EC
:1018C0000C4B01A8196800F0C3F90198FEF764FDFC
:1018D00002460B460848D5E70120D6E71400002051
:1018E0002542040810000020A64104080C00002036
:1018F00069450408080000207E45040813B5084621
:10190000144601AB4FF4F072032117F047FD68BB9A
:10191000019B542B1CD00DD81C2B1BD006D8032B9D
:101920001AD00F2B1AD04FF48B701FE0382BFAD13E
:10193000032307E0902B13D0B3F5F07F12D0702B68
:10194000F1D10523032C19D8DFE804F00E12141688
:101950000423F7E70223F5E70346F3E70123F1E762
:101960000623EFE70723EDE7054A136002B010BD39
:10197000044AFAE7044AF8E7044AF6E70120F5E7E3
:1019800014000020100000200C000020080000209F
:1019900010B58CB0314B0021019114465A6C42F4C1
:1019A00080725A645A6C02F480720192019A029118
:1019B0005A6C42F400725A645A6C02F40072029239
:1019C000029A03915A6C42F480625A645A6C02F48F
:1019D00080620392039A04911A6B42F001021A6327
:1019E0001A6B02F001020492049A05911A6B42F0FC
:1019F00002021A631A6B02F002020592059A06911E
:101A00001A6B42F004021A631B6B03F00403069383
:101A1000142207A8069B2EF022FC032C1BD8DFE81B
:101A200004F0020D0F13012307930D4803230893BD
:101A300007A90BF063F900200CB010BD0223F3E7F7
:101A400008482EF00FF9F6E702220323CDE9072319
:101A5000054807A9EDE70120EEE700BF0038024086
:101A6000000002409345040800040240194B30B5C1
:101A700005460FCB85B08DE80F006946164809F082
:101A8000CBFC322016F01EFB134809F0DDFB64216D
:101A9000114809F06BFC104809F0BBFC0F4B9FED9F
:101AA000107A9A8DDB8D811A07EE901AF8EE677A1C
:101AB0009B1A67EE877A07EE103AB8EEC77A0020D5
:101AC000C7EE876AF3EE0E7A76EEA77AC5ED007A56
:101AD00005B030BDF83504085C340020007AFF1FE3
:101AE0000000A0420000000030B5002485B00123B2
:101AF000CDE90214054669461748CDE9004309F0CF
:101B00008BFC322016F0DEFA134809F09DFB6421AD
:101B1000114809F02BFC104809F07BFC07EE900AF5
:101B20009FED0E7AF8EE677AC7EE877A17EE900A85
:101B3000FEF732FC06A3D3E90023FEF785FCFEF78F
:101B40007BFF2860204605B030BD00BFAFF30080AA
:101B50006666666666660A40CC33002000F07F4504
:101B600030B585B001230446029100256946184826
:101B70000395CDE9003309F04FFC322016F0A2FAAC
:101B8000134809F061FB6421114809F0EFFB10488C
:101B900009F03FFC07EE900A9FED0E7AF8EE677AA7
:101BA000C7EE877A17EE900AFEF7F6FB06A3D3E995
:101BB0000023FEF749FCFEF73FFF2060284605B0F2
:101BC00030BD00BFAFF300806666666666660A4099
:101BD0001434002000F07F4530B5002485B0012387
:101BE000CDE90214054669461748CDE9004309F0DE
:101BF00013FC322016F066FA134809F025FB642125
:101C0000114809F0B3FB104809F003FC07EE900AF5
:101C10009FED0E7AF8EE677AC7EE877A17EE900A94
:101C2000FEF7BAFB06A3D3E90023FEF70DFCFEF78F
:101C300003FF2860204605B030BD00BFAFF3008031
:101C40006666666666660A401434002000F07F45CA
:101C500030B585B00922012304460291002569466A
:101C600017480395CDE9002309F0D6FB322016F082
:101C700029FA134809F0E8FA6421114809F076FBC3
:101C80000F4809F0C6FB07EE900A9FED0E7AF8EEBA
:101C9000677AC7EE877A17EE900AFEF77DFB06A3F8
:101CA000D3E90023FEF7D0FBFEF7C6FE20602846EE
:101CB00005B030BDAFF300806666666666660A40B2
:101CC0005C34002000F07F45F0B58BB014460F4621
:101CD0001422002168462EF0C2FA04F01F03013BD3
:101CE000112B64D8344A52F82350344A32F8136026
:101CF00004F0C003C02B0AD10021102206A82EF048
:101D0000AEFA059605A928460AF0F8FF26E004F089
:101D1000A003A02B24D10024012305A92846CDE946
:101D200007440994069305960AF0E8FF05A938468A
:101D30008DF8144017F032F9044648B1B0F58B7FA6
:101D400003D040F23D13984218D100238DF814308F
:101D50009DF81420314628460BF0D8F900240DE0F8
:101D6000A1060ED505A9384617F018F9044628B97A
:101D70009DF81420314628460BF0C8F920460BB0D8
:101D8000F0BD62060CD5314628460BF0ADF90C4B80
:101D90000C4A002818BF1A4610462DF063FFDDE7F5
:101DA000E30504D50323009601936946ABE7064893
:101DB0002DF058FF0124E1E79CCC040878CC0408FE
:101DC0002343040853BB040892470408024BF7223C
:101DD0001A700020704700BFB0330020034A137808
:101DE00043F0080313700020704700BFB033002099
:101DF00007B508460DF1070117F0D0F838B99DF87E
:101E00000720064B32B11A7842F004021A7003B070
:101E10005DF804FB1A7802F0FB02F7E7B03300200C
:101E200007B508460DF1070117F0B8F838B99DF865
:101E30000720064B32B11A7842F002021A7003B042
:101E40005DF804FB1A7802F0FD02F7E7B0330020DA
:101E500007B508460DF1070117F0A0F838B99DF84D
:101E60000720064B32B11A7842F001021A7003B013
:101E70005DF804FB1A7802F0FE02F7E7B0330020A9
:101E800010B586B00C461422002101A82EF0E7F907
:101E900020460DF103030222002117F0D1FA044677
:101EA00078B99DF803307BB1012B0CBF01230223CD
:101EB0000648039301A90AF021FF054801A90AF089
:101EC0001DFF204606B010BD0346F1E700080240A2
:101ED0000004024007B508463AB10D490D482DF0FF
:101EE0001DFE002003B05DF804FB0DF1070117F0A3
:101EF00055F80028F6D19DF80730074A003B18BF77
:101F00000123DB01104613620BF026FBEAE700BF5A
:101F100032550408229C0408E837002007B508461B
:101F20003AB10D490D482DF0F9FD002003B05DF8E0
:101F300004FB0DF1070117F031F80028F6D19DF8E8
:101F40000730074A003B18BF01239B011046D361AD
:101F50000BF002FBEAE700BF32550408229C04089C
:101F6000E837002007B508463AB10C490C482DF077
:101F7000D5FD002003B05DF804FB0DF1070117F05B
:101F80000DF80028F6D19DF80730064A003B18BF2F
:101F90000123104653610BF0DFFAEBE732550408DA
:101FA000229C0408E837002007B5084642B10B4BD5
:101FB0000B4859682DF0B2FD002003B05DF804FB1A
:101FC000084A01AB012117F0E9F90028F5D1034ACD
:101FD000019B536010460BF0BFFAEEE7E837002094
:101FE00039550408801A060007B5084611464AB15B
:101FF000104B11481B6819692DF090FD002003B0AB
:102000005DF804FB01AB4FF0FF3217F0C7F9002871
:10201000F5D108490B681A6822F001021A60019A8A
:102020004A6022F070621A611A6842F001021A6076
:10203000E5E700BFA4340020395504082DE9F04F2E
:10204000C7B08A460DF114080DF1160704AE002141
:1020500015464FF0020B33464FF6FF72504639805B
:10206000A8F800B017F0E1F90146002840F06281BD
:10207000338805F1FF395B00B9F1010F338050D887
:102080000DF112034FF6FF72504617F0CEF90446D9
:1020900038B943465A460121504617F0C6F904465E
:1020A00030B1204647B0BDE8F08FB9F1090F0ED826
:1020B00040F2B52323FA09F3DB0708D53B46FF229C
:1020C0000121504617F0B1F904460028E9D1023D3C
:1020D000082D3DD840F2AD13EB4013F0010310D0B2
:1020E00000250DF1180B0BEB0503FF2200215046D4
:1020F00017F0A6F9044620BB0135B5F5807FF2D173
:10210000ABB2B9F1090F00F21781DFE819F0230033
:10211000440053006E0076009B00BB00C900E50040
:10212000ED00AB1F012BC0D80DF112034FF6FF726B
:10213000504617F07AF904460028B2D143461022DF
:10214000A9E740F23D139842ABD1002DD8D1A8E7C2
:102150000023D6E7642302933B88019306AD0095E4
:10216000B8F80030BDF81220318874480AF02AFC13
:102170000446002895D13B88A34201DC002490E767
:1021800014B12C202DF010FD15F8011B6C482DF01A
:10219000C5FC0134EFE76422CDE9013206AB0093C0
:1021A000B8F80030BDF81220318864480AF026FBE8
:1021B000044676E7642300933B8831885F4806AA8B
:1021C0000AF082FA044600287FF46BAF06AD3B8824
:1021D000A342D3DD14B12C202DF0E6FC15F8011B31
:1021E00057482DF09BFC0134F1E7642200923188BE
:1021F000524806AA0AF0BAF9DAE764250095318850
:102200004E4806AA0AF0B2F9044600287FF449AF06
:1022100000953B883188494806AA0AF055FA0446D9
:1022200000287FF43EAF06AD3B88A342A6DD14B183
:102230002C202DF0B9FC15F8011B41482DF06EFC47
:102240000134F1E7642302933B88019306AD0095C6
:10225000B8F80030BDF8122031883A480BF074FD10
:10226000044600287FF41DAF3B88A34286DD14B1ED
:102270002C202DF099FC15F8011B31482DF04EFC57
:102280000134F1E76422CDE9013206AB0093B8F8DE
:102290000030BDF8122031882A480BF0BBFC87E7DC
:1022A000642300933B883188264806AA0BF03AFB4A
:1022B000044600287FF4F5AE06AD3B88A3427FF7C5
:1022C0005DAF14B12C202DF06FFC15F8011B1C48DC
:1022D0002DF024FC0134F0E7642200923188194883
:1022E00006AA0BF045FA63E7642500953188154886
:1022F00006AA0BF03DFA044600287FF4D2AE009502
:102300003B8831880F4806AA0BF00CFB04460028D6
:102310007FF4C7AE06AD3B88A3427FF72FAF14B161
:102320002C202DF041FC15F8011B05482DF0F6FB83
:102330000134F0E70446B4E60124B2E6A4340020F8
:1023400041550408E837002037B59FED251B0846A6
:102350009FED250B6A46002116F07EFE05460028FB
:1023600037D1234BD3F8942012F4400F1FD10CF037
:10237000A1FC0446DDE90001FEF73EFB01462046D4
:1023800000F0FCF9044601461A482DF0C7FBFCB1E9
:1023900019490B681A6822F001021A604C6024F097
:1023A00070641C611A6842F001021A6011E0D3F8EF
:1023B000942002F44002B2F5800F02D10CF0FAFF33
:1023C000D7E7D3F8943003F44003B3F5000F03D0FC
:1023D0000125284603B030BD084CCBE7AFF30080A1
:1023E0000000000065CDCD410000000000000000AD
:1023F0000038024046550408A43400200024F400AC
:1024000008B532B1012A09D006482DF02BFC012075
:1024100003E0054807F07AFF002008BD034808F0F4
:10242000DFF8F9E792470408A4340020E8370020D9
:1024300007B5084672B1114B11491B69114813F4D5
:10244000804F114B18BF19462DF068FB002003B0D8
:102450005DF804FB0DF1070116F0A0FD0028F6D190
:102460009DF807300548002B0CBF4FF440434FF454
:10247000804303610BF070F8E9E700BFE837002004
:1024800065550408229C04086055040807B50846F1
:102490007AB1104B10491B6810481B6813F4805F19
:1024A0000F4B18BF19462DF039FB002003B05DF823
:1024B00004FB0DF1070116F071FD0028F6D19DF81F
:1024C000073023B1014603480AF064FBEEE74FF4FE
:1024D0008051F8E7A4340020E2540408229C040848
:1024E000BA93040807B5084611465AB10D4B0E4879
:1024F0001B681968C1F303212DF010FB002003B005
:102500005DF804FB0DF107030F2216F099FF002878
:10251000F5D19DF80710034801F00F010AF074FB94
:10252000EDE700BFA43400203D83040807B508464A
:102530007AB1134BDA6AD20709D5DB6A9B0706D555
:1025400010482DF0EBFA002003B05DF804FB0E48B4
:10255000F7E70DF1070116F021FD0028F4D19DF8F1
:10256000073001202BB10AF087FB02200AF084FB20
:10257000E9E70AF0A1FB02200AF09EFBE3E700BFB7
:1025800000380140E2540408BA9304080000000037
:1025900038B51046002A5BD1454BD3F8942012F48D
:1025A000400F3DD10CF086FB424C07EE900AF8EE4E
:1025B000677A17EE900AFDF7EFFE3BA3D3E90023FD
:1025C000FEF76CF80B4621463B4C02463B482DF08B
:1025D000A5FA23683A4819692DF0A0FA394BDA6A4E
:1025E000D20733D5DB6A384913F0020F374B08BFE7
:1025F000194637482DF092FA236836481968C1F316
:1026000003212DF08BFA236833481B682E4913F4FD
:10261000805F2E4B18BF19462DF080FA002038BD80
:10262000D3F8942002F44002B2F5800F03D10CF0ED
:10263000C1FE2A4CB9E7D3F8943003F44003B3F554
:10264000000F12BF264C2748274CAEE71F49D0E7A2
:10265000012AE3D1254C264861681B4D2DF05EFA16
:102660002269244B24492548002A08BF19462DF029
:1026700055FA636915492248002B18BF29462DF0E9
:102680004DFAE36911491F48002B18BF29462DF068
:1026900045FA216A0D4B1C48002918BF2B461946E4
:1026A000BAE700BFAFF300800000000080842E4135
:1026B000003802407A550408A43400208F550408DD
:1026C0004655040800380140E2540408BA9304084F
:1026D000AE550408C3550408D85504086B550408C2
:1026E000725504080024F40080550408E8370020DF
:1026F000ED55040889550408845504080256040859
:1027000019560408305604084756040808B5094805
:102710002DF0A8FA08490B681A6822F001021A6025
:10272000064A1A614A601A6842F001021A600020E3
:1027300008BD00BF5E560408A4340020362C90006B
:1027400008B532B1012A0BD009482DF08BFA0120CF
:1027500005E0FFF7DBFF074807F092FD002008BD0A
:10276000054807F0EBFE04480AF0F6FEF6E700BF66
:1027700092470408A4340020E83700202DE9F04FE8
:102780008BB018B900200BB0BDE8F08F834B994295
:10279000F8D9834B99425ED9824B9942F2D9824B48
:1027A00099425AD9814BA1F54321A1F5A0619942E3
:1027B000E8D80221DFF804C20CEB5003B3FBF0F0C1
:1027C0007B4B2C2202FB013305465A6A03921A6A9C
:1027D0000192019C5A691B69A2180492039A1B1B5F
:1027E000A2F13206A3F5827300EB4002B61AA3EB06
:1027F0008003704A23EAE373029313680093002472
:1028000026EAE6761A46A2464FF0100BA9464FF08C
:10281000000E049BCDF814E099450EF1010E27D36C
:102820000027B846BE421DD8029BBB421AD35C4566
:1028300018D0142303FB02FB5F4B013203EB0B0A9E
:1028400043F80B40059B7F2ACAE9013807D9594B49
:1028500000921A6017E00021ACE70121AAE7A34625
:102860004FF0010A08F10108B8F1100F2F44D9D137
:10287000BEF1100FA944CCD10134102C0544C5D1B0
:10288000BAF1000FE3D12C225143494B039C019D27
:1028900003EB010E5B5848490CEB53022C44B2FB8E
:1028A000F3FBDEF80430BCFBF3F30293DEF80830F0
:1028B000BCFBF3F30493430003F13202E3180592E7
:1028C000D94600264FF0FF320993009B9E4219D152
:1028D0007F2A3FF657AF384B14214A4399189B582B
:1028E000087C40EA03704B681B0503F4700318432F
:1028F0008B681B0403F470231843CB681B029BB244
:10290000184340E7DEF818400B680394059C03FB6E
:1029100000031C190194099CE5183235019C0895A7
:102920004FF0000C039DCDF81CC0AC420CF1010C23
:102930002CD9A4F13205B0EB950F27D2089DDDF814
:1029400004A025444FF00008049FCDF81880AF4242
:1029500008F1010815D8029FAF4212D3DEF81C70AF
:1029600057450ED850450CD2A5EB0B07002FB8BF2A
:102970007F42B94505D9079A0A61069ACA60B946E5
:102980003246B8F5807F1D449A44DDD1BCF5807F86
:102990001C44C7D10136143197E700BF7F380100CE
:1029A000C0D40100FFE1040000530700801A0600B4
:1029B000E4CC04083C0400204004002000CA9A3BF8
:1029C00013B5084612F0200114463BD09FED3A1B88
:1029D0009FED3B0B6A46002116F03EFBC8B9DDE9CE
:1029E00000013B4B0022FDF72FFD04F01F04013CCA
:1029F000CDE90001052C20D8DFE804F003030D1316
:102A00001919FEF719F800EE100A052000F0F0FE83
:102A1000002002B010BDFEF70FF800EE100A0C20E7
:102A2000F4E7FEF709F800EE100A0220EEE7FEF7E1
:102A300003F800EE100A0320E8E726482DF012F90B
:102A40000120E6E71306F8D59FED1F1B9FED1C0B39
:102A50006A4616F001FB0028DBD104F01F04013C9C
:102A6000052CEAD8DFE804F003030D151D1DDDE990
:102A70000001FDF7E1FF00EE100A052000F00CFF59
:102A8000C6E7DDE90001FDF7D7FF00EE100A0C20D4
:102A9000F4E7DDE90001FDF7CFFF00EE100A0220A8
:102AA000ECE7DDE90001FDF7C7FF00EE100A0320A7
:102AB000E4E700BFAFF300800000000000005940D1
:102AC00000000000000000000000000000408F40F7
:102AD000000024409247040808B515482DF0C2F8BC
:102AE000144B154819682DF019F8144B144819683F
:102AF0002DF014F8134B186807EE900AF8EE677A79
:102B000017EE900AFDF748FC0F4B0022FDF7C6FDBB
:102B100002460B460D482DF001F80D4B0D48196883
:102B20002CF0FCFF0C482DF09DF8002008BD00BFE4
:102B30005F5D0408540E0020755D0408500E0020EF
:102B4000865D04084C0E002000002440975D0408B8
:102B5000480E0020AA5D04081F3E0408DFB5510698
:102B60002FD502F01F02013A052A25D8DFE802F02E
:102B70000315171A221F0022052102A800F082FF68
:102B8000044638B90298FDF707FC02460B461E487A
:102B90002CF0C4FF204604B0D0BD0422ECE7002294
:102BA0000C21EAE7082202210DEB0200E6E70022F1
:102BB0000321E2E70422FBE714482DF053F8012437
:102BC000E8E71306F8D502F01F02012A1AD0053AE9
:102BD000012AF1D8032203A902A800F0F7FE044657
:102BE0000028D7D10398FDF7D7FB064602980F4679
:102BF000FDF7D2FB3246CDE900013B4604482CF0FC
:102C00008DFFC7E70522E6E7C15D04089247040887
:102C1000BB5D040802F4387002F01F02013A08B5E7
:102C2000052A1CD8DFE802F003070B0F1317BDE8D5
:102C3000084000F073BFBDE8084001F04DB8BDE8A2
:102C4000084001F027B9BDE8084001F0AFB9BDE880
:102C5000084001F039BABDE8084001F029BB02483C
:102C60002DF000F8012008BD9247040808B500F0D7
:102C70005FFBFEF7DDF800F0C3FA002008BD00009E
:102C800007B59FED0B0B08469FED0B1B6A46002115
:102C90008DED000B16F0E0F928B9DDE90001FDF734
:102CA000ABFEFEF7D1F803B05DF804FBAFF3008094
:102CB0000000000000000000000000002A758541AF
:102CC00008B500F09DFA00F033FBFEF733F8002062
:102CD00008BD08B500F094FAFEF7AAF8BDE8084070
:102CE00000F0AABA2DE9F041ADF5976D0DF102069D
:102CF0000123084633804FF496723346002116F0C4
:102D000094FB0446E0B901464FF4966202A80DF127
:102D100004082DF0A4FA3088424602A900F07CF99C
:102D2000044668B902AD07463388BB420DDCD8F8CB
:102D30000000FDF731FB02460B4609482CF0EEFE81
:102D400020460DF5976DBDE8F08155F8040BFDF7B1
:102D500023FB02460B4603482CF0E0FE0137E3E775
:102D6000D15D0408CB5D040808B5FEF761F800F0FA
:102D7000DFFA00F0CFF9002008BD0000037F012B2F
:102D800002D1044A13607047022B02BF024B01229A
:102D90001A607047400E0020440E002010B5002439
:102DA00088B0CDE90544144B01941A6C134842F0E5
:102DB00008021A641A6C02F008020192019A029445
:102DC0001A6B42F001021A631B6B03F001030293BA
:102DD000029B0122022303A9CDE90323079309F0F3
:102DE0008DFF22460521322008F0EEFB322008F04C
:102DF0002DFC08B010BD00BF0038024000000240AA
:102E000030B5002589B0CDE90555314B01951A6CD7
:102E1000304C42F008021A641A6C02F00802019267
:102E2000019A02951A6B42F001021A631B6B03F0C0
:102E300001030293029B01200223CDE9030303A9AE
:102E40002548079309F05AFFDFF89CC04FF0406314
:102E5000C4E900C34FF4806E4FF48053C4E904E327
:102E600020464FF48043C4E90255C4E90635C4E95D
:102E7000085508F02DFC08B107F0DCFB174D184A87
:102E80006C62A563174C4FF04063C4E900234FF414
:102E900080614FF480520023C4E9041220464FF4AD
:102EA0008042C4E90233C4E90623C4E9083308F0C8
:102EB0000FFC08B107F0BEFB002205213220AC62F6
:102EC000A56308F081FB322008F0C0FB09B030BDDB
:102ED0000038024018180020000002407818002036
:102EE00070600240B817002040600240074A08485E
:102EF00008B5136C23F00803136401210AF044F8A9
:102F0000BDE80840322008F0B5BB00BF00380240E1
:102F10000000024038B504460BF0CCFE237F022BA4
:102F20001FD1002120460EF06FF8104D04212860BB
:102F300020460EF069F80E4A0E49106013680E4CD8
:102F400083B113682A684FF47A704343B3FBF2F3FA
:102F5000C31A0B600BF0AEFE2B684000B0FBF3F021
:102F6000206038BD0B602360FBE700BF540E0020DB
:102F7000500E00204C0E0020480E00202DE9F84F86
:102F800012F006FBDFF888B01D4F1E4D824600266A
:102F900012F0FEFAA0EB0A00FDF7DCF9324680469B
:102FA00089463B46DBE90001FDF74EFA02460B4637
:102FB00040464946FDF7BAFC044660B9014612484E
:102FC00010F07EF81048042110F07AF80F4B2C60B6
:102FD0001C60032012E02B68012BD9D10B4B1A681F
:102FE000012AD5D10024214607481C602C6010F02E
:102FF00067F80548042110F063F82046BDE8F88F13
:1030000000408F40440E002078180020400E002021
:1030100018000020000000002DE9F04F384B87B069
:103020000C460021039206465962364A36484FF450
:1030300096730FF0FFFE354A33484FF49673042120
:103040000FF0F8FEFFF79AFF0546002852D1DFF88F
:10305000BCA02C4F04EB860B80465C450CD1B8FB22
:10306000F6F807EE908A039BF8EE677AC3ED007AD4
:10307000284607B0BDE8F08FD7F8049057F8043B16
:103080005AF8042F0593994536BF09F1FF30A9EB93
:103090000300C01A0492FDF75DF9049A059B91455F
:1030A000CDE9000134BFA2EB0900D01AFDF752F9B7
:1030B000DDE90023FDF7F2FA154B0022FDF7C4F914
:1030C000FDF7BAFC44F8040B4046FDF743F9DDE98F
:1030D00000238046894608A1D1E90001FDF7DEFA08
:1030E00002460B4640464946FCF7F8FFFDF784FCD4
:1030F0008046B2E70325BBE7000000002A75954132
:10310000000C00400813002078180020580E002002
:103110000000594010B58CB00024344B01941A6B58
:1031200042F400121A631B6B03F4001322460521BC
:1031300001930D20019B08F047FA0D2008F086FA54
:10314000224605210F2008F03FFA0F2008F07EFAF2
:10315000102221460DEB02002DF081F810222146AD
:1031600008A8CDE902442DF07AF8214A21482146E9
:103170000DF0F8FF1F4A204B9460C2E9003410465E
:103180004FF0FF33C2E90334946110F099F828BB83
:103190004FF480531748049304A90EF09DFCE8B93E
:1031A000144810F0A3FAC8B9CDE9020002A91148E9
:1031B00010F04EFB024688B90123CDE90930089092
:1031C0000B9008A90B480EF02DFB38B902230948D3
:1031D000042208A9CDE908330EF024FB074A05486C
:1031E00012210DF0BFFF0CB010BD00BF003802402F
:1031F000012E010878180020000C00407D2D0108E8
:103200000A4A0B48136C10B523F00803094C1364E9
:10321000012109F0B9FE606A08F084FBA06A08F099
:1032200081FB322008F026FA002010BD0038024051
:10323000000002407818002030B591B01022002123
:1032400003A82DF00CF8142200210BA800242DF067
:1032500006F81022002107A82DF001F82F4A304867
:103260002146CDE901440DF07DFF2E4A2C48012175
:103270000DF078FF2A4A2C4B9460C2E900341046C6
:103280004FF0FF33C2E90334946110F019F80028BD
:1032900032D14FF480532248039303A90EF01CFC53
:1032A00050BB1F4810F022FA30BB0224CDE90D407C
:1032B00050230F9004251A480BA9CDE90B530EF0AB
:1032C000E1FF0246C0B90123CDE908300A9007A901
:1032D000134807940EF0A6FA70B9CDE907042A4600
:1032E0000F4807A90EF09EFA30B9CDE901000DEBA9
:1032F00005010B4810F0ACFA094804210FF02EFC30
:1033000048B9014606480FF029FC20B9074A04488D
:1033100012210DF027FF11B030BD00BF9D2D010817
:1033200078180020ED2E0108000C0040152F010830
:1033300010B5094C23686BB1042120460FF0E4FC62
:10334000002120460FF0E0FC322008F093F92046DF
:103350000DF000FC002010BD7818002001480DF091
:10336000B3BD00BF78180020014808F0A3BB00BF20
:1033700018180020014808F09DBB00BFB8170020B6
:1033800010B514228AB0044600210DEB02002CF087
:1033900066FF2368224A934220D1224B2248002113
:1033A00001911A6C42F008021A641A6C02F00802C9
:1033B0000192019A02911A6B42F001021A631B6B8F
:1033C00003F0010302930121029B0223CDE90513BF
:1033D000099305A909F092FC0AB010BD134A934263
:1033E000FAD1104B1248002103911A6C42F00202EC
:1033F0001A641A6C02F002020392039A04911A6B87
:1034000042F004021A631B6B03F004030493049B51
:1034100040220223CDE90523099305A9DAE700BF7D
:10342000000C004000380240000002400004004050
:103430000008024010B504468EB01422002109A8ED
:103440002CF00DFF2368B3F1804F20D103F50E332C
:10345000002101911A6C42F001021A641A6C02F008
:1034600001020192019A02911A6B42F002021A6360
:103470001B6B03F002030293029B4FF48061022353
:10348000CDE9091301233C480D9309A922E03B4AE9
:10349000934227D13A4B002103911A6C42F0020269
:1034A0001A641A6C02F002020392039A04911A6BD6
:1034B00042F004021A631B6B03F004030493049BA1
:1034C000304B1B7853B9402309932F4802230A93AA
:1034D0000D9309A909F012FC0EB010BD042BFBD10D
:1034E0008023F1E7294A934225D1254B00210591FC
:1034F0001A6C42F008021A641A6C02F00802059273
:10350000059A06911A6B42F001021A631B6B03F0D5
:1035100001030693069B1B4B1B783BB901230993C0
:1035200002231B480A930D9309A9D3E7042BD3D197
:1035300002230993F5E7174A9342CDD1104B00219E
:1035400007911A6C42F040021A641A6C02F04002B1
:103550000792079A08911A6B42F002021A631B6BDA
:1035600003F002030893089B4FF480420223CDE945
:103570000923092387E700BF00040240000400403C
:10358000003802402C19002000080240000C0040C6
:103590000000024000180040FFF74CBF08B5036868
:1035A000B3F1804F0CD1082126480FF05DFA264A6E
:1035B000136C23F0010313644FF48061234815E07A
:1035C000234A934216D1002122480FF04DFA0421DC
:1035D00020480FF049FA1C4A1F48136C23F00203DD
:1035E0004021136409F0D0FC1B488021BDE808404D
:1035F00009F0CABC194A934213D1002118480FF0B0
:1036000033FA042116480FF02FFA0F4A1548136CAD
:1036100023F008030121136409F0B6FC11480221CC
:10362000E4E7114A93420BD1002110480FF01CFA35
:10363000054A136C23F0400313644FF48041BDE747
:1036400008BD00BF4C1B00200038024000040240AF
:1036500000040040981A002000080240000C0040BE
:10366000E41900200000024000180040301900203A
:1036700008B50368B3F1804F0FD12D480DF0DEFA85
:1036800008212B480FF0A6F82A4A136C23F00103F7
:1036900013644FF48061284818E0284A934219D1F6
:1036A00027480DF041FB002125480FF093F8042135
:1036B00023480FF08FF81F4A2248136C23F00203AF
:1036C0004021136409F060FC1E488021BDE80840D9
:1036D00009F05ABC1C4A934216D11C480DF024FB39
:1036E00000211A480FF076F8042118480FF072F8FC
:1036F000104A1748136C23F008030121136409F0E2
:1037000043FC13480221E1E7124A93420ED11248CA
:103710000DF00AFB002110480FF05CF8054A136C0D
:1037200023F0400313644FF48041B4E708BD00BFA9
:103730004C1B0020003802400004024000040040FE
:10374000981A002000080240000C0040E4190020F4
:103750000000024000180040301900200B4A0C48BD
:1037600008B5136C23F0020313640DF0DDFA002199
:1037700007480FF079F9042105480FF075F9BDE805
:1037800008400448402109F0FFBB00BF0038024058
:10379000981A00200008024008B5114A03689342B5
:1037A00016D102F50B320F48136C23F00803136493
:1037B0000DF0BAFA00210B480FF056F90421094820
:1037C0000FF052F9BDE808400748012109F0DCBBC1
:1037D000064A934203D1BDE80840FFF7BFBF08BDCA
:1037E000000C0040E41900200000024000040040EA
:1037F00001380B2841D8DFE800F0061729403C408B
:1038000040404040403E1E4BD3ED037ADFED1D6A41
:103810001A68F8EE677A67EE807A87EEA67ABCEED1
:10382000C77A82ED0D7A0FE0174BDFED166AD3ED04
:10383000037A1A68F8EE677A67EE807A87EEA67ADE
:10384000BCEEC77A82ED0F7A002070470F4BD3EDA4
:10385000037ADFED0C6A1A68F8EE677A67EE807A11
:1038600087EEA67AFCEEC77AC2ED0D7AC2ED0E7A2B
:10387000EAE7074BEBE7074BC6E74FF48B7070475F
:10388000001C002000007A444C1B0020981A0020E5
:10389000E419002030190020013808B50B287FD822
:1038A000DFE800F00622397E507E7E7E7E7E7E67D7
:1038B000DFED3F7A60EE277A17EE900AFCF76CFD99
:1038C00002460B4638A1D1E90001FCF7E7FE394B6F
:1038D0000022FCF701FCFDF78FF8374BD860184643
:1038E0000FF0EEFC002008BDDFED317A60EE277AA4
:1038F00017EE900AFCF750FD02460B462AA1D1E9CB
:103900000001FCF7CBFE2B4B0022FCF7E5FBFDF79B
:1039100073F82A4BE2E7DFED267A60EE277A17EE9E
:10392000900AFCF739FD02460B461FA1D1E90001C0
:10393000FCF7B4FE1F4B0022FCF7CEFBFDF75CF852
:103940001F4BCBE7DFED1A7A60EE277A17EE900A6D
:10395000FCF722FD02460B4613A1D1E90001FCF75A
:103960009DFE144B0022FCF7B7FBFDF745F8154B05
:10397000B4E7DFED0F7A60EE277A17EE900AFCF7D6
:103980000BFD02460B4608A1D1E90001FCF786FEBB
:10399000084B0022FCF7A0FBFDF72EF80A4B9DE731
:1039A0004FF48B709FE700BF000000002A7585412F
:1039B00000007A440000F03F001C00204C1B002057
:1039C000981A0020E419002030190020032A2DE95C
:1039D000F04706460D4629D0052A48D1254F11F05B
:1039E000D7FD00F59678002138460DF00DFB042137
:1039F000824638460DF008FB0021814638460DF01E
:103A000003FB8245044688BF00F58034CA4528BFC1
:103A100009F5803911F0BCFD4045A4EB0A0407D933
:103A20000023336003202B60BDE8F087124FD6E7F8
:103A3000002CD8D0114BB3FBF4F307EE903AF8EE1C
:103A4000E77AA9EB0A09C6ED007A07EE909AB8EE7C
:103A5000677A07EE904AF8EE677A0020C7EE276A89
:103A6000DFED077A66EEA77AC5ED007ADCE74FF462
:103A70008B70D9E7E4190020981A002040A5AE0207
:103A80000000C84202392DE9F041064617460A29CE
:103A900036D8DFE801F0062635223535353535359F
:103AA0002400194D11F074FD00F59678394628462A
:103AB0000DF0AAFA3946044628460DF0A5FA8442CC
:103AC00088BF00F58030041B11F062FD40450AD923
:103AD000002333600320BDE8F0810C4DE2E70C4D7C
:103AE000E0E70C4DDEE7002CE0D00B4BB3FBF4F32A
:103AF00007EE903AF8EEE77A0020C6ED007AEAE7A2
:103B00004FF48B70E7E700BF4C1B0020E419002046
:103B100030190020981A002040A5AE0230B593B0AD
:103B200004461C2200210BA82CF099FB1022002136
:103B300003A82CF094FB1022002107A82CF08FFB87
:103B40005F4A604B136000214FF6FF73C2E90331F7
:103B50005D4B91610125202CCDE90111C2E9015194
:103B6000197028D1594A564806210DF0FBFA5448DD
:103B70000FF00AFD0446D8B94FF48053504807931C
:103B800007A90DF0A9FF044690B96023CDE90B30D9
:103B90000D900F9002460BA949480DF0E7FC044632
:103BA00030B947480DF04AF8454821460EF060FD0F
:103BB000204613B030BD402C2ED1454A404802214A
:103BC0000DF0D0FA3E480FF091FD04460028EFD1E9
:103BD0004FF480533A48079307A90DF07DFF044640
:103BE0000028E5D1CDE9010001A935480FF030FEEC
:103BF00004460028DCD1CDE90305CDE905000246E5
:103C000003A92F480DF00EFE04460028D0D101462E
:103C10002B480EF067FECBE7802C42D12D4A284876
:103C20000DF0A0FA26480FF04BFB04460028BFD148
:103C30004FF480532248079307A90DF04DFF044627
:103C40000028B5D11E480FF051FD04460028AFD121
:103C5000CDE9010001A91A480FF0FAFD0446002839
:103C6000A6D1CDE90305CDE90500024603A9144814
:103C70000DF0D8FD044600289AD1022310480422F2
:103C800003A9CDE903330DF0CDFD044600288FD103
:103C90000B480CF0D3FF214609480EF023FE042107
:103CA000B6E7B4F5007F01D0002481E70448FFF7B0
:103CB00073FD0348FFF772FC0148FFF7D9FCF3E7F7
:103CC000E4190020000C00402C19002035340108B4
:103CD000993501088133010870B592B004461C2261
:103CE00000210BA82CF0BBFA1022002103A82CF015
:103CF000B6FA1022002107A82CF0B1FA5F4A604BF7
:103D0000136000214FF6FF73C2E903315D4B9161EF
:103D100001260425202CCDE90111C2E901611D70A5
:103D200028D1594A554806210DF01CFA53480FF086
:103D30002BFC0446D8B94FF480535048079307A989
:103D40000DF0CAFE044690B96023CDE90B300D900A
:103D50000F902A4649480BA90DF008FC044630B9DB
:103D600046480CF06BFF454829460EF081FC204682
:103D700012B070BD402C2ED1444A404802210DF0B3
:103D8000F1F93E480FF0B2FC04460028EFD14FF4A1
:103D900080533A48079307A90DF09EFE0446002879
:103DA000E5D1CDE9010001A934480FF051FD0446E9
:103DB0000028DCD1CDE90306CDE905002A462F48CD
:103DC00003A90DF02FFD04460028D0D129462B4829
:103DD0000EF088FDCBE7802C41D12D4A27480DF00D
:103DE000C1F926480FF06CFA04460028BFD14FF401
:103DF00080532248079307A90DF06EFE0446002861
:103E0000B5D11E480FF072FC04460028AFD1CDE9B1
:103E1000010001A919480FF01BFD04460028A6D196
:103E2000CDE90306CDE905002A46144803A90DF0A3
:103E3000F9FC044600289AD10223024603A90F4840
:103E4000CDE903330DF0EEFC044600288FD10B487A
:103E50000CF0F4FE214609480EF044FDB6E7B4F537
:103E6000007F01D0002482E70448FFF795FC034857
:103E7000FFF794FB0148FFF7FBFBF3E7E419002091
:103E8000000C00402C190020353401089935010838
:103E90008133010830B593B004461C2200210BA8E1
:103EA0002CF0DDF91022002103A82CF0D8F9102203
:103EB000002107A82CF0D3F939493A4A0A600023B7
:103EC00001254FF6FF72402CCDE90133C1E90153C2
:103ED000C1E903238B612CD1334A314802210DF013
:103EE00041F92F480FF002FC0446F8B94FF4805313
:103EF0002B48079307A90DF0EFFD0446B0B9CDE9B3
:103F0000010001A926480FF0A3FC044670B9CDE9D1
:103F10000305CDE90500024603A921480DF082FC06
:103F2000044618B901461E480EF0DCFC204613B0CA
:103F300030BD202C27D11A480FF026FB044600285C
:103F4000F4D11748FFF776FA4FF4805314480793DB
:103F500007A90DF0C1FD04460028E7D16023CDE993
:103F60000B300D900F9002460BA90D480DF0FEFA94
:103F700004460028DAD10A480CF060FE21460848C1
:103F80000EF076FBD2E7B4F5007F01D00024CDE738
:103F90000348FFF703FB0248FFF76AFBF6E700BFA1
:103FA00030190020001800409935010830B593B051
:103FB00004461C2200210BA82CF051F910220021EC
:103FC00003A82CF04CF91022002107A82CF047F987
:103FD0003A494FF0804200230A6001254FF6FF72F4
:103FE000402CCDE90133C1E90153C1E903238B61C1
:103FF0002CD1334A314802210DF0B4F82F480FF08C
:1040000075FB0446F8B94FF480532C48079307A971
:104010000DF062FD0446B0B9CDE9010001A92748C1
:104020000FF016FC044670B9CDE90305CDE9050093
:104030000822224803A90DF0F5FB044618B91F48D1
:1040400008210EF04FFC204613B030BD202C29D1A2
:104050001C4A1A4806210DF085F818480FF094FA0A
:1040600004460028EFD14FF480531448079307A962
:104070000DF032FD04460028E5D16023CDE90B3078
:104080000D900F9008220D480BA90DF06FFA044611
:104090000028D8D109480CF0D1FD082107480EF0BE
:1040A000E7FAD0E7B4F5007F01D00024CBE703485E
:1040B000FFF774FA0148FFF7DBFAF6E74C1B002024
:1040C000993501083534010870B592B004461C22B8
:1040D00000210BA82CF0C3F81022002103A82CF01B
:1040E000BEF81022002107A82CF0B9F8674A684BE7
:1040F000136000214FF6FF73C2E90331654B9161F4
:1041000001260425202CCDE90111C2E901611D70B1
:1041100028D1614A5D4806210DF024F85B480FF074
:1041200033FA0446D8B94FF480535848079307A987
:104130000DF0D2FC044690B96023CDE90B300D9010
:104140000F902A4651480BA90DF010FA044630B9D9
:104150004E480CF073FD4D4829460EF089FA204672
:1041600012B070BD402C2ED14C4A484802210CF0B0
:10417000F9FF46480FF0BAFA04460028EFD14FF491
:1041800080534248079307A90DF0A6FC0446002877
:10419000E5D1CDE9010001A93C480FF059FB0446E7
:1041A0000028DCD1CDE90306CDE905002A463748D1
:1041B00003A90DF037FB04460028D0D12946334827
:1041C0000EF090FBCBE7802C41D1354A2F480CF004
:1041D000C9FF2E480FF074F804460028BFD14FF4F1
:1041E00080532A48079307A90DF076FC044600285F
:1041F000B5D126480FF07AFA04460028AFD1CDE9B0
:10420000010001A921480FF023FB04460028A6D194
:10421000CDE90306CDE905002A461C4803A90DF0A7
:1042200001FB044600289AD10223024603A917483D
:10423000CDE903330DF0F6FA044600288FD1134878
:104240000CF0FCFC214611480EF04CFBB6E7B4F52F
:10425000007F01D0002482E7124A0C4807210CF0AD
:1042600081FF0A48FFF79AF90F4A084803210CF02A
:1042700079FF0648FFF7FCF90C4A044831460CF078
:1042800071FF0248FFF788FAE4E700BF981A0020A0
:10429000000400402C19002035340108993501082C
:1042A000813301089D3501087136010899370108ED
:1042B00030B593B004461C2200210BA82BF0CFFF91
:1042C0001022002103A82BF0CAFF1022002107A80A
:1042D0002BF0C5FF5F4A604B136000214FF6FF7360
:1042E000C2E903315D4B91610125202CCDE901111B
:1042F000C2E90151197028D1594A564806210CF0DB
:1043000031FF54480FF040F90446D8B94FF48053B8
:104310005048079307A90DF0DFFB044690B96023CE
:10432000CDE90B300D900F9002460BA949480DF0D6
:104330001DF9044630B947480CF080FC4548214639
:104340000EF096F9204613B030BD402C2ED1454AD0
:10435000404802210CF006FF3E480FF0C7F9044622
:104360000028EFD14FF480533A48079307A90DF086
:10437000B3FB04460028E5D1CDE9010001A9354889
:104380000FF066FA04460028DCD1CDE90305CDE93B
:104390000500024603A92F480DF044FA0446002800
:1043A000D0D101462B480EF09DFACBE7802C42D1AC
:1043B0002D4A28480CF0D6FE26480EF081FF044610
:1043C0000028BFD14FF480532248079307A90DF06E
:1043D00083FB04460028B5D11E480FF087F9044638
:1043E0000028AFD1CDE9010001A91A480FF030FA39
:1043F00004460028A6D1CDE90305CDE90500024613
:1044000003A914480DF00EFA044600289AD102239D
:104410001048042203A9CDE903330DF003FA044642
:1044200000288FD10B480CF009FC214609480EF0FA
:1044300059FA0421B6E7B4F5007F01D0002481E7E2
:10444000FFF78CF90348FFF7A9F80248FFF710F9C6
:10445000F4E700BF981A0020000400402C19002047
:1044600035340108993501088133010808B5084839
:104470000022102108F04AFE05480122802108F0A0
:1044800045FE03480122102108F040FE002008BD2F
:104490000010024008B508480022102108F036FE3E
:1044A00005480022802108F031FE03480122102136
:1044B00008F02CFE002008BD0010024008B503489B
:1044C0000022102108F022FE002008BD001002404A
:1044D00013B5084614460DF107030722002114F016
:1044E000AFFF90B99DF80730072B9FBF0B4A0C49CF
:1044F00052F8232031F8133084BF03460246A10747
:1045000005D008490A60084A138002B010BD61074F
:10451000FBD506490A60064AF6E700BF78CD0408D5
:1045200068CD0408C41C0020C01C0020BC1C002056
:10453000B81C00202DE9F04FADF21C4D14460DF1D2
:104540001609002362068A46A9F8003003D584F0D4
:1045500040049A4E04E02306FBD5994E84F0800473
:10456000A4F11303032B39D8944B9E4284F010041A
:1045700041D0944B1F68944BB3F80080002F3DD17D
:10458000032C01D0062C08D14B46FF2201215046B6
:1045900014F04BFF834600284AD1231F022B61D819
:1045A00006AB03930025F16800294CD106AB2B44E0
:1045B000FF22504614F044FF834600284BD1039B52
:1045C00001350233B5F5807F0393ECD1ADB2033CE6
:1045D000032C7AD8DFE804F04A8189B7A4F12303D9
:1045E000032B15D8754B9E4284F020040CD0774BDA
:1045F0001F68774BC0E7774F4FF010080022414605
:10460000384608F083FDBBE7734F4FF00108F5E72C
:10461000631E012B11D805AB4FF6FF7200215046E7
:1046200014F003FF834618B9012C09D04FF0010B99
:1046300058460DF21C4DBDE8F08F0027B8469FE7A5
:1046400007468046A0E7039B4FF6FF7200215046C5
:1046500014F0EBFEB0E740F23D129042E8D1002D9D
:10466000B4D1E5E74FF0010B0025B0E7B9F8002021
:10467000642386A930460CF05BF8834628BBF268B9
:1046800086ACE2B15D451EDDBBF1000F02D02C20EF
:104690002BF08AFA34F8021B50482BF03FFA0BF14A
:1046A000010BEFE7BBF1000F02D02C202BF07CFABE
:1046B00014F8011B4A482BF031FA0BF1010BB9F841
:1046C00000205A45EEDC4FF0000B002FB0D0012245
:1046D0004146384608F01AFDAAE764232A4606A98F
:1046E00030460BF063FE8346EFE76423009386AA0F
:1046F0002B4606A930460BF015FF83460028E4D16F
:10470000F26886ACE2B15D45DDDDBBF1000F02D0A1
:104710002C202BF049FA34F8021B30482BF0FEF91C
:104720000BF1010BEFE7BBF1000F02D02C202BF0B7
:104730003BFA14F8011B2A482BF0F0F90BF1010B9E
:104740005D45F0DCBFE764232A4606A930460BF03E
:104750002DFE83460028B8D1B9F80020642386A92D
:1047600030460BF0E5FF83460028AED1F26886ACF8
:10477000F2B1B9F800205A45A5DDBBF1000F02D017
:104780002C202BF011FA34F8021B14482BF0C6F938
:104790000BF1010BEDE7BBF1000F02D02C202BF049
:1047A00003FA14F8011B0E482BF0B8F90BF1010BBA
:1047B000B9F800205A45EEDC85E700BFB438002088
:1047C0005C380020C41C0020C01C0020BC1C002041
:1047D000B81C00200000024000040240CFC50408BD
:1047E0004155040808B50A48102108F07DFC68B15D
:1047F0008021074808F078FC0649074B002818BFBD
:10480000194606482BF08AF9002008BD0449F8E74C
:10481000001002401C66040824660408229C040858
:10482000BA93040870B50846510686B035D592078C
:104830000DF103011AD014F0B1FB044698B9CDE98B
:104840000300059010252D48012301A9CDE901534E
:1048500008F054FA9DF803202848003A18BF0122B6
:10486000294608F053FC204606B070BD14F096FBB4
:1048700004460028F7D1CDE9030005900125204822
:1048800001A9CDE9015508F039FA9DF803201C482B
:10489000003A18BF01222946E3E712F08004E2D073
:1048A00093070DF1030119D014F078FB044600289A
:1048B000D9D1144E144D33880193CDE9030001235F
:1048C00005900293286801A908F018FA9DF80320C2
:1048D00031882868003A18BF0122C2E714F05EFB55
:1048E00004460028BFD1094E094D338801930123A6
:1048F000CDE9030005900293E4E700BF0000024009
:1049000000040240C01C0020C41C0020B81C002071
:10491000BC1C002070B5294C236886B00D465BB9DD
:10492000CDE90333059301265723254801A9CDE995
:10493000013608F0E3F9266001A9284614F02EFBA1
:104940000446C0BB0DF10501284614F027FB0446C0
:1049500088BB0DF10601284614F020FB044650BB2D
:104960000DF10701284614F019FB044618BB02A9F3
:10497000284614F013FB0446E8B99DF804201048BB
:10498000012108F0C3FB9DF805200D48022108F025
:10499000BDFB9DF806200A48042108F0B7FB9DF8EE
:1049A00007200748102108F0B1FB9DF808200448B3
:1049B000402108F0ABFB204606B070BDB41C0020BF
:1049C000000C0240F0B5274B274E802A18BF1E4628
:1049D000351D0F460FCD8DB001AC0FC40FCD0FC4E8
:1049E00095E807000DF1020384E807004FF4807298
:1049F0000221384614F019FD341D30BBBDF80230D9
:104A0000202B24D00CD8082B23D005D8022B0FD074
:104A1000042B20D0162018E0102BFBD1182007E023
:104A2000802B1AD0B3F5807F19D0402BF2D12820EB
:104A3000079001AD0FCD0FC40FCD0FC495E807004F
:104A400084E8070030460BF071FB0DB0F0BD18464E
:104A5000EEE71020ECE70820EAE73020E8E738200E
:104A6000E6E700BFB43800205C38002013B500230F
:104A700008460DF1070114468DF8073014F08EFA40
:104A800038B9112C26D006DC012C0ED0022C18D0FF
:104A9000162002B010BD122CFAD19DF80730114A31
:104AA000003B18BF01235B0012E09DF807300E4A5F
:104AB000003B18BF01235B00136110460BF036FB6F
:104AC000E7E79DF80730084A003B18BF01235B0069
:104AD0005361F2E79DF80730024A003B18BF0123FB
:104AE0005B00E9E75C380020B438002013B50023F0
:104AF00008460DF1070114468DF8073014F04EFA00
:104B000020B9402C04D0802C0ED0162002B010BD4D
:104B10009DF80730084A003B18BF0123DB011362F0
:104B200010460BF003FBF1E79DF80730034A003B0A
:104B300018BF0123DB01F2E7B43800205C38002005
:104B400013B5002308460DF1070114468DF8073010
:104B500014F024FA20B9402C04D0802C0ED016205A
:104B600002B010BD9DF80730084A003B18BF012372
:104B7000DB02D36010460BF0D9FAF1E79DF807305D
:104B8000034A003B18BF0123DB02F2E7B4380020E0
:104B90005C38002013B5002308460DF107011446C8
:104BA0008DF8073014F0FAF920B9402C04D0802C8D
:104BB0000ED0162002B010BD9DF80730084A003B09
:104BC00018BF01231B01536210460BF0AFFAF1E747
:104BD0009DF80730034A003B18BF01231B01F2E791
:104BE000B43800205C3800202DE9F04186B008463A
:104BF000144600210DF1030303228DF8031014F075
:104C00001FFC48B1B0F58B7F03D040F23D139842B2
:104C100007D102238DF80330402C05D0802C4BD0D7
:104C2000162006B0BDE8F0819DF80340012C19D094
:104C3000022C25D07CB9CDE90344504805940125C8
:104C4000102401A9CDE9014508F058F84B482A463F
:104C5000214608F05BFA4A4805F09CFE48480BF0F4
:104C600065FADEE700234748059301A9CDE9033340
:104C7000CDE9014408F042F8224642481146E8E7EF
:104C8000002401253D480594102601A9CDE90344DF
:104C9000CDE9016508F032F82A463848314608F077
:104CA00035FA3848059401A9CDE90344CDE9015509
:104CB00008F024F82A46E0E79DF80340012C19D0BB
:104CC000022C31D05CBB2F4D0594CDE90344012665
:104CD0004FF4804401A92846CDE9014608F00EF8BA
:104CE00032462146284608F011FA274B1D60274B13
:104CF0001C8014E0234E0023022501A93046CDE993
:104D000003330593CDE9015407F0F8FF2246294605
:104D1000304608F0FBF91E4B1E601E4B1D801E48DE
:104D200005F038FE1C489AE7164D002601274FF47F
:104D3000804801A92846CDE90366CDE9018705969B
:104D400007F0DCFF3A464146284608F0DFF90E4BF3
:104D500005961D600D4B01A92846A3F80080CDE9FA
:104D60000366CDE9014707F0C9FF3A4621462846C8
:104D700008F0CCF9064B1D60064BB9E70000024075
:104D8000B438002000040240C41C0020C01C0020D5
:104D9000BC1C0020B81C00205C3800200000000073
:104DA000F7B51546002A66D0012A7CD0624C616AAC
:104DB000624B634A6348002918BF1A4611462AF01D
:104DC000ADFEE168604B614A6148002918BF1A4690
:104DD00011462AF0A3FE216A5E4B5F4A5F48002914
:104DE00018BF1A4611462AF099FE21695C4B5D4AAC
:104DF0005D48002918BF1A4611462AF08FFE6169E6
:104E00005A4B5B4A5B48002918BF1A4611462AF0E4
:104E100085FEE469202C6DD063D8102C69D05CD855
:104E2000002C7CD0082C7CD053482AF01BFFFDB905
:104E30000121524808F058F9022104464F4808F071
:104E400053F9042105464D4808F04EF91021064655
:104E50004A4808F049F940210746484808F044F913
:104E60003346CDE900702A46454821462AF056FED1
:104E7000002003B0F0BD10214248434C08F034F943
:104E80004249002818BF214641482AF047FE012127
:104E9000404808F029F93D49002818BF21463E48FE
:104EA0002AF03CFE82E74FF480413A48364C08F045
:104EB0001BF93649002818BF214635482AF02EFE36
:104EC0000221344808F010F93049002818BF214663
:104ED0003148324C2AF022FE69E7182CA4D1102464
:104EE00008E0302C1FD0382C1FD0282C9CD1402417
:104EF00000E008242046FBF73DFA02460B460CA1D1
:104F0000D1E90001FBF7CAFB254B0022FBF7C6FBEA
:104F100002460B46234821462AF000FE87E702247A
:104F2000E8E70424E6E78024E4E74FF48074E1E74F
:104F3000000000002A759541B43800202B67040852
:104F4000B3640408FA640408BC640408C264040876
:104F50000C650408C7640408CB6404081E650408D3
:104F60006A94040858CA040830650408EA6704080B
:104F7000CF6404084265040854650408000C02402C
:104F80009A650408000002402343040853BB040848
:104F9000D664040800040240E86404085C38002079
:104FA00000408F4072650408500638B50ED51021B8
:104FB0002C4808F099F82C4B1B68996820B13120D7
:104FC0002AF02EFD002038BD3020F9E71106F9D572
:104FD000930718D0254B1D68254B1C882146284671
:104FE00008F082F8204B1B689968A8B121482AF084
:104FF0006FFD214B9D421ED1B4F5806F0ED11F482D
:105000002AF08CFDDEE712F0040403D01C4B1D686F
:105010001C4BE2E72546E1E71B48E8E7B4F5006FE3
:1050200001D11A48ECE7402C01D11948E8E7802C5F
:10503000C8D11848E4E7184B9D4208D1022C01D191
:105040001648DDE7B4F5804FBCD11548D8E7054BCD
:105050009D42B7D1022C01D11248D1E7012CB1D128
:105060001148CDE7000002401C030020C41C0020B2
:10507000C01C0020B365040800080240B66504089F
:10508000BC1C0020B81C0020C75E0408B9650408D9
:105090008B680408C5560408000402404E5A0408F0
:1050A000BC6504088F700408AD420408402A08B5A6
:1050B00003D0802A08D0162008BD064805F0ECFC75
:1050C00004480BF043F9F7E7034805F0E5FC024814
:1050D000F7E700BFB43800205C38002010B5044664
:1050E00088B01422002103A82BF0B9F82268134BD2
:1050F0009A4221D103F5F633002101911A6C104830
:1051000042F400221A641A6C02F400220192019AFD
:1051100002911A6B42F001021A631B6B03F0010348
:105120000293029B02220323CDE90332069303A9D3
:105130000823079307F0E2FD08B010BD004C0040C3
:10514000000002400268064B9A4208D1054A064810
:10515000136C23F400231364032107F015BF704779
:10516000004C0040003802400000024008B5104AE0
:1051700010480B210EF0DEFC0F4A0E480C210EF0F9
:10518000D9FC0C490D4B0B604FF4E1320023C1E90F
:10519000012308460C22C1E90333C1E90523CB6191
:1051A0000EF0DCFD18B1BDE8084005F043BA08BDBB
:1051B000DD500108C81C002045510108004C00408A
:1051C0000148FFF7BFBF00BFC81C002010B51B4B34
:1051D0001B4C1C48012A18BF1C4661682AF09EFC23
:1051E000A168194B194A1A48002918BF1A461146D6
:1051F0002AF094FCE168174B174A1848002918BF99
:105200001A4611462AF08AFC2369A3B11449154AAB
:10521000B3F5806F08BF114613482AF07FFCE1699F
:105220000A4B124A1248002918BF1A4611462AF0A2
:1052300075FC002010BD0F49EEE700BF283B0020A1
:10524000C81C0020386F0408266F0408286F040863
:105250004C6F040849BB0408234304085F6F04082B
:105260002A6F0408336F0408726F04085567040836
:10527000856F04082E6F04082DE9F043C3B00DF1CB
:1052800006070023062A884616463B8000F2B680B1
:105290005A23D340DB0707D53B46FF220121404676
:1052A00014F0C3F8044640BB032E0BDC012E0CDCCB
:1052B0000022013E052E00F2A480DFE806F0223C29
:1052C00043637B7F731F012BF2D800250DF1080982
:1052D00009EB0503FF220021404614F0B1F8044613
:1052E00028B90135B5F5807FF2D1AAB2E1E740F2E5
:1052F0003D13984201D1002DF7D1204643B0BDE8BF
:10530000F0833A884048642302A90EF0A9FC0446C1
:105310000028F2D102AD3B88A34201DC0024ECE777
:1053200014B12C202AF040FC15F8011B37482AF054
:10533000F5FB0134EFE73448642302A90EF042FC88
:105340000446DAE73048642302A90EF03BFC044629
:105350000028D2D13A882C48642302A90EF080FCA0
:1053600004460028C9D102AD3B88A342D6DD14B162
:105370002C202AF019FC15F8011B24482AF0CEFB3A
:105380000134F1E73A882248642302A90EF068FC50
:1053900004460028B1D102AD3B88A342BEDD14B162
:1053A0002C202AF001FC15F8011B18482AF0B6FB46
:1053B0000134F1E71648642302A9BFE714486423C7
:1053C00002A90EF0FFFB0446002896D13A88104847
:1053D000642302A90EF044FC044600288DD102ADDE
:1053E0003B88A3429ADD14B12C202AF0DDFB15F88E
:1053F000011B06482AF092FB0134F1E7032A7FF7EC
:1054000057AF012479E700BF283B0020415504082D
:10541000C81C002007B50846032A32D8DFE802F08E
:105420000215212F0DF1070113F0B8FD50B99DF8B9
:105430000730154AB3FA83F35B09DB03D3611046E7
:105440000EF08CFC03B05DF804FB0F4BDB690F48DA
:10545000B3F5004F14BF102108212AF05FFB002094
:10546000F0E70DF1070113F099FD0028EAD19DF84E
:105470000730074AB3FA83F35B09DB03DEE7044B2B
:10548000E4E71620DEE700BF283B0020986F040801
:10549000C81C002007B50846032A50D8DFE802F0F0
:1054A00002212F4B0DF107030222002113F0C8FF48
:1054B00038B99DF807303BB9224A136121480EF0F4
:1054C0004DFC03B05DF804FB012B04D11D4B4FF4E0
:1054D000C0621A61F2E7022BF0D11A4B4FF48062DE
:1054E000F7E7184B1B6943B31749184AB3F5806FA8
:1054F00008BF114616482AF011FB0020E1E70DF124
:1055000007030222002113F09BFF0028D9D19DF848
:1055100007301BB90F4A13610E48D0E7012B04D1A5
:105520000C4B4FF4C0621A61F6E7022BF4D1094B21
:105530004FF48062F7E7074BD4E70749DAE7162014
:10554000BFE700BF283B00202A6F0408336F040820
:10555000796F0408C81C00202E6F040807B5023AB2
:105560000846032A21D8DFE802F0021722320DF1A3
:1055700007030222012113F063FF50B99DF80730A1
:10558000144A013B18BF01235B03D36010460EF0A1
:10559000E5FB03B05DF804FB0E4BDB680E48002B07
:1055A00014BF022101212AF0B9FA0020F1E70DF120
:1055B00007030222012113F043FF0028E9D19DF8DF
:1055C0000730064A013B18BF01235B03DDE7034BAD
:1055D000E3E700BF283B0020A96F0408C81C002097
:1055E00007B50846032A31D8DFE802F00215202E5D
:1055F0000DF1070113F0D2FC50B99DF80730144AA1
:10560000003B18BF01231B03936010460EF0A6FB5E
:1056100003B05DF804FB0E4B9B680E48002B14BFD3
:10562000092108212AF07AFA0020F1E70DF107019B
:1056300013F0B4FC0028EBD19DF80730064A003B7C
:1056400018BF01231B03DFE7034BE5E71620DFE765
:10565000283B0020B66F0408C81C0020022A37B57A
:105660000846144601D0042A1DD1304D01AB2A460C
:10567000002113F093FE00284ED10199B1F5614F3E
:105680000ED023D8B1F5165F0AD016D8B1F5166F33
:1056900006D00FD8B1F5967F02D0B1F5966F42D102
:1056A00023482AF03BFA023C032C34D8DFE804F00C
:1056B000272E3639B1F5965FF1E7B1F5964FEFD069
:1056C000B1F5164FECD0B1F5615FE8E7194B99429F
:1056D000E6D00CD8B1F5E12FE2D005D8B1F5E13F25
:1056E000DED0B1F5613FDAE7B1F5612FD7E7124BB4
:1056F0009942D5D0A942D3D0104B9942CFE7019B14
:105700000F4A536010460EF029FB05E00C4B596818
:105710000C482AF003FA002003B030BD019B0A4A6E
:10572000EFE7094BF3E71620F6E700BFA0252600B8
:10573000CB6F040840420F0080841E0060E3160017
:10574000283B0020E16F0408C81C0020032A08B58C
:1057500003D0042A05D0002008BD034805F0AAFBA9
:10576000F9E7FFF72DFDF6E7283B0020012A08B5F1
:1057700003D0022A05D0002008BD034805F02EFB07
:10578000F9E7FFF7F3FCF6E7283B0020034B1A7814
:10579000FF2A04BF00221A70704700BF401D00207E
:1057A00010B5044B044800241C702AF05BFA204614
:1057B00010BD00BF401D00207375040807B500230D
:1057C00008460DF107018DF8073013F0E7FB9DF84F
:1057D00007100348012200F0A5FB03B05DF804FBAD
:1057E000401D002008B500F0C5FC002008BD0000E9
:1057F00008B50348042113F0CDF9002008BD00BF0F
:10580000401D002007B54FF0FF330193084601AB60
:105810004FF48062002113F085FD019A04480123B2
:105820004FF4805100F0E2FA03B05DF804FB00BFD2
:10583000401D00200346B3F5867F084611460BD075
:10584000B3F58B7F024605D0B3F5817F07D10548BC
:105850002AF064B90448FBE704482AF05FB9044819
:105860002AF05CB9DA750408F27504080E760408AB
:105870002876040870B590B008464022694613F0B7
:105880006FFB054610BB2E216846FFF77FFF2AF00D
:105890000BFD0446A8B305704FF4805027F0B0FF0D
:1058A0000423064602466946194812F069FD10B104
:1058B000184A694607E001342146304612F0A6FF37
:1058C00038B1144A2146FFF7B5FF0125284610B02C
:1058D00070BD0F48694612F099FF10B1B0F5817F95
:1058E000E6D10B484FF480533246694613F04AF92B
:1058F0000028DDD1304627F08BFF07482AF0B2F9A7
:10590000E4E70348694612F081FF0028F5D0CFE7AD
