:020000040800F2
:100000000000022091B801086DB5010871B5010822
:100010008DB501088FB5010891B5010800000000F9
:100020000000000000000000000000003183020812
:1000300093B5010800000000C1830208258402086E
:10004000E1B80108E1B80108E1B80108E1B8010828
:10005000E1B80108E1B80108E1B80108E1B8010818
:10006000E1B80108E1B80108E1B80108E1B8010808
:10007000E1B8010869330108E1B8010875330108E6
:10008000E1B80108E1B80108E1B80108E1B80108E8
:10009000E1B80108E1B80108E1B80108E1B80108D8
:1000A000A5970208E1B80108E1B80108E1B8010824
:1000B000E1B80108E1B80108E1B80108E1B80108B8
:1000C000E1B80108E1B80108E1B80108E1B80108A8
:1000D000E1B80108E1B80108ADA50208E1B80108DE
:1000E000E1B80108E1B80108E1B80108E1B8010888
:1000F000E1B80108E1B80108E1B80108E1B8010878
:10010000E1B80108E1B801085D330108E1B8010870
:10011000E1B80108E1B8010895B50108E1B80108A6
:10012000E1B80108E1B80108E1B80108E1B8010847
:10013000E1B801080000000000000000E1B801087B
:10014000E1B80108E1B80108E1B80108A1B501086A
:10015000E1B80108E1B80108E1B80108E1B8010817
:10016000E1B80108E1B80108E1B80108E1B8010807
:10017000E1B80108E1B80108E1B801080000000099
:1001800000000000E1B801080000000000000000CD
:10019000E1B801080000000000000000E1B801081B
:1001A000000000000000000000000000E1B80108AD
:1001B000E1B80108E1B80108E1B80108E1B80108B7
:0401C000E1B8010899
:020000040801F1
:1000000010F8012B11F8013B012A28BF9A42F7D0C2
:10001000D01A70470000000000000000000000003F
:1000200001F0FF01102A2BDB10F0070F08D010F8A9
:10003000013B013A8B422DD010F0070F42B3F6D1AD
:10004000F0B441EA012141EA014122F007047FF0C6
:1000500000070023F0E80256083C85EA010586EA1D
:10006000010685FA47F5A3FA87F586FA47F6A5FA59
:1000700087F68EB9EED1F0BC01F0FF0102F0070265
:1000800032B110F8013B013A83EA010313B1F8D110
:100090000020704701387047002D06BF35460338F1
:1000A000073815F0010F07D1013015F4807F02BF2A
:1000B000013015F4C03F0130F0BC0138704700BF7B
:1000C000034613F8012B002AFBD1181A0138704798
:1000D00081F0004102E000BF83F0004330B54FEAF9
:1000E00041044FEA430594EA050F08BF90EA020F66
:1000F0001FBF54EA000C55EA020C7FEA645C7FEAF9
:10010000655C00F0E2804FEA5454D4EB5555B8BF1B
:100110006D420CDD2C4480EA020281EA030382EA8C
:10012000000083EA010180EA020281EA0303362D1E
:1001300088BF30BD11F0004F4FEA01314FF4801CF1
:100140004CEA113102D0404261EB410113F0004F03
:100150004FEA03334CEA133302D0524263EB4303BA
:1001600094EA050F00F0A780A4F10104D5F1200E58
:100170000DDB02FA0EFC22FA05F2801841F10001B3
:1001800003FA0EF2801843FA05F359410EE0A5F187
:1001900020050EF1200E012A03FA0EFC28BF4CF0B8
:1001A000020C43FA05F3C01851EBE37101F000456E
:1001B00007D54FF0000EDCF1000C7EEB00006EEB7B
:1001C0000101B1F5801F1BD3B1F5001F0CD3490805
:1001D0005FEA30004FEA3C0C04F101044FEA44525C
:1001E00012F5800F80F09A80BCF1004F08BF5FEAE3
:1001F000500C50F1000041EB045141EA050130BDC3
:100200005FEA4C0C404141EB0101013C28BFB1F5D4
:10021000801FE9D291F0000F04BF01460020B1FA1F
:1002200081F308BF2033A3F10B03B3F120020CDAF2
:100230000C3208DD02F1140CC2F10C0201FA0CF0D0
:1002400021FA02F10CE002F11402D8BFC2F1200C35
:1002500001FA02F120FA0CFCDCBF41EA0C019040EB
:10026000E41AA2BF01EB0451294330BD6FEA040434
:100270001F3C1CDA0C340EDC04F11404C4F120021F
:1002800020FA04F001FA02F340EA030021FA04F331
:1002900045EA030130BDC4F10C04C4F1200220FA88
:1002A00002F001FA04F340EA0300294630BD21FAC6
:1002B00004F0294630BD94F0000F83F4801306BF8C
:1002C00081F480110134013D4EE77FEA645C18BF80
:1002D0007FEA655C29D094EA050F08BF90EA020F17
:1002E00005D054EA000C04BF1946104630BD91EA0F
:1002F000030F1EBF0021002030BD5FEA545C05D112
:100300004000494128BF41F0004130BD14F5800450
:100310003CBF01F5801130BD01F0004545F0FE41C4
:1003200041F470014FF0000030BD7FEA645C1ABFF9
:10033000194610467FEA655C1CBF0B46024650EA30
:10034000013406BF52EA033591EA030F41F400215C
:1003500030BD00BF90F0000F04BF0021704730B5E2
:100360004FF4806404F132044FF000054FF00001B7
:1003700050E700BF90F0000F04BF0021704730B578
:100380004FF4806404F1320410F0004548BF40424D
:100390004FF000013EE700BF42004FEAE2014FEAA2
:1003A00031014FEA02701FBF12F07F4393F07F4F7D
:1003B00081F06051704732F07F4208BF704793F080
:1003C0007F4F04BF41F40021704730B54FF4607493
:1003D00001F0004521F000411CE700BF50EA010296
:1003E00008BF704730B54FF000050AE050EA01023F
:1003F00008BF704730B511F0004502D5404261EBAF
:1004000041014FF4806404F132045FEA915C3FF4EF
:10041000D8AE4FF003025FEADC0C18BF03325FEA8C
:10042000DC0C18BF033202EBDC02C2F1200300FA3D
:1004300003FC20FA02F001FA03FE40EA0E0021FA62
:1004400002F11444BDE600BF70B54FF0FF0C4CF450
:10045000E06C1CEA11541DBF1CEA135594EA0C0F02
:1004600095EA0C0F00F0DEF82C4481EA030621EA3D
:100470004C5123EA4C5350EA013518BF52EA033578
:1004800041F4801143F4801338D0A0FB02CE4FF02A
:100490000005E1FB02E506F00042E0FB03E54FF05A
:1004A0000006E1FB03569CF0000F18BF4EF0010E52
:1004B000A4F1FF04B6F5007F64F5407404D25FEA4E
:1004C0004E0E6D4146EB060642EAC62141EA555101
:1004D0004FEAC52040EA5E504FEACE2EB4F1FD0C43
:1004E00088BFBCF5E06F1ED8BEF1004F08BF5FEAC1
:1004F000500E50F1000041EB045170BD06F0004673
:1005000046EA010140EA020081EA0301B4EB5C041F
:10051000C2BFD4EB0C0541EA045170BD41F4801117
:100520004FF0000E013C00F3AB8014F1360FDEBF3C
:10053000002001F0004170BDC4F10004203C35DA18
:100540000C341BDC04F11404C4F1200500FA05F39B
:1005500020FA04F001FA05F240EA020001F000423C
:1005600021F0004110EBD37021FA04F642EB0601B2
:100570005EEA430E08BF20EAD37070BDC4F10C04DC
:10058000C4F1200500FA04F320FA05F001FA04F2A0
:1005900040EA020001F0004110EBD37041F100018C
:1005A0005EEA430E08BF20EAD37070BDC4F1200597
:1005B00000FA05F24EEA020E20FA04F301FA05F2FF
:1005C00043EA020321FA04F001F0004121FA04F2A7
:1005D00020EA020000EBD3705EEA430E08BF20EA77
:1005E000D37070BD94F0000F0FD101F000464000B1
:1005F00041EB010111F4801F08BF013CF7D041EA33
:10060000060195F0000F18BF704703F00046520036
:1006100043EB030313F4801F08BF013DF7D043EA07
:100620000603704794EA0C0F0CEA135518BF95EABD
:100630000C0F0CD050EA410618BF52EA4306D1D144
:1006400081EA030101F000414FF0000070BD50EA63
:10065000410606BF1046194652EA430619D094EAED
:100660000C0F02D150EA013613D195EA0C0F05D1D7
:1006700052EA03361CBF104619460AD181EA03012B
:1006800001F0004141F0FE4141F470014FF00000E3
:1006900070BD41F0FE4141F4780170BD70B54FF07E
:1006A000FF0C4CF4E06C1CEA11541DBF1CEA1355FE
:1006B00094EA0C0F95EA0C0F00F0A7F8A4EB0504E0
:1006C00081EA030E52EA03354FEA013100F08880D7
:1006D0004FEA03334FF0805545EA131343EA1263A0
:1006E0004FEA022245EA111545EA10654FEA002655
:1006F0000EF000419D4208BF964244F1FD0404F50E
:10070000407402D25B084FEA3202B61A65EB030569
:100710005B084FEA32024FF480104FF4002CB6EB26
:10072000020E75EB030E22BFB61A754640EA0C00A6
:100730005B084FEA3202B6EB020E75EB030E22BFE6
:10074000B61A754640EA5C005B084FEA3202B6EB27
:10075000020E75EB030E22BFB61A754640EA9C00E6
:100760005B084FEA3202B6EB020E75EB030E22BFB6
:10077000B61A754640EADC0055EA060E18D04FEA74
:10078000051545EA16754FEA06164FEAC30343EA14
:1007900052734FEAC2025FEA1C1CC0D111F4801FE1
:1007A0000BD141EA00014FF000004FF0004CB6E7DA
:1007B00011F4801F04BF01430020B4F1FD0C88BF79
:1007C000BCF5E06F3FF6AFAEB5EB030C04BFB6EB84
:1007D000020C5FEA500C50F1000041EB045170BD77
:1007E0000EF0004E4EEA113114EB5C04C2BFD4EBA4
:1007F0000C0541EA045170BD41F480114FF0000E28
:10080000013C90E645EA060E8DE60CEA135594EAA3
:100810000C0F08BF95EA0C0F3FF43BAF94EA0C0FA6
:100820000AD150EA01347FF434AF95EA0C0F7FF41B
:1008300025AF104619462CE795EA0C0F06D152EA6F
:1008400003353FF4FDAE1046194622E750EA410653
:1008500018BF52EA43067FF4C5AE50EA41047FF464
:100860000DAF52EA43057FF4EBAE12E74FF0FF3CC9
:1008700006E000BF4FF0010C02E000BF4FF0010C9A
:100880004DF804CD4FEA410C7FEA6C5C4FEA430C13
:1008900018BF7FEA6C5C1BD001B050EA410C0CBF62
:1008A00052EA430C91EA030F02BF90EA020F0020C4
:1008B000704710F1000F91EA030F58BF994208BF2B
:1008C00090422CBFD8176FEAE37040F001007047E8
:1008D0004FEA410C7FEA6C5C02D150EA013C07D13F
:1008E0004FEA430C7FEA6C5CD6D152EA033CD3D08A
:1008F0005DF8040B704700BF8446104662468C4684
:100900001946634600E000BF01B5FFF7B7FF0028B6
:1009100048BF10F1000F01BD4DF808EDFFF7F4FFDF
:100920000CBF012000205DF808FB00BF4DF808ED6A
:10093000FFF7EAFF34BF012000205DF808FB00BF8D
:100940004DF808EDFFF7E0FF94BF012000205DF8AF
:1009500008FB00BF4DF808EDFFF7CEFF94BF012064
:1009600000205DF808FB00BF4DF808EDFFF7C4FF5D
:1009700034BF012000205DF808FB00BF4FEA410CA6
:100980007FEA6C5C02D150EA013C0AD14FEA430C89
:100990007FEA6C5C02D152EA033C02D14FF00000C6
:1009A00070474FF0010070474FEA410212F5001204
:1009B00015D211D56FF47873B3EB625212D94FEAA6
:1009C000C12343F0004343EA505311F0004F23FA90
:1009D00002F018BF404270474FF00000704750EAE5
:1009E000013005D111F0004008BF6FF000407047A2
:1009F0004FF00000704700BF4A0011D212F50012FC
:100A000011D20DD56FF47873B3EB62520ED44FEA66
:100A1000C12343F0004343EA505323FA02F07047E6
:100A20004FF00000704750EA013002D14FF0FF3024
:100A300070474FF0000070474FEA4102B2F1E043C7
:100A400024BFB3F5001CDCF1FE5C0DD901F0004CB5
:100A50004FEAC0024CEA5070B2F1004F40EB830005
:100A600008BF20F00100704711F0804F21D113F131
:100A70003872BCBF01F00040704741F480114FEA6A
:100A80005252C2F11802C2F1200C10FA0CF320FAF3
:100A900002F018BF40F001004FEAC1234FEAD32310
:100AA00003FA0CFC40EA0C0023FA02F34FEA43037A
:100AB000CCE77FEA625307D150EA01331EBF4FF003
:100AC000FE4040F44000704701F0004040F0FE401E
:100AD00040F40000704700BF7BB972B90029BEBF67
:100AE00000204FF0004106E008BF00281CBF6FF057
:100AF00000414FF0FF3000F057B8ADF1080C6DE940
:100B000004CE002909DB002B1ADB34F003F9DDF8F1
:100B100004E0DDE9022304B07047404261EB41018B
:100B2000002B1BDB34F0F6F8DDF804E0DDE90223EE
:100B300004B0404261EB4101524263EB4303704712
:100B4000524263EB430334F0E5F8DDF804E0DDE9FD
:100B5000022304B0404261EB41017047524263EB13
:100B6000430334F0D7F8DDF804E0DDE9022304B0F4
:100B7000524263EB4303704753B94AB9002908BF97
:100B800000281CBF4FF0FF314FF0FF3000F00CB8D1
:100B9000ADF1080C6DE904CE34F0BCF8DDF804E0EA
:100BA000DDE9022304B07047704700BF0348044BDF
:100BB000834202D0034B03B11847704778030020EB
:100BC00078030020000000000548064B1B1AD90FCF
:100BD00001EBA301491002D0034B03B11847704742
:100BE00078030020780300200000000010B5064CB8
:100BF000237843B9FFF7DAFF044B13B10448AFF38E
:100C000000800123237010BD780300200000000045
:100C10000C50040808B5054B1BB105490548AFF356
:100C20000080BDE80840FFF7CFBF00BF0000000014
:100C30007C0300200C50040870B586B00322002409
:100C4000012301A92B480594CDE901320226CDE903
:100C500003440CF01DFD01A9264801960CF018FD77
:100C60004FF4805301A9244801934FF480650CF0A0
:100C70000FFD01A9214801950CF00AFD4FF48043B6
:100C800001A91E4801930CF003FD01A91B48019620
:100C90000CF0FEFC802301A9174801930CF0F8FC2E
:100CA000402301A9144801930CF0F2FC01A9124859
:100CB00001950CF0EDFC082301A90F4801930CF0FD
:100CC000E7FC04230DEB03010B4801930CF0E0FC5F
:100CD0004FF4007301A9074801930CF0D9FC4FF4BD
:100CE00000630548019301A90CF0D2FC204606B030
:100CF00070BD00BF00000240000802400004024036
:100D000082B000230193064B1A6C42F008021A6469
:100D10001B6C03F008030193019B02B0704700BFF6
:100D200000380240024A136C23F008031364704732
:100D30000038024070B5102694B0374D002432467A
:100D400000210DEB060030F0A2FF21461C220DA869
:100D5000CDE9024430F09BFF2146304A284610F08E
:100D6000CBFE2F4A0121284610F0C6FE2D4BAE6067
:100D7000C5E900342C23C5E9033428468023AB6140
:100D800012F068FF0446002843D14FF480530DEB66
:100D900006012846049311F069FB0446002838D167
:100DA000284613F009F80446002832D1CDE90200A4
:100DB00002A9284613F016FA044650BB3023CDE9A9
:100DC0000D300F90119002460DA9284610F0AEFF8D
:100DD0000446F0B92A689369CDE90A0043F0080394
:100DE0009361114B01901A6B104842F001021A6393
:100DF0001B6B03F001030193019B0122022308A94D
:100E0000CDE908230C930CF043FC2146284611F051
:100E1000BFFF204614B070BD94030020010D0108EF
:100E2000250D0108000C004000380240000002407F
:100E300008B50021034812F05DF8024810F054FB99
:100E4000002008BD9403002070B5134E3368D3B161
:100E5000124CB4FBF0F4651E2946114830F076FBC5
:100E60002046FFF777FA02460B4609A1D1E90001B7
:100E7000FFF714FC02460B460A4830F067FB336864
:100E80000020DD6270BD0120FCE700BFAFF30080F1
:100E9000000000002A7585419403002040A5AE02A1
:100EA000685104087451040808B5024830F0F2FB98
:100EB000002008BD7F51040808B517F0DDFD01468C
:100EC000024830F043FB002008BD00BF275604084D
:100ED000F7B54FF4F0402EF0ABF90446002800F0CF
:100EE0008B81CB4830F0D6FBCA4B1B68DB0340F14B
:100EF00070810EF029FF07EE900AF8EE677A17EE80
:100F0000900AFFF749FABEA3D3E90023FFF7C6FB17
:100F10000246C1480B4630F019FBC049C04830F0CA
:100F200015FBC04830F0B6FB17F0A6FD14260546A9
:100F30004FF4F0420021204630F0A9FE013EF7D1E7
:100F400017F09AFD401B07EE900AF8EE677A142618
:100F500017EE900AFFF720FAB34B0022FFF79EFB33
:100F600002460B46B1481E2130F0F0FA17F084FD1E
:100F700004F5705705464FF470523946204631F05B
:100F800048F8013EF7D117F077FD401B07EE900AB5
:100F9000F8EE677A142617EE900AFFF7FDF9A24BD8
:100FA0000022FFF77BFB02460B46A1480F2130F0E1
:100FB000CDFA17F061FD05464FF4705239462046D0
:100FC00030F03CFE013E0190F6D117F055FD401B7C
:100FD00007EE900AF8EE677A142617EE900AFFF7EC
:100FE000DBF9914B0022FFF759FB02460B46914873
:100FF0000F2130F0ABFA904830F04CFB17F03CFD7D
:1010000005468E494FF47052204631F002F8013EF9
:10101000F7D117F031FD401B07EE900AF8EE677A22
:10102000142617EE900AFFF7B7F97F4B0022FFF75F
:1010300035FB02460B467E480F2130F087FA17F049
:101040001BFD05467D484FF47052214630F0F6FDF9
:10105000013E0190F6D117F00FFD401B07EE900AFC
:10106000F8EE677A17EE900AFFF796F96E4B0022BA
:10107000FFF714FB02460B466E480F2130F066FA6C
:101080006F4830F007FB0023009317F0F5FC42F2A5
:1010900010730546B7EE007ADDED007A77EE877AB9
:1010A000013BCDED007AF7D117F0E6FC401B07EECF
:1010B000900AF8EE677A634F17EE900AFFF76CF923
:1010C00051A3D3E90023FFF7E9FA02460B465E4835
:1010D00030F03CFA009717F0CFFC4FF47A760546D3
:1010E0000098FFF759F941EC100B2CF08BFB51ECF9
:1010F000100BFFF7A1FC013E0090F1D117F0BCFCF2
:10110000401B07EE900AF8EE677A4FF47A7617EEF6
:10111000900AFFF741F94D4B0022FFF7BFFA024654
:101120000B464B4830F012FA4A4B009317F0A4FCE0
:1011300005460098FFF730F941EC100B2CF098FBB6
:1011400051EC100BFFF778FC013E0090F1D117F045
:1011500093FC401B07EE900AF8EE677A4FF47A751D
:1011600017EE900AFFF718F9384B0022FFF796FAAE
:1011700002460B46384830F0E9F9009717F07CFC3E
:1011800006460098FFF708F941EC100B2CF0F8FA2E
:1011900051EC100BFFF750FC013D0090F1D117F01E
:1011A0006BFC801B07EE900AF8EE677A17EE900A48
:1011B000FFF7F2F8254B0022FFF770FA02460B46C4
:1011C000264830F0C3F920462EF03AF8284603B0FE
:1011D000F0BD0EF0B9FD07EE900AF8EE677A17EE53
:1011E000900AFFF7D9F806A3D3E90023FFF756FAD0
:1011F00002460B461A488EE64FF48670E7E700BFBA
:101200000000000080842E41000000000088C340E0
:101210002C5604080038024046560408D3B9040886
:10122000655604086E560408000034408A560408C7
:10123000A2560408BA560408D2560408D9B00108C8
:10124000EF56040800401C460C57040800408F402D
:1012500024570408C3F548403C5704085457040871
:101260005456040813B547F23052084601AB012129
:1012700018F064FD044610B9019814F089FE204668
:1012800002B010BD13B5074A084601AB012118F0A2
:1012900055FD044610B9019817F0E4FB204602B052
:1012A00010BD00BF80C3C90108B50AF041FB01466B
:1012B000024830F04BF9002008BD00BF2756040853
:1012C00030B58DB00D461422002107A830F0DFFCA8
:1012D0000023069340F633020DF116034FF4FA6132
:1012E000284618F072FD0446002864D1BDF8163077
:1012F00030338DF81B300C220DF1190301212846E3
:1013000018F06EFD0446002855D10DF11A031F2276
:101310000121284618F064FD044600284BD10146FF
:1013200007AB1722284618F05BFD0446002842D17F
:1013300001460DF11D033B22284618F051FD0446DD
:10134000002838D101460DF11E033B22284618F033
:1013500047FD044678BB024606A918480FF022FA5A
:10136000044640BB024607A914480FF01DF9044685
:1013700008BB024607A911480FF0E4F90446D0B9AA
:10138000024606A90D480FF0ABFA044698B99DF83D
:101390001E309DF81B1002939DF81D3001939DF89F
:1013A0001C3000939DF819209DF81A30044801F56F
:1013B000FA6130F0CBF820460DB030BD2438002063
:1013C0006C57040810B58AB01248002205A90FF026
:1013D000B9F90446D0B9024604A90E480FF080FAC4
:1013E000044698B99DF816309DF8131002939DF8A5
:1013F000153001939DF8143000939DF811209DF84D
:101400001230054801F5FA6130F0A0F820460AB024
:1014100010BD00BF243800206C57040808B5002018
:1014200018F0C0FE002008BD08B5084830F032F9B9
:1014300018F0CAF908F0BAFC0146054830F086F801
:10144000024830F027F9002008BD00BF8B57040880
:10145000C857040813B5FF2208460DF10703002101
:1014600018F0BEFC0446A0B99DF807302A2B13D112
:101470000A4830F00FF90A2014F08AFD084B1B6867
:1014800098682FF0FDFD4FF4FA7014F081FD08F01C
:1014900093F9204602B010BD0124FAE7DE57040894
:1014A00028030020204B1868204B2DE9F0411E68CE
:1014B0001F4C204BE41A241118B103780BB130F003
:1014C000E9F81C4DDFF880800027BC4208D126B126
:1014D000337813B1304630F0DDF80020BDE8F081FC
:1014E000EA68CAB12968B9B11378ABB10B7818F8BA
:1014F0000300800703D103F0EF002A2803D10E4830
:1015000030F024F808E02D2B03D03F2B07D00B49F7
:10151000F5E70B4830F0BEF801371035D5E7114636
:10152000084830F013F8F7E704000020000000201E
:10153000681F0508A804050809580408535C040836
:10154000155804086558040821FF040807B504214C
:101550000DEB010000F004FB0198FEF71DFF0246B1
:101560000B4603482FF0F2FF002003B05DF804FBA8
:10157000D65B040807B504210DEB010000F0B4FAB6
:101580000198FEF709FF02460B4603482FF0DEFFE5
:10159000002003B05DF804FBD65B040807B501A882
:1015A00000F064FA0198FEF7F7FE02460B46034886
:1015B0002FF0CCFF002003B05DF804FBEB5B0408C8
:1015C000F7B54248424C434D2FF0C0FF14F8011BC1
:1015D00041482FF0BBFFAC42F8D10A203F4C2FF01E
:1015E000FBFF3F4830F056F83E482FF0AFFF216830
:1015F0003D482FF0ABFF61683B482FF0A7FFA16883
:1016000039482FF0A3FF0A202FF0E6FF374867681C
:101610002FF09CFF00240025E619A95D3448013510
:101620002FF094FF102DF8D132482FF08FFF0025B6
:10163000A85DA0F120035E2B88BF2E2001352FF07E
:10164000CBFF102DF4D10A202FF0C6FF04F58074D3
:1016500029482FF07BFFB4F5E06FDCD10A202FF092
:10166000BBFF684600F002FA0098FEF795FE0246BE
:101670000B4622482FF06AFF04210DEB010000F019
:1016800033FA0198FEF788FE02460B461C482FF0FD
:101690005DFF04210DEB010000F062FA0198FEF7F6
:1016A0007BFE02460B4617482FF050FF4FF40051C7
:1016B00015480CF0E3F9154B1549002808BF1946E9
:1016C00014482FF043FF002003B0F0BD035C040872
:1016D000107AFF1F207AFF1F105C04080000FF1F14
:1016E000155C0408215C04082E5C0408355C0408C1
:1016F000425C0408525C0408485C0408EB5B040884
:10170000555C0408D65B0408000802400AB40408CB
:10171000126F04086A5C04080020704708B502488C
:101720002FF0B8FF002008BDEE5C040808B50248A1
:101730002FF0B0FF002008BDF8DE04087FB50A4B8B
:1017400004930A4B03930A4B02930A4A0A4B0193F0
:10175000D37F0093937F09480A3210212FF0F6FEC1
:10176000002007B05DF804FB1D5D0408375D040828
:10177000445D0408240000204E5D0408F55C040864
:1017800038B51B4C1B482FF0E1FE236898682FF0FA
:1017900077FC19482FF0DAFE236898682FF070FC68
:1017A000312528462FF018FF236898682FF068FC31
:1017B0000135642014F0ECFB362DF2D123680F487C
:1017C00099682FF09DFE236898682FF059FC32200D
:1017D00014F0DEFBBFF34F8F09490A4BCA6802F4CD
:1017E000E0621343CB60BFF34F8F00BFFDE700BF44
:1017F0002803002002580408555D0408745D04089D
:1018000000ED00E00400FA0508B5032A18D8DFE867
:1018100002F0020E10120B4B196807290DD80A4B63
:101820000A4833F811102FF091FE002008BD084B34
:10183000F2E7084BF0E7084BEEE708482FF086FE8A
:101840000120F3E7140000200CF004087C5F04087A
:10185000100000200C00002008000020805F040819
:1018600007B5032A38D8DFE802F002131F2B1B4B01
:1018700001A8196800F038F90198FEF78DFD0246BD
:1018800017480B462FF062FE002003B05DF804FB02
:10189000144B01A8196800F063F90198FEF77CFD6C
:1018A00002460B461048EDE7104B01A8196800F0FE
:1018B00093F90198FEF770FD02460B460C48E1E7EC
:1018C0000C4B01A8196800F0C3F90198FEF764FDFC
:1018D00002460B460848D5E70120D6E71400002051
:1018E000555C040810000020D65B04080C000020A2
:1018F000995F040808000020AE5F040813B508468D
:10190000144601AB4FF4F072032118F017FA68BBCC
:10191000019B542B1CD00DD81C2B1BD006D8032B9D
:101920001AD00F2B1AD04FF48B701FE0382BFAD13E
:10193000032307E0902B13D0B3F5F07F12D0702B68
:10194000F1D10523032C19D8DFE804F00E12141688
:101950000423F7E70223F5E70346F3E70123F1E762
:101960000623EFE70723EDE7054A136002B010BD39
:10197000044AFAE7044AF8E7044AF6E70120F5E7E3
:1019800014000020100000200C000020080000209F
:1019900010B58CB0314B0021019114465A6C42F4C1
:1019A00080725A645A6C02F480720192019A029118
:1019B0005A6C42F400725A645A6C02F40072029239
:1019C000029A03915A6C42F480625A645A6C02F48F
:1019D00080620392039A04911A6B42F001021A6327
:1019E0001A6B02F001020492049A05911A6B42F0FC
:1019F00002021A631A6B02F002020592059A06911E
:101A00001A6B42F004021A631B6B03F00403069383
:101A1000142207A8069B30F03AF9032C1BD8DFE804
:101A200004F0020D0F13012307930D4803230893BD
:101A300007A90BF02DFE00200CB010BD0223F3E728
:101A400008482FF027FEF6E702220323CDE90723FB
:101A5000054807A9EDE70120EEE700BF0038024086
:101A600000000240C35F040800040240194B30B577
:101A700005460FCB85B08DE80F00694616480AF081
:101A800095F9322016F0EEFF13480AF0A7F864210A
:101A900011480AF035F910480AF085F90F4B9FED0F
:101AA000107A9A8DDB8D811A07EE901AF8EE677A1C
:101AB0009B1A67EE877A07EE103AB8EEC77A0020D5
:101AC000C7EE876AF3EE0E7A76EEA77AC5ED007A56
:101AD00005B030BD2850040844340020007AFF1FB0
:101AE0000000A0420000000030B5002485B00123B2
:101AF000CDE90214054669461748CDE900430AF0CE
:101B000055F9322016F0AEFF13480AF067F8642149
:101B100011480AF0F5F810480AF045F907EE900A66
:101B20009FED0E7AF8EE677AC7EE877A17EE900A85
:101B3000FEF732FC06A3D3E90023FEF785FCFEF78F
:101B40007BFF2860204605B030BD00BFAFF30080AA
:101B50006666666666660A40B433002000F07F451C
:101B600030B585B001230446029100256946184826
:101B70000395CDE900330AF019F9322016F072FF0F
:101B800013480AF02BF8642111480AF0B9F81048FC
:101B90000AF009F907EE900A9FED0E7AF8EE677ADF
:101BA000C7EE877A17EE900AFEF7F6FB06A3D3E995
:101BB0000023FEF749FCFEF73FFF2060284605B0F2
:101BC00030BD00BFAFF300806666666666660A4099
:101BD000FC33002000F07F4530B5002485B00123A0
:101BE000CDE90214054669461748CDE900430AF0DD
:101BF000DDF8322016F036FF134809F0EFFF6421BC
:101C000011480AF07DF810480AF0CDF807EE900A66
:101C10009FED0E7AF8EE677AC7EE877A17EE900A94
:101C2000FEF7BAFB06A3D3E90023FEF70DFCFEF78F
:101C300003FF2860204605B030BD00BFAFF3008031
:101C40006666666666660A40FC33002000F07F45E3
:101C500030B585B00922012304460291002569466A
:101C600017480395CDE900230AF0A0F8322016F0BA
:101C7000F9FE134809F0B2FF642111480AF040F858
:101C80000F480AF090F807EE900A9FED0E7AF8EEF2
:101C9000677AC7EE877A17EE900AFEF77DFB06A3F8
:101CA000D3E90023FEF7D0FBFEF7C6FE20602846EE
:101CB00005B030BDAFF300806666666666660A40B2
:101CC0004434002000F07F45F0B58BB014460F4639
:101CD0001422002168462FF0DAFF04F01F03013BB5
:101CE000112B64D8344A52F82350344A32F8136026
:101CF00004F0C003C02B0AD10021102206A82FF047
:101D0000C6FF059605A928460BF0C2FC26E004F0A4
:101D1000A003A02B24D10024012305A92846CDE946
:101D200007440994069305960BF0B2FC05A93846C2
:101D30008DF8144017F002FE044648B1B0F58B7FD1
:101D400003D040F23D13984218D100238DF814308F
:101D50009DF81420314628460BF0A2FE00240DE029
:101D6000A1060ED505A9384617F0E8FD044628B9A6
:101D70009DF81420314628460BF092FE20460BB009
:101D8000F0BD62060CD5314628460BF077FE0C4BB1
:101D90000C4A002818BF1A4610462FF07BFCDDE7DE
:101DA000E30504D50323009601936946ABE7064893
:101DB0002FF070FC0124E1E740F004081CF0040857
:101DC000535D0408F8DE0408C2610408024BF722E0
:101DD0001A700020704700BF98330020034A137820
:101DE00043F0080313700020704700BF98330020B1
:101DF00007B508460DF1070117F0A0FD38B99DF8A9
:101E00000720064B32B11A7842F004021A7003B070
:101E10005DF804FB1A7802F0FB02F7E79833002024
:101E200007B508460DF1070117F088FD38B99DF890
:101E30000720064B32B11A7842F002021A7003B042
:101E40005DF804FB1A7802F0FD02F7E798330020F2
:101E500007B508460DF1070117F070FD38B99DF878
:101E60000720064B32B11A7842F001021A7003B013
:101E70005DF804FB1A7802F0FE02F7E798330020C1
:101E800010B586B00C461422002101A82FF0FFFEE9
:101E900020460DF103030222002117F0A1FF0446A2
:101EA00078B99DF803307BB1012B0CBF01230223CD
:101EB0000648039301A90BF0EBFB054801A90BF0C1
:101EC000E7FB204606B010BD0346F1E700080240DC
:101ED0000004024007B508463AB10D490D482FF0FD
:101EE00035FB002003B05DF804FB0DF1070117F08E
:101EF00025FD0028F6D19DF80730074A003B18BFA2
:101F00000123DB01104613620BF0F0FFEAE700BF8C
:101F1000626F0408DEBC0408D037002007B508460D
:101F20003AB10D490D482FF011FB002003B05DF8C8
:101F300004FB0DF1070117F001FD0028F6D19DF813
:101F40000730074A003B18BF01239B011046D361AD
:101F50000BF0CCFFEAE700BF626F0408DEBC0408A8
:101F6000D037002007B508463AB10C490C482FF08D
:101F7000EDFA002003B05DF804FB0DF1070117F046
:101F8000DDFC0028F6D19DF80730064A003B18BF5B
:101F90000123104653610BF0A9FFEBE7626F0408C1
:101FA000DEBC0408D037002007B5084642B10B4B11
:101FB0000B4859682FF0CAFA002003B05DF804FB03
:101FC000084A01AB012117F0B9FE0028F5D1034AF8
:101FD000019B536010460BF089FFEEE7D0370020DD
:101FE000696F0408801A060007B5084611464AB111
:101FF000104B11481B6819692FF0A8FA002003B094
:102000005DF804FB01AB4FF0FF3217F097FE00289C
:10201000F5D108490B681A6822F001021A60019A8A
:102020004A6022F070621A611A6842F001021A6076
:10203000E5E700BF8C340020696F04082DE9F04FFC
:10204000C7B08A460DF114080DF1160704AE002141
:1020500015464FF0020B33464FF6FF72504639805B
:10206000A8F800B017F0B1FE0146002840F06281E8
:10207000338805F1FF395B00B9F1010F338050D887
:102080000DF112034FF6FF72504617F09EFE044604
:1020900038B943465A460121504617F096FE044689
:1020A00030B1204647B0BDE8F08FB9F1090F0ED826
:1020B00040F2B52323FA09F3DB0708D53B46FF229C
:1020C0000121504617F081FE04460028E9D1023D67
:1020D000082D3DD840F2AD13EB4013F0010310D0B2
:1020E00000250DF1180B0BEB0503FF2200215046D4
:1020F00017F076FE044620BB0135B5F5807FF2D19E
:10210000ABB2B9F1090F00F21781DFE819F0230033
:10211000440053006E0076009B00BB00C900E50040
:10212000ED00AB1F012BC0D80DF112034FF6FF726B
:10213000504617F04AFE04460028B2D1434610220A
:10214000A9E740F23D139842ABD1002DD8D1A8E7C2
:102150000023D6E7642302933B88019306AD0095E4
:10216000B8F80030BDF81220318874480BF0F4F84C
:102170000446002895D13B88A34201DC002490E767
:1021800014B12C202FF028FA15F8011B6C482FF001
:10219000DDF90134EFE76422CDE9013206AB0093AB
:1021A000B8F80030BDF81220318864480AF0F0FF1A
:1021B000044676E7642300933B8831885F4806AA8B
:1021C0000AF04CFF044600287FF46BAF06AD3B8855
:1021D000A342D3DD14B12C202FF0FEF915F8011B1A
:1021E00057482FF0B3F90134F1E7642200923188A7
:1021F000524806AA0AF084FEDAE764250095318881
:102200004E4806AA0AF07CFE044600287FF449AF37
:1022100000953B883188494806AA0AF01FFF04460A
:1022200000287FF43EAF06AD3B88A342A6DD14B183
:102230002C202FF0D1F915F8011B41482FF086F919
:102240000134F1E7642302933B88019306AD0095C6
:10225000B8F80030BDF8122031883A480CF03EFA48
:10226000044600287FF41DAF3B88A34286DD14B1ED
:102270002C202FF0B1F915F8011B31482FF066F929
:102280000134F1E76422CDE9013206AB0093B8F8DE
:102290000030BDF8122031882A480CF085F987E714
:1022A000642300933B883188264806AA0CF004F882
:1022B000044600287FF4F5AE06AD3B88A3427FF7C5
:1022C0005DAF14B12C202FF087F915F8011B1C48C5
:1022D0002FF03CF90134F0E764220092318819486C
:1022E00006AA0BF00FFF63E76425009531881548B7
:1022F00006AA0BF007FF044600287FF4D2AE009533
:102300003B8831880F4806AA0BF0D6FF0446002808
:102310007FF4C7AE06AD3B88A3427FF72FAF14B161
:102320002C202FF059F915F8011B05482FF00EF954
:102330000134F0E70446B4E60124B2E68C34002010
:10234000716F0408D037002037B59FED251B084674
:102350009FED250B6A46002117F04EFB054600282D
:1023600037D1234BD3F8942012F4400F1FD10DF036
:102370006BF90446DDE90001FEF73EFB014620460D
:1023800000F0FCF9044601461A482FF0DFF8FCB1D2
:1023900019490B681A6822F001021A604C6024F097
:1023A00070641C611A6842F001021A6011E0D3F8EF
:1023B000942002F44002B2F5800F02D10DF0C4FC6B
:1023C000D7E7D3F8943003F44003B3F5000F03D0FC
:1023D0000125284603B030BD084CCBE7AFF30080A1
:1023E0000000000065CDCD410000000000000000AD
:1023F00000380240766F04088C3400200024F4007A
:1024000008B532B1012A09D006482FF043F901205E
:1024100003E0054808F044FC002008BD034808F02C
:10242000A9FDF9E7C26104088C340020D0370020F0
:1024300007B5084672B1114B11491B69114813F4D5
:10244000804F114B18BF19462FF080F8002003B0C1
:102450005DF804FB0DF1070117F070FA0028F6D1C2
:102460009DF807300548002B0CBF4FF440434FF454
:10247000804303610BF03AFDE9E700BFD03700204D
:10248000956F0408DEBC0408906F040807B5084681
:102490007AB1104B10491B6810481B6813F4805F19
:1024A0000F4B18BF19462FF051F8002003B05DF80C
:1024B00004FB0DF1070117F041FA0028F6D19DF851
:1024C000073023B1014603480BF02EF8EEE74FF436
:1024D0008051F8E78C340020126F0408DEBC040839
:1024E0000AB4040807B5084611465AB10D4B0E4808
:1024F0001B681968C1F303212FF028F8002003B0EE
:102500005DF804FB0DF107030F2217F069FC0028AA
:10251000F5D19DF80710034801F00F010BF03EF8CC
:10252000EDE700BF8C340020FE9E040807B5084686
:102530007AB1134BDA6AD20709D5DB6A9B0706D555
:1025400010482FF003F8002003B05DF804FB0E489C
:10255000F7E70DF1070117F0F1F90028F4D19DF824
:10256000073001202BB10BF051F802200BF04EF890
:10257000E9E70BF06BF802200BF068F8E3E700BF27
:1025800000380140126F04080AB40408000000007B
:1025900038B51046002A5BD1454BD3F8942012F48D
:1025A000400F3DD10DF050F8424C07EE900AF8EE86
:1025B000677A17EE900AFDF7EFFE3BA3D3E90023FD
:1025C000FEF76CF80B4621463B4C02463B482EF08A
:1025D000BDFF23683A4819692EF0B8FF394BDA6A13
:1025E000D20733D5DB6A384913F0020F374B08BFE7
:1025F000194637482EF0AAFF236836481968C1F3F8
:1026000003212EF0A3FF236833481B682E4913F4DF
:10261000805F2E4B18BF19462EF098FF002038BD62
:10262000D3F8942002F44002B2F5800F03D10DF0EC
:102630008BFB2A4CB9E7D3F8943003F44003B3F58D
:10264000000F12BF264C2748274CAEE71F49D0E7A2
:10265000012AE3D1254C264861681B4D2EF076FFF8
:102660002269244B24492548002A08BF19462EF028
:102670006DFF636915492248002B18BF29462EF0CB
:1026800065FFE36911491F48002B18BF29462EF04A
:102690005DFF216A0D4B1C48002918BF2B461946C7
:1026A000BAE700BFAFF300800000000080842E4135
:1026B00000380240AA6F04088C340020BF6F040861
:1026C000766F040800380140126F04080AB4040849
:1026D000DE6F0408F36F0408087004089B6F040899
:1026E000A26F04080024F400B06F0408D037002063
:1026F0001D700408B96F0408B46F04083270040830
:1027000049700408607004087770040808B5094827
:102710002EF0C0FF08490B681A6822F001021A6007
:10272000064A1A614A601A6842F001021A600020E3
:1027300008BD00BF8E7004088C340020362C900039
:1027400008B532B1012A0BD009482EF0A3FF0120B1
:1027500005E0FFF7DBFF074808F05CFA002008BD42
:10276000054808F0B5FB04480BF0C0FBF6E700BFD6
:10277000C26104088C340020D03700202DE9F04FCE
:102780008BB018B900200BB0BDE8F08F834B994295
:10279000F8D9834B99425ED9824B9942F2D9824B48
:1027A00099425AD9814BA1F54321A1F5A0619942E3
:1027B000E8D80221DFF804C20CEB5003B3FBF0F0C1
:1027C0007B4B2C2202FB013305465A6A03921A6A9C
:1027D0000192019C5A691B69A2180492039A1B1B5F
:1027E000A2F13206A3F5827300EB4002B61AA3EB06
:1027F0008003704A23EAE373029313680093002472
:1028000026EAE6761A46A2464FF0100BA9464FF08C
:10281000000E049BCDF814E099450EF1010E27D36C
:102820000027B846BE421DD8029BBB421AD35C4566
:1028300018D0142303FB02FB5F4B013203EB0B0A9E
:1028400043F80B40059B7F2ACAE9013807D9594B49
:1028500000921A6017E00021ACE70121AAE7A34625
:102860004FF0010A08F10108B8F1100F2F44D9D137
:10287000BEF1100FA944CCD10134102C0544C5D1B0
:10288000BAF1000FE3D12C225143494B039C019D27
:1028900003EB010E5B5848490CEB53022C44B2FB8E
:1028A000F3FBDEF80430BCFBF3F30293DEF80830F0
:1028B000BCFBF3F30493430003F13202E3180592E7
:1028C000D94600264FF0FF320993009B9E4219D152
:1028D0007F2A3FF657AF384B14214A4399189B582B
:1028E000087C40EA03704B681B0503F4700318432F
:1028F0008B681B0403F470231843CB681B029BB244
:10290000184340E7DEF818400B680394059C03FB6E
:1029100000031C190194099CE5183235019C0895A7
:102920004FF0000C039DCDF81CC0AC420CF1010C23
:102930002CD9A4F13205B0EB950F27D2089DDDF814
:1029400004A025444FF00008049FCDF81880AF4242
:1029500008F1010815D8029FAF4212D3DEF81C70AF
:1029600057450ED850450CD2A5EB0B07002FB8BF2A
:102970007F42B94505D9079A0A61069ACA60B946E5
:102980003246B8F5807F1D449A44DDD1BCF5807F86
:102990001C44C7D10136143197E700BF7F380100CE
:1029A000C0D40100FFE1040000530700801A0600B4
:1029B00088F00408480400204C04002000CA9A3B18
:1029C00013B5084612F0200114463BD09FED3A1B88
:1029D0009FED3B0B6A46002117F00EF8C8B9DDE900
:1029E00000013B4B0022FDF72FFD04F01F04013CCA
:1029F000CDE90001052C20D8DFE804F003030D1316
:102A00001919FEF719F800EE100A052000F0F0FE83
:102A1000002002B010BDFEF70FF800EE100A0C20E7
:102A2000F4E7FEF709F800EE100A0220EEE7FEF7E1
:102A300003F800EE100A0320E8E726482EF02AFEED
:102A40000120E6E71306F8D59FED1F1B9FED1C0B39
:102A50006A4616F0D1FF0028DBD104F01F04013CC8
:102A6000052CEAD8DFE804F003030D151D1DDDE990
:102A70000001FDF7E1FF00EE100A052000F00CFF59
:102A8000C6E7DDE90001FDF7D7FF00EE100A0C20D4
:102A9000F4E7DDE90001FDF7CFFF00EE100A0220A8
:102AA000ECE7DDE90001FDF7C7FF00EE100A0320A7
:102AB000E4E700BFAFF300800000000000005940D1
:102AC00000000000000000000000000000408F40F7
:102AD00000002440C261040808B515482EF0DAFD54
:102AE000144B154819682EF031FD144B1448196821
:102AF0002EF02CFD134B186807EE900AF8EE677A5B
:102B000017EE900AFDF748FC0F4B0022FDF7C6FDBB
:102B100002460B460D482EF019FD0D4B0D48196865
:102B20002EF014FD0C482EF0B5FD002008BD00BFAE
:102B30008F770408600E0020A57704085C0E002043
:102B4000B6770408580E002000002440C777040818
:102B5000540E0020DA7704084F580408DFB55106F8
:102B60002FD502F01F02013A052A25D8DFE802F02E
:102B70000315171A221F0022052102A800F082FF68
:102B8000044638B90298FDF707FC02460B461E487A
:102B90002EF0DCFC204604B0D0BD0422ECE700227D
:102BA0000C21EAE7082202210DEB0200E6E70022F1
:102BB0000321E2E70422FBE714482EF06BFD012419
:102BC000E8E71306F8D502F01F02012A1AD0053AE9
:102BD000012AF1D8032203A902A800F0F7FE044657
:102BE0000028D7D10398FDF7D7FB064602980F4679
:102BF000FDF7D2FB3246CDE900013B4604482EF0FA
:102C0000A5FCC7E70522E6E7F1770408C2610408DE
:102C1000EB77040802F4387002F01F02013A08B59D
:102C2000052A1CD8DFE802F003070B0F1317BDE8D5
:102C3000084000F073BFBDE8084001F04DB8BDE8A2
:102C4000084001F027B9BDE8084001F0AFB9BDE880
:102C5000084001F039BABDE8084001F029BB02483C
:102C60002EF018FD012008BDC261040808B500F06F
:102C70005FFBFEF7DDF800F0C3FA002008BD00009E
:102C800007B59FED0B0B08469FED0B1B6A46002115
:102C90008DED000B16F0B0FE28B9DDE90001FDF75F
:102CA000ABFEFEF7D1F803B05DF804FBAFF3008094
:102CB0000000000000000000000000002A758541AF
:102CC00008B500F09DFA00F033FBFEF733F8002062
:102CD00008BD08B500F094FAFEF7AAF8BDE8084070
:102CE00000F0AABA2DE9F041ADF5976D0DF102069D
:102CF0000123084633804FF496723346002117F0C3
:102D000064F80446E0B901464FF4966202A80DF15A
:102D100004082EF0BCFF3088424602A900F07CF97E
:102D2000044668B902AD07463388BB420DDCD8F8CB
:102D30000000FDF731FB02460B4609482EF006FC69
:102D400020460DF5976DBDE8F08155F8040BFDF7B1
:102D500023FB02460B4603482EF0F8FB0137E3E75E
:102D600040BC0408FB77040808B5FEF761F800F0E2
:102D7000DFFA00F0CFF9002008BD0000037F012B2F
:102D800002D1044A13607047022B02BF024B01229A
:102D90001A6070474C0E0020500E002010B5002421
:102DA00088B0CDE90544144B01941A6C134842F0E5
:102DB00008021A641A6C02F008020192019A029445
:102DC0001A6B42F001021A631B6B03F001030293BA
:102DD000029B0122022303A9CDE9032307930AF0F2
:102DE00057FC22460521322009F0B8F8322009F0BC
:102DF000F7F808B010BD00BF0038024000000240E4
:102E000030B5002589B0CDE90555314B01951A6CD7
:102E1000304C42F008021A641A6C02F00802019267
:102E2000019A02951A6B42F001021A631B6B03F0C0
:102E300001030293029B01200223CDE9030303A9AE
:102E4000254807930AF024FCDFF89CC04FF040634C
:102E5000C4E900C34FF4806E4FF48053C4E904E327
:102E600020464FF48043C4E90255C4E90635C4E95D
:102E7000085509F0F7F808B108F0A6F8174D184AF8
:102E80006C62A563174C4FF04063C4E900234FF414
:102E900080614FF480520023C4E9041220464FF4AD
:102EA0008042C4E90233C4E90623C4E9083309F0C7
:102EB000D9F808B108F088F8002205213220AC6268
:102EC000A56309F04BF8322009F08AF809B030BD4B
:102ED000003802402418002000000240841800201E
:102EE00070600240C417002040600240074A084852
:102EF00008B5136C23F00803136401210AF00EFDDA
:102F0000BDE80840322009F07FB800BF0038024019
:102F10000000024038B504460CF096FB237F022BDC
:102F20001FD1002120460EF039FD104D04212860EC
:102F300020460EF033FD0E4A0E49106013680E4C09
:102F400083B113682A684FF47A704343B3FBF2F3FA
:102F5000C31A0B600CF078FB2B684000B0FBF3F059
:102F6000206038BD0B602360FBE700BF600E0020CF
:102F70005C0E0020580E0020540E00202DE9F84F62
:102F800012F0D0FFDFF888B01D4F1E4D824600269C
:102F900012F0C8FFA0EB0A00FDF7DCF932468046CC
:102FA00089463B46DBE90001FDF74EFA02460B4637
:102FB00040464946FDF7BAFC044660B9014612484E
:102FC00010F048FD1048042110F044FD0F4B2C6018
:102FD0001C60032012E02B68012BD9D10B4B1A681F
:102FE000012AD5D10024214607481C602C6010F02E
:102FF00031FD0548042110F02DFD2046BDE8F88F75
:1030000000408F40500E0020841800204C0E0020FD
:1030100018000020000000002DE9F04F384B87B069
:103020000C460021039206465962364A36484FF450
:10303000967310F0C9FB354A33484FF49673042158
:1030400010F0C2FBFFF79AFF0546002852D1DFF8C7
:10305000BCA02C4F04EB860B80465C450CD1B8FB22
:10306000F6F807EE908A039BF8EE677AC3ED007AD4
:10307000284607B0BDE8F08FD7F8049057F8043B16
:103080005AF8042F0593994536BF09F1FF30A9EB93
:103090000300C01A0492FDF75DF9049A059B91455F
:1030A000CDE9000134BFA2EB0900D01AFDF752F9B7
:1030B000DDE90023FDF7F2FA154B0022FDF7C4F914
:1030C000FDF7BAFC44F8040B4046FDF743F9DDE98F
:1030D00000238046894608A1D1E90001FDF7DEFA08
:1030E00002460B4640464946FCF7F8FFFDF784FCD4
:1030F0008046B2E70325BBE7000000002A75954132
:10310000000C00401413002084180020640E0020DE
:103110000000594010B58CB00024344B01941A6B58
:1031200042F400121A631B6B03F4001322460521BC
:1031300001930D20019B08F011FF0D2008F050FFB6
:10314000224605210F2008F009FF0F2008F048FF54
:10315000102221460DEB02002EF099FD102221468F
:1031600008A8CDE902442EF092FD214A21482146CB
:103170000EF0C2FC1F4A204B9460C2E90034104696
:103180004FF0FF33C2E90334946110F063FD28BBB4
:103190004FF480531748049304A90FF067F9E8B976
:1031A000144810F06DFFC8B9CDE9020002A911481A
:1031B00011F018F8024688B90123CDE909300890CA
:1031C0000B9008A90B480EF0F7FF38B90223094805
:1031D000042208A9CDE908330EF0EEFF074A05489E
:1031E00012210EF089FC0CB010BD00BF0038024067
:1031F000012E010884180020000C00407D2D0108DC
:103200000A4A0B48136C10B523F00803094C1364E9
:1032100001210AF083FB606A09F04EF8A06A09F008
:103220004BF8322008F0F0FE002010BD00380240BC
:10323000000002408418002030B591B01022002117
:1032400003A82EF024FD142200210BA800242EF048
:103250001EFD1022002107A82EF019FD2F4A30482C
:103260002146CDE901440EF047FC2E4A2C480121AD
:103270000EF042FC2A4A2C4B9460C2E900341046FE
:103280004FF0FF33C2E90334946110F0E3FC0028EF
:1032900032D14FF480532248039303A90FF0E6F88C
:1032A00050BB1F4810F0ECFE30BB0224CDE90D40AE
:1032B00050230F9004251A480BA9CDE90B530FF0AA
:1032C000ABFC0246C0B90123CDE908300A9007A93A
:1032D000134807940EF070FF70B9CDE907042A4631
:1032E0000F4807A90EF068FF30B9CDE901000DEBDA
:1032F00005010B4810F076FF0948042110F0F8F89A
:1033000048B90146064810F0F3F820B9074A0448C6
:1033100012210EF0F1FB11B030BD00BF9D2D010850
:1033200084180020ED2E0108000C0040152F010824
:1033300010B5094C23686BB10421204610F0AEF99A
:103340000021204610F0AAF9322008F05DFE204648
:103350000EF0CAF8002010BD8418002001480EF0BD
:103360007DBA00BF84180020014809F06DB800BF85
:1033700024180020014809F067B800BFC4170020D6
:1033800010B514228AB0044600210DEB02002EF085
:103390007EFC2368224A934220D1224B22480021FE
:1033A00001911A6C42F008021A641A6C02F00802C9
:1033B0000192019A02911A6B42F001021A631B6B8F
:1033C00003F0010302930121029B0223CDE90513BF
:1033D000099305A90AF05CF90AB010BD134A93429B
:1033E000FAD1104B1248002103911A6C42F00202EC
:1033F0001A641A6C02F002020392039A04911A6B87
:1034000042F004021A631B6B03F004030493049B51
:1034100040220223CDE90523099305A9DAE700BF7D
:10342000000C004000380240000002400004004050
:103430000008024010B504468EB01422002109A8ED
:103440002EF025FC2368B3F1804F20D103F50E3315
:10345000002101911A6C42F001021A641A6C02F008
:1034600001020192019A02911A6B42F002021A6360
:103470001B6B03F002030293029B4FF48061022353
:10348000CDE9091301233C480D9309A922E03B4AE9
:10349000934227D13A4B002103911A6C42F0020269
:1034A0001A641A6C02F002020392039A04911A6BD6
:1034B00042F004021A631B6B03F004030493049BA1
:1034C000304B1B7853B9402309932F4802230A93AA
:1034D0000D9309A90AF0DCF80EB010BD042BFBD146
:1034E0008023F1E7294A934225D1254B00210591FC
:1034F0001A6C42F008021A641A6C02F00802059273
:10350000059A06911A6B42F001021A631B6B03F0D5
:1035100001030693069B1B4B1B783BB901230993C0
:1035200002231B480A930D9309A9D3E7042BD3D197
:1035300002230993F5E7174A9342CDD1104B00219E
:1035400007911A6C42F040021A641A6C02F04002B1
:103550000792079A08911A6B42F002021A631B6BDA
:1035600003F002030893089B4FF480420223CDE945
:103570000923092387E700BF00040240000400403C
:10358000003802403819002000080240000C0040BA
:103590000000024000180040FFF74CBF08B5036868
:1035A000B3F1804F0CD1082126480FF027FF264A9F
:1035B000136C23F0010313644FF48061234815E07A
:1035C000234A934216D1002122480FF017FF04210D
:1035D00020480FF013FF1C4A1F48136C23F002030E
:1035E000402113640AF09AF91B488021BDE8084085
:1035F0000AF094B9194A934213D1002118480FF0E8
:10360000FDFE042116480FF0F9FE0F4A1548136C11
:1036100023F00803012113640AF080F91148022104
:10362000E4E7114A93420BD1002110480FF0E6FE67
:10363000054A136C23F0400313644FF48041BDE747
:1036400008BD00BF581B00200038024000040240A3
:1036500000040040A41A002000080240000C0040B2
:10366000F019002000000240001800403C19002022
:1036700008B50368B3F1804F0FD12D480DF0A8FFB6
:1036800008212B480FF070FD2A4A136C23F0010328
:1036900013644FF48061284818E0284A934219D1F6
:1036A00027480EF00BF8002125480FF05DFD04219E
:1036B00023480FF059FD1F4A2248136C23F00203E0
:1036C000402113640AF02AF91E488021BDE8084011
:1036D0000AF024B91C4A934216D11C480DF0EEFFA3
:1036E00000211A480FF040FD042118480FF03CFD5E
:1036F000104A1748136C23F00803012113640AF0E1
:103700000DF913480221E1E7124A93420ED1124803
:103710000DF0D4FF002110480FF026FD054A136C70
:1037200023F0400313644FF48041B4E708BD00BFA9
:10373000581B0020003802400004024000040040F2
:10374000A41A002000080240000C0040F0190020DC
:1037500000000240001800403C1900200B4A0C48B1
:1037600008B5136C23F0020313640DF0A7FF0021CA
:1037700007480FF043FE042105480FF03FFEBDE867
:103780000840044840210AF0C9B800BF0038024090
:10379000A41A00200008024008B5114A03689342A9
:1037A00016D102F50B320F48136C23F00803136493
:1037B0000DF084FF00210B480FF020FE0421094882
:1037C0000FF01CFEBDE80840074801210AF0A6B82A
:1037D000064A934203D1BDE80840FFF7BFBF08BDCA
:1037E000000C0040F01900200000024000040040DE
:1037F00001380B2841D8DFE800F0061729403C408B
:1038000040404040403E1E4BD3ED037ADFED1D6A41
:103810001A68F8EE677A67EE807A87EEA67ABCEED1
:10382000C77A82ED0D7A0FE0174BDFED166AD3ED04
:10383000037A1A68F8EE677A67EE807A87EEA67ADE
:10384000BCEEC77A82ED0F7A002070470F4BD3EDA4
:10385000037ADFED0C6A1A68F8EE677A67EE807A11
:1038600087EEA67AFCEEC77AC2ED0D7AC2ED0E7A2B
:10387000EAE7074BEBE7074BC6E74FF48B7070475F
:103880000C1C002000007A44581B0020A41A0020C1
:10389000F01900203C190020013808B50B287FD80A
:1038A000DFE800F00622397E507E7E7E7E7E7E67D7
:1038B000DFED3F7A60EE277A17EE900AFCF76CFD99
:1038C00002460B4638A1D1E90001FCF7E7FE394B6F
:1038D0000022FCF701FCFDF78FF8374BD860184643
:1038E00010F0B8F9002008BDDFED317A60EE277ADC
:1038F00017EE900AFCF750FD02460B462AA1D1E9CB
:103900000001FCF7CBFE2B4B0022FCF7E5FBFDF79B
:1039100073F82A4BE2E7DFED267A60EE277A17EE9E
:10392000900AFCF739FD02460B461FA1D1E90001C0
:10393000FCF7B4FE1F4B0022FCF7CEFBFDF75CF852
:103940001F4BCBE7DFED1A7A60EE277A17EE900A6D
:10395000FCF722FD02460B4613A1D1E90001FCF75A
:103960009DFE144B0022FCF7B7FBFDF745F8154B05
:10397000B4E7DFED0F7A60EE277A17EE900AFCF7D6
:103980000BFD02460B4608A1D1E90001FCF786FEBB
:10399000084B0022FCF7A0FBFDF72EF80A4B9DE731
:1039A0004FF48B709FE700BF000000002A7585412F
:1039B00000007A440000F03F0C1C0020581B00203F
:1039C000A41A0020F01900203C190020032A2DE938
:1039D000F04706460D4629D0052A48D1254F12F05A
:1039E000A1FA00F59678002138460DF0D7FF0421A2
:1039F000824638460DF0D2FF0021814638460DF050
:103A0000CDFF8245044688BF00F58034CA4528BFF3
:103A100009F5803912F086FA4045A4EB0A0407D96B
:103A20000023336003202B60BDE8F087124FD6E7F8
:103A3000002CD8D0114BB3FBF4F307EE903AF8EE1C
:103A4000E77AA9EB0A09C6ED007A07EE909AB8EE7C
:103A5000677A07EE904AF8EE677A0020C7EE276A89
:103A6000DFED077A66EEA77AC5ED007ADCE74FF462
:103A70008B70D9E7F0190020A41A002040A5AE02EF
:103A80000000C84202392DE9F041064617460A29CE
:103A900036D8DFE801F0062635223535353535359F
:103AA0002400194D12F03EFA00F596783946284662
:103AB0000DF074FF3946044628460DF06FFF84422E
:103AC00088BF00F58030041B12F02CFA40450AD95B
:103AD000002333600320BDE8F0810C4DE2E70C4D7C
:103AE000E0E70C4DDEE7002CE0D00B4BB3FBF4F32A
:103AF00007EE903AF8EEE77A0020C6ED007AEAE7A2
:103B00004FF48B70E7E700BF581B0020F01900202E
:103B10003C190020A41A002040A5AE0230B593B095
:103B200004461C2200210BA82EF0B1F8102200211F
:103B300003A82EF0ACF81022002107A82EF0A7F859
:103B40005F4A604B136000214FF6FF73C2E90331F7
:103B50005D4B91610125202CCDE90111C2E9015194
:103B6000197028D1594A564806210DF0C5FF54480E
:103B700010F0D4F90446D8B94FF480535048079355
:103B800007A90EF073FC044690B96023CDE90B3011
:103B90000D900F9002460BA949480EF0B1F904466A
:103BA00030B947480DF014FD454821460FF02AFA78
:103BB000204613B030BD402C2ED1454A404802214A
:103BC0000DF09AFF3E4810F05BFA04460028EFD152
:103BD0004FF480533A48079307A90EF047FC044678
:103BE0000028E5D1CDE9010001A9354810F0FAFA25
:103BF00004460028DCD1CDE90305CDE905000246E5
:103C000003A92F480EF0D8FA04460028D0D1014667
:103C10002B480FF031FBCBE7802C42D12D4A2848AE
:103C20000DF06AFF264810F015F804460028BFD1B1
:103C30004FF480532248079307A90EF017FC04465F
:103C40000028B5D11E4810F01BFA04460028AFD159
:103C5000CDE9010001A91A4810F0C4FA0446002871
:103C6000A6D1CDE90305CDE90500024603A9144814
:103C70000EF0A2FA044600289AD10223104804222A
:103C800003A9CDE903330EF097FA044600288FD13B
:103C90000B480DF09DFC214609480FF0EDFA042178
:103CA000B6E7B4F5007F01D0002481E70448FFF7B0
:103CB00073FD0348FFF772FC0148FFF7D9FCF3E7F7
:103CC000F0190020000C004038190020353401089C
:103CD000993501088133010870B592B004461C2261
:103CE00000210BA82DF0D3FF1022002103A82DF0F6
:103CF000CEFF1022002107A82DF0C9FF5F4A604BBC
:103D0000136000214FF6FF73C2E903315D4B9161EF
:103D100001260425202CCDE90111C2E901611D70A5
:103D200028D1594A554806210DF0E6FE534810F0B7
:103D3000F5F80446D8B94FF480535048079307A9C3
:103D40000EF094FB044690B96023CDE90B300D9042
:103D50000F902A4649480BA90EF0D2F8044630B914
:103D600046480DF035FC454829460FF04BF92046F2
:103D700012B070BD402C2ED1444A404802210DF0B3
:103D8000BBFE3E4810F07CF904460028EFD14FF40A
:103D900080533A48079307A90EF068FB04460028B1
:103DA000E5D1CDE9010001A9344810F01BFA044621
:103DB0000028DCD1CDE90306CDE905002A462F48CD
:103DC00003A90EF0F9F904460028D0D129462B4862
:103DD0000FF052FACBE7802C41D12D4A27480DF045
:103DE0008BFE26480FF036FF04460028BFD14FF463
:103DF00080532248079307A90EF038FB0446002899
:103E0000B5D11E4810F03CF904460028AFD1CDE9E9
:103E1000010001A9194810F0E5F904460028A6D1CF
:103E2000CDE90306CDE905002A46144803A90EF0A2
:103E3000C3F9044600289AD10223024603A90F4879
:103E4000CDE903330EF0B8F9044600288FD10B48B2
:103E50000DF0BEFB214609480FF00EFAB6E7B4F5A7
:103E6000007F01D0002482E70448FFF795FC034857
:103E7000FFF794FB0148FFF7FBFBF3E7F019002085
:103E8000000C00403819002035340108993501082C
:103E90008133010830B593B004461C2200210BA8E1
:103EA0002DF0F5FE1022002103A82DF0F0FE1022C7
:103EB000002107A82DF0EBFE39493A4A0A60002399
:103EC00001254FF6FF72402CCDE90133C1E90153C2
:103ED000C1E903238B612CD1334A314802210DF013
:103EE0000BFE2F4810F0CCF80446F8B94FF480537D
:103EF0002B48079307A90EF0B9FA0446B0B9CDE9EB
:103F0000010001A9264810F06DF9044670B9CDE909
:103F10000305CDE90500024603A921480EF04CF93E
:103F2000044618B901461E480FF0A6F9204613B002
:103F300030BD202C27D11A480FF0F0FF044600288E
:103F4000F4D11748FFF776FA4FF4805314480793DB
:103F500007A90EF08BFA04460028E7D16023CDE9CB
:103F60000B300D900F9002460BA90D480DF0C8FFC5
:103F700004460028DAD10A480DF02AFB21460848F9
:103F80000FF040F8D2E7B4F5007F01D00024CDE770
:103F90000348FFF703FB0248FFF76AFBF6E700BFA1
:103FA0003C190020001800409935010830B593B045
:103FB00004461C2200210BA82DF069FE10220021CE
:103FC00003A82DF064FE1022002107A82DF05FFE4B
:103FD0003A494FF0804200230A6001254FF6FF72F4
:103FE000402CCDE90133C1E90153C1E903238B61C1
:103FF0002CD1334A314802210DF07EFD2F4810F0BC
:104000003FF80446F8B94FF480532C48079307A9AA
:104010000EF02CFA0446B0B9CDE9010001A92748F9
:1040200010F0E0F8044670B9CDE90305CDE90500CC
:104030000822224803A90EF0BFF8044618B91F4809
:1040400008210FF019F9204613B030BD202C29D1DA
:104050001C4A1A4806210DF04FFD18480FF05EFF6C
:1040600004460028EFD14FF480531448079307A962
:104070000EF0FCF904460028E5D16023CDE90B30B1
:104080000D900F9008220D480BA90DF039FF044642
:104090000028D8D109480DF09BFA082107480EF0F6
:1040A000B1FFD0E7B4F5007F01D00024CBE703488F
:1040B000FFF774FA0148FFF7DBFAF6E7581B002018
:1040C000993501083534010870B592B004461C22B8
:1040D00000210BA82DF0DBFD1022002103A82DF0FC
:1040E000D6FD1022002107A82DF0D1FD674A684BAC
:1040F000136000214FF6FF73C2E90331654B9161F4
:1041000001260425202CCDE90111C2E901611D70B1
:1041100028D1614A5D4806210DF0EEFC5B480FF0A6
:10412000FDFE0446D8B94FF480535848079307A9B9
:104130000EF09CF9044690B96023CDE90B300D9048
:104140000F902A4651480BA90DF0DAFE044630B90B
:104150004E480DF03DFA4D4829460EF053FF2046DB
:1041600012B070BD402C2ED14C4A484802210DF0AF
:10417000C3FC46480FF084FF04460028EFD14FF4FB
:1041800080534248079307A90EF070F904460028AF
:10419000E5D1CDE9010001A93C4810F023F804461F
:1041A0000028DCD1CDE90306CDE905002A463748D1
:1041B00003A90EF001F804460028D0D1294633485F
:1041C0000FF05AF8CBE7802C41D1354A2F480DF03B
:1041D00093FC2E480FF03EFD04460028BFD14FF45B
:1041E00080532A48079307A90EF040F90446002897
:1041F000B5D126480FF044FF04460028AFD1CDE9E1
:10420000010001A921480FF0EDFF04460028A6D1C6
:10421000CDE90306CDE905002A461C4803A90DF0A7
:10422000CBFF044600289AD10223024603A917486F
:10423000CDE903330DF0C0FF044600288FD11348A9
:104240000DF0C6F9214611480FF016F8B6E7B4F59F
:10425000007F01D0002482E7124A0C4807210DF0AC
:104260004BFC0A48FFF79AF90F4A084803210DF062
:1042700043FC0648FFF7FCF90C4A044831460DF0B0
:104280003BFC0248FFF788FAE4E700BFA41A0020CD
:104290000004004038190020353401089935010820
:1042A000813301089D3501087136010899370108ED
:1042B00030B593B004461C2200210BA82DF0E7FC7A
:1042C0001022002103A82DF0E2FC1022002107A8F3
:1042D0002DF0DDFC5F4A604B136000214FF6FF7349
:1042E000C2E903315D4B91610125202CCDE901111B
:1042F000C2E90151197028D1594A564806210DF0DA
:10430000FBFB54480FF00AFE0446D8B94FF4805323
:104310005048079307A90EF0A9F8044690B9602306
:10432000CDE90B300D900F9002460BA949480DF0D6
:10433000E7FD044630B947480DF04AF945482146A3
:104340000EF060FE204613B030BD402C2ED1454A01
:10435000404802210DF0D0FB3E480FF091FE04468C
:104360000028EFD14FF480533A48079307A90EF085
:104370007DF804460028E5D1CDE9010001A93548C2
:104380000FF030FF04460028DCD1CDE90305CDE96C
:104390000500024603A92F480DF00EFF0446002831
:1043A000D0D101462B480EF067FFCBE7802C42D1DD
:1043B0002D4A28480DF0A0FB26480FF04BFC044680
:1043C0000028BFD14FF480532248079307A90EF06D
:1043D0004DF804460028B5D11E480FF051FE0446A2
:1043E0000028AFD1CDE9010001A91A480FF0FAFE6B
:1043F00004460028A6D1CDE90305CDE90500024613
:1044000003A914480DF0D8FE044600289AD10223CF
:104410001048042203A9CDE903330DF0CDFE044674
:1044200000288FD10B480DF0D3F8214609480EF033
:1044300023FF0421B6E7B4F5007F01D0002481E713
:10444000FFF78CF90348FFF7A9F80248FFF710F9C6
:10445000F4E700BFA41A002000040040381900202F
:1044600035340108993501088133010808B5084839
:104470000022102109F014FB05480122802109F0D7
:104480000FFB03480122102109F00AFB002008BDA0
:104490000010024008B508480022102109F000FB76
:1044A00005480022802109F0FBFA0348012210216F
:1044B00009F0F6FA002008BD0010024008B50348D4
:1044C0000022102109F0ECFA002008BD0010024083
:1044D00013B5084614460DF107030722002115F015
:1044E0007FFC90B99DF80730072B9FBF0B4A0C4902
:1044F00052F8232031F8133084BF03460246A10747
:1045000005D008490A60084A138002B010BD61074F
:10451000FBD506490A60064AF6E700BF1CF104080D
:104520000CF10408D01C0020CC1C0020C81C00206A
:10453000C41C00202DE9F04FADF21C4D14460DF1C6
:104540001609002362068A46A9F8003003D584F0D4
:1045500040049A4E04E02306FBD5994E84F0800473
:10456000A4F11303032B39D8944B9E4284F010041A
:1045700041D0944B1F68944BB3F80080002F3DD17D
:10458000032C01D0062C08D14B46FF2201215046B6
:1045900015F01BFC834600284AD1231F022B61D84B
:1045A00006AB03930025F16800294CD106AB2B44E0
:1045B000FF22504615F014FC834600284BD1039B84
:1045C00001350233B5F5807F0393ECD1ADB2033CE6
:1045D000032C7AD8DFE804F04A8189B7A4F12303D9
:1045E000032B15D8754B9E4284F020040CD0774BDA
:1045F0001F68774BC0E7774F4FF010080022414605
:10460000384609F04DFABBE7734F4FF00108F5E764
:10461000631E012B11D805AB4FF6FF7200215046E7
:1046200015F0D3FB834618B9012C09D04FF0010BCC
:1046300058460DF21C4DBDE8F08F0027B8469FE7A5
:1046400007468046A0E7039B4FF6FF7200215046C5
:1046500015F0BBFBB0E740F23D129042E8D1002DCF
:10466000B4D1E5E74FF0010B0025B0E7B9F8002021
:10467000642386A930460CF025FD834628BBF268EA
:1046800086ACE2B15D451EDDBBF1000F02D02C20EF
:104690002CF0A2FF34F8021B50482CF057FF0BF10E
:1046A000010BEFE7BBF1000F02D02C202CF094FFA0
:1046B00014F8011B4A482CF049FF0BF1010BB9F823
:1046C00000205A45EEDC4FF0000B002FB0D0012245
:1046D0004146384609F0E4F9AAE764232A4606A9C8
:1046E00030460CF02DFB8346EFE76423009386AA47
:1046F0002B4606A930460CF0DFFB83460028E4D1A8
:10470000F26886ACE2B15D45DDDDBBF1000F02D0A1
:104710002C202CF061FF34F8021B30482CF016FFDF
:104720000BF1010BEFE7BBF1000F02D02C202CF0B6
:1047300053FF14F8011B2A482CF008FF0BF1010B62
:104740005D45F0DCBFE764232A4606A930460CF03D
:10475000F7FA83460028B8D1B9F80020642386A967
:1047600030460CF0AFFC83460028AED1F26886AC30
:10477000F2B1B9F800205A45A5DDBBF1000F02D017
:104780002C202CF029FF34F8021B14482CF0DEFEFC
:104790000BF1010BEDE7BBF1000F02D02C202CF048
:1047A0001BFF14F8011B0E482CF0D0FE0BF1010B7F
:1047B000B9F800205A45EEDC85E700BF9C380020A0
:1047C00044380020D01C0020CC1C0020C81C002035
:1047D000C41C0020000002400004024074E90408E8
:1047E000716F040808B50A48102109F047F968B14B
:1047F0008021074809F042F90649074B002818BFF5
:10480000194606482CF0A2FE002008BD0449F8E72E
:1048100000100240478004084F800408DEBC0408F2
:104820000AB4040870B50846510686B035D592071B
:104830000DF103011AD015F081F8044698B9CDE9BD
:104840000300059010252D48012301A9CDE901534E
:1048500008F01EFF9DF803202848003A18BF0122E7
:10486000294609F01DF9204606B070BD15F066F81E
:1048700004460028F7D1CDE9030005900125204822
:1048800001A9CDE9015508F003FF9DF803201C485C
:10489000003A18BF01222946E3E712F08004E2D073
:1048A00093070DF1030119D015F048F804460028CC
:1048B000D9D1144E144D33880193CDE9030001235F
:1048C00005900293286801A908F0E2FE9DF80320F4
:1048D00031882868003A18BF0122C2E715F02EF887
:1048E00004460028BFD1094E094D338801930123A6
:1048F000CDE9030005900293E4E700BF0000024009
:1049000000040240CC1C0020D01C0020C41C00204D
:10491000C81C002070B5294C236886B00D465BB9D1
:10492000CDE90333059301265723254801A9CDE995
:10493000013608F0ADFE266001A9284614F0FEFFFE
:104940000446C0BB0DF10501284614F0F7FF0446EC
:1049500088BB0DF10601284614F0F0FF044650BB59
:104960000DF10701284614F0E9FF044618BB02A91F
:10497000284614F0E3FF0446E8B99DF804201048E7
:10498000012109F08DF89DF805200D48022109F05C
:1049900087F89DF806200A48042109F081F89DF85F
:1049A00007200748102109F07BF89DF808200448EB
:1049B000402109F075F8204606B070BDC01C0020EB
:1049C000000C0240F0B5274B274E802A18BF1E4628
:1049D000351D0F460FCD8DB001AC0FC40FCD0FC4E8
:1049E00095E807000DF1020384E807004FF4807298
:1049F0000221384615F0E9F9341D30BBBDF802300C
:104A0000202B24D00CD8082B23D005D8022B0FD074
:104A1000042B20D0162018E0102BFBD1182007E023
:104A2000802B1AD0B3F5807F19D0402BF2D12820EB
:104A3000079001AD0FCD0FC40FCD0FC495E807004F
:104A400084E8070030460CF03BF80DB0F0BD184686
:104A5000EEE71020ECE70820EAE73020E8E738200E
:104A6000E6E700BF9C3800204438002013B500233F
:104A700008460DF1070114468DF8073014F05EFF6B
:104A800038B9112C26D006DC012C0ED0022C18D0FF
:104A9000162002B010BD122CFAD19DF80730114A31
:104AA000003B18BF01235B0012E09DF807300E4A5F
:104AB000003B18BF01235B00136110460CF000F8A7
:104AC000E7E79DF80730084A003B18BF01235B0069
:104AD0005361F2E79DF80730024A003B18BF0123FB
:104AE0005B00E9E7443800209C38002013B5002320
:104AF00008460DF1070114468DF8073014F01EFF2B
:104B000020B9402C04D0802C0ED0162002B010BD4D
:104B10009DF80730084A003B18BF0123DB011362F0
:104B200010460BF0CDFFF1E79DF80730034A003B3C
:104B300018BF0123DB01F2E79C3800204438002035
:104B400013B5002308460DF1070114468DF8073010
:104B500014F0F4FE20B9402C04D0802C0ED0162086
:104B600002B010BD9DF80730084A003B18BF012372
:104B7000DB02D36010460BF0A3FFF1E79DF807308E
:104B8000034A003B18BF0123DB02F2E79C380020F8
:104B90004438002013B5002308460DF107011446E0
:104BA0008DF8073014F0CAFE20B9402C04D0802CB8
:104BB0000ED0162002B010BD9DF80730084A003B09
:104BC00018BF01231B01536210460BF079FFF1E778
:104BD0009DF80730034A003B18BF01231B01F2E791
:104BE0009C380020443800202DE9F04186B008466A
:104BF000144600210DF1030303228DF8031015F074
:104C0000EFF848B1B0F58B7F03D040F23D139842E6
:104C100007D102238DF80330402C05D0802C4BD0D7
:104C2000162006B0BDE8F0819DF80340012C19D094
:104C3000022C25D07CB9CDE90344504805940125C8
:104C4000102401A9CDE9014508F022FD4B482A4670
:104C5000214608F025FF4A4806F066FB48480BF05D
:104C60002FFFDEE700234748059301A9CDE9033371
:104C7000CDE9014408F00CFD224642481146E8E720
:104C8000002401253D480594102601A9CDE90344DF
:104C9000CDE9016508F0FCFC2A463848314608F0A9
:104CA000FFFE3848059401A9CDE90344CDE901553B
:104CB00008F0EEFC2A46E0E79DF80340012C19D0ED
:104CC000022C31D05CBB2F4D0594CDE90344012665
:104CD0004FF4804401A92846CDE9014608F0D8FCEC
:104CE00032462146284608F0DBFE274B1D60274B45
:104CF0001C8014E0234E0023022501A93046CDE993
:104D000003330593CDE9015408F0C2FC224629463D
:104D1000304608F0C5FE1E4B1E601E4B1D801E480F
:104D200006F002FB1C489AE7164D002601274FF4B7
:104D3000804801A92846CDE90366CDE9018705969B
:104D400008F0A6FC3A464146284608F0A9FE0E4B5C
:104D500005961D600D4B01A92846A3F80080CDE9FA
:104D60000366CDE9014708F093FC3A462146284600
:104D700008F096FE064B1D60064BB9E700000240A6
:104D80009C38002000040240D01C0020CC1C0020D5
:104D9000C81C0020C41C0020443800200000000073
:104DA000F7B51546002A66D0012A7CD0624C616AAC
:104DB000624B634A6348002918BF1A4611462CF01B
:104DC000C5FBE168604B614A6148002918BF1A467B
:104DD00011462CF0BBFB216A5E4B5F4A5F480029FD
:104DE00018BF1A4611462CF0B1FB21695C4B5D4A95
:104DF0005D48002918BF1A4611462CF0A7FB6169CF
:104E00005A4B5B4A5B48002918BF1A4611462CF0E2
:104E10009DFBE469202C6DD063D8102C69D05CD840
:104E2000002C7CD0082C7CD053482CF033FCFDB9EE
:104E30000121524808F022FE022104464F4808F0A2
:104E40001DFE042105464D4808F018FE10210646B7
:104E50004A4808F013FE40210746484808F00EFE75
:104E60003346CDE900702A46454821462CF06EFBBA
:104E7000002003B0F0BD10214248434C08F0FEFD75
:104E80004249002818BF214641482CF05FFB012110
:104E9000404808F0F3FD3D49002818BF21463E4830
:104EA0002CF054FB82E74FF480413A48364C08F02E
:104EB000E5FD3649002818BF214635482CF046FB51
:104EC0000221344808F0DAFD3049002818BF214695
:104ED0003148324C2CF03AFB69E7182CA4D110244D
:104EE00008E0302C1FD0382C1FD0282C9CD1402417
:104EF00000E008242046FBF73DFA02460B460CA1D1
:104F0000D1E90001FBF7CAFB254B0022FBF7C6FBEA
:104F100002460B46234821462CF018FB87E7022463
:104F2000E8E70424E6E78024E4E74FF48074E1E74F
:104F3000000000002A7595419C3800205681040825
:104F4000DE7E0408257F0408E77E0408ED7E040861
:104F5000377F0408F27E0408F67E0408497F0408BF
:104F6000BAB40408FDED04085B7F04081582040848
:104F7000FA7E04086D7F04087F7F0408000C02405D
:104F8000C57F040800000240535D0408F8DE0408F1
:104F9000017F040800040240137F04084438002005
:104FA00000408F409D7F0408500638B50ED5102173
:104FB0002C4808F063FD2C4B1B68996820B1312008
:104FC0002CF046FA002038BD3020F9E71106F9D55B
:104FD000930718D0254B1D68254B1C882146284671
:104FE00008F04CFD204B1B689968A8B121482CF0B3
:104FF00087FA214B9D421ED1B4F5806F0ED11F4818
:105000002CF0A4FADEE712F0040403D01C4B1D6858
:105010001C4BE2E72546E1E71B48E8E7B4F5006FE3
:1050200001D11A48ECE7402C01D11948E8E7802C5F
:10503000C8D11848E4E7184B9D4208D1022C01D191
:105040001648DDE7B4F5804FBCD11548D8E7054BCD
:105050009D42B7D1022C01D11248D1E7012CB1D128
:105060001148CDE70000024028030020D01C00209A
:10507000CC1C0020DE7F040800080240E17F040809
:10508000C81C0020C41C0020F2780408E47F040837
:10509000B6820408F5700408000402407E74040817
:1050A000E77F0408BA8A0408DD5C0408402A08B5D2
:1050B00003D0802A08D0162008BD064806F0B6F9AD
:1050C00004480BF00DFEF7E7034806F0AFF902487D
:1050D000F7E700BF9C3800204438002010B5044694
:1050E00088B01422002103A82CF0D1FD2268134BB4
:1050F0009A4221D103F5F633002101911A6C104830
:1051000042F400221A641A6C02F400220192019AFD
:1051100002911A6B42F001021A631B6B03F0010348
:105120000293029B02220323CDE90332069303A9D3
:105130000823079308F0ACFA08B010BD004C0040FB
:10514000000002400268064B9A4208D1054A064810
:10515000136C23F400231364032108F0DFBB7047B2
:10516000004C0040003802400000024008B5104AE0
:1051700010480B210FF0A8F90F4A0E480C210FF030
:10518000A3F90C490D4B0B604FF4E1320023C1E948
:10519000012308460C22C1E90333C1E90523CB6191
:1051A0000FF0A6FA18B1BDE8084005F00DBF08BD24
:1051B000DD500108D41C002045510108004C00407E
:1051C0000148FFF7BFBF00BFD41C002010B51B4B28
:1051D0001B4C1C48012A18BF1C4661682CF0B6F90C
:1051E000A168194B194A1A48002918BF1A461146D6
:1051F0002CF0ACF9E168174B174A1848002918BF82
:105200001A4611462CF0A2F92369A3B11449154A94
:10521000B3F5806F08BF114613482CF097F9E16988
:105220000A4B124A1248002918BF1A4611462CF0A0
:105230008DF9002010BD0F49EEE700BF103B0020A4
:10524000D41C002063890408518904085389040888
:1052500077890408EEDE0408535D04088A8904088F
:10526000558904085E8904089D8904088081040822
:10527000B0890408598904082DE9F043C3B00DF141
:1052800006070023062A884616463B8000F2B680B1
:105290005A23D340DB0707D53B46FF220121404676
:1052A00014F093FD044640BB032E0BDC012E0CDCF6
:1052B0000022013E052E00F2A480DFE806F0223C29
:1052C00043637B7F731F012BF2D800250DF1080982
:1052D00009EB0503FF220021404614F081FD04463E
:1052E00028B90135B5F5807FF2D1AAB2E1E740F2E5
:1052F0003D13984201D1002DF7D1204643B0BDE8BF
:10530000F0833A884048642302A90FF073F90446F9
:105310000028F2D102AD3B88A34201DC0024ECE777
:1053200014B12C202CF058F915F8011B37482CF03B
:105330000DF90134EFE73448642302A90FF00CF9AA
:105340000446DAE73048642302A90FF005F9044661
:105350000028D2D13A882C48642302A90FF04AF9D8
:1053600004460028C9D102AD3B88A342D6DD14B162
:105370002C202CF031F915F8011B24482CF0E6F80C
:105380000134F1E73A882248642302A90FF032F988
:1053900004460028B1D102AD3B88A342BEDD14B162
:1053A0002C202CF019F915F8011B18482CF0CEF818
:1053B0000134F1E71648642302A9BFE714486423C7
:1053C00002A90FF0C9F80446002896D13A8810487F
:1053D000642302A90FF00EF9044600288DD102AD16
:1053E0003B88A3429ADD14B12C202CF0F5F815F877
:1053F000011B06482CF0AAF80134F1E7032A7FF7D5
:1054000057AF012479E700BF103B0020716F0408FB
:10541000D41C002007B50846032A32D8DFE802F082
:105420000215212F0DF1070114F088FA50B99DF8EB
:105430000730154AB3FA83F35B09DB03D3611046E7
:105440000FF056F903B05DF804FB0F4BDB690F4812
:10545000B3F5004F14BF102108212CF077F800207D
:10546000F0E70DF1070114F069FA0028EAD19DF880
:105470000730074AB3FA83F35B09DB03DEE7044B2B
:10548000E4E71620DEE700BF103B0020C3890408D4
:10549000D41C002007B50846032A50D8DFE802F0E4
:1054A00002212F4B0DF107030222002114F098FC7A
:1054B00038B99DF807303BB9224A136121480FF0F3
:1054C00017F903B05DF804FB012B04D11D4B4FF419
:1054D000C0621A61F2E7022BF0D11A4B4FF48062DE
:1054E000F7E7184B1B6943B31749184AB3F5806FA8
:1054F00008BF114616482CF029F80020E1E70DF10D
:1055000007030222002114F06BFC0028D9D19DF87A
:1055100007301BB90F4A13610E48D0E7012B04D1A5
:105520000C4B4FF4C0621A61F6E7022BF4D1094B21
:105530004FF48062F7E7074BD4E70749DAE7162014
:10554000BFE700BF103B0020558904085E890408AE
:10555000A4890408D41C00205989040807B5023A1C
:105560000846032A21D8DFE802F0021722320DF1A3
:1055700007030222012114F033FC50B99DF80730D3
:10558000144A013B18BF01235B03D36010460FF0A0
:10559000AFF803B05DF804FB0E4BDB680E48002B40
:1055A00014BF022101212BF0D1FF0020F1E70DF102
:1055B00007030222012114F013FC0028E9D19DF811
:1055C0000730064A013B18BF01235B03DDE7034BAD
:1055D000E3E700BF103B0020D4890408D41C00205E
:1055E00007B50846032A31D8DFE802F00215202E5D
:1055F0000DF1070114F0A2F950B99DF80730144AD3
:10560000003B18BF01231B03936010460FF070F896
:1056100003B05DF804FB0E4B9B680E48002B14BFD3
:10562000092108212BF092FF0020F1E70DF107017D
:1056300014F084F90028EBD19DF80730064A003BAE
:1056400018BF01231B03DFE7034BE5E71620DFE765
:10565000103B0020E1890408D41C0020022A37B541
:105660000846144601D0042A1DD1304D01AB2A460C
:10567000002114F063FB00284ED10199B1F5614F70
:105680000ED023D8B1F5165F0AD016D8B1F5166F33
:1056900006D00FD8B1F5967F02D0B1F5966F42D102
:1056A00023482BF053FF023C032C34D8DFE804F0EE
:1056B000272E3639B1F5965FF1E7B1F5964FEFD069
:1056C000B1F5164FECD0B1F5615FE8E7194B99429F
:1056D000E6D00CD8B1F5E12FE2D005D8B1F5E13F25
:1056E000DED0B1F5613FDAE7B1F5612FD7E7124BB4
:1056F0009942D5D0A942D3D0104B9942CFE7019B14
:105700000F4A536010460EF0F3FF05E00C4B59684A
:105710000C482BF01BFF002003B030BD019B0A4A50
:10572000EFE7094BF3E71620F6E700BFA0252600B8
:10573000F689040840420F0080841E0060E31600D2
:10574000103B00200C8A0408D41C0020032A08B552
:1057500003D0042A05D0002008BD034806F074F8E1
:10576000F9E7FFF72DFDF6E7103B0020012A08B509
:1057700003D0022A05D0002008BD034805F0F8FF39
:10578000F9E7FFF7F3FCF6E7103B0020034B1A782C
:10579000FF2A04BF00221A70704700BF4C1D002072
:1057A00010B5044B044800241C702BF073FF2046F6
:1057B00010BD00BF4C1D00209E8F040807B50023BC
:1057C00008460DF107018DF8073014F0B7F89DF881
:1057D00007100348012200F0A5FB03B05DF804FBAD
:1057E0004C1D002008B500F0C5FC002008BD0000DD
:1057F00008B50348042113F09DFE002008BD00BF3A
:105800004C1D002007B54FF0FF330193084601AB54
:105810004FF48062002114F055FA019A04480123E4
:105820004FF4805100F0E2FA03B05DF804FB00BFD2
:105830004C1D00200346B3F5867F084611460BD069
:10584000B3F58B7F024605D0B3F5817F07D10548BC
:105850002BF07CBE0448FBE704482BF077BE0448DD
:105860002BF074BE059004081D90040839900408BC
:105870005390040870B590B008464022694614F071
:105880003FF8054610BB2E216846FFF77FFF2CF03E
:1058900023FA0446A8B305704FF4805029F0C8FCE1
:1058A0000423064602466946194813F039FA10B136
:1058B000184A694607E001342146304613F076FC69
:1058C00038B1144A2146FFF7B5FF0125284610B02C
:1058D00070BD0F48694613F069FC10B1B0F5817FC7
:1058E000E6D10B484FF480533246694613F01AFE56
:1058F0000028DDD1304629F0A3FC07482BF0CAFE72
:10590000E4E70348694613F051FC0028F5D0CFE7DF
