:020000040800F2
:100000000000022015AF0108F1AB0108F5AB0108B3
:1000100011AC010813AC010815AC01080000000088
:10002000000000000000000000000000B17902089C
:1000300017AC010800000000417A0208A57A020806
:1000400065AF010865AF010865AF010865AF01083C
:1000500065AF010865AF010865AF010865AF01082C
:1000600065AF010865AF010865AF010865AF01081C
:1000700065AF01086933010865AF010875330108F0
:1000800065AF010865AF010865AF010865AF0108FC
:1000900065AF010865AF010865AF010865AF0108EC
:1000A000258E020865AF010865AF010865AF01083C
:1000B00065AF010865AF010865AF010865AF0108CC
:1000C00065AF010865AF010865AF010865AF0108BC
:1000D00065AF010865AF01082D9C020865AF0108F6
:1000E00065AF010865AF010865AF010865AF01089C
:1000F00065AF010865AF010865AF010865AF01088C
:1001000065AF010865AF01085D33010865AF0108FF
:1001100065AF010865AF010819AC010865AF0108BA
:1001200065AF010865AF010865AF010865AF01085B
:1001300065AF0108000000000000000065AF010885
:1001400065AF010865AF010865AF010825AC01087E
:1001500065AF010865AF010865AF010865AF01082B
:1001600065AF010865AF010865AF010865AF01081B
:1001700065AF010865AF010865AF01080000000028
:100180000000000065AF0108000000000000000052
:1001900065AF0108000000000000000065AF010825
:1001A00000000000000000000000000065AF010832
:1001B00065AF010865AF010865AF010865AF0108CB
:0401C00065AF01081E
:020000040801F1
:1000000010F8012B11F8013B012A28BF9A42F7D0C2
:10001000D01A70470000000000000000000000003F
:1000200001F0FF01102A2BDB10F0070F08D010F8A9
:10003000013B013A8B422DD010F0070F42B3F6D1AD
:10004000F0B441EA012141EA014122F007047FF0C6
:1000500000070023F0E80256083C85EA010586EA1D
:10006000010685FA47F5A3FA87F586FA47F6A5FA59
:1000700087F68EB9EED1F0BC01F0FF0102F0070265
:1000800032B110F8013B013A83EA010313B1F8D110
:100090000020704701387047002D06BF35460338F1
:1000A000073815F0010F07D1013015F4807F02BF2A
:1000B000013015F4C03F0130F0BC0138704700BF7B
:1000C000034613F8012B002AFBD1181A0138704798
:1000D00081F0004102E000BF83F0004330B54FEAF9
:1000E00041044FEA430594EA050F08BF90EA020F66
:1000F0001FBF54EA000C55EA020C7FEA645C7FEAF9
:10010000655C00F0E2804FEA5454D4EB5555B8BF1B
:100110006D420CDD2C4480EA020281EA030382EA8C
:10012000000083EA010180EA020281EA0303362D1E
:1001300088BF30BD11F0004F4FEA01314FF4801CF1
:100140004CEA113102D0404261EB410113F0004F03
:100150004FEA03334CEA133302D0524263EB4303BA
:1001600094EA050F00F0A780A4F10104D5F1200E58
:100170000DDB02FA0EFC22FA05F2801841F10001B3
:1001800003FA0EF2801843FA05F359410EE0A5F187
:1001900020050EF1200E012A03FA0EFC28BF4CF0B8
:1001A000020C43FA05F3C01851EBE37101F000456E
:1001B00007D54FF0000EDCF1000C7EEB00006EEB7B
:1001C0000101B1F5801F1BD3B1F5001F0CD3490805
:1001D0005FEA30004FEA3C0C04F101044FEA44525C
:1001E00012F5800F80F09A80BCF1004F08BF5FEAE3
:1001F000500C50F1000041EB045141EA050130BDC3
:100200005FEA4C0C404141EB0101013C28BFB1F5D4
:10021000801FE9D291F0000F04BF01460020B1FA1F
:1002200081F308BF2033A3F10B03B3F120020CDAF2
:100230000C3208DD02F1140CC2F10C0201FA0CF0D0
:1002400021FA02F10CE002F11402D8BFC2F1200C35
:1002500001FA02F120FA0CFCDCBF41EA0C019040EB
:10026000E41AA2BF01EB0451294330BD6FEA040434
:100270001F3C1CDA0C340EDC04F11404C4F120021F
:1002800020FA04F001FA02F340EA030021FA04F331
:1002900045EA030130BDC4F10C04C4F1200220FA88
:1002A00002F001FA04F340EA0300294630BD21FAC6
:1002B00004F0294630BD94F0000F83F4801306BF8C
:1002C00081F480110134013D4EE77FEA645C18BF80
:1002D0007FEA655C29D094EA050F08BF90EA020F17
:1002E00005D054EA000C04BF1946104630BD91EA0F
:1002F000030F1EBF0021002030BD5FEA545C05D112
:100300004000494128BF41F0004130BD14F5800450
:100310003CBF01F5801130BD01F0004545F0FE41C4
:1003200041F470014FF0000030BD7FEA645C1ABFF9
:10033000194610467FEA655C1CBF0B46024650EA30
:10034000013406BF52EA033591EA030F41F400215C
:1003500030BD00BF90F0000F04BF0021704730B5E2
:100360004FF4806404F132044FF000054FF00001B7
:1003700050E700BF90F0000F04BF0021704730B578
:100380004FF4806404F1320410F0004548BF40424D
:100390004FF000013EE700BF42004FEAE2014FEAA2
:1003A00031014FEA02701FBF12F07F4393F07F4F7D
:1003B00081F06051704732F07F4208BF704793F080
:1003C0007F4F04BF41F40021704730B54FF4607493
:1003D00001F0004521F000411CE700BF50EA010296
:1003E00008BF704730B54FF000050AE050EA01023F
:1003F00008BF704730B511F0004502D5404261EBAF
:1004000041014FF4806404F132045FEA915C3FF4EF
:10041000D8AE4FF003025FEADC0C18BF03325FEA8C
:10042000DC0C18BF033202EBDC02C2F1200300FA3D
:1004300003FC20FA02F001FA03FE40EA0E0021FA62
:1004400002F11444BDE600BF70B54FF0FF0C4CF450
:10045000E06C1CEA11541DBF1CEA135594EA0C0F02
:1004600095EA0C0F00F0DEF82C4481EA030621EA3D
:100470004C5123EA4C5350EA013518BF52EA033578
:1004800041F4801143F4801338D0A0FB02CE4FF02A
:100490000005E1FB02E506F00042E0FB03E54FF05A
:1004A0000006E1FB03569CF0000F18BF4EF0010E52
:1004B000A4F1FF04B6F5007F64F5407404D25FEA4E
:1004C0004E0E6D4146EB060642EAC62141EA555101
:1004D0004FEAC52040EA5E504FEACE2EB4F1FD0C43
:1004E00088BFBCF5E06F1ED8BEF1004F08BF5FEAC1
:1004F000500E50F1000041EB045170BD06F0004673
:1005000046EA010140EA020081EA0301B4EB5C041F
:10051000C2BFD4EB0C0541EA045170BD41F4801117
:100520004FF0000E013C00F3AB8014F1360FDEBF3C
:10053000002001F0004170BDC4F10004203C35DA18
:100540000C341BDC04F11404C4F1200500FA05F39B
:1005500020FA04F001FA05F240EA020001F000423C
:1005600021F0004110EBD37021FA04F642EB0601B2
:100570005EEA430E08BF20EAD37070BDC4F10C04DC
:10058000C4F1200500FA04F320FA05F001FA04F2A0
:1005900040EA020001F0004110EBD37041F100018C
:1005A0005EEA430E08BF20EAD37070BDC4F1200597
:1005B00000FA05F24EEA020E20FA04F301FA05F2FF
:1005C00043EA020321FA04F001F0004121FA04F2A7
:1005D00020EA020000EBD3705EEA430E08BF20EA77
:1005E000D37070BD94F0000F0FD101F000464000B1
:1005F00041EB010111F4801F08BF013CF7D041EA33
:10060000060195F0000F18BF704703F00046520036
:1006100043EB030313F4801F08BF013DF7D043EA07
:100620000603704794EA0C0F0CEA135518BF95EABD
:100630000C0F0CD050EA410618BF52EA4306D1D144
:1006400081EA030101F000414FF0000070BD50EA63
:10065000410606BF1046194652EA430619D094EAED
:100660000C0F02D150EA013613D195EA0C0F05D1D7
:1006700052EA03361CBF104619460AD181EA03012B
:1006800001F0004141F0FE4141F470014FF00000E3
:1006900070BD41F0FE4141F4780170BD70B54FF07E
:1006A000FF0C4CF4E06C1CEA11541DBF1CEA1355FE
:1006B00094EA0C0F95EA0C0F00F0A7F8A4EB0504E0
:1006C00081EA030E52EA03354FEA013100F08880D7
:1006D0004FEA03334FF0805545EA131343EA1263A0
:1006E0004FEA022245EA111545EA10654FEA002655
:1006F0000EF000419D4208BF964244F1FD0404F50E
:10070000407402D25B084FEA3202B61A65EB030569
:100710005B084FEA32024FF480104FF4002CB6EB26
:10072000020E75EB030E22BFB61A754640EA0C00A6
:100730005B084FEA3202B6EB020E75EB030E22BFE6
:10074000B61A754640EA5C005B084FEA3202B6EB27
:10075000020E75EB030E22BFB61A754640EA9C00E6
:100760005B084FEA3202B6EB020E75EB030E22BFB6
:10077000B61A754640EADC0055EA060E18D04FEA74
:10078000051545EA16754FEA06164FEAC30343EA14
:1007900052734FEAC2025FEA1C1CC0D111F4801FE1
:1007A0000BD141EA00014FF000004FF0004CB6E7DA
:1007B00011F4801F04BF01430020B4F1FD0C88BF79
:1007C000BCF5E06F3FF6AFAEB5EB030C04BFB6EB84
:1007D000020C5FEA500C50F1000041EB045170BD77
:1007E0000EF0004E4EEA113114EB5C04C2BFD4EBA4
:1007F0000C0541EA045170BD41F480114FF0000E28
:10080000013C90E645EA060E8DE60CEA135594EAA3
:100810000C0F08BF95EA0C0F3FF43BAF94EA0C0FA6
:100820000AD150EA01347FF434AF95EA0C0F7FF41B
:1008300025AF104619462CE795EA0C0F06D152EA6F
:1008400003353FF4FDAE1046194622E750EA410653
:1008500018BF52EA43067FF4C5AE50EA41047FF464
:100860000DAF52EA43057FF4EBAE12E74FF0FF3CC9
:1008700006E000BF4FF0010C02E000BF4FF0010C9A
:100880004DF804CD4FEA410C7FEA6C5C4FEA430C13
:1008900018BF7FEA6C5C1BD001B050EA410C0CBF62
:1008A00052EA430C91EA030F02BF90EA020F0020C4
:1008B000704710F1000F91EA030F58BF994208BF2B
:1008C00090422CBFD8176FEAE37040F001007047E8
:1008D0004FEA410C7FEA6C5C02D150EA013C07D13F
:1008E0004FEA430C7FEA6C5CD6D152EA033CD3D08A
:1008F0005DF8040B704700BF8446104662468C4684
:100900001946634600E000BF01B5FFF7B7FF0028B6
:1009100048BF10F1000F01BD4DF808EDFFF7F4FFDF
:100920000CBF012000205DF808FB00BF4DF808ED6A
:10093000FFF7EAFF34BF012000205DF808FB00BF8D
:100940004DF808EDFFF7E0FF94BF012000205DF8AF
:1009500008FB00BF4DF808EDFFF7CEFF94BF012064
:1009600000205DF808FB00BF4DF808EDFFF7C4FF5D
:1009700034BF012000205DF808FB00BF4FEA410CA6
:100980007FEA6C5C02D150EA013C0AD14FEA430C89
:100990007FEA6C5C02D152EA033C02D14FF00000C6
:1009A00070474FF0010070474FEA410212F5001204
:1009B00015D211D56FF47873B3EB625212D94FEAA6
:1009C000C12343F0004343EA505311F0004F23FA90
:1009D00002F018BF404270474FF00000704750EAE5
:1009E000013005D111F0004008BF6FF000407047A2
:1009F0004FF00000704700BF4A0011D212F50012FC
:100A000011D20DD56FF47873B3EB62520ED44FEA66
:100A1000C12343F0004343EA505323FA02F07047E6
:100A20004FF00000704750EA013002D14FF0FF3024
:100A300070474FF0000070474FEA4102B2F1E043C7
:100A400024BFB3F5001CDCF1FE5C0DD901F0004CB5
:100A50004FEAC0024CEA5070B2F1004F40EB830005
:100A600008BF20F00100704711F0804F21D113F131
:100A70003872BCBF01F00040704741F480114FEA6A
:100A80005252C2F11802C2F1200C10FA0CF320FAF3
:100A900002F018BF40F001004FEAC1234FEAD32310
:100AA00003FA0CFC40EA0C0023FA02F34FEA43037A
:100AB000CCE77FEA625307D150EA01331EBF4FF003
:100AC000FE4040F44000704701F0004040F0FE401E
:100AD00040F40000704700BF7BB972B90029BEBF67
:100AE00000204FF0004106E008BF00281CBF6FF057
:100AF00000414FF0FF3000F057B8ADF1080C6DE940
:100B000004CE002909DB002B1ADB32F0CBFCDDF828
:100B100004E0DDE9022304B07047404261EB41018B
:100B2000002B1BDB32F0BEFCDDF804E0DDE9022324
:100B300004B0404261EB4101524263EB4303704712
:100B4000524263EB430332F0ADFCDDF804E0DDE933
:100B5000022304B0404261EB41017047524263EB13
:100B6000430332F09FFCDDF804E0DDE9022304B02A
:100B7000524263EB4303704753B94AB9002908BF97
:100B800000281CBF4FF0FF314FF0FF3000F00CB8D1
:100B9000ADF1080C6DE904CE32F084FCDDF804E020
:100BA000DDE9022304B07047704700BF0348044BDF
:100BB000834202D0034B03B1184770476C030020F7
:100BC0006C030020000000000548064B1B1AD90FDB
:100BD00001EBA301491002D0034B03B11847704742
:100BE0006C0300206C0300200000000010B5064CD0
:100BF000237843B9FFF7DAFF044B13B10448AFF38E
:100C000000800123237010BD6C0300200000000051
:100C10009C37040808B5054B1BB105490548AFF3DF
:100C20000080BDE80840FFF7CFBF00BF0000000014
:100C3000700300209C37040870B586B0032200249E
:100C4000012301A92B480594CDE901320226CDE903
:100C500003440CF05FF801A9264801960CF05AF8FD
:100C60004FF4805301A9244801934FF480650CF0A0
:100C700051F801A9214801950CF04CF84FF480433C
:100C800001A91E4801930CF045F801A91B480196E3
:100C90000CF040F8802301A9174801930CF03AF8B2
:100CA000402301A9144801930CF034F801A912481B
:100CB00001950CF02FF8082301A90F4801930CF0BF
:100CC00029F804230DEB03010B4801930CF022F8E3
:100CD0004FF4007301A9074801930CF01BF84FF47F
:100CE00000630548019301A90CF014F8204606B0F2
:100CF00070BD00BF00000240000802400004024036
:100D000082B000230193064B1A6C42F008021A6469
:100D10001B6C03F008030193019B02B0704700BFF6
:100D200000380240024A136C23F008031364704732
:100D30000038024070B5102694B0374D002432467A
:100D400000210DEB06002FF06AFB21461C220DA8A6
:100D5000CDE902442FF063FB2146304A284610F0CB
:100D60000DFA2F4A0121284610F008FA2D4BAE60EB
:100D7000C5E900342C23C5E9033428468023AB6140
:100D800012F0AAFA0446002843D14FF480530DEB29
:100D900006012846049310F0ABFE0446002838D123
:100DA000284612F04BFB0446002832D1CDE9020060
:100DB00002A9284612F058FD044650BB3023CDE965
:100DC0000D300F90119002460DA9284610F0F0FA50
:100DD0000446F0B92A689369CDE90A0043F0080394
:100DE0009361114B01901A6B104842F001021A6393
:100DF0001B6B03F001030193019B0122022308A94D
:100E0000CDE908230C930BF085FF2146284611F00D
:100E100001FB204614B070BD88030020010D0108BD
:100E2000250D0108000C004000380240000002407F
:100E300008B50021034811F09FFB02480FF096FE11
:100E4000002008BD8803002070B5134E3368D3B16D
:100E5000124CB4FBF0F4651E294611482EF03EFFFB
:100E60002046FFF777FA02460B4609A1D1E90001B7
:100E7000FFF714FC02460B460A482EF02FFF33689A
:100E80000020DD6270BD0120FCE700BFAFF30080F1
:100E9000000000002A7585418803002040A5AE02AD
:100EA000F83804080439040808B502482EF0BAFFDF
:100EB000002008BD0F39040808B517F01DF90146D8
:100EC00002482EF00BFF002008BD00BFB73D04080C
:100ED000F7B54FF4F0402CF073FD0446002800F005
:100EE0008B81CB482EF09EFFCA4B1B68DB0340F181
:100EF00070810EF06BFA07EE900AF8EE677A17EE43
:100F0000900AFFF749FABEA3D3E90023FFF7C6FB17
:100F10000246C1480B462EF0E1FEC049C0482EF003
:100F2000DDFEC0482EF07EFF17F0E6F814260546D9
:100F30004FF4F042002120462FF071FA013EF7D124
:100F400017F0DAF8401B07EE900AF8EE677A1426DD
:100F500017EE900AFFF720FAB34B0022FFF79EFB33
:100F600002460B46B1481E212EF0B8FE17F0C4F819
:100F700004F5705705464FF47052394620462FF05D
:100F800010FC013EF7D117F0B7F8401B07EE900AAE
:100F9000F8EE677A142617EE900AFFF7FDF9A24BD8
:100FA0000022FFF77BFB02460B46A1480F212EF0E3
:100FB00095FE17F0A1F805464FF4705239462046C9
:100FC0002FF004FA013E0190F6D117F095F8401B7E
:100FD00007EE900AF8EE677A142617EE900AFFF7EC
:100FE000DBF9914B0022FFF759FB02460B46914873
:100FF0000F212EF073FE90482EF014FF17F07CF8AE
:1010000005468E494FF4705220462FF0CAFB013E30
:10101000F7D117F071F8401B07EE900AF8EE677AE7
:10102000142617EE900AFFF7B7F97F4B0022FFF75F
:1010300035FB02460B467E480F212EF04FFE17F07F
:101040005BF805467D484FF4705221462FF0BEF9FB
:10105000013E0190F6D117F04FF8401B07EE900AC1
:10106000F8EE677A17EE900AFFF796F96E4B0022BA
:10107000FFF714FB02460B466E480F212EF02EFEA2
:101080006F482EF0CFFE0023009317F035F842F2A0
:1010900010730546B7EE007ADDED007A77EE877AB9
:1010A000013BCDED007AF7D117F026F8401B07EE93
:1010B000900AF8EE677A634F17EE900AFFF76CF923
:1010C00051A3D3E90023FFF7E9FA02460B465E4835
:1010D0002EF004FE009717F00FF84FF47A760546CD
:1010E0000098FFF759F941EC100B2AF053FF51EC2F
:1010F000100BFFF7A1FC013E0090F1D116F0FCFFB0
:10110000401B07EE900AF8EE677A4FF47A7617EEF6
:10111000900AFFF741F94D4B0022FFF7BFFA024654
:101120000B464B482EF0DAFD4A4B009316F0E4FFD5
:1011300005460098FFF730F941EC100B2AF060FFEC
:1011400051EC100BFFF778FC013E0090F1D116F046
:10115000D3FF401B07EE900AF8EE677A4FF47A75DA
:1011600017EE900AFFF718F9384B0022FFF796FAAE
:1011700002460B4638482EF0B1FD009716F0BCFF32
:1011800006460098FFF708F941EC100B2AF0C0FE64
:1011900051EC100BFFF750FC013D0090F1D116F01F
:1011A000ABFF801B07EE900AF8EE677A17EE900A05
:1011B000FFF7F2F8254B0022FFF770FA02460B46C4
:1011C00026482EF08BFD20462CF002FC284603B06A
:1011D000F0BD0EF0FBF807EE900AF8EE677A17EE16
:1011E000900AFFF7D9F806A3D3E90023FFF756FAD0
:1011F00002460B461A488EE64FF48670E7E700BFBA
:101200000000000080842E41000000000088C340E0
:10121000BC3D040800380240D63D04081F9B04086A
:10122000F53D0408FE3D0408000034401A3E040861
:10123000323E04084A3E0408623E04085DA70108E5
:101240007F3E040800401C469C3E040800408F403E
:10125000B43E0408C3F54840CC3E0408E43E04080C
:10126000E43D040813B547F23052084601AB0121B2
:1012700018F0A4F8044610B9019814F0CBF92046F0
:1012800002B010BD13B5074A084601AB012118F0A2
:1012900095F8044610B9019816F024FF204602B0D4
:1012A00010BD00BF80C3C90108B509F083FE014627
:1012B00002482EF013FD002008BD00BFB73D040812
:1012C00030B58DB00D461422002107A82FF0A7F8E5
:1012D0000023069340F633020DF116034FF4FA6132
:1012E000284618F0B2F80446002864D1BDF816303C
:1012F00030338DF81B300C220DF1190301212846E3
:1013000018F0AEF80446002855D10DF11A031F223B
:101310000121284618F0A4F8044600284BD10146C4
:1013200007AB1722284618F09BF80446002842D144
:1013300001460DF11D033B22284618F091F80446A2
:10134000002838D101460DF11E033B22284618F033
:1013500087F8044678BB024606A918480EF064FDDB
:10136000044640BB024607A914480EF05FFC044641
:1013700008BB024607A911480EF026FD0446D0B965
:10138000024606A90D480EF0EDFD044698B99DF8F9
:101390001E309DF81B1002939DF81D3001939DF89F
:1013A0001C3000939DF819209DF81A30044801F56F
:1013B000FA612EF093FC20460DB030BD3C38002081
:1013C000FC3E040810B58AB01248002205A90EF0B0
:1013D000FBFC0446D0B9024604A90E480EF0C2FD3B
:1013E000044698B99DF816309DF8131002939DF8A5
:1013F000153001939DF8143000939DF811209DF84D
:101400001230054801F5FA612EF068FC20460AB05A
:1014100010BD00BF3C380020FC3E040808B5002089
:1014200018F000FA002008BD08B508482EF0FAFCB4
:1014300017F00AFD07F0FCFF014605482EF04EFCB0
:1014400002482EF0EFFC002008BD00BF1B3F04083F
:10145000583F040813B5FF2208460DF10703002189
:1014600017F0FEFF0446A0B99DF807302A2B13D1D0
:101470000A482EF0D7FC0A2014F0CCF8084B1B6861
:1014800098682EF0C5F94FF4FA7014F0C3F807F01D
:10149000D5FC204602B010BD0124FAE76E3F0408D7
:1014A0001C030020204B1868204B2DE9F0411E68DA
:1014B0001F4C204BE41A241118B103780BB12EF005
:1014C000B1FC1C4DDFF880800027BC4208D126B15A
:1014D000337813B130462EF0A5FC0020BDE8F08132
:1014E000EA68CAB12968B9B11378ABB10B7818F8BA
:1014F0000300800703D103F0EF002A2803D10E4830
:101500002EF0ECFB08E02D2B03D03F2B07D00B492E
:10151000F5E70B482EF086FC01371035D5E711466C
:1015200008482EF0DBFBF7E7040000200000002055
:101530005CFC04086CE20408993F0408E3430408D7
:10154000A53F0408F53F0408F1DC040807B50421B1
:101550000DEB010000F004FB0198FEF71DFF0246B1
:101560000B4603482EF0BAFB002003B05DF804FBE5
:101570006643040807B504210DEB010000F0B4FA3E
:101580000198FEF709FF02460B4603482EF0A6FB22
:10159000002003B05DF804FB6643040807B501A80A
:1015A00000F064FA0198FEF7F7FE02460B46034886
:1015B0002EF094FB002003B05DF804FB7B4304088D
:1015C000F7B54248424C434D2EF088FB14F8011BFE
:1015D00041482EF083FBAC42F8D10A203F4C2EF05C
:1015E000C3FB3F482EF01EFC3E482EF077FB2168DF
:1015F0003D482EF073FB61683B482EF06FFBA168FD
:1016000039482EF06BFB0A202EF0AEFB3748676896
:101610002EF064FB00240025E619A95D344801354D
:101620002EF05CFB102DF8D132482EF057FB002530
:10163000A85DA0F120035E2B88BF2E2001352EF07F
:1016400093FB102DF4D10A202EF08EFB04F580744C
:1016500029482EF043FBB4F5E06FDCD10A202EF0D0
:1016600083FB684600F002FA0098FEF795FE0246FA
:101670000B4622482EF032FB04210DEB010000F056
:1016800033FA0198FEF788FE02460B461C482EF0FE
:1016900025FB04210DEB010000F062FA0198FEF732
:1016A0007BFE02460B4617482EF018FB4FF4005104
:1016B00015480BF025FD154B1549002808BF1946A4
:1016C00014482EF00BFB002003B0F0BD9343040838
:1016D000107AFF1F207AFF1FA04304080000FF1F9D
:1016E000A5430408B1430408BE430408C5430408E5
:1016F000D2430408E2430408D84304087B430408A7
:10170000E54304086643040800080240A395040862
:10171000A2560408FA4304080020704708B502489E
:101720002EF080FB002008BD7E44040808B5024866
:101730002EF078FB002008BD3CBD04087FB50A4BA5
:1017400004930A4B03930A4B02930A4A0A4B0193F0
:10175000D37F0093937F09480A3210212EF0BEFAFE
:10176000002007B05DF804FBAD440408C74404083A
:10177000D444040824000020DE44040885440408FE
:1017800038B51B4C1B482EF0A9FA236898682EF038
:101790003FF819482EF0A2FA236898682EF038F81E
:1017A000312528462EF0E0FA236898682EF030F8AC
:1017B0000135642013F02EFF362DF2D123680F4837
:1017C00099682EF065FA236898682EF021F8322087
:1017D00013F020FFBFF34F8F09490A4BCA6802F488
:1017E000E0621343CB60BFF34F8F00BFFDE700BF44
:1017F0001C030020923F0408E54404080445040843
:1018000000ED00E00400FA0508B5032A18D8DFE867
:1018100002F0020E10120B4B196807290DD80A4B63
:101820000A4833F811102EF059FA002008BD084B71
:10183000F2E7084BF0E7084BEEE708482EF04EFAC7
:101840000120F3E71400002050CE04080C470408E0
:10185000100000200C0000200800002010470408A1
:1018600007B5032A38D8DFE802F002131F2B1B4B01
:1018700001A8196800F038F90198FEF78DFD0246BD
:1018800017480B462EF02AFA002003B05DF804FB3F
:10189000144B01A8196800F063F90198FEF77CFD6C
:1018A00002460B461048EDE7104B01A8196800F0FE
:1018B00093F90198FEF770FD02460B460C48E1E7EC
:1018C0000C4B01A8196800F0C3F90198FEF764FDFC
:1018D00002460B460848D5E70120D6E71400002051
:1018E000E543040810000020664304080C000020B3
:1018F00029470408080000203E47040813B508469D
:10190000144601AB4FF4F072032117F057FD68BB8A
:10191000019B542B1CD00DD81C2B1BD006D8032B9D
:101920001AD00F2B1AD04FF48B701FE0382BFAD13E
:10193000032307E0902B13D0B3F5F07F12D0702B68
:10194000F1D10523032C19D8DFE804F00E12141688
:101950000423F7E70223F5E70346F3E70123F1E762
:101960000623EFE70723EDE7054A136002B010BD39
:10197000044AFAE7044AF8E7044AF6E70120F5E7E3
:1019800014000020100000200C000020080000209F
:1019900010B58CB0314B0021019114465A6C42F4C1
:1019A00080725A645A6C02F480720192019A029118
:1019B0005A6C42F400725A645A6C02F40072029239
:1019C000029A03915A6C42F480625A645A6C02F48F
:1019D00080620392039A04911A6B42F001021A6327
:1019E0001A6B02F001020492049A05911A6B42F0FC
:1019F00002021A631A6B02F002020592059A06911E
:101A00001A6B42F004021A631B6B03F00403069383
:101A1000142207A8069B2EF002FD032C1BD8DFE83A
:101A200004F0020D0F13012307930D4803230893BD
:101A300007A90BF06FF900200CB010BD0223F3E7EB
:101A400008482EF0EFF9F6E702220323CDE9072339
:101A5000054807A9EDE70120EEE700BF0038024086
:101A6000000002405347040800040240194B30B5FF
:101A700005460FCB85B08DE80F006946164809F082
:101A8000D7FC322016F02EFB134809F0E9FB642145
:101A9000114809F077FC104809F0C7FC0F4B9FED87
:101AA000107A9A8DDB8D811A07EE901AF8EE677A1C
:101AB0009B1A67EE877A07EE103AB8EEC77A0020D5
:101AC000C7EE876AF3EE0E7A76EEA77AC5ED007A56
:101AD00005B030BDB83704085C340020007AFF1F21
:101AE0000000A0420000000030B5002485B00123B2
:101AF000CDE90214054669461748CDE9004309F0CF
:101B000097FC322016F0EEFA134809F0A9FB642185
:101B1000114809F037FC104809F087FC07EE900ADD
:101B20009FED0E7AF8EE677AC7EE877A17EE900A85
:101B3000FEF732FC06A3D3E90023FEF785FCFEF78F
:101B40007BFF2860204605B030BD00BFAFF30080AA
:101B50006666666666660A40CC33002000F07F4504
:101B600030B585B001230446029100256946184826
:101B70000395CDE9003309F05BFC322016F0B2FA90
:101B8000134809F06DFB6421114809F0FBFB104874
:101B900009F04BFC07EE900A9FED0E7AF8EE677A9B
:101BA000C7EE877A17EE900AFEF7F6FB06A3D3E995
:101BB0000023FEF749FCFEF73FFF2060284605B0F2
:101BC00030BD00BFAFF300806666666666660A4099
:101BD0001434002000F07F4530B5002485B0012387
:101BE000CDE90214054669461748CDE9004309F0DE
:101BF0001FFC322016F076FA134809F031FB6421FD
:101C0000114809F0BFFB104809F00FFC07EE900ADD
:101C10009FED0E7AF8EE677AC7EE877A17EE900A94
:101C2000FEF7BAFB06A3D3E90023FEF70DFCFEF78F
:101C300003FF2860204605B030BD00BFAFF3008031
:101C40006666666666660A401434002000F07F45CA
:101C500030B585B00922012304460291002569466A
:101C600017480395CDE9002309F0E2FB322016F076
:101C700039FA134809F0F4FA6421114809F082FB9B
:101C80000F4809F0D2FB07EE900A9FED0E7AF8EEAE
:101C9000677AC7EE877A17EE900AFEF77DFB06A3F8
:101CA000D3E90023FEF7D0FBFEF7C6FE20602846EE
:101CB00005B030BDAFF300806666666666660A40B2
:101CC0005C34002000F07F45F0B58BB014460F4621
:101CD0001422002168462EF0A2FB04F01F03013BF2
:101CE000112B64D8344A52F82350344A32F8136026
:101CF00004F0C003C02B0AD10021102206A82EF048
:101D00008EFB059605A928460BF004F826E004F0A2
:101D1000A003A02B24D10024012305A92846CDE946
:101D200007440994069305960AF0F4FF05A938467E
:101D30008DF8144017F042F9044648B1B0F58B7F96
:101D400003D040F23D13984218D100238DF814308F
:101D50009DF81420314628460BF0E4F900240DE0EC
:101D6000A1060ED505A9384617F028F9044628B96A
:101D70009DF81420314628460BF0D4F920460BB0CC
:101D8000F0BD62060CD5314628460BF0B9F90C4B74
:101D90000C4A002818BF1A4610462EF043F8DDE71B
:101DA000E30504D50323009601936946ABE7064893
:101DB0002EF038F80124E1E784CE040860CE040850
:101DC000E34404083CBD040852490408024BF722CE
:101DD0001A700020704700BFB0330020034A137808
:101DE00043F0080313700020704700BFB033002099
:101DF00007B508460DF1070117F0E0F838B99DF86E
:101E00000720064B32B11A7842F004021A7003B070
:101E10005DF804FB1A7802F0FB02F7E7B03300200C
:101E200007B508460DF1070117F0C8F838B99DF855
:101E30000720064B32B11A7842F002021A7003B042
:101E40005DF804FB1A7802F0FD02F7E7B0330020DA
:101E500007B508460DF1070117F0B0F838B99DF83D
:101E60000720064B32B11A7842F001021A7003B013
:101E70005DF804FB1A7802F0FE02F7E7B0330020A9
:101E800010B586B00C461422002101A82EF0C7FA26
:101E900020460DF103030222002117F0E1FA044667
:101EA00078B99DF803307BB1012B0CBF01230223CD
:101EB0000648039301A90AF02DFF054801A90AF07D
:101EC00029FF204606B010BD0346F1E70008024096
:101ED0000004024007B508463AB10D490D482DF0FF
:101EE000FDFE002003B05DF804FB0DF1070117F0C3
:101EF00065F80028F6D19DF80730074A003B18BF67
:101F00000123DB01104613620BF032FBEAE700BF4E
:101F1000F25604080B9E0408E837002007B508466F
:101F20003AB10D490D482DF0D9FE002003B05DF8FF
:101F300004FB0DF1070117F041F80028F6D19DF8D8
:101F40000730074A003B18BF01239B011046D361AD
:101F50000BF00EFBEAE700BFF25604080B9E0408E4
:101F6000E837002007B508463AB10C490C482DF077
:101F7000B5FE002003B05DF804FB0DF1070117F07A
:101F80001DF80028F6D19DF80730064A003B18BF1F
:101F90000123104653610BF0EBFAEBE7F25604080D
:101FA0000B9E0408E837002007B5084642B10B4BEA
:101FB0000B4859682DF092FE002003B05DF804FB39
:101FC000084A01AB012117F0F9F90028F5D1034ABD
:101FD000019B536010460BF0CBFAEEE7E837002088
:101FE000F9560408801A060007B5084611464AB19A
:101FF000104B11481B6819692DF070FE002003B0CA
:102000005DF804FB01AB4FF0FF3217F0D7F9002861
:10201000F5D108490B681A6822F001021A60019A8A
:102020004A6022F070621A611A6842F001021A6076
:10203000E5E700BFA4340020F95604082DE9F04F6D
:10204000C7B08A460DF114080DF1160704AE002141
:1020500015464FF0020B33464FF6FF72504639805B
:10206000A8F800B017F0F1F90146002840F06281AD
:10207000338805F1FF395B00B9F1010F338050D887
:102080000DF112034FF6FF72504617F0DEF90446C9
:1020900038B943465A460121504617F0D6F904464E
:1020A00030B1204647B0BDE8F08FB9F1090F0ED826
:1020B00040F2B52323FA09F3DB0708D53B46FF229C
:1020C0000121504617F0C1F904460028E9D1023D2C
:1020D000082D3DD840F2AD13EB4013F0010310D0B2
:1020E00000250DF1180B0BEB0503FF2200215046D4
:1020F00017F0B6F9044620BB0135B5F5807FF2D163
:10210000ABB2B9F1090F00F21781DFE819F0230033
:10211000440053006E0076009B00BB00C900E50040
:10212000ED00AB1F012BC0D80DF112034FF6FF726B
:10213000504617F08AF904460028B2D143461022CF
:10214000A9E740F23D139842ABD1002DD8D1A8E7C2
:102150000023D6E7642302933B88019306AD0095E4
:10216000B8F80030BDF81220318874480AF036FC07
:102170000446002895D13B88A34201DC002490E767
:1021800014B12C202DF0F0FD15F8011B6C482DF03A
:10219000A5FD0134EFE76422CDE9013206AB0093DF
:1021A000B8F80030BDF81220318864480AF032FBDC
:1021B000044676E7642300933B8831885F4806AA8B
:1021C0000AF08EFA044600287FF46BAF06AD3B8818
:1021D000A342D3DD14B12C202DF0C6FD15F8011B50
:1021E00057482DF07BFD0134F1E7642200923188DD
:1021F000524806AA0AF0C6F9DAE764250095318844
:102200004E4806AA0AF0BEF9044600287FF449AFFA
:1022100000953B883188494806AA0AF061FA0446CD
:1022200000287FF43EAF06AD3B88A342A6DD14B183
:102230002C202DF099FD15F8011B41482DF04EFD85
:102240000134F1E7642302933B88019306AD0095C6
:10225000B8F80030BDF8122031883A480BF080FD04
:10226000044600287FF41DAF3B88A34286DD14B1ED
:102270002C202DF079FD15F8011B31482DF02EFD95
:102280000134F1E76422CDE9013206AB0093B8F8DE
:102290000030BDF8122031882A480BF0C7FC87E7D0
:1022A000642300933B883188264806AA0BF046FB3E
:1022B000044600287FF4F5AE06AD3B88A3427FF7C5
:1022C0005DAF14B12C202DF04FFD15F8011B1C48FB
:1022D0002DF004FD0134F0E76422009231881948A2
:1022E00006AA0BF051FA63E764250095318815487A
:1022F00006AA0BF049FA044600287FF4D2AE0095F6
:102300003B8831880F4806AA0BF018FB04460028CA
:102310007FF4C7AE06AD3B88A3427FF72FAF14B161
:102320002C202DF021FD15F8011B05482DF0D6FCC1
:102330000134F0E70446B4E60124B2E6A4340020F8
:1023400001570408E837002037B59FED251B0846E4
:102350009FED250B6A46002116F08EFE05460028EB
:1023600037D1234BD3F8942012F4400F1FD10CF037
:10237000ADFC0446DDE90001FEF73EFB01462046C8
:1023800000F0FCF9044601461A482DF0A7FCFCB108
:1023900019490B681A6822F001021A604C6024F097
:1023A00070641C611A6842F001021A6011E0D3F8EF
:1023B000942002F44002B2F5800F02D10DF006F82D
:1023C000D7E7D3F8943003F44003B3F5000F03D0FC
:1023D0000125284603B030BD084CCBE7AFF30080A1
:1023E0000000000065CDCD410000000000000000AD
:1023F0000038024006570408A43400200024F400EA
:1024000008B532B1012A09D006482DF00BFD012094
:1024100003E0054807F086FF002008BD034808F0E8
:10242000EBF8F9E752490408A4340020E83700200B
:1024300007B5084672B1114B11491B69114813F4D5
:10244000804F114B18BF19462DF048FC002003B0F7
:102450005DF804FB0DF1070116F0B0FD0028F6D180
:102460009DF807300548002B0CBF4FF440434FF454
:10247000804303610BF07CF8E9E700BFE8370020F8
:10248000255704080B9E04082057040807B5084682
:102490007AB1104B10491B6810481B6813F4805F19
:1024A0000F4B18BF19462DF019FC002003B05DF842
:1024B00004FB0DF1070116F081FD0028F6D19DF80F
:1024C000073023B1014603480AF070FBEEE74FF4F2
:1024D0008051F8E7A4340020A25604080B9E04089B
:1024E000A395040807B5084611465AB10D4B0E488E
:1024F0001B681968C1F303212DF0F0FB002003B025
:102500005DF804FB0DF107030F2216F0A9FF002868
:10251000F5D19DF80710034801F00F010AF080FB88
:10252000EDE700BFA43400202685040807B508465F
:102530007AB1134BDA6AD20709D5DB6A9B0706D555
:1025400010482DF0CBFB002003B05DF804FB0E48D3
:10255000F7E70DF1070116F031FD0028F4D19DF8E1
:10256000073001202BB10AF093FB02200AF090FB08
:10257000E9E70AF0ADFB02200AF0AAFBE3E700BF9F
:1025800000380140A2560408A3950408000000008A
:1025900038B51046002A5BD1454BD3F8942012F48D
:1025A000400F3DD10CF092FB424C07EE900AF8EE42
:1025B000677A17EE900AFDF7EFFE3BA3D3E90023FD
:1025C000FEF76CF80B4621463B4C02463B482DF08B
:1025D00085FB23683A4819692DF080FB394BDA6A8C
:1025E000D20733D5DB6A384913F0020F374B08BFE7
:1025F000194637482DF072FB236836481968C1F335
:1026000003212DF06BFB236833481B682E4913F41C
:10261000805F2E4B18BF19462DF060FB002038BD9F
:10262000D3F8942002F44002B2F5800F03D10CF0ED
:10263000CDFE2A4CB9E7D3F8943003F44003B3F548
:10264000000F12BF264C2748274CAEE71F49D0E7A2
:10265000012AE3D1254C264861681B4D2DF03EFB35
:102660002269244B24492548002A08BF19462DF029
:1026700035FB636915492248002B18BF29462DF008
:102680002DFBE36911491F48002B18BF29462DF087
:1026900025FB216A0D4B1C48002918BF2B46194603
:1026A000BAE700BFAFF300800000000080842E4135
:1026B000003802403A570408A43400204F57040859
:1026C0000657040800380140A2560408A3950408E0
:1026D0006E57040883570408985704082B570408BA
:1026E000325704080024F40040570408E83700205B
:1026F000AD5704084957040844570408C257040852
:10270000D9570408F05704080758040808B50948C1
:102710002DF088FB08490B681A6822F001021A6044
:10272000064A1A614A601A6842F001021A600020E3
:1027300008BD00BF1E580408A4340020362C9000A9
:1027400008B532B1012A0BD009482DF06BFB0120EE
:1027500005E0FFF7DBFF074807F09EFD002008BDFE
:10276000054807F0F7FE04480AF002FFF6E700BF4D
:1027700052490408A4340020E83700202DE9F04F26
:102780008BB018B900200BB0BDE8F08F834B994295
:10279000F8D9834B99425ED9824B9942F2D9824B48
:1027A00099425AD9814BA1F54321A1F5A0619942E3
:1027B000E8D80221DFF804C20CEB5003B3FBF0F0C1
:1027C0007B4B2C2202FB013305465A6A03921A6A9C
:1027D0000192019C5A691B69A2180492039A1B1B5F
:1027E000A2F13206A3F5827300EB4002B61AA3EB06
:1027F0008003704A23EAE373029313680093002472
:1028000026EAE6761A46A2464FF0100BA9464FF08C
:10281000000E049BCDF814E099450EF1010E27D36C
:102820000027B846BE421DD8029BBB421AD35C4566
:1028300018D0142303FB02FB5F4B013203EB0B0A9E
:1028400043F80B40059B7F2ACAE9013807D9594B49
:1028500000921A6017E00021ACE70121AAE7A34625
:102860004FF0010A08F10108B8F1100F2F44D9D137
:10287000BEF1100FA944CCD10134102C0544C5D1B0
:10288000BAF1000FE3D12C225143494B039C019D27
:1028900003EB010E5B5848490CEB53022C44B2FB8E
:1028A000F3FBDEF80430BCFBF3F30293DEF80830F0
:1028B000BCFBF3F30493430003F13202E3180592E7
:1028C000D94600264FF0FF320993009B9E4219D152
:1028D0007F2A3FF657AF384B14214A4399189B582B
:1028E000087C40EA03704B681B0503F4700318432F
:1028F0008B681B0403F470231843CB681B029BB244
:10290000184340E7DEF818400B680394059C03FB6E
:1029100000031C190194099CE5183235019C0895A7
:102920004FF0000C039DCDF81CC0AC420CF1010C23
:102930002CD9A4F13205B0EB950F27D2089DDDF814
:1029400004A025444FF00008049FCDF81880AF4242
:1029500008F1010815D8029FAF4212D3DEF81C70AF
:1029600057450ED850450CD2A5EB0B07002FB8BF2A
:102970007F42B94505D9079A0A61069ACA60B946E5
:102980003246B8F5807F1D449A44DDD1BCF5807F86
:102990001C44C7D10136143197E700BF7F380100CE
:1029A000C0D40100FFE1040000530700801A0600B4
:1029B000CCCE04083C0400204004002000CA9A3B0E
:1029C00013B5084612F0200114463BD09FED3A1B88
:1029D0009FED3B0B6A46002116F04EFBC8B9DDE9BE
:1029E00000013B4B0022FDF72FFD04F01F04013CCA
:1029F000CDE90001052C20D8DFE804F003030D1316
:102A00001919FEF719F800EE100A052000F0F0FE83
:102A1000002002B010BDFEF70FF800EE100A0C20E7
:102A2000F4E7FEF709F800EE100A0220EEE7FEF7E1
:102A300003F800EE100A0320E8E726482DF0F2F92B
:102A40000120E6E71306F8D59FED1F1B9FED1C0B39
:102A50006A4616F011FB0028DBD104F01F04013C8C
:102A6000052CEAD8DFE804F003030D151D1DDDE990
:102A70000001FDF7E1FF00EE100A052000F00CFF59
:102A8000C6E7DDE90001FDF7D7FF00EE100A0C20D4
:102A9000F4E7DDE90001FDF7CFFF00EE100A0220A8
:102AA000ECE7DDE90001FDF7C7FF00EE100A0320A7
:102AB000E4E700BFAFF300800000000000005940D1
:102AC00000000000000000000000000000408F40F7
:102AD000000024405249040808B515482DF0A2F919
:102AE000144B154819682DF0F9F8144B144819685F
:102AF0002DF0F4F8134B186807EE900AF8EE677A99
:102B000017EE900AFDF748FC0F4B0022FDF7C6FDBB
:102B100002460B460D482DF0E1F80D4B0D481968A3
:102B20002DF0DCF80C482DF07DF9002008BD00BF29
:102B30001F5F0408540E0020355F0408500E00206B
:102B4000465F04084C0E002000002440575F040834
:102B5000480E00206A5F0408DF3F0408DFB5510615
:102B60002FD502F01F02013A052A25D8DFE802F02E
:102B70000315171A221F0022052102A800F082FF68
:102B8000044638B90298FDF707FC02460B461E487A
:102B90002DF0A4F8204604B0D0BD0422ECE70022BA
:102BA0000C21EAE7082202210DEB0200E6E70022F1
:102BB0000321E2E70422FBE714482DF033F9012456
:102BC000E8E71306F8D502F01F02012A1AD0053AE9
:102BD000012AF1D8032203A902A800F0F7FE044657
:102BE0000028D7D10398FDF7D7FB064602980F4679
:102BF000FDF7D2FB3246CDE900013B4604482DF0FB
:102C00006DF8C7E70522E6E7815F0408524904082A
:102C10007B5F040802F4387002F01F02013A08B525
:102C2000052A1CD8DFE802F003070B0F1317BDE8D5
:102C3000084000F073BFBDE8084001F04DB8BDE8A2
:102C4000084001F027B9BDE8084001F0AFB9BDE880
:102C5000084001F039BABDE8084001F029BB02483C
:102C60002DF0E0F8012008BD5249040808B500F035
:102C70005FFBFEF7DDF800F0C3FA002008BD00009E
:102C800007B59FED0B0B08469FED0B1B6A46002115
:102C90008DED000B16F0F0F928B9DDE90001FDF724
:102CA000ABFEFEF7D1F803B05DF804FBAFF3008094
:102CB0000000000000000000000000002A758541AF
:102CC00008B500F09DFA00F033FBFEF733F8002062
:102CD00008BD08B500F094FAFEF7AAF8BDE8084070
:102CE00000F0AABA2DE9F041ADF5976D0DF102069D
:102CF0000123084633804FF496723346002116F0C4
:102D0000A4FB0446E0B901464FF4966202A80DF117
:102D100004082DF084FB3088424602A900F07CF9BB
:102D2000044668B902AD07463388BB420DDCD8F8CB
:102D30000000FDF731FB02460B4609482CF0CEFFA0
:102D400020460DF5976DBDE8F08155F8040BFDF7B1
:102D500023FB02460B4603482CF0C0FF0137E3E794
:102D6000915F04088B5F040808B5FEF761F800F076
:102D7000DFFA00F0CFF9002008BD0000037F012B2F
:102D800002D1044A13607047022B02BF024B01229A
:102D90001A607047400E0020440E002010B5002439
:102DA00088B0CDE90544144B01941A6C134842F0E5
:102DB00008021A641A6C02F008020192019A029445
:102DC0001A6B42F001021A631B6B03F001030293BA
:102DD000029B0122022303A9CDE90323079309F0F3
:102DE00099FF22460521322008F0FAFB322008F034
:102DF00039FC08B010BD00BF00380240000002409E
:102E000030B5002589B0CDE90555314B01951A6CD7
:102E1000304C42F008021A641A6C02F00802019267
:102E2000019A02951A6B42F001021A631B6B03F0C0
:102E300001030293029B01200223CDE9030303A9AE
:102E40002548079309F066FFDFF89CC04FF0406308
:102E5000C4E900C34FF4806E4FF48053C4E904E327
:102E600020464FF48043C4E90255C4E90635C4E95D
:102E7000085508F039FC08B107F0E8FB174D184A6F
:102E80006C62A563174C4FF04063C4E900234FF414
:102E900080614FF480520023C4E9041220464FF4AD
:102EA0008042C4E90233C4E90623C4E9083308F0C8
:102EB0001BFC08B107F0CAFB002205213220AC62DE
:102EC000A56308F08DFB322008F0CCFB09B030BDC3
:102ED0000038024018180020000002407818002036
:102EE00070600240B817002040600240074A08485E
:102EF00008B5136C23F00803136401210AF050F89D
:102F0000BDE80840322008F0C1BB00BF00380240D5
:102F10000000024038B504460BF0D8FE237F022B98
:102F20001FD1002120460EF07BF8104D04212860AF
:102F300020460EF075F80E4A0E49106013680E4CCC
:102F400083B113682A684FF47A704343B3FBF2F3FA
:102F5000C31A0B600BF0BAFE2B684000B0FBF3F015
:102F6000206038BD0B602360FBE700BF540E0020DB
:102F7000500E00204C0E0020480E00202DE9F84F86
:102F800012F012FBDFF888B01D4F1E4D824600265E
:102F900012F00AFBA0EB0A00FDF7DCF9324680468E
:102FA00089463B46DBE90001FDF74EFA02460B4637
:102FB00040464946FDF7BAFC044660B9014612484E
:102FC00010F08AF81048042110F086F80F4B2C609E
:102FD0001C60032012E02B68012BD9D10B4B1A681F
:102FE000012AD5D10024214607481C602C6010F02E
:102FF00073F80548042110F06FF82046BDE8F88FFB
:1030000000408F40440E002078180020400E002021
:1030100018000020000000002DE9F04F384B87B069
:103020000C460021039206465962364A36484FF450
:1030300096730FF00BFF354A33484FF49673042113
:103040000FF004FFFFF79AFF0546002852D1DFF882
:10305000BCA02C4F04EB860B80465C450CD1B8FB22
:10306000F6F807EE908A039BF8EE677AC3ED007AD4
:10307000284607B0BDE8F08FD7F8049057F8043B16
:103080005AF8042F0593994536BF09F1FF30A9EB93
:103090000300C01A0492FDF75DF9049A059B91455F
:1030A000CDE9000134BFA2EB0900D01AFDF752F9B7
:1030B000DDE90023FDF7F2FA154B0022FDF7C4F914
:1030C000FDF7BAFC44F8040B4046FDF743F9DDE98F
:1030D00000238046894608A1D1E90001FDF7DEFA08
:1030E00002460B4640464946FCF7F8FFFDF784FCD4
:1030F0008046B2E70325BBE7000000002A75954132
:10310000000C00400813002078180020580E002002
:103110000000594010B58CB00024344B01941A6B58
:1031200042F400121A631B6B03F4001322460521BC
:1031300001930D20019B08F053FA0D2008F092FA3C
:10314000224605210F2008F04BFA0F2008F08AFADA
:10315000102221460DEB02002DF061F910222146CC
:1031600008A8CDE902442DF05AF9214A2148214608
:103170000EF004F81F4A204B9460C2E90034104658
:103180004FF0FF33C2E90334946110F0A5F828BB77
:103190004FF480531748049304A90EF0A9FCE8B932
:1031A000144810F0AFFAC8B9CDE9020002A91148DD
:1031B00010F05AFB024688B90123CDE90930089086
:1031C0000B9008A90B480EF039FB38B902230948C7
:1031D000042208A9CDE908330EF030FB074A054860
:1031E00012210DF0CBFF0CB010BD00BF0038024023
:1031F000012E010878180020000C00407D2D0108E8
:103200000A4A0B48136C10B523F00803094C1364E9
:10321000012109F0C5FE606A08F090FBA06A08F081
:103220008DFB322008F032FA002010BD0038024039
:10323000000002407818002030B591B01022002123
:1032400003A82DF0ECF8142200210BA800242DF087
:10325000E6F81022002107A82DF0E1F82F4A3048A7
:103260002146CDE901440DF089FF2E4A2C48012169
:103270000DF084FF2A4A2C4B9460C2E900341046BA
:103280004FF0FF33C2E90334946110F025F80028B1
:1032900032D14FF480532248039303A90EF028FC47
:1032A00050BB1F4810F02EFA30BB0224CDE90D4070
:1032B00050230F9004251A480BA9CDE90B530EF0AB
:1032C000EDFF0246C0B90123CDE908300A9007A9F5
:1032D000134807940EF0B2FA70B9CDE907042A46F4
:1032E0000F4807A90EF0AAFA30B9CDE901000DEB9D
:1032F00005010B4810F0B8FA094804210FF03AFC18
:1033000048B9014606480FF035FC20B9074A044881
:1033100012210DF033FF11B030BD00BF9D2D01080B
:1033200078180020ED2E0108000C0040152F010830
:1033300010B5094C23686BB1042120460FF0F0FC56
:10334000002120460FF0ECFC322008F09FF92046C7
:103350000DF00CFC002010BD7818002001480DF085
:10336000BFBD00BF78180020014808F0AFBB00BF08
:1033700018180020014808F0A9BB00BFB8170020AA
:1033800010B514228AB0044600210DEB02002DF086
:1033900046F82368224A934220D1224B224800213A
:1033A00001911A6C42F008021A641A6C02F00802C9
:1033B0000192019A02911A6B42F001021A631B6B8F
:1033C00003F0010302930121029B0223CDE90513BF
:1033D000099305A909F09EFC0AB010BD134A934257
:1033E000FAD1104B1248002103911A6C42F00202EC
:1033F0001A641A6C02F002020392039A04911A6B87
:1034000042F004021A631B6B03F004030493049B51
:1034100040220223CDE90523099305A9DAE700BF7D
:10342000000C004000380240000002400004004050
:103430000008024010B504468EB01422002109A8ED
:103440002CF0EDFF2368B3F1804F20D103F50E334C
:10345000002101911A6C42F001021A641A6C02F008
:1034600001020192019A02911A6B42F002021A6360
:103470001B6B03F002030293029B4FF48061022353
:10348000CDE9091301233C480D9309A922E03B4AE9
:10349000934227D13A4B002103911A6C42F0020269
:1034A0001A641A6C02F002020392039A04911A6BD6
:1034B00042F004021A631B6B03F004030493049BA1
:1034C000304B1B7853B9402309932F4802230A93AA
:1034D0000D9309A909F01EFC0EB010BD042BFBD101
:1034E0008023F1E7294A934225D1254B00210591FC
:1034F0001A6C42F008021A641A6C02F00802059273
:10350000059A06911A6B42F001021A631B6B03F0D5
:1035100001030693069B1B4B1B783BB901230993C0
:1035200002231B480A930D9309A9D3E7042BD3D197
:1035300002230993F5E7174A9342CDD1104B00219E
:1035400007911A6C42F040021A641A6C02F04002B1
:103550000792079A08911A6B42F002021A631B6BDA
:1035600003F002030893089B4FF480420223CDE945
:103570000923092387E700BF00040240000400403C
:10358000003802402C19002000080240000C0040C6
:103590000000024000180040FFF74CBF08B5036868
:1035A000B3F1804F0CD1082126480FF069FA264A62
:1035B000136C23F0010313644FF48061234815E07A
:1035C000234A934216D1002122480FF059FA0421D0
:1035D00020480FF055FA1C4A1F48136C23F00203D1
:1035E0004021136409F0DCFC1B488021BDE8084041
:1035F00009F0D6BC194A934213D1002118480FF0A4
:103600003FFA042116480FF03BFA0F4A1548136C95
:1036100023F008030121136409F0C2FC11480221C0
:10362000E4E7114A93420BD1002110480FF028FA29
:10363000054A136C23F0400313644FF48041BDE747
:1036400008BD00BF4C1B00200038024000040240AF
:1036500000040040981A002000080240000C0040BE
:10366000E41900200000024000180040301900203A
:1036700008B50368B3F1804F0FD12D480DF0EAFA79
:1036800008212B480FF0B2F82A4A136C23F00103EB
:1036900013644FF48061284818E0284A934219D1F6
:1036A00027480DF04DFB002125480FF09FF804211D
:1036B00023480FF09BF81F4A2248136C23F00203A3
:1036C0004021136409F06CFC1E488021BDE80840CD
:1036D00009F066BC1C4A934216D11C480DF030FB21
:1036E00000211A480FF082F8042118480FF07EF8E4
:1036F000104A1748136C23F008030121136409F0E2
:103700004FFC13480221E1E7124A93420ED11248BE
:103710000DF016FB002110480FF068F8054A136CF5
:1037200023F0400313644FF48041B4E708BD00BFA9
:103730004C1B0020003802400004024000040040FE
:10374000981A002000080240000C0040E4190020F4
:103750000000024000180040301900200B4A0C48BD
:1037600008B5136C23F0020313640DF0E9FA00218D
:1037700007480FF085F9042105480FF081F9BDE8ED
:1037800008400448402109F00BBC00BF003802404B
:10379000981A00200008024008B5114A03689342B5
:1037A00016D102F50B320F48136C23F00803136493
:1037B0000DF0C6FA00210B480FF062F90421094808
:1037C0000FF05EF9BDE808400748012109F0E8BBA9
:1037D000064A934203D1BDE80840FFF7BFBF08BDCA
:1037E000000C0040E41900200000024000040040EA
:1037F00001380B2841D8DFE800F0061729403C408B
:1038000040404040403E1E4BD3ED037ADFED1D6A41
:103810001A68F8EE677A67EE807A87EEA67ABCEED1
:10382000C77A82ED0D7A0FE0174BDFED166AD3ED04
:10383000037A1A68F8EE677A67EE807A87EEA67ADE
:10384000BCEEC77A82ED0F7A002070470F4BD3EDA4
:10385000037ADFED0C6A1A68F8EE677A67EE807A11
:1038600087EEA67AFCEEC77AC2ED0D7AC2ED0E7A2B
:10387000EAE7074BEBE7074BC6E74FF48B7070475F
:10388000001C002000007A444C1B0020981A0020E5
:10389000E419002030190020013808B50B287FD822
:1038A000DFE800F00622397E507E7E7E7E7E7E67D7
:1038B000DFED3F7A60EE277A17EE900AFCF76CFD99
:1038C00002460B4638A1D1E90001FCF7E7FE394B6F
:1038D0000022FCF701FCFDF78FF8374BD860184643
:1038E0000FF0FAFC002008BDDFED317A60EE277A98
:1038F00017EE900AFCF750FD02460B462AA1D1E9CB
:103900000001FCF7CBFE2B4B0022FCF7E5FBFDF79B
:1039100073F82A4BE2E7DFED267A60EE277A17EE9E
:10392000900AFCF739FD02460B461FA1D1E90001C0
:10393000FCF7B4FE1F4B0022FCF7CEFBFDF75CF852
:103940001F4BCBE7DFED1A7A60EE277A17EE900A6D
:10395000FCF722FD02460B4613A1D1E90001FCF75A
:103960009DFE144B0022FCF7B7FBFDF745F8154B05
:10397000B4E7DFED0F7A60EE277A17EE900AFCF7D6
:103980000BFD02460B4608A1D1E90001FCF786FEBB
:10399000084B0022FCF7A0FBFDF72EF80A4B9DE731
:1039A0004FF48B709FE700BF000000002A7585412F
:1039B00000007A440000F03F001C00204C1B002057
:1039C000981A0020E419002030190020032A2DE95C
:1039D000F04706460D4629D0052A48D1254F11F05B
:1039E000E3FD00F59678002138460DF019FB04211F
:1039F000824638460DF014FB0021814638460DF012
:103A00000FFB8245044688BF00F58034CA4528BFB5
:103A100009F5803911F0C8FD4045A4EB0A0407D927
:103A20000023336003202B60BDE8F087124FD6E7F8
:103A3000002CD8D0114BB3FBF4F307EE903AF8EE1C
:103A4000E77AA9EB0A09C6ED007A07EE909AB8EE7C
:103A5000677A07EE904AF8EE677A0020C7EE276A89
:103A6000DFED077A66EEA77AC5ED007ADCE74FF462
:103A70008B70D9E7E4190020981A002040A5AE0207
:103A80000000C84202392DE9F041064617460A29CE
:103A900036D8DFE801F0062635223535353535359F
:103AA0002400194D11F080FD00F59678394628461E
:103AB0000DF0B6FA3946044628460DF0B1FA8442B4
:103AC00088BF00F58030041B11F06EFD40450AD917
:103AD000002333600320BDE8F0810C4DE2E70C4D7C
:103AE000E0E70C4DDEE7002CE0D00B4BB3FBF4F32A
:103AF00007EE903AF8EEE77A0020C6ED007AEAE7A2
:103B00004FF48B70E7E700BF4C1B0020E419002046
:103B100030190020981A002040A5AE0230B593B0AD
:103B200004461C2200210BA82CF079FC1022002155
:103B300003A82CF074FC1022002107A82CF06FFCC5
:103B40005F4A604B136000214FF6FF73C2E90331F7
:103B50005D4B91610125202CCDE90111C2E9015194
:103B6000197028D1594A564806210DF007FB5448D0
:103B70000FF016FD0446D8B94FF480535048079310
:103B800007A90DF0B5FF044690B96023CDE90B30CD
:103B90000D900F9002460BA949480DF0F3FC044626
:103BA00030B947480DF056F8454821460EF06CFDF7
:103BB000204613B030BD402C2ED1454A404802214A
:103BC0000DF0DCFA3E480FF09DFD04460028EFD1D1
:103BD0004FF480533A48079307A90DF089FF044634
:103BE0000028E5D1CDE9010001A935480FF03CFEE0
:103BF00004460028DCD1CDE90305CDE905000246E5
:103C000003A92F480DF01AFE04460028D0D1014622
:103C10002B480EF073FECBE7802C42D12D4A28486A
:103C20000DF0ACFA26480FF057FB04460028BFD130
:103C30004FF480532248079307A90DF059FF04461B
:103C40000028B5D11E480FF05DFD04460028AFD115
:103C5000CDE9010001A91A480FF006FE044600282C
:103C6000A6D1CDE90305CDE90500024603A9144814
:103C70000DF0E4FD044600289AD1022310480422E6
:103C800003A9CDE903330DF0D9FD044600288FD1F7
:103C90000B480CF0DFFF214609480EF02FFE0421EF
:103CA000B6E7B4F5007F01D0002481E70448FFF7B0
:103CB00073FD0348FFF772FC0148FFF7D9FCF3E7F7
:103CC000E4190020000C00402C19002035340108B4
:103CD000993501088133010870B592B004461C2261
:103CE00000210BA82CF09BFB1022002103A82CF034
:103CF00096FB1022002107A82CF091FB5F4A604B35
:103D0000136000214FF6FF73C2E903315D4B9161EF
:103D100001260425202CCDE90111C2E901611D70A5
:103D200028D1594A554806210DF028FA53480FF07A
:103D300037FC0446D8B94FF480535048079307A97D
:103D40000DF0D6FE044690B96023CDE90B300D90FE
:103D50000F902A4649480BA90DF014FC044630B9CF
:103D600046480CF077FF454829460EF08DFC20466A
:103D700012B070BD402C2ED1444A404802210DF0B3
:103D8000FDF93E480FF0BEFC04460028EFD14FF489
:103D900080533A48079307A90DF0AAFE044600286D
:103DA000E5D1CDE9010001A934480FF05DFD0446DD
:103DB0000028DCD1CDE90306CDE905002A462F48CD
:103DC00003A90DF03BFD04460028D0D129462B481D
:103DD0000EF094FDCBE7802C41D12D4A27480DF001
:103DE000CDF926480FF078FA04460028BFD14FF4E9
:103DF00080532248079307A90DF07AFE0446002855
:103E0000B5D11E480FF07EFC04460028AFD1CDE9A5
:103E1000010001A919480FF027FD04460028A6D18A
:103E2000CDE90306CDE905002A46144803A90DF0A3
:103E300005FD044600289AD10223024603A90F4833
:103E4000CDE903330DF0FAFC044600288FD10B486E
:103E50000CF000FF214609480EF050FDB6E7B4F51E
:103E6000007F01D0002482E70448FFF795FC034857
:103E7000FFF794FB0148FFF7FBFBF3E7E419002091
:103E8000000C00402C190020353401089935010838
:103E90008133010830B593B004461C2200210BA8E1
:103EA0002CF0BDFA1022002103A82CF0B8FA102241
:103EB000002107A82CF0B3FA39493A4A0A600023D6
:103EC00001254FF6FF72402CCDE90133C1E90153C2
:103ED000C1E903238B612CD1334A314802210DF013
:103EE0004DF92F480FF00EFC0446F8B94FF48053FB
:103EF0002B48079307A90DF0FBFD0446B0B9CDE9A7
:103F0000010001A926480FF0AFFC044670B9CDE9C5
:103F10000305CDE90500024603A921480DF08EFCFA
:103F2000044618B901461E480EF0E8FC204613B0BE
:103F300030BD202C27D11A480FF032FB0446002850
:103F4000F4D11748FFF776FA4FF4805314480793DB
:103F500007A90DF0CDFD04460028E7D16023CDE987
:103F60000B300D900F9002460BA90D480DF00AFB87
:103F700004460028DAD10A480CF06CFE21460848B5
:103F80000EF082FBD2E7B4F5007F01D00024CDE72C
:103F90000348FFF703FB0248FFF76AFBF6E700BFA1
:103FA00030190020001800409935010830B593B051
:103FB00004461C2200210BA82CF031FA102200210B
:103FC00003A82CF02CFA1022002107A82CF027FAC5
:103FD0003A494FF0804200230A6001254FF6FF72F4
:103FE000402CCDE90133C1E90153C1E903238B61C1
:103FF0002CD1334A314802210DF0C0F82F480FF080
:1040000081FB0446F8B94FF480532C48079307A965
:104010000DF06EFD0446B0B9CDE9010001A92748B5
:104020000FF022FC044670B9CDE90305CDE9050087
:104030000822224803A90DF001FC044618B91F48C4
:1040400008210EF05BFC204613B030BD202C29D196
:104050001C4A1A4806210DF091F818480FF0A0FAF2
:1040600004460028EFD14FF480531448079307A962
:104070000DF03EFD04460028E5D16023CDE90B306C
:104080000D900F9008220D480BA90DF07BFA044605
:104090000028D8D109480CF0DDFD082107480EF0B2
:1040A000F3FAD0E7B4F5007F01D00024CBE7034852
:1040B000FFF774FA0148FFF7DBFAF6E74C1B002024
:1040C000993501083534010870B592B004461C22B8
:1040D00000210BA82CF0A3F91022002103A82CF03A
:1040E0009EF91022002107A82CF099F9674A684B25
:1040F000136000214FF6FF73C2E90331654B9161F4
:1041000001260425202CCDE90111C2E901611D70B1
:1041100028D1614A5D4806210DF030F85B480FF068
:104120003FFA0446D8B94FF480535848079307A97B
:104130000DF0DEFC044690B96023CDE90B300D9004
:104140000F902A4651480BA90DF01CFA044630B9CD
:104150004E480CF07FFD4D4829460EF095FA20465A
:1041600012B070BD402C2ED14C4A484802210DF0AF
:1041700005F846480FF0C6FA04460028EFD14FF480
:1041800080534248079307A90DF0B2FC044600286B
:10419000E5D1CDE9010001A93C480FF065FB0446DB
:1041A0000028DCD1CDE90306CDE905002A463748D1
:1041B00003A90DF043FB04460028D0D1294633481B
:1041C0000EF09CFBCBE7802C41D1354A2F480CF0F8
:1041D000D5FF2E480FF080F804460028BFD14FF4D9
:1041E00080532A48079307A90DF082FC0446002853
:1041F000B5D126480FF086FA04460028AFD1CDE9A4
:10420000010001A921480FF02FFB04460028A6D188
:10421000CDE90306CDE905002A461C4803A90DF0A7
:104220000DFB044600289AD10223024603A9174831
:10423000CDE903330DF002FB044600288FD113486B
:104240000CF008FD214611480EF058FBB6E7B4F516
:10425000007F01D0002482E7124A0C4807210CF0AD
:104260008DFF0A48FFF79AF90F4A084803210CF01E
:1042700085FF0648FFF7FCF90C4A044831460CF06C
:104280007DFF0248FFF788FAE4E700BF981A002094
:10429000000400402C19002035340108993501082C
:1042A000813301089D3501087136010899370108ED
:1042B00030B593B004461C2200210BA82CF0AFF8B7
:1042C0001022002103A82CF0AAF81022002107A830
:1042D0002CF0A5F85F4A604B136000214FF6FF7386
:1042E000C2E903315D4B91610125202CCDE901111B
:1042F000C2E90151197028D1594A564806210CF0DB
:104300003DFF54480FF04CF90446D8B94FF48053A0
:104310005048079307A90DF0EBFB044690B96023C2
:10432000CDE90B300D900F9002460BA949480DF0D6
:1043300029F9044630B947480CF08CFC4548214621
:104340000EF0A2F9204613B030BD402C2ED1454AC4
:10435000404802210CF012FF3E480FF0D3F904460A
:104360000028EFD14FF480533A48079307A90DF086
:10437000BFFB04460028E5D1CDE9010001A935487D
:104380000FF072FA04460028DCD1CDE90305CDE92F
:104390000500024603A92F480DF050FA04460028F4
:1043A000D0D101462B480EF0A9FACBE7802C42D1A0
:1043B0002D4A28480CF0E2FE26480EF08DFF0446F8
:1043C0000028BFD14FF480532248079307A90DF06E
:1043D0008FFB04460028B5D11E480FF093F9044620
:1043E0000028AFD1CDE9010001A91A480FF03CFA2D
:1043F00004460028A6D1CDE90305CDE90500024613
:1044000003A914480DF01AFA044600289AD1022391
:104410001048042203A9CDE903330DF00FFA044636
:1044200000288FD10B480CF015FC214609480EF0EE
:1044300065FA0421B6E7B4F5007F01D0002481E7D6
:10444000FFF78CF90348FFF7A9F80248FFF710F9C6
:10445000F4E700BF981A0020000400402C19002047
:1044600035340108993501088133010808B5084839
:104470000022102108F056FE05480122802108F094
:1044800051FE03480122102108F04CFE002008BD17
:104490000010024008B508480022102108F042FE32
:1044A00005480022802108F03DFE0348012210212A
:1044B00008F038FE002008BD0010024008B503488F
:1044C0000022102108F02EFE002008BD001002403E
:1044D00013B5084614460DF107030722002114F016
:1044E000BFFF90B99DF80730072B9FBF0B4A0C49BF
:1044F00052F8232031F8133084BF03460246A10747
:1045000005D008490A60084A138002B010BD61074F
:10451000FBD506490A60064AF6E700BF60CF0408EB
:1045200050CF0408C41C0020C01C0020BC1C00206C
:10453000B81C00202DE9F04FADF21C4D14460DF1D2
:104540001609002362068A46A9F8003003D584F0D4
:1045500040049A4E04E02306FBD5994E84F0800473
:10456000A4F11303032B39D8944B9E4284F010041A
:1045700041D0944B1F68944BB3F80080002F3DD17D
:10458000032C01D0062C08D14B46FF2201215046B6
:1045900014F05BFF834600284AD1231F022B61D809
:1045A00006AB03930025F16800294CD106AB2B44E0
:1045B000FF22504614F054FF834600284BD1039B42
:1045C00001350233B5F5807F0393ECD1ADB2033CE6
:1045D000032C7AD8DFE804F04A8189B7A4F12303D9
:1045E000032B15D8754B9E4284F020040CD0774BDA
:1045F0001F68774BC0E7774F4FF010080022414605
:10460000384608F08FFDBBE7734F4FF00108F5E720
:10461000631E012B11D805AB4FF6FF7200215046E7
:1046200014F013FF834618B9012C09D04FF0010B89
:1046300058460DF21C4DBDE8F08F0027B8469FE7A5
:1046400007468046A0E7039B4FF6FF7200215046C5
:1046500014F0FBFEB0E740F23D129042E8D1002D8D
:10466000B4D1E5E74FF0010B0025B0E7B9F8002021
:10467000642386A930460CF067F8834628BBF268AD
:1046800086ACE2B15D451EDDBBF1000F02D02C20EF
:104690002BF06AFB34F8021B50482BF01FFB0BF188
:1046A000010BEFE7BBF1000F02D02C202BF05CFBDD
:1046B00014F8011B4A482BF011FB0BF1010BB9F860
:1046C00000205A45EEDC4FF0000B002FB0D0012245
:1046D0004146384608F026FDAAE764232A4606A983
:1046E00030460BF06FFE8346EFE76423009386AA03
:1046F0002B4606A930460BF021FF83460028E4D163
:10470000F26886ACE2B15D45DDDDBBF1000F02D0A1
:104710002C202BF029FB34F8021B30482BF0DEFA5A
:104720000BF1010BEFE7BBF1000F02D02C202BF0B7
:104730001BFB14F8011B2A482BF0D0FA0BF1010BDC
:104740005D45F0DCBFE764232A4606A930460BF03E
:1047500039FE83460028B8D1B9F80020642386A921
:1047600030460BF0F1FF83460028AED1F26886ACEC
:10477000F2B1B9F800205A45A5DDBBF1000F02D017
:104780002C202BF0F1FA34F8021B14482BF0A6FA77
:104790000BF1010BEDE7BBF1000F02D02C202BF049
:1047A000E3FA14F8011B0E482BF098FA0BF1010BF9
:1047B000B9F800205A45EEDC85E700BFB438002088
:1047C0005C380020C41C0020C01C0020BC1C002041
:1047D000B81C00200000024000040240B8C70408D2
:1047E0000157040808B50A48102108F089FC68B18F
:1047F0008021074808F084FC0649074B002818BFB1
:10480000194606482BF06AFA002008BD0449F8E76B
:1048100000100240DC670408E46704080B9E0408EB
:10482000A395040870B50846510686B035D59207A1
:104830000DF103011AD014F0C1FB044698B9CDE97B
:104840000300059010252D48012301A9CDE901534E
:1048500008F060FA9DF803202848003A18BF0122AA
:10486000294608F05FFC204606B070BD14F0A6FB98
:1048700004460028F7D1CDE9030005900125204822
:1048800001A9CDE9015508F045FA9DF803201C481F
:10489000003A18BF01222946E3E712F08004E2D073
:1048A00093070DF1030119D014F088FB044600288A
:1048B000D9D1144E144D33880193CDE9030001235F
:1048C00005900293286801A908F024FA9DF80320B6
:1048D00031882868003A18BF0122C2E714F06EFB45
:1048E00004460028BFD1094E094D338801930123A6
:1048F000CDE9030005900293E4E700BF0000024009
:1049000000040240C01C0020C41C0020B81C002071
:10491000BC1C002070B5294C236886B00D465BB9DD
:10492000CDE90333059301265723254801A9CDE995
:10493000013608F0EFF9266001A9284614F03EFB85
:104940000446C0BB0DF10501284614F037FB0446B0
:1049500088BB0DF10601284614F030FB044650BB1D
:104960000DF10701284614F029FB044618BB02A9E3
:10497000284614F023FB0446E8B99DF804201048AB
:10498000012108F0CFFB9DF805200D48022108F019
:10499000C9FB9DF806200A48042108F0C3FB9DF8D6
:1049A00007200748102108F0BDFB9DF808200448A7
:1049B000402108F0B7FB204606B070BDB41C0020B3
:1049C000000C0240F0B5274B274E802A18BF1E4628
:1049D000351D0F460FCD8DB001AC0FC40FCD0FC4E8
:1049E00095E807000DF1020384E807004FF4807298
:1049F0000221384614F029FD341D30BBBDF80230C9
:104A0000202B24D00CD8082B23D005D8022B0FD074
:104A1000042B20D0162018E0102BFBD1182007E023
:104A2000802B1AD0B3F5807F19D0402BF2D12820EB
:104A3000079001AD0FCD0FC40FCD0FC495E807004F
:104A400084E8070030460BF07DFB0DB0F0BD184642
:104A5000EEE71020ECE70820EAE73020E8E738200E
:104A6000E6E700BFB43800205C38002013B500230F
:104A700008460DF1070114468DF8073014F09EFA30
:104A800038B9112C26D006DC012C0ED0022C18D0FF
:104A9000162002B010BD122CFAD19DF80730114A31
:104AA000003B18BF01235B0012E09DF807300E4A5F
:104AB000003B18BF01235B00136110460BF042FB63
:104AC000E7E79DF80730084A003B18BF01235B0069
:104AD0005361F2E79DF80730024A003B18BF0123FB
:104AE0005B00E9E75C380020B438002013B50023F0
:104AF00008460DF1070114468DF8073014F05EFAF0
:104B000020B9402C04D0802C0ED0162002B010BD4D
:104B10009DF80730084A003B18BF0123DB011362F0
:104B200010460BF00FFBF1E79DF80730034A003BFE
:104B300018BF0123DB01F2E7B43800205C38002005
:104B400013B5002308460DF1070114468DF8073010
:104B500014F034FA20B9402C04D0802C0ED016204A
:104B600002B010BD9DF80730084A003B18BF012372
:104B7000DB02D36010460BF0E5FAF1E79DF8073051
:104B8000034A003B18BF0123DB02F2E7B4380020E0
:104B90005C38002013B5002308460DF107011446C8
:104BA0008DF8073014F00AFA20B9402C04D0802C7C
:104BB0000ED0162002B010BD9DF80730084A003B09
:104BC00018BF01231B01536210460BF0BBFAF1E73B
:104BD0009DF80730034A003B18BF01231B01F2E791
:104BE000B43800205C3800202DE9F04186B008463A
:104BF000144600210DF1030303228DF8031014F075
:104C00002FFC48B1B0F58B7F03D040F23D139842A2
:104C100007D102238DF80330402C05D0802C4BD0D7
:104C2000162006B0BDE8F0819DF80340012C19D094
:104C3000022C25D07CB9CDE90344504805940125C8
:104C4000102401A9CDE9014508F064F84B482A4633
:104C5000214608F067FA4A4805F0A8FE48480BF0DC
:104C600071FADEE700234748059301A9CDE9033334
:104C7000CDE9014408F04EF8224642481146E8E7E3
:104C8000002401253D480594102601A9CDE90344DF
:104C9000CDE9016508F03EF82A463848314608F06B
:104CA00041FA3848059401A9CDE90344CDE90155FD
:104CB00008F030F82A46E0E79DF80340012C19D0AF
:104CC000022C31D05CBB2F4D0594CDE90344012665
:104CD0004FF4804401A92846CDE9014608F01AF8AE
:104CE00032462146284608F01DFA274B1D60274B07
:104CF0001C8014E0234E0023022501A93046CDE993
:104D000003330593CDE9015408F004F822462946FF
:104D1000304608F007FA1E4B1E601E4B1D801E48D1
:104D200005F044FE1C489AE7164D002601274FF473
:104D3000804801A92846CDE90366CDE9018705969B
:104D400007F0E8FF3A464146284608F0EBF90E4BDB
:104D500005961D600D4B01A92846A3F80080CDE9FA
:104D60000366CDE9014707F0D5FF3A4621462846BC
:104D700008F0D8F9064B1D60064BB9E70000024069
:104D8000B438002000040240C41C0020C01C0020D5
:104D9000BC1C0020B81C00205C3800200000000073
:104DA000F7B51546002A66D0012A7CD0624C616AAC
:104DB000624B634A6348002918BF1A4611462AF01D
:104DC0008DFFE168604B614A6148002918BF1A46AF
:104DD00011462AF083FF216A5E4B5F4A5F48002933
:104DE00018BF1A4611462AF079FF21695C4B5D4ACB
:104DF0005D48002918BF1A4611462AF06FFF616905
:104E00005A4B5B4A5B48002918BF1A4611462AF0E4
:104E100065FFE469202C6DD063D8102C69D05CD874
:104E2000002C7CD0082C7CD053482AF0FBFFFDB925
:104E30000121524808F064F9022104464F4808F065
:104E40005FF9042105464D4808F05AF9102106463D
:104E50004A4808F055F940210746484808F050F9FB
:104E60003346CDE900702A46454821462AF036FFF0
:104E7000002003B0F0BD10214248434C08F040F937
:104E80004249002818BF214641482AF027FF012146
:104E9000404808F035F93D49002818BF21463E48F2
:104EA0002AF01CFF82E74FF480413A48364C08F064
:104EB00027F93649002818BF214635482AF00EFF49
:104EC0000221344808F01CF93049002818BF214657
:104ED0003148324C2AF002FF69E7182CA4D1102483
:104EE00008E0302C1FD0382C1FD0282C9CD1402417
:104EF00000E008242046FBF73DFA02460B460CA1D1
:104F0000D1E90001FBF7CAFB254B0022FBF7C6FBEA
:104F100002460B46234821462AF0E0FE87E702249A
:104F2000E8E70424E6E78024E4E74FF48074E1E74F
:104F3000000000002A759541B4380020EB68040891
:104F400073660408BA6604087C660408826604086E
:104F5000CC660408876604088B660408DE660408CD
:104F60005396040841CC0408F0660408AA690408B2
:104F70008F6604080267040814670408000C0240E6
:104F80005A67040800000240E34404083CBD0408DA
:104F90009666040800040240A86604085C380020F5
:104FA00000408F4032670408500638B50ED51021F6
:104FB0002C4808F0A5F82C4B1B68996820B13120CB
:104FC0002AF00EFE002038BD3020F9E71106F9D591
:104FD000930718D0254B1D68254B1C882146284671
:104FE00008F08EF8204B1B689968A8B121482AF078
:104FF0004FFE214B9D421ED1B4F5806F0ED11F484C
:105000002AF06CFEDEE712F0040403D01C4B1D688E
:105010001C4BE2E72546E1E71B48E8E7B4F5006FE3
:1050200001D11A48ECE7402C01D11948E8E7802C5F
:10503000C8D11848E4E7184B9D4208D1022C01D191
:105040001648DDE7B4F5804FBCD11548D8E7054BCD
:105050009D42B7D1022C01D11248D1E7012CB1D128
:105060001148CDE7000002401C030020C41C0020B2
:10507000C01C00207367040800080240766704081B
:10508000BC1C0020B81C0020876004087967040855
:105090004B6A040885580408000402400E5C0408AA
:1050A0007C6704084F7204086D440408402A08B560
:1050B00003D0802A08D0162008BD064805F0F8FC69
:1050C00004480BF04FF9F7E7034805F0F1FC0248FC
:1050D000F7E700BFB43800205C38002010B5044664
:1050E00088B01422002103A82BF099F92268134BF1
:1050F0009A4221D103F5F633002101911A6C104830
:1051000042F400221A641A6C02F400220192019AFD
:1051100002911A6B42F001021A631B6B03F0010348
:105120000293029B02220323CDE90332069303A9D3
:105130000823079307F0EEFD08B010BD004C0040B7
:10514000000002400268064B9A4208D1054A064810
:10515000136C23F400231364032107F021BF70476D
:10516000004C0040003802400000024008B5104AE0
:1051700010480B210EF0EAFC0F4A0E480C210EF0ED
:10518000E5FC0C490D4B0B604FF4E1320023C1E903
:10519000012308460C22C1E90333C1E90523CB6191
:1051A0000EF0E8FD18B1BDE8084005F04FBA08BDA3
:1051B000DD500108C81C002045510108004C00408A
:1051C0000148FFF7BFBF00BFC81C002010B51B4B34
:1051D0001B4C1C48012A18BF1C4661682AF07EFD42
:1051E000A168194B194A1A48002918BF1A461146D6
:1051F0002AF074FDE168174B174A1848002918BFB8
:105200001A4611462AF06AFD2369A3B11449154ACA
:10521000B3F5806F08BF114613482AF05FFDE169BE
:105220000A4B124A1248002918BF1A4611462AF0A2
:1052300055FD002010BD0F49EEE700BF283B0020C0
:10524000C81C0020F8700408E6700408E870040820
:105250000C71040832BD0408E34404081F710408FB
:10526000EA700408F3700408327104081569040830
:1052700045710408EE7004082DE9F043C3B00DF148
:1052800006070023062A884616463B8000F2B680B1
:105290005A23D340DB0707D53B46FF220121404676
:1052A00014F0D3F8044640BB032E0BDC012E0CDCBB
:1052B0000022013E052E00F2A480DFE806F0223C29
:1052C00043637B7F731F012BF2D800250DF1080982
:1052D00009EB0503FF220021404614F0C1F8044603
:1052E00028B90135B5F5807FF2D1AAB2E1E740F2E5
:1052F0003D13984201D1002DF7D1204643B0BDE8BF
:10530000F0833A884048642302A90EF0B5FC0446B5
:105310000028F2D102AD3B88A34201DC0024ECE777
:1053200014B12C202AF020FD15F8011B37482AF073
:10533000D5FC0134EFE73448642302A90EF04EFC9B
:105340000446DAE73048642302A90EF047FC04461D
:105350000028D2D13A882C48642302A90EF08CFC94
:1053600004460028C9D102AD3B88A342D6DD14B162
:105370002C202AF0F9FC15F8011B24482AF0AEFC79
:105380000134F1E73A882248642302A90EF074FC44
:1053900004460028B1D102AD3B88A342BEDD14B162
:1053A0002C202AF0E1FC15F8011B18482AF096FC85
:1053B0000134F1E71648642302A9BFE714486423C7
:1053C00002A90EF00BFC0446002896D13A8810483A
:1053D000642302A90EF050FC044600288DD102ADD2
:1053E0003B88A3429ADD14B12C202AF0BDFC15F8AD
:1053F000011B06482AF072FC0134F1E7032A7FF70B
:1054000057AF012479E700BF283B0020015704086B
:10541000C81C002007B50846032A32D8DFE802F08E
:105420000215212F0DF1070113F0C8FD50B99DF8A9
:105430000730154AB3FA83F35B09DB03D3611046E7
:105440000EF098FC03B05DF804FB0F4BDB690F48CE
:10545000B3F5004F14BF102108212AF03FFC0020B3
:10546000F0E70DF1070113F0A9FD0028EAD19DF83E
:105470000730074AB3FA83F35B09DB03DEE7044B2B
:10548000E4E71620DEE700BF283B0020587104083F
:10549000C81C002007B50846032A50D8DFE802F0F0
:1054A00002212F4B0DF107030222002113F0D8FF38
:1054B00038B99DF807303BB9224A136121480EF0F4
:1054C00059FC03B05DF804FB012B04D11D4B4FF4D4
:1054D000C0621A61F2E7022BF0D11A4B4FF48062DE
:1054E000F7E7184B1B6943B31749184AB3F5806FA8
:1054F00008BF114616482AF0F1FB0020E1E70DF144
:1055000007030222002113F0ABFF0028D9D19DF838
:1055100007301BB90F4A13610E48D0E7012B04D1A5
:105520000C4B4FF4C0621A61F6E7022BF4D1094B21
:105530004FF48062F7E7074BD4E70749DAE7162014
:10554000BFE700BF283B0020EA700408F37004089E
:1055500039710408C81C0020EE70040807B5023A2F
:105560000846032A21D8DFE802F0021722320DF1A3
:1055700007030222012113F073FF50B99DF8073091
:10558000144A013B18BF01235B03D36010460EF0A1
:10559000F1FB03B05DF804FB0E4BDB680E48002BFB
:1055A00014BF022101212AF099FB0020F1E70DF13F
:1055B00007030222012113F053FF0028E9D19DF8CF
:1055C0000730064A013B18BF01235B03DDE7034BAD
:1055D000E3E700BF283B002069710408C81C0020D5
:1055E00007B50846032A31D8DFE802F00215202E5D
:1055F0000DF1070113F0E2FC50B99DF80730144A91
:10560000003B18BF01231B03936010460EF0B2FB52
:1056100003B05DF804FB0E4B9B680E48002B14BFD3
:10562000092108212AF05AFB0020F1E70DF10701BA
:1056300013F0C4FC0028EBD19DF80730064A003B6C
:1056400018BF01231B03DFE7034BE5E71620DFE765
:10565000283B002076710408C81C0020022A37B5B8
:105660000846144601D0042A1DD1304D01AB2A460C
:10567000002113F0A3FE00284ED10199B1F5614F2E
:105680000ED023D8B1F5165F0AD016D8B1F5166F33
:1056900006D00FD8B1F5967F02D0B1F5966F42D102
:1056A00023482AF01BFB023C032C34D8DFE804F02B
:1056B000272E3639B1F5965FF1E7B1F5964FEFD069
:1056C000B1F5164FECD0B1F5615FE8E7194B99429F
:1056D000E6D00CD8B1F5E12FE2D005D8B1F5E13F25
:1056E000DED0B1F5613FDAE7B1F5612FD7E7124BB4
:1056F0009942D5D0A942D3D0104B9942CFE7019B14
:105700000F4A536010460EF035FB05E00C4B59680C
:105710000C482AF0E3FA002003B030BD019B0A4A8E
:10572000EFE7094BF3E71620F6E700BFA0252600B8
:105730008B71040840420F0080841E0060E3160055
:10574000283B0020A1710408C81C0020032A08B5CA
:1057500003D0042A05D0002008BD034805F0B6FB9D
:10576000F9E7FFF72DFDF6E7283B0020012A08B5F1
:1057700003D0022A05D0002008BD034805F03AFBFB
:10578000F9E7FFF7F3FCF6E7283B0020034B1A7814
:10579000FF2A04BF00221A70704700BF401D00207E
:1057A00010B5044B044800241C702AF03BFB204633
:1057B00010BD00BF401D00203377040807B500234B
:1057C00008460DF107018DF8073013F0F7FB9DF83F
:1057D00007100348012200F0A5FB03B05DF804FBAD
:1057E000401D002008B500F0C5FC002008BD0000E9
:1057F00008B50348042113F0DDF9002008BD00BFFF
:10580000401D002007B54FF0FF330193084601AB60
:105810004FF48062002113F095FD019A04480123A2
:105820004FF4805100F0E2FA03B05DF804FB00BFD2
:10583000401D00200346B3F5867F084611460BD075
:10584000B3F58B7F024605D0B3F5817F07D10548BC
:105850002AF044BA0448FBE704482AF03FBA044857
:105860002AF03CBA9A770408B2770408CE77040885
:10587000E877040870B590B008464022694613F0F6
:105880007FFB054610BB2E216846FFF77FFF2AF0FD
:10589000EBFD0446A8B305704FF4805028F090F853
:1058A0000423064602466946194812F079FD10B1F4
:1058B000184A694607E001342146304612F0B6FF27
:1058C00038B1144A2146FFF7B5FF0125284610B02C
:1058D00070BD0F48694612F0A9FF10B1B0F5817F85
:1058E000E6D10B484FF480533246694613F05AF91B
:1058F0000028DDD1304628F06BF807482AF092FAEC
:10590000E4E70348694612F091FF0028F5D0CFE79D
